{
  "transactions": [
    {
      "hash": "0xb9f79e92c46534f98554f0ebd151eb6bdc1cf51b15010b980ded28c75432edd9",
      "transactionType": "CALL",
      "contractName": null,
      "contractAddress": "0x036cbd53842c5426634e7929541ec2318f3dcf7e",
      "function": "approve(address,uint256)",
      "arguments": [
        "0x27F971cb582BF9E50F397e4d29a5C7A34f11faA2",
        "3000000"
      ],
      "transaction": {
        "from": "0x73d43dd9ac2c0fd004286f7a13f51bec163efb2c",
        "to": "0x036cbd53842c5426634e7929541ec2318f3dcf7e",
        "gas": "0x12b1b",
        "value": "0x0",
        "input": "0x095ea7b300000000000000000000000027f971cb582bf9e50f397e4d29a5c7a34f11faa200000000000000000000000000000000000000000000000000000000002dc6c0",
        "nonce": "0x303",
        "chainId": "0x14a34"
      },
      "additionalContracts": [],
      "isFixedGasLimit": false
    },
    {
      "hash": "0x3faeaade1a15ec32f7192b633214a5301164bc15dff34542558f4c23a95ed66a",
      "transactionType": "CALL",
      "contractName": null,
      "contractAddress": "0x4200000000000000000000000000000000000006",
      "function": "approve(address,uint256)",
      "arguments": [
        "0x27F971cb582BF9E50F397e4d29a5C7A34f11faA2",
        "1000000000000000"
      ],
      "transaction": {
        "from": "0x73d43dd9ac2c0fd004286f7a13f51bec163efb2c",
        "to": "0x4200000000000000000000000000000000000006",
        "gas": "0xf85b",
        "value": "0x0",
        "input": "0x095ea7b300000000000000000000000027f971cb582bf9e50f397e4d29a5c7a34f11faa200000000000000000000000000000000000000000000000000038d7ea4c68000",
        "nonce": "0x304",
        "chainId": "0x14a34"
      },
      "additionalContracts": [],
      "isFixedGasLimit": false
    },
    {
      "hash": "0x934449bc170fdd85aa16cedb709692959573adf320ee103d05db8e52297a1734",
      "transactionType": "CALL",
      "contractName": null,
      "contractAddress": "0x27f971cb582bf9e50f397e4d29a5c7a34f11faa2",
      "function": "mint((address,address,uint24,int24,int24,uint256,uint256,uint256,uint256,address,uint256))",
      "arguments": [
        "(0x036CbD53842c5426634e7929541eC2318f3dCF7e, 0x4200000000000000000000000000000000000006, 3000, -887220, 887220, 3000000, 1000000000000000, 0, 0, 0x73D43dd9Ac2C0Fd004286F7a13F51bec163efB2C, 1760553198)"
      ],
      "transaction": {
        "from": "0x73d43dd9ac2c0fd004286f7a13f51bec163efb2c",
        "to": "0x27f971cb582bf9e50f397e4d29a5c7a34f11faa2",
        "gas": "0x8937b",
        "value": "0x0",
        "input": "0x88316456000000000000000000000000036cbd53842c5426634e7929541ec2318f3dcf7e00000000000000000000000042000000000000000000000000000000000000060000000000000000000000000000000000000000000000000000000000000bb8fffffffffffffffffffffffffffffffffffffffffffffffffffffffffff2764c00000000000000000000000000000000000000000000000000000000000d89b400000000000000000000000000000000000000000000000000000000002dc6c000000000000000000000000000000000000000000000000000038d7ea4c680000000000000000000000000000000000000000000000000000000000000000000000000000000000000000000000000000000000000000000000000000000000000000000000000000000000073d43dd9ac2c0fd004286f7a13f51bec163efb2c0000000000000000000000000000000000000000000000000000000068efe8ee",
        "nonce": "0x305",
        "chainId": "0x14a34"
      },
      "additionalContracts": [],
      "isFixedGasLimit": false
    }
  ],
  "receipts": [
    {
      "status": "0x1",
      "cumulativeGasUsed": "0x6c73f5",
      "logs": [
        {
          "address": "0x036cbd53842c5426634e7929541ec2318f3dcf7e",
          "topics": [
            "0x8c5be1e5ebec7d5bd14f71427d1e84f3dd0314c0f7b2291e5b200ac8c7c3b925",
            "0x00000000000000000000000073d43dd9ac2c0fd004286f7a13f51bec163efb2c",
            "0x00000000000000000000000027f971cb582bf9e50f397e4d29a5c7a34f11faa2"
          ],
          "data": "0x00000000000000000000000000000000000000000000000000000000002dc6c0",
          "blockHash": "0xe5185e61038995f9ca5c3cef731b933b7ebdde59492b1d764d9a7329540931db",
          "blockNumber": "0x1ee447c",
          "blockTimestamp": "0x68efe7d8",
          "transactionHash": "0xb9f79e92c46534f98554f0ebd151eb6bdc1cf51b15010b980ded28c75432edd9",
          "transactionIndex": "0x9",
          "logIndex": "0x81",
          "removed": false
        }
      ],
      "logsBloom": "0x00000000040000000000000000000000000000000000400000000000000000000000000000000000000000000000000000000000000000000000010000200000000000000000000000000000000000000000000000000000000000000000000800000000000000000000000000000000000000000000000010000000000000000000000000000000000100000000000008000000000000000000000000000000020000000000000000000000000000000000000000000020000000000000000000000000000000000000000000000000000000000000000000000000000000000010000000000000000000000020000000000000000000000000000000000000",
      "type": "0x2",
      "transactionHash": "0xb9f79e92c46534f98554f0ebd151eb6bdc1cf51b15010b980ded28c75432edd9",
      "transactionIndex": "0x9",
      "blockHash": "0xe5185e61038995f9ca5c3cef731b933b7ebdde59492b1d764d9a7329540931db",
      "blockNumber": "0x1ee447c",
      "gasUsed": "0xd88d",
      "effectiveGasPrice": "0xf42a5",
      "from": "0x73d43dd9ac2c0fd004286f7a13f51bec163efb2c",
      "to": "0x036cbd53842c5426634e7929541ec2318f3dcf7e",
      "contractAddress": null,
      "l1BaseFeeScalar": "0x44d",
      "l1BlobBaseFee": "0x1",
      "l1BlobBaseFeeScalar": "0xa118b",
      "l1Fee": "0x55",
      "l1GasPrice": "0xb",
      "l1GasUsed": "0x640"
    },
    {
      "status": "0x1",
      "cumulativeGasUsed": "0x6d27c4",
      "logs": [
        {
          "address": "0x4200000000000000000000000000000000000006",
          "topics": [
            "0x8c5be1e5ebec7d5bd14f71427d1e84f3dd0314c0f7b2291e5b200ac8c7c3b925",
            "0x00000000000000000000000073d43dd9ac2c0fd004286f7a13f51bec163efb2c",
            "0x00000000000000000000000027f971cb582bf9e50f397e4d29a5c7a34f11faa2"
          ],
          "data": "0x00000000000000000000000000000000000000000000000000038d7ea4c68000",
          "blockHash": "0xe5185e61038995f9ca5c3cef731b933b7ebdde59492b1d764d9a7329540931db",
          "blockNumber": "0x1ee447c",
          "blockTimestamp": "0x68efe7d8",
          "transactionHash": "0x3faeaade1a15ec32f7192b633214a5301164bc15dff34542558f4c23a95ed66a",
          "transactionIndex": "0xa",
          "logIndex": "0x82",
          "removed": false
        }
      ],
      "logsBloom": "0x00000000000000000000000000000000000000000000400000040000000000000000000000000000000000100000000000000000000000000000010000200000000000000000000000000000000000000000000000000000000000000000000000000000000000000000000000000000000000000000000010000000000000000000000000000000000100000000000008000000002000000000000000000000020000000000000000000000000000000000000000000020000000000000000000000000000000000000000000000000000000000000000000000000000000000010000000000000000000000000000000000000000000000000000000000000",
      "type": "0x2",
      "transactionHash": "0x3faeaade1a15ec32f7192b633214a5301164bc15dff34542558f4c23a95ed66a",
      "transactionIndex": "0xa",
      "blockHash": "0xe5185e61038995f9ca5c3cef731b933b7ebdde59492b1d764d9a7329540931db",
      "blockNumber": "0x1ee447c",
      "gasUsed": "0xb3cf",
      "effectiveGasPrice": "0xf42a5",
      "from": "0x73d43dd9ac2c0fd004286f7a13f51bec163efb2c",
      "to": "0x4200000000000000000000000000000000000006",
      "contractAddress": null,
      "l1BaseFeeScalar": "0x44d",
      "l1BlobBaseFee": "0x1",
      "l1BlobBaseFeeScalar": "0xa118b",
      "l1Fee": "0x55",
      "l1GasPrice": "0xb",
      "l1GasUsed": "0x640"
    },
    {
      "status": "0x1",
      "cumulativeGasUsed": "0x735d42",
      "logs": [
        {
          "address": "0x036cbd53842c5426634e7929541ec2318f3dcf7e",
          "topics": [
            "0xddf252ad1be2c89b69c2b068fc378daa952ba7f163c4a11628f55a4df523b3ef",
            "0x00000000000000000000000073d43dd9ac2c0fd004286f7a13f51bec163efb2c",
            "0x00000000000000000000000046880b404cd35c165eddeff7421019f8dd25f4ad"
          ],
          "data": "0x000000000000000000000000000000000000000000000000000000000027ac11",
          "blockHash": "0xe5185e61038995f9ca5c3cef731b933b7ebdde59492b1d764d9a7329540931db",
          "blockNumber": "0x1ee447c",
          "blockTimestamp": "0x68efe7d8",
          "transactionHash": "0x934449bc170fdd85aa16cedb709692959573adf320ee103d05db8e52297a1734",
          "transactionIndex": "0xb",
          "logIndex": "0x83",
          "removed": false
        },
        {
          "address": "0x4200000000000000000000000000000000000006",
          "topics": [
            "0xddf252ad1be2c89b69c2b068fc378daa952ba7f163c4a11628f55a4df523b3ef",
            "0x00000000000000000000000073d43dd9ac2c0fd004286f7a13f51bec163efb2c",
            "0x00000000000000000000000046880b404cd35c165eddeff7421019f8dd25f4ad"
          ],
          "data": "0x00000000000000000000000000000000000000000000000000038d7ea4c66c7c",
          "blockHash": "0xe5185e61038995f9ca5c3cef731b933b7ebdde59492b1d764d9a7329540931db",
          "blockNumber": "0x1ee447c",
          "blockTimestamp": "0x68efe7d8",
          "transactionHash": "0x934449bc170fdd85aa16cedb709692959573adf320ee103d05db8e52297a1734",
          "transactionIndex": "0xb",
          "logIndex": "0x84",
          "removed": false
        },
        {
          "address": "0x46880b404cd35c165eddeff7421019f8dd25f4ad",
          "topics": [
            "0x7a53080ba414158be7ec69b987b5fb7d07dee101fe85488f0853ae16239d0bde",
            "0x00000000000000000000000027f971cb582bf9e50f397e4d29a5c7a34f11faa2",
            "0xfffffffffffffffffffffffffffffffffffffffffffffffffffffffffff2764c",
            "0x00000000000000000000000000000000000000000000000000000000000d89b4"
          ],
          "data": "0x00000000000000000000000027f971cb582bf9e50f397e4d29a5c7a34f11faa20000000000000000000000000000000000000000000000000000000bdf397e70000000000000000000000000000000000000000000000000000000000027ac1100000000000000000000000000000000000000000000000000038d7ea4c66c7c",
          "blockHash": "0xe5185e61038995f9ca5c3cef731b933b7ebdde59492b1d764d9a7329540931db",
          "blockNumber": "0x1ee447c",
          "blockTimestamp": "0x68efe7d8",
          "transactionHash": "0x934449bc170fdd85aa16cedb709692959573adf320ee103d05db8e52297a1734",
          "transactionIndex": "0xb",
          "logIndex": "0x85",
          "removed": false
        },
        {
          "address": "0x27f971cb582bf9e50f397e4d29a5c7a34f11faa2",
          "topics": [
            "0xddf252ad1be2c89b69c2b068fc378daa952ba7f163c4a11628f55a4df523b3ef",
            "0x0000000000000000000000000000000000000000000000000000000000000000",
            "0x00000000000000000000000073d43dd9ac2c0fd004286f7a13f51bec163efb2c",
            "0x000000000000000000000000000000000000000000000000000000000001156a"
          ],
          "data": "0x",
          "blockHash": "0xe5185e61038995f9ca5c3cef731b933b7ebdde59492b1d764d9a7329540931db",
          "blockNumber": "0x1ee447c",
          "blockTimestamp": "0x68efe7d8",
          "transactionHash": "0x934449bc170fdd85aa16cedb709692959573adf320ee103d05db8e52297a1734",
          "transactionIndex": "0xb",
          "logIndex": "0x86",
          "removed": false
        },
        {
          "address": "0x27f971cb582bf9e50f397e4d29a5c7a34f11faa2",
          "topics": [
            "0x3067048beee31b25b2f1681f88dac838c8bba36af25bfb2b7cf7473a5847e35f",
            "0x000000000000000000000000000000000000000000000000000000000001156a"
          ],
          "data": "0x0000000000000000000000000000000000000000000000000000000bdf397e70000000000000000000000000000000000000000000000000000000000027ac1100000000000000000000000000000000000000000000000000038d7ea4c66c7c",
          "blockHash": "0xe5185e61038995f9ca5c3cef731b933b7ebdde59492b1d764d9a7329540931db",
          "blockNumber": "0x1ee447c",
          "blockTimestamp": "0x68efe7d8",
          "transactionHash": "0x934449bc170fdd85aa16cedb709692959573adf320ee103d05db8e52297a1734",
          "transactionIndex": "0xb",
          "logIndex": "0x87",
          "removed": false
        }
      ],
      "logsBloom": "0x00000000040000000000100000000400000000000000400000040000004000000000400000000000002000100000000000000000000000000400410000080000000000000000000000000008080000000000000000000000000000000000000800000000020000000000000000000800000000000800000010000010000000000000000008000000000100000010000008000008002000000000002000000000000200804001000000000000000000020000000000000020000000008000000000000002020000000000080000000000000000000000000000000000000120000000000000000000000000000020000000000000000000000000000000000800",
      "type": "0x2",
      "transactionHash": "0x934449bc170fdd85aa16cedb709692959573adf320ee103d05db8e52297a1734",
      "transactionIndex": "0xb",
      "blockHash": "0xe5185e61038995f9ca5c3cef731b933b7ebdde59492b1d764d9a7329540931db",
      "blockNumber": "0x1ee447c",
      "gasUsed": "0x6357e",
      "effectiveGasPrice": "0xf42a5",
      "from": "0x73d43dd9ac2c0fd004286f7a13f51bec163efb2c",
      "to": "0x27f971cb582bf9e50f397e4d29a5c7a34f11faa2",
      "contractAddress": null,
      "l1BaseFeeScalar": "0x44d",
      "l1BlobBaseFee": "0x1",
      "l1BlobBaseFeeScalar": "0xa118b",
      "l1Fee": "0x8c",
      "l1GasPrice": "0xb",
      "l1GasUsed": "0xa40"
    }
  ],
  "libraries": [],
  "pending": [],
  "returns": {},
  "timestamp": 1760552921549,
  "chain": 84532,
  "commit": null
}