{
  "transactions": [
    {
      "hash": "0xf579b5fd724029ef797e028eb79a66ed7dc1c153ac57680b92f23daec8a1ab99",
      "transactionType": "CALL",
      "contractName": null,
      "contractAddress": "0x036cbd53842c5426634e7929541ec2318f3dcf7e",
      "function": "approve(address,uint256)",
      "arguments": [
        "0xc8c309E34ef4fd87d869dd6E856934E3497A8965",
        "1000000"
      ],
      "transaction": {
        "from": "0x73d43dd9ac2c0fd004286f7a13f51bec163efb2c",
        "to": "0x036cbd53842c5426634e7929541ec2318f3dcf7e",
        "gas": "0x12b1b",
        "value": "0x0",
        "input": "0x095ea7b3000000000000000000000000c8c309e34ef4fd87d869dd6e856934e3497a896500000000000000000000000000000000000000000000000000000000000f4240",
        "nonce": "0x3a8",
        "chainId": "0x14a34"
      },
      "additionalContracts": [],
      "isFixedGasLimit": false
    },
    {
      "hash": "0x28e1c6d7bd9385c4d88fb9d091bb19bff8e44fdd5ef6d757991ad44a3d3feaee",
      "transactionType": "CALL",
      "contractName": null,
      "contractAddress": "0xc8c309e34ef4fd87d869dd6e856934e3497a8965",
      "function": "deposit(address,uint256)",
      "arguments": [
        "0x036CbD53842c5426634e7929541eC2318f3dCF7e",
        "1000000"
      ],
      "transaction": {
        "from": "0x73d43dd9ac2c0fd004286f7a13f51bec163efb2c",
        "to": "0xc8c309e34ef4fd87d869dd6e856934e3497a8965",
        "gas": "0x184d8",
        "value": "0x0",
        "input": "0x47e7ef24000000000000000000000000036cbd53842c5426634e7929541ec2318f3dcf7e00000000000000000000000000000000000000000000000000000000000f4240",
        "nonce": "0x3a9",
        "chainId": "0x14a34"
      },
      "additionalContracts": [],
      "isFixedGasLimit": false
    },
    {
      "hash": "0x8bb06310899064724a73c8e841a2857503f09a70cba8ce316e19e937ade2667a",
      "transactionType": "CALL",
      "contractName": null,
      "contractAddress": "0x4200000000000000000000000000000000000006",
      "function": "approve(address,uint256)",
      "arguments": [
        "0xc8c309E34ef4fd87d869dd6E856934E3497A8965",
        "10000000000"
      ],
      "transaction": {
        "from": "0x73d43dd9ac2c0fd004286f7a13f51bec163efb2c",
        "to": "0x4200000000000000000000000000000000000006",
        "gas": "0xf83a",
        "value": "0x0",
        "input": "0x095ea7b3000000000000000000000000c8c309e34ef4fd87d869dd6e856934e3497a896500000000000000000000000000000000000000000000000000000002540be400",
        "nonce": "0x3aa",
        "chainId": "0x14a34"
      },
      "additionalContracts": [],
      "isFixedGasLimit": false
    },
    {
      "hash": "0x5934070d7912b600f6246a455a0f5f28fb7a531f70068e6aefb820b62ebfb3ed",
      "transactionType": "CALL",
      "contractName": null,
      "contractAddress": "0xc8c309e34ef4fd87d869dd6e856934e3497a8965",
      "function": "deposit(address,uint256)",
      "arguments": [
        "0x4200000000000000000000000000000000000006",
        "10000000000"
      ],
      "transaction": {
        "from": "0x73d43dd9ac2c0fd004286f7a13f51bec163efb2c",
        "to": "0xc8c309e34ef4fd87d869dd6e856934e3497a8965",
        "gas": "0x134af",
        "value": "0x0",
        "input": "0x47e7ef24000000000000000000000000420000000000000000000000000000000000000600000000000000000000000000000000000000000000000000000002540be400",
        "nonce": "0x3ab",
        "chainId": "0x14a34"
      },
      "additionalContracts": [],
      "isFixedGasLimit": false
    },
    {
      "hash": "0x211065eb891b9c97183da89f586a1d1a7d3b110d38595187d3daa2253fb4992a",
      "transactionType": "CALL",
      "contractName": null,
      "contractAddress": "0x036cbd53842c5426634e7929541ec2318f3dcf7e",
      "function": "approve(address,uint256)",
      "arguments": [
        "0x5b9118131ff1F1c8f097828182E0560241CB9BA1",
        "500000"
      ],
      "transaction": {
        "from": "0x73d43dd9ac2c0fd004286f7a13f51bec163efb2c",
        "to": "0x036cbd53842c5426634e7929541ec2318f3dcf7e",
        "gas": "0xdb03",
        "value": "0x0",
        "input": "0x095ea7b30000000000000000000000005b9118131ff1f1c8f097828182e0560241cb9ba1000000000000000000000000000000000000000000000000000000000007a120",
        "nonce": "0x3ac",
        "chainId": "0x14a34"
      },
      "additionalContracts": [],
      "isFixedGasLimit": false
    },
    {
      "hash": "0x3418adf932071431c7dacdf88525c25bfffd75dd063777fb8dfb1d54682e7148",
      "transactionType": "CALL",
      "contractName": null,
      "contractAddress": "0x4200000000000000000000000000000000000006",
      "function": "approve(address,uint256)",
      "arguments": [
        "0x5b9118131ff1F1c8f097828182E0560241CB9BA1",
        "5000000000"
      ],
      "transaction": {
        "from": "0x73d43dd9ac2c0fd004286f7a13f51bec163efb2c",
        "to": "0x4200000000000000000000000000000000000006",
        "gas": "0xf83a",
        "value": "0x0",
        "input": "0x095ea7b30000000000000000000000005b9118131ff1f1c8f097828182e0560241cb9ba1000000000000000000000000000000000000000000000000000000012a05f200",
        "nonce": "0x3ad",
        "chainId": "0x14a34"
      },
      "additionalContracts": [],
      "isFixedGasLimit": false
    },
    {
      "hash": "0x0d6916be87c25b9048792051d881954069e60dbd12714c5f3b9d3c08be6f54a9",
      "transactionType": "CALL",
      "contractName": "TribeLeaderTerminal",
      "contractAddress": "0x5b9118131ff1f1c8f097828182e0560241cb9ba1",
      "function": "addLiquidityUniswapV3(address,address,uint24,int24,int24,uint256,uint256,uint256,uint256)",
      "arguments": [
        "0x036CbD53842c5426634e7929541eC2318f3dCF7e",
        "0x4200000000000000000000000000000000000006",
        "3000",
        "-887220",
        "887220",
        "500000",
        "5000000000",
        "0",
        "0"
      ],
      "transaction": {
        "from": "0x73d43dd9ac2c0fd004286f7a13f51bec163efb2c",
        "to": "0x5b9118131ff1f1c8f097828182e0560241cb9ba1",
        "gas": "0x17add4",
        "value": "0x0",
        "input": "0xe40345e2000000000000000000000000036cbd53842c5426634e7929541ec2318f3dcf7e00000000000000000000000042000000000000000000000000000000000000060000000000000000000000000000000000000000000000000000000000000bb8fffffffffffffffffffffffffffffffffffffffffffffffffffffffffff2764c00000000000000000000000000000000000000000000000000000000000d89b4000000000000000000000000000000000000000000000000000000000007a120000000000000000000000000000000000000000000000000000000012a05f20000000000000000000000000000000000000000000000000000000000000000000000000000000000000000000000000000000000000000000000000000000000",
        "nonce": "0x3ae",
        "chainId": "0x14a34"
      },
      "additionalContracts": [],
      "isFixedGasLimit": false
    }
  ],
  "receipts": [
    {
      "status": "0x1",
      "cumulativeGasUsed": "0x448be1",
      "logs": [
        {
          "address": "0x036cbd53842c5426634e7929541ec2318f3dcf7e",
          "topics": [
            "0x8c5be1e5ebec7d5bd14f71427d1e84f3dd0314c0f7b2291e5b200ac8c7c3b925",
            "0x00000000000000000000000073d43dd9ac2c0fd004286f7a13f51bec163efb2c",
            "0x000000000000000000000000c8c309e34ef4fd87d869dd6e856934e3497a8965"
          ],
          "data": "0x00000000000000000000000000000000000000000000000000000000000f4240",
          "blockHash": "0xec171577d59ad8116052183c37feecea9d664a4535b6fca3885b8dc8c823efdf",
          "blockNumber": "0x1f40c16",
          "blockTimestamp": "0x68fb770c",
          "transactionHash": "0xf579b5fd724029ef797e028eb79a66ed7dc1c153ac57680b92f23daec8a1ab99",
          "transactionIndex": "0x9",
          "logIndex": "0xb2",
          "removed": false
        }
      ],
      "logsBloom": "0x00000000040000000000000000000000000000000000000000000000000000000000000000000000000000000000000000000000000000010000000000200000000000000000000000000000000000000000000000000000000000000000000800000000000000000000000000000000000000000000000010000000000000040000000000000000000100000000000008000000000000000000000000000000020000000000000000000000000000000000000000000000000000000000000000000000000000000008000000000000000000000000000000000000000000000010000000000000000000000020000000000000000000000000000000000000",
      "type": "0x2",
      "transactionHash": "0xf579b5fd724029ef797e028eb79a66ed7dc1c153ac57680b92f23daec8a1ab99",
      "transactionIndex": "0x9",
      "blockHash": "0xec171577d59ad8116052183c37feecea9d664a4535b6fca3885b8dc8c823efdf",
      "blockNumber": "0x1f40c16",
      "gasUsed": "0xd88d",
      "effectiveGasPrice": "0xf428b",
      "from": "0x73d43dd9ac2c0fd004286f7a13f51bec163efb2c",
      "to": "0x036cbd53842c5426634e7929541ec2318f3dcf7e",
      "contractAddress": null,
      "l1BaseFeeScalar": "0x44d",
      "l1BlobBaseFee": "0x1",
      "l1BlobBaseFeeScalar": "0xa118b",
      "l1Fee": "0x53",
      "l1GasPrice": "0xa",
      "l1GasUsed": "0x640"
    },
    {
      "status": "0x1",
      "cumulativeGasUsed": "0x4595c2",
      "logs": [
        {
          "address": "0x036cbd53842c5426634e7929541ec2318f3dcf7e",
          "topics": [
            "0xddf252ad1be2c89b69c2b068fc378daa952ba7f163c4a11628f55a4df523b3ef",
            "0x00000000000000000000000073d43dd9ac2c0fd004286f7a13f51bec163efb2c",
            "0x000000000000000000000000c8c309e34ef4fd87d869dd6e856934e3497a8965"
          ],
          "data": "0x00000000000000000000000000000000000000000000000000000000000f4240",
          "blockHash": "0xec171577d59ad8116052183c37feecea9d664a4535b6fca3885b8dc8c823efdf",
          "blockNumber": "0x1f40c16",
          "blockTimestamp": "0x68fb770c",
          "transactionHash": "0x28e1c6d7bd9385c4d88fb9d091bb19bff8e44fdd5ef6d757991ad44a3d3feaee",
          "transactionIndex": "0xa",
          "logIndex": "0xb3",
          "removed": false
        },
        {
          "address": "0xc8c309e34ef4fd87d869dd6e856934e3497a8965",
          "topics": [
            "0x2da466a7b24304f47e87fa2e1e5a81b9831ce54fec19055ce277ca2f39ba42c4",
            "0x00000000000000000000000073d43dd9ac2c0fd004286f7a13f51bec163efb2c"
          ],
          "data": "0x00000000000000000000000000000000000000000000000000000000000f4240",
          "blockHash": "0xec171577d59ad8116052183c37feecea9d664a4535b6fca3885b8dc8c823efdf",
          "blockNumber": "0x1f40c16",
          "blockTimestamp": "0x68fb770c",
          "transactionHash": "0x28e1c6d7bd9385c4d88fb9d091bb19bff8e44fdd5ef6d757991ad44a3d3feaee",
          "transactionIndex": "0xa",
          "logIndex": "0xb4",
          "removed": false
        }
      ],
      "logsBloom": "0x00000000040000000000000000000000000000000000000000000000000000000000000000000000000000000000000000000000000000010000000000000000000000000000000000000008000000000000000000000000000000000000200804000000000000004000000000000000000000000000000010000010000200040000000000000000000100000000000008000000000000000000000000000000000000000000000000000000000000000000000000000000000000000000000000000002000000000008000000000000000400000000000000000000000000000040000000000000000000000020000000000000000000000000000000000000",
      "type": "0x2",
      "transactionHash": "0x28e1c6d7bd9385c4d88fb9d091bb19bff8e44fdd5ef6d757991ad44a3d3feaee",
      "transactionIndex": "0xa",
      "blockHash": "0xec171577d59ad8116052183c37feecea9d664a4535b6fca3885b8dc8c823efdf",
      "blockNumber": "0x1f40c16",
      "gasUsed": "0x109e1",
      "effectiveGasPrice": "0xf428b",
      "from": "0x73d43dd9ac2c0fd004286f7a13f51bec163efb2c",
      "to": "0xc8c309e34ef4fd87d869dd6e856934e3497a8965",
      "contractAddress": null,
      "l1BaseFeeScalar": "0x44d",
      "l1BlobBaseFee": "0x1",
      "l1BlobBaseFeeScalar": "0xa118b",
      "l1Fee": "0x53",
      "l1GasPrice": "0xa",
      "l1GasUsed": "0x640"
    },
    {
      "status": "0x1",
      "cumulativeGasUsed": "0x49e124",
      "logs": [
        {
          "address": "0x4200000000000000000000000000000000000006",
          "topics": [
            "0x8c5be1e5ebec7d5bd14f71427d1e84f3dd0314c0f7b2291e5b200ac8c7c3b925",
            "0x00000000000000000000000073d43dd9ac2c0fd004286f7a13f51bec163efb2c",
            "0x000000000000000000000000c8c309e34ef4fd87d869dd6e856934e3497a8965"
          ],
          "data": "0x00000000000000000000000000000000000000000000000000000002540be400",
          "blockHash": "0xec171577d59ad8116052183c37feecea9d664a4535b6fca3885b8dc8c823efdf",
          "blockNumber": "0x1f40c16",
          "blockTimestamp": "0x68fb770c",
          "transactionHash": "0x8bb06310899064724a73c8e841a2857503f09a70cba8ce316e19e937ade2667a",
          "transactionIndex": "0xc",
          "logIndex": "0xb8",
          "removed": false
        }
      ],
      "logsBloom": "0x00000000000000000000000000000000000000000000000000040000000000000000000000000000000000100000000000000000000000010000000000200000000000000000000000000000000000000000000000000000000000000000000000000000000000000000000000000000000000000000000010000000000000040000000000000000000100000000000008000000002000000000000000000000020000000000000000000000000000000000000000000000000000000000000000000000000000000008000000000000000000000000000000000000000000000010000000000000000000000000000000000000000000000000000000000000",
      "type": "0x2",
      "transactionHash": "0x8bb06310899064724a73c8e841a2857503f09a70cba8ce316e19e937ade2667a",
      "transactionIndex": "0xc",
      "blockHash": "0xec171577d59ad8116052183c37feecea9d664a4535b6fca3885b8dc8c823efdf",
      "blockNumber": "0x1f40c16",
      "gasUsed": "0xb3b7",
      "effectiveGasPrice": "0xf428b",
      "from": "0x73d43dd9ac2c0fd004286f7a13f51bec163efb2c",
      "to": "0x4200000000000000000000000000000000000006",
      "contractAddress": null,
      "l1BaseFeeScalar": "0x44d",
      "l1BlobBaseFee": "0x1",
      "l1BlobBaseFeeScalar": "0xa118b",
      "l1Fee": "0x53",
      "l1GasPrice": "0xa",
      "l1GasUsed": "0x640"
    },
    {
      "status": "0x1",
      "cumulativeGasUsed": "0x4ab435",
      "logs": [
        {
          "address": "0x4200000000000000000000000000000000000006",
          "topics": [
            "0xddf252ad1be2c89b69c2b068fc378daa952ba7f163c4a11628f55a4df523b3ef",
            "0x00000000000000000000000073d43dd9ac2c0fd004286f7a13f51bec163efb2c",
            "0x000000000000000000000000c8c309e34ef4fd87d869dd6e856934e3497a8965"
          ],
          "data": "0x00000000000000000000000000000000000000000000000000000002540be400",
          "blockHash": "0xec171577d59ad8116052183c37feecea9d664a4535b6fca3885b8dc8c823efdf",
          "blockNumber": "0x1f40c16",
          "blockTimestamp": "0x68fb770c",
          "transactionHash": "0x5934070d7912b600f6246a455a0f5f28fb7a531f70068e6aefb820b62ebfb3ed",
          "transactionIndex": "0xd",
          "logIndex": "0xb9",
          "removed": false
        },
        {
          "address": "0xc8c309e34ef4fd87d869dd6e856934e3497a8965",
          "topics": [
            "0x2da466a7b24304f47e87fa2e1e5a81b9831ce54fec19055ce277ca2f39ba42c4",
            "0x00000000000000000000000073d43dd9ac2c0fd004286f7a13f51bec163efb2c"
          ],
          "data": "0x00000000000000000000000000000000000000000000000000000002540be400",
          "blockHash": "0xec171577d59ad8116052183c37feecea9d664a4535b6fca3885b8dc8c823efdf",
          "blockNumber": "0x1f40c16",
          "blockTimestamp": "0x68fb770c",
          "transactionHash": "0x5934070d7912b600f6246a455a0f5f28fb7a531f70068e6aefb820b62ebfb3ed",
          "transactionIndex": "0xd",
          "logIndex": "0xba",
          "removed": false
        }
      ],
      "logsBloom": "0x00000000000000000000000000000000000000000000000000040000000000000000000000000000000000100000000000000000000000010000000000000000000000000000000000000008000000000000000000000000000000000000200004000000000000004000000000000000000000000000000010000010000200040000000000000000000100000000000008000000002000000000000000000000000000000000000000000000000000000000000000000000000000000000000000000002000000000008000000000000000400000000000000000000000000000040000000000000000000000000000000000000000000000000000000000000",
      "type": "0x2",
      "transactionHash": "0x5934070d7912b600f6246a455a0f5f28fb7a531f70068e6aefb820b62ebfb3ed",
      "transactionIndex": "0xd",
      "blockHash": "0xec171577d59ad8116052183c37feecea9d664a4535b6fca3885b8dc8c823efdf",
      "blockNumber": "0x1f40c16",
      "gasUsed": "0xd311",
      "effectiveGasPrice": "0xf428b",
      "from": "0x73d43dd9ac2c0fd004286f7a13f51bec163efb2c",
      "to": "0xc8c309e34ef4fd87d869dd6e856934e3497a8965",
      "contractAddress": null,
      "l1BaseFeeScalar": "0x44d",
      "l1BlobBaseFee": "0x1",
      "l1BlobBaseFeeScalar": "0xa118b",
      "l1Fee": "0x53",
      "l1GasPrice": "0xa",
      "l1GasUsed": "0x640"
    },
    {
      "status": "0x1",
      "cumulativeGasUsed": "0x4b49f6",
      "logs": [
        {
          "address": "0x036cbd53842c5426634e7929541ec2318f3dcf7e",
          "topics": [
            "0x8c5be1e5ebec7d5bd14f71427d1e84f3dd0314c0f7b2291e5b200ac8c7c3b925",
            "0x00000000000000000000000073d43dd9ac2c0fd004286f7a13f51bec163efb2c",
            "0x0000000000000000000000005b9118131ff1f1c8f097828182e0560241cb9ba1"
          ],
          "data": "0x000000000000000000000000000000000000000000000000000000000007a120",
          "blockHash": "0xec171577d59ad8116052183c37feecea9d664a4535b6fca3885b8dc8c823efdf",
          "blockNumber": "0x1f40c16",
          "blockTimestamp": "0x68fb770c",
          "transactionHash": "0x211065eb891b9c97183da89f586a1d1a7d3b110d38595187d3daa2253fb4992a",
          "transactionIndex": "0xe",
          "logIndex": "0xbb",
          "removed": false
        }
      ],
      "logsBloom": "0x00000000040000000000000000000000000000000000000000000000000000000000000000000010000000000000000000000000000000000000000000200000000000000000100000000000000000000000000000000000000000000000000800000000000000000000000000000000000000000000000010000000000000000000000004000000000100000000000008000000000000000000000000000000020000000000000000000000000000000000000000000000000000000000000000000000000000000000000000000000000000000000000000000000000000000010000000000000000000000020000000000000000000000000000000000000",
      "type": "0x2",
      "transactionHash": "0x211065eb891b9c97183da89f586a1d1a7d3b110d38595187d3daa2253fb4992a",
      "transactionIndex": "0xe",
      "blockHash": "0xec171577d59ad8116052183c37feecea9d664a4535b6fca3885b8dc8c823efdf",
      "blockNumber": "0x1f40c16",
      "gasUsed": "0x95c1",
      "effectiveGasPrice": "0xf428b",
      "from": "0x73d43dd9ac2c0fd004286f7a13f51bec163efb2c",
      "to": "0x036cbd53842c5426634e7929541ec2318f3dcf7e",
      "contractAddress": null,
      "l1BaseFeeScalar": "0x44d",
      "l1BlobBaseFee": "0x1",
      "l1BlobBaseFeeScalar": "0xa118b",
      "l1Fee": "0x53",
      "l1GasPrice": "0xa",
      "l1GasUsed": "0x640"
    },
    {
      "status": "0x1",
      "cumulativeGasUsed": "0x4bfdad",
      "logs": [
        {
          "address": "0x4200000000000000000000000000000000000006",
          "topics": [
            "0x8c5be1e5ebec7d5bd14f71427d1e84f3dd0314c0f7b2291e5b200ac8c7c3b925",
            "0x00000000000000000000000073d43dd9ac2c0fd004286f7a13f51bec163efb2c",
            "0x0000000000000000000000005b9118131ff1f1c8f097828182e0560241cb9ba1"
          ],
          "data": "0x000000000000000000000000000000000000000000000000000000012a05f200",
          "blockHash": "0xec171577d59ad8116052183c37feecea9d664a4535b6fca3885b8dc8c823efdf",
          "blockNumber": "0x1f40c16",
          "blockTimestamp": "0x68fb770c",
          "transactionHash": "0x3418adf932071431c7dacdf88525c25bfffd75dd063777fb8dfb1d54682e7148",
          "transactionIndex": "0xf",
          "logIndex": "0xbc",
          "removed": false
        }
      ],
      "logsBloom": "0x00000000000000000000000000000000000000000000000000040000000000000000000000000010000000100000000000000000000000000000000000200000000000000000100000000000000000000000000000000000000000000000000000000000000000000000000000000000000000000000000010000000000000000000000004000000000100000000000008000000002000000000000000000000020000000000000000000000000000000000000000000000000000000000000000000000000000000000000000000000000000000000000000000000000000000010000000000000000000000000000000000000000000000000000000000000",
      "type": "0x2",
      "transactionHash": "0x3418adf932071431c7dacdf88525c25bfffd75dd063777fb8dfb1d54682e7148",
      "transactionIndex": "0xf",
      "blockHash": "0xec171577d59ad8116052183c37feecea9d664a4535b6fca3885b8dc8c823efdf",
      "blockNumber": "0x1f40c16",
      "gasUsed": "0xb3b7",
      "effectiveGasPrice": "0xf428b",
      "from": "0x73d43dd9ac2c0fd004286f7a13f51bec163efb2c",
      "to": "0x4200000000000000000000000000000000000006",
      "contractAddress": null,
      "l1BaseFeeScalar": "0x44d",
      "l1BlobBaseFee": "0x1",
      "l1BlobBaseFeeScalar": "0xa118b",
      "l1Fee": "0x53",
      "l1GasPrice": "0xa",
      "l1GasUsed": "0x640"
    },
    {
      "status": "0x1",
      "cumulativeGasUsed": "0x5d2255",
      "logs": [
        {
          "address": "0x036cbd53842c5426634e7929541ec2318f3dcf7e",
          "topics": [
            "0xddf252ad1be2c89b69c2b068fc378daa952ba7f163c4a11628f55a4df523b3ef",
            "0x00000000000000000000000073d43dd9ac2c0fd004286f7a13f51bec163efb2c",
            "0x00000000000000000000000059ef3234e328a150886758a6c529196d2f979e56"
          ],
          "data": "0x000000000000000000000000000000000000000000000000000000000007a120",
          "blockHash": "0xec171577d59ad8116052183c37feecea9d664a4535b6fca3885b8dc8c823efdf",
          "blockNumber": "0x1f40c16",
          "blockTimestamp": "0x68fb770c",
          "transactionHash": "0x0d6916be87c25b9048792051d881954069e60dbd12714c5f3b9d3c08be6f54a9",
          "transactionIndex": "0x10",
          "logIndex": "0xbd",
          "removed": false
        },
        {
          "address": "0x4200000000000000000000000000000000000006",
          "topics": [
            "0xddf252ad1be2c89b69c2b068fc378daa952ba7f163c4a11628f55a4df523b3ef",
            "0x00000000000000000000000073d43dd9ac2c0fd004286f7a13f51bec163efb2c",
            "0x00000000000000000000000059ef3234e328a150886758a6c529196d2f979e56"
          ],
          "data": "0x000000000000000000000000000000000000000000000000000000012a05f200",
          "blockHash": "0xec171577d59ad8116052183c37feecea9d664a4535b6fca3885b8dc8c823efdf",
          "blockNumber": "0x1f40c16",
          "blockTimestamp": "0x68fb770c",
          "transactionHash": "0x0d6916be87c25b9048792051d881954069e60dbd12714c5f3b9d3c08be6f54a9",
          "transactionIndex": "0x10",
          "logIndex": "0xbe",
          "removed": false
        },
        {
          "address": "0x036cbd53842c5426634e7929541ec2318f3dcf7e",
          "topics": [
            "0x8c5be1e5ebec7d5bd14f71427d1e84f3dd0314c0f7b2291e5b200ac8c7c3b925",
            "0x00000000000000000000000059ef3234e328a150886758a6c529196d2f979e56",
            "0x00000000000000000000000027f971cb582bf9e50f397e4d29a5c7a34f11faa2"
          ],
          "data": "0x000000000000000000000000000000000000000000000000000000000016b694",
          "blockHash": "0xec171577d59ad8116052183c37feecea9d664a4535b6fca3885b8dc8c823efdf",
          "blockNumber": "0x1f40c16",
          "blockTimestamp": "0x68fb770c",
          "transactionHash": "0x0d6916be87c25b9048792051d881954069e60dbd12714c5f3b9d3c08be6f54a9",
          "transactionIndex": "0x10",
          "logIndex": "0xbf",
          "removed": false
        },
        {
          "address": "0x4200000000000000000000000000000000000006",
          "topics": [
            "0x8c5be1e5ebec7d5bd14f71427d1e84f3dd0314c0f7b2291e5b200ac8c7c3b925",
            "0x00000000000000000000000059ef3234e328a150886758a6c529196d2f979e56",
            "0x00000000000000000000000027f971cb582bf9e50f397e4d29a5c7a34f11faa2"
          ],
          "data": "0x000000000000000000000000000000000000000000000000000000012a071b26",
          "blockHash": "0xec171577d59ad8116052183c37feecea9d664a4535b6fca3885b8dc8c823efdf",
          "blockNumber": "0x1f40c16",
          "blockTimestamp": "0x68fb770c",
          "transactionHash": "0x0d6916be87c25b9048792051d881954069e60dbd12714c5f3b9d3c08be6f54a9",
          "transactionIndex": "0x10",
          "logIndex": "0xc0",
          "removed": false
        },
        {
          "address": "0x036cbd53842c5426634e7929541ec2318f3dcf7e",
          "topics": [
            "0xddf252ad1be2c89b69c2b068fc378daa952ba7f163c4a11628f55a4df523b3ef",
            "0x00000000000000000000000059ef3234e328a150886758a6c529196d2f979e56",
            "0x00000000000000000000000046880b404cd35c165eddeff7421019f8dd25f4ad"
          ],
          "data": "0x0000000000000000000000000000000000000000000000000000000000000001",
          "blockHash": "0xec171577d59ad8116052183c37feecea9d664a4535b6fca3885b8dc8c823efdf",
          "blockNumber": "0x1f40c16",
          "blockTimestamp": "0x68fb770c",
          "transactionHash": "0x0d6916be87c25b9048792051d881954069e60dbd12714c5f3b9d3c08be6f54a9",
          "transactionIndex": "0x10",
          "logIndex": "0xc1",
          "removed": false
        },
        {
          "address": "0x4200000000000000000000000000000000000006",
          "topics": [
            "0xddf252ad1be2c89b69c2b068fc378daa952ba7f163c4a11628f55a4df523b3ef",
            "0x00000000000000000000000059ef3234e328a150886758a6c529196d2f979e56",
            "0x00000000000000000000000046880b404cd35c165eddeff7421019f8dd25f4ad"
          ],
          "data": "0x000000000000000000000000000000000000000000000000000000012a054a58",
          "blockHash": "0xec171577d59ad8116052183c37feecea9d664a4535b6fca3885b8dc8c823efdf",
          "blockNumber": "0x1f40c16",
          "blockTimestamp": "0x68fb770c",
          "transactionHash": "0x0d6916be87c25b9048792051d881954069e60dbd12714c5f3b9d3c08be6f54a9",
          "transactionIndex": "0x10",
          "logIndex": "0xc2",
          "removed": false
        },
        {
          "address": "0x46880b404cd35c165eddeff7421019f8dd25f4ad",
          "topics": [
            "0x7a53080ba414158be7ec69b987b5fb7d07dee101fe85488f0853ae16239d0bde",
            "0x00000000000000000000000027f971cb582bf9e50f397e4d29a5c7a34f11faa2",
            "0xfffffffffffffffffffffffffffffffffffffffffffffffffffffffffff2764c",
            "0x00000000000000000000000000000000000000000000000000000000000d89b4"
          ],
          "data": "0x00000000000000000000000027f971cb582bf9e50f397e4d29a5c7a34f11faa200000000000000000000000000000000000000000000000000000000000024c50000000000000000000000000000000000000000000000000000000000000001000000000000000000000000000000000000000000000000000000012a054a58",
          "blockHash": "0xec171577d59ad8116052183c37feecea9d664a4535b6fca3885b8dc8c823efdf",
          "blockNumber": "0x1f40c16",
          "blockTimestamp": "0x68fb770c",
          "transactionHash": "0x0d6916be87c25b9048792051d881954069e60dbd12714c5f3b9d3c08be6f54a9",
          "transactionIndex": "0x10",
          "logIndex": "0xc3",
          "removed": false
        },
        {
          "address": "0x27f971cb582bf9e50f397e4d29a5c7a34f11faa2",
          "topics": [
            "0xddf252ad1be2c89b69c2b068fc378daa952ba7f163c4a11628f55a4df523b3ef",
            "0x0000000000000000000000000000000000000000000000000000000000000000",
            "0x00000000000000000000000073d43dd9ac2c0fd004286f7a13f51bec163efb2c",
            "0x0000000000000000000000000000000000000000000000000000000000011661"
          ],
          "data": "0x",
          "blockHash": "0xec171577d59ad8116052183c37feecea9d664a4535b6fca3885b8dc8c823efdf",
          "blockNumber": "0x1f40c16",
          "blockTimestamp": "0x68fb770c",
          "transactionHash": "0x0d6916be87c25b9048792051d881954069e60dbd12714c5f3b9d3c08be6f54a9",
          "transactionIndex": "0x10",
          "logIndex": "0xc4",
          "removed": false
        },
        {
          "address": "0x27f971cb582bf9e50f397e4d29a5c7a34f11faa2",
          "topics": [
            "0x3067048beee31b25b2f1681f88dac838c8bba36af25bfb2b7cf7473a5847e35f",
            "0x0000000000000000000000000000000000000000000000000000000000011661"
          ],
          "data": "0x00000000000000000000000000000000000000000000000000000000000024c50000000000000000000000000000000000000000000000000000000000000001000000000000000000000000000000000000000000000000000000012a054a58",
          "blockHash": "0xec171577d59ad8116052183c37feecea9d664a4535b6fca3885b8dc8c823efdf",
          "blockNumber": "0x1f40c16",
          "blockTimestamp": "0x68fb770c",
          "transactionHash": "0x0d6916be87c25b9048792051d881954069e60dbd12714c5f3b9d3c08be6f54a9",
          "transactionIndex": "0x10",
          "logIndex": "0xc5",
          "removed": false
        },
        {
          "address": "0x036cbd53842c5426634e7929541ec2318f3dcf7e",
          "topics": [
            "0xddf252ad1be2c89b69c2b068fc378daa952ba7f163c4a11628f55a4df523b3ef",
            "0x000000000000000000000000c8c309e34ef4fd87d869dd6e856934e3497a8965",
            "0x00000000000000000000000059ef3234e328a150886758a6c529196d2f979e56"
          ],
          "data": "0x00000000000000000000000000000000000000000000000000000000000f4244",
          "blockHash": "0xec171577d59ad8116052183c37feecea9d664a4535b6fca3885b8dc8c823efdf",
          "blockNumber": "0x1f40c16",
          "blockTimestamp": "0x68fb770c",
          "transactionHash": "0x0d6916be87c25b9048792051d881954069e60dbd12714c5f3b9d3c08be6f54a9",
          "transactionIndex": "0x10",
          "logIndex": "0xc6",
          "removed": false
        },
        {
          "address": "0x4200000000000000000000000000000000000006",
          "topics": [
            "0xddf252ad1be2c89b69c2b068fc378daa952ba7f163c4a11628f55a4df523b3ef",
            "0x000000000000000000000000c8c309e34ef4fd87d869dd6e856934e3497a8965",
            "0x00000000000000000000000059ef3234e328a150886758a6c529196d2f979e56"
          ],
          "data": "0x00000000000000000000000000000000000000000000000000001b4a155dd200",
          "blockHash": "0xec171577d59ad8116052183c37feecea9d664a4535b6fca3885b8dc8c823efdf",
          "blockNumber": "0x1f40c16",
          "blockTimestamp": "0x68fb770c",
          "transactionHash": "0x0d6916be87c25b9048792051d881954069e60dbd12714c5f3b9d3c08be6f54a9",
          "transactionIndex": "0x10",
          "logIndex": "0xc7",
          "removed": false
        },
        {
          "address": "0x036cbd53842c5426634e7929541ec2318f3dcf7e",
          "topics": [
            "0x8c5be1e5ebec7d5bd14f71427d1e84f3dd0314c0f7b2291e5b200ac8c7c3b925",
            "0x00000000000000000000000059ef3234e328a150886758a6c529196d2f979e56",
            "0x00000000000000000000000027f971cb582bf9e50f397e4d29a5c7a34f11faa2"
          ],
          "data": "0x000000000000000000000000000000000000000000000000000000000025f8d7",
          "blockHash": "0xec171577d59ad8116052183c37feecea9d664a4535b6fca3885b8dc8c823efdf",
          "blockNumber": "0x1f40c16",
          "blockTimestamp": "0x68fb770c",
          "transactionHash": "0x0d6916be87c25b9048792051d881954069e60dbd12714c5f3b9d3c08be6f54a9",
          "transactionIndex": "0x10",
          "logIndex": "0xc8",
          "removed": false
        },
        {
          "address": "0x4200000000000000000000000000000000000006",
          "topics": [
            "0x8c5be1e5ebec7d5bd14f71427d1e84f3dd0314c0f7b2291e5b200ac8c7c3b925",
            "0x00000000000000000000000059ef3234e328a150886758a6c529196d2f979e56",
            "0x00000000000000000000000027f971cb582bf9e50f397e4d29a5c7a34f11faa2"
          ],
          "data": "0x00000000000000000000000000000000000000000000000000001b4a155fa2ce",
          "blockHash": "0xec171577d59ad8116052183c37feecea9d664a4535b6fca3885b8dc8c823efdf",
          "blockNumber": "0x1f40c16",
          "blockTimestamp": "0x68fb770c",
          "transactionHash": "0x0d6916be87c25b9048792051d881954069e60dbd12714c5f3b9d3c08be6f54a9",
          "transactionIndex": "0x10",
          "logIndex": "0xc9",
          "removed": false
        },
        {
          "address": "0x036cbd53842c5426634e7929541ec2318f3dcf7e",
          "topics": [
            "0xddf252ad1be2c89b69c2b068fc378daa952ba7f163c4a11628f55a4df523b3ef",
            "0x00000000000000000000000059ef3234e328a150886758a6c529196d2f979e56",
            "0x00000000000000000000000046880b404cd35c165eddeff7421019f8dd25f4ad"
          ],
          "data": "0x000000000000000000000000000000000000000000000000000000000000006b",
          "blockHash": "0xec171577d59ad8116052183c37feecea9d664a4535b6fca3885b8dc8c823efdf",
          "blockNumber": "0x1f40c16",
          "blockTimestamp": "0x68fb770c",
          "transactionHash": "0x0d6916be87c25b9048792051d881954069e60dbd12714c5f3b9d3c08be6f54a9",
          "transactionIndex": "0x10",
          "logIndex": "0xca",
          "removed": false
        },
        {
          "address": "0x4200000000000000000000000000000000000006",
          "topics": [
            "0xddf252ad1be2c89b69c2b068fc378daa952ba7f163c4a11628f55a4df523b3ef",
            "0x00000000000000000000000059ef3234e328a150886758a6c529196d2f979e56",
            "0x00000000000000000000000046880b404cd35c165eddeff7421019f8dd25f4ad"
          ],
          "data": "0x00000000000000000000000000000000000000000000000000001b4a1556959a",
          "blockHash": "0xec171577d59ad8116052183c37feecea9d664a4535b6fca3885b8dc8c823efdf",
          "blockNumber": "0x1f40c16",
          "blockTimestamp": "0x68fb770c",
          "transactionHash": "0x0d6916be87c25b9048792051d881954069e60dbd12714c5f3b9d3c08be6f54a9",
          "transactionIndex": "0x10",
          "logIndex": "0xcb",
          "removed": false
        },
        {
          "address": "0x46880b404cd35c165eddeff7421019f8dd25f4ad",
          "topics": [
            "0x7a53080ba414158be7ec69b987b5fb7d07dee101fe85488f0853ae16239d0bde",
            "0x00000000000000000000000027f971cb582bf9e50f397e4d29a5c7a34f11faa2",
            "0xfffffffffffffffffffffffffffffffffffffffffffffffffffffffffff2764c",
            "0x00000000000000000000000000000000000000000000000000000000000d89b4"
          ],
          "data": "0x00000000000000000000000027f971cb582bf9e50f397e4d29a5c7a34f11faa200000000000000000000000000000000000000000000000000000000035defd9000000000000000000000000000000000000000000000000000000000000006b00000000000000000000000000000000000000000000000000001b4a1556959a",
          "blockHash": "0xec171577d59ad8116052183c37feecea9d664a4535b6fca3885b8dc8c823efdf",
          "blockNumber": "0x1f40c16",
          "blockTimestamp": "0x68fb770c",
          "transactionHash": "0x0d6916be87c25b9048792051d881954069e60dbd12714c5f3b9d3c08be6f54a9",
          "transactionIndex": "0x10",
          "logIndex": "0xcc",
          "removed": false
        },
        {
          "address": "0x27f971cb582bf9e50f397e4d29a5c7a34f11faa2",
          "topics": [
            "0xddf252ad1be2c89b69c2b068fc378daa952ba7f163c4a11628f55a4df523b3ef",
            "0x0000000000000000000000000000000000000000000000000000000000000000",
            "0x000000000000000000000000c8c309e34ef4fd87d869dd6e856934e3497a8965",
            "0x0000000000000000000000000000000000000000000000000000000000011662"
          ],
          "data": "0x",
          "blockHash": "0xec171577d59ad8116052183c37feecea9d664a4535b6fca3885b8dc8c823efdf",
          "blockNumber": "0x1f40c16",
          "blockTimestamp": "0x68fb770c",
          "transactionHash": "0x0d6916be87c25b9048792051d881954069e60dbd12714c5f3b9d3c08be6f54a9",
          "transactionIndex": "0x10",
          "logIndex": "0xcd",
          "removed": false
        },
        {
          "address": "0x27f971cb582bf9e50f397e4d29a5c7a34f11faa2",
          "topics": [
            "0x3067048beee31b25b2f1681f88dac838c8bba36af25bfb2b7cf7473a5847e35f",
            "0x0000000000000000000000000000000000000000000000000000000000011662"
          ],
          "data": "0x00000000000000000000000000000000000000000000000000000000035defd9000000000000000000000000000000000000000000000000000000000000006b00000000000000000000000000000000000000000000000000001b4a1556959a",
          "blockHash": "0xec171577d59ad8116052183c37feecea9d664a4535b6fca3885b8dc8c823efdf",
          "blockNumber": "0x1f40c16",
          "blockTimestamp": "0x68fb770c",
          "transactionHash": "0x0d6916be87c25b9048792051d881954069e60dbd12714c5f3b9d3c08be6f54a9",
          "transactionIndex": "0x10",
          "logIndex": "0xce",
          "removed": false
        },
        {
          "address": "0x036cbd53842c5426634e7929541ec2318f3dcf7e",
          "topics": [
            "0xddf252ad1be2c89b69c2b068fc378daa952ba7f163c4a11628f55a4df523b3ef",
            "0x00000000000000000000000059ef3234e328a150886758a6c529196d2f979e56",
            "0x000000000000000000000000c8c309e34ef4fd87d869dd6e856934e3497a8965"
          ],
          "data": "0x00000000000000000000000000000000000000000000000000000000000f41d9",
          "blockHash": "0xec171577d59ad8116052183c37feecea9d664a4535b6fca3885b8dc8c823efdf",
          "blockNumber": "0x1f40c16",
          "blockTimestamp": "0x68fb770c",
          "transactionHash": "0x0d6916be87c25b9048792051d881954069e60dbd12714c5f3b9d3c08be6f54a9",
          "transactionIndex": "0x10",
          "logIndex": "0xcf",
          "removed": false
        },
        {
          "address": "0x4200000000000000000000000000000000000006",
          "topics": [
            "0xddf252ad1be2c89b69c2b068fc378daa952ba7f163c4a11628f55a4df523b3ef",
            "0x00000000000000000000000059ef3234e328a150886758a6c529196d2f979e56",
            "0x000000000000000000000000c8c309e34ef4fd87d869dd6e856934e3497a8965"
          ],
          "data": "0x0000000000000000000000000000000000000000000000000000000000073c66",
          "blockHash": "0xec171577d59ad8116052183c37feecea9d664a4535b6fca3885b8dc8c823efdf",
          "blockNumber": "0x1f40c16",
          "blockTimestamp": "0x68fb770c",
          "transactionHash": "0x0d6916be87c25b9048792051d881954069e60dbd12714c5f3b9d3c08be6f54a9",
          "transactionIndex": "0x10",
          "logIndex": "0xd0",
          "removed": false
        },
        {
          "address": "0xc8c309e34ef4fd87d869dd6e856934e3497a8965",
          "topics": [
            "0x1873553dae46c6c4a5009f92d87ef4b1be03943559a661467807f7dc4c4e53a3",
            "0x00000000000000000000000027f971cb582bf9e50f397e4d29a5c7a34f11faa2"
          ],
          "data": "0x000000000000000000000000036cbd53842c5426634e7929541ec2318f3dcf7e000000000000000000000000420000000000000000000000000000000000000600000000000000000000000000000000000000000000000000000000035defd9",
          "blockHash": "0xec171577d59ad8116052183c37feecea9d664a4535b6fca3885b8dc8c823efdf",
          "blockNumber": "0x1f40c16",
          "blockTimestamp": "0x68fb770c",
          "transactionHash": "0x0d6916be87c25b9048792051d881954069e60dbd12714c5f3b9d3c08be6f54a9",
          "transactionIndex": "0x10",
          "logIndex": "0xd1",
          "removed": false
        },
        {
          "address": "0xc8c309e34ef4fd87d869dd6e856934e3497a8965",
          "topics": [
            "0x72e7c7dee9f1208e1f0e96af43dfde9f240b7f3a9a762da8ea1e8ed767a66ab7",
            "0x0000000000000000000000000000000000000000000000000000000000000001"
          ],
          "data": "0x000000000000000000000000000000000000000000000000000000000001166200000000000000000000000000000000000000000000000000000000035defd9",
          "blockHash": "0xec171577d59ad8116052183c37feecea9d664a4535b6fca3885b8dc8c823efdf",
          "blockNumber": "0x1f40c16",
          "blockTimestamp": "0x68fb770c",
          "transactionHash": "0x0d6916be87c25b9048792051d881954069e60dbd12714c5f3b9d3c08be6f54a9",
          "transactionIndex": "0x10",
          "logIndex": "0xd2",
          "removed": false
        },
        {
          "address": "0x5b9118131ff1f1c8f097828182e0560241cb9ba1",
          "topics": [
            "0xd11895475c54b7d51633ecc794cd50a555a5c13b37a9d83d28e8405e0a185ede",
            "0x00000000000000000000000073d43dd9ac2c0fd004286f7a13f51bec163efb2c",
            "0x00000000000000000000000027f971cb582bf9e50f397e4d29a5c7a34f11faa2"
          ],
          "data": "0x000000000000000000000000036cbd53842c5426634e7929541ec2318f3dcf7e0000000000000000000000004200000000000000000000000000000000000006000000000000000000000000000000000000000000000000000000000007a120000000000000000000000000000000000000000000000000000000012a05f2000000000000000000000000000000000000000000000000000000000000000001",
          "blockHash": "0xec171577d59ad8116052183c37feecea9d664a4535b6fca3885b8dc8c823efdf",
          "blockNumber": "0x1f40c16",
          "blockTimestamp": "0x68fb770c",
          "transactionHash": "0x0d6916be87c25b9048792051d881954069e60dbd12714c5f3b9d3c08be6f54a9",
          "transactionIndex": "0x10",
          "logIndex": "0xd3",
          "removed": false
        }
      ],
      "logsBloom": "0x40000000044000000000100000000400000002000000400000040000010000000000400010001000012000100000000000000000000000010c004100002c0000000000400000000000000008080000000000100000040000000000000000000844000000020000404000000080000800000000000800000010000010000000040000000008000000000100000000000008000008002000000000002000000000020200804000000000000000004000020000000000000020002000008400000000000002020000000008080000000000000400000000020000000000000160000010000000000000000000800020100000000800000004000000000000000800",
      "type": "0x2",
      "transactionHash": "0x0d6916be87c25b9048792051d881954069e60dbd12714c5f3b9d3c08be6f54a9",
      "transactionIndex": "0x10",
      "blockHash": "0xec171577d59ad8116052183c37feecea9d664a4535b6fca3885b8dc8c823efdf",
      "blockNumber": "0x1f40c16",
      "gasUsed": "0x1124a8",
      "effectiveGasPrice": "0xf428b",
      "from": "0x73d43dd9ac2c0fd004286f7a13f51bec163efb2c",
      "to": "0x5b9118131ff1f1c8f097828182e0560241cb9ba1",
      "contractAddress": null,
      "l1BaseFeeScalar": "0x44d",
      "l1BlobBaseFee": "0x1",
      "l1BlobBaseFeeScalar": "0xa118b",
      "l1Fee": "0x74",
      "l1GasPrice": "0xa",
      "l1GasUsed": "0x8ae"
    }
  ],
  "libraries": [],
  "pending": [],
  "returns": {},
  "timestamp": 1761310477278,
  "chain": 84532,
  "commit": "9eab8ae"
}