{
  "transactions": [
    {
      "hash": "0xb5f9aa97445e394ea7bfff589179975cec8dd25342702bc0440d2af9d9120718",
      "transactionType": "CALL",
      "contractName": null,
      "contractAddress": "0x036cbd53842c5426634e7929541ec2318f3dcf7e",
      "function": "approve(address,uint256)",
      "arguments": [
        "0x2E32D35E8C4aBf8d2649aa26314956bEf0449cE9",
        "50"
      ],
      "transaction": {
        "from": "0x73d43dd9ac2c0fd004286f7a13f51bec163efb2c",
        "to": "0x036cbd53842c5426634e7929541ec2318f3dcf7e",
        "gas": "0x12afa",
        "value": "0x0",
        "input": "0x095ea7b30000000000000000000000002e32d35e8c4abf8d2649aa26314956bef0449ce90000000000000000000000000000000000000000000000000000000000000032",
        "nonce": "0x343",
        "chainId": "0x14a34"
      },
      "additionalContracts": [],
      "isFixedGasLimit": false
    },
    {
      "hash": "0xcf1341478abff27920a6d12811fc73bcf02456974f9e51ecd87de9ed94d44dc2",
      "transactionType": "CALL",
      "contractName": null,
      "contractAddress": "0x2e32d35e8c4abf8d2649aa26314956bef0449ce9",
      "function": "deposit(address,uint256)",
      "arguments": [
        "0x036CbD53842c5426634e7929541eC2318f3dCF7e",
        "50"
      ],
      "transaction": {
        "from": "0x73d43dd9ac2c0fd004286f7a13f51bec163efb2c",
        "to": "0x2e32d35e8c4abf8d2649aa26314956bef0449ce9",
        "gas": "0x16ef7",
        "value": "0x0",
        "input": "0x47e7ef24000000000000000000000000036cbd53842c5426634e7929541ec2318f3dcf7e0000000000000000000000000000000000000000000000000000000000000032",
        "nonce": "0x344",
        "chainId": "0x14a34"
      },
      "additionalContracts": [],
      "isFixedGasLimit": false
    },
    {
      "hash": "0x43e3b9343ea276857ff4907694d49b73af5f6d6437be0b362c9ca4cc4c7e67bd",
      "transactionType": "CALL",
      "contractName": null,
      "contractAddress": "0x4200000000000000000000000000000000000006",
      "function": "approve(address,uint256)",
      "arguments": [
        "0x2E32D35E8C4aBf8d2649aa26314956bEf0449cE9",
        "50000000000000"
      ],
      "transaction": {
        "from": "0x73d43dd9ac2c0fd004286f7a13f51bec163efb2c",
        "to": "0x4200000000000000000000000000000000000006",
        "gas": "0x106e6",
        "value": "0x0",
        "input": "0x095ea7b30000000000000000000000002e32d35e8c4abf8d2649aa26314956bef0449ce900000000000000000000000000000000000000000000000000002d79883d2000",
        "nonce": "0x345",
        "chainId": "0x14a34"
      },
      "additionalContracts": [],
      "isFixedGasLimit": false
    },
    {
      "hash": "0x607ac470d0873b19c43a0be527917a29be867f52b54a131e21a96304f7adf0cc",
      "transactionType": "CALL",
      "contractName": null,
      "contractAddress": "0x2e32d35e8c4abf8d2649aa26314956bef0449ce9",
      "function": "deposit(address,uint256)",
      "arguments": [
        "0x4200000000000000000000000000000000000006",
        "50000000000000"
      ],
      "transaction": {
        "from": "0x73d43dd9ac2c0fd004286f7a13f51bec163efb2c",
        "to": "0x2e32d35e8c4abf8d2649aa26314956bef0449ce9",
        "gas": "0x13499",
        "value": "0x0",
        "input": "0x47e7ef24000000000000000000000000420000000000000000000000000000000000000600000000000000000000000000000000000000000000000000002d79883d2000",
        "nonce": "0x346",
        "chainId": "0x14a34"
      },
      "additionalContracts": [],
      "isFixedGasLimit": false
    },
    {
      "hash": "0xdd63511f4ff517fd03948ceeef5e87b77efe2e10afbcb51f788f7a3fb639e882",
      "transactionType": "CALL",
      "contractName": null,
      "contractAddress": "0x036cbd53842c5426634e7929541ec2318f3dcf7e",
      "function": "approve(address,uint256)",
      "arguments": [
        "0xF9C37099EA23388c965b390E74B3B201FEd75d81",
        "40"
      ],
      "transaction": {
        "from": "0x73d43dd9ac2c0fd004286f7a13f51bec163efb2c",
        "to": "0x036cbd53842c5426634e7929541ec2318f3dcf7e",
        "gas": "0x12afa",
        "value": "0x0",
        "input": "0x095ea7b3000000000000000000000000f9c37099ea23388c965b390e74b3b201fed75d810000000000000000000000000000000000000000000000000000000000000028",
        "nonce": "0x347",
        "chainId": "0x14a34"
      },
      "additionalContracts": [],
      "isFixedGasLimit": false
    },
    {
      "hash": "0x8b0be4f2d9f7a969500a869ae5889e15af877194ff3eae785f983f71ca9cc7a4",
      "transactionType": "CALL",
      "contractName": null,
      "contractAddress": "0x4200000000000000000000000000000000000006",
      "function": "approve(address,uint256)",
      "arguments": [
        "0xF9C37099EA23388c965b390E74B3B201FEd75d81",
        "40000000000000"
      ],
      "transaction": {
        "from": "0x73d43dd9ac2c0fd004286f7a13f51bec163efb2c",
        "to": "0x4200000000000000000000000000000000000006",
        "gas": "0x106e6",
        "value": "0x0",
        "input": "0x095ea7b3000000000000000000000000f9c37099ea23388c965b390e74b3b201fed75d810000000000000000000000000000000000000000000000000000246139ca8000",
        "nonce": "0x348",
        "chainId": "0x14a34"
      },
      "additionalContracts": [],
      "isFixedGasLimit": false
    },
    {
      "hash": "0x0efb2a1b6ceed890b3d3fef8cedc49dbcb03ec236fb6b3001f6d70f5082dd5ec",
      "transactionType": "CALL",
      "contractName": null,
      "contractAddress": "0xf9c37099ea23388c965b390e74b3b201fed75d81",
      "function": "addLiquidityUniswapV3(address,address,uint24,int24,int24,uint256,uint256,uint256,uint256)",
      "arguments": [
        "0x036CbD53842c5426634e7929541eC2318f3dCF7e",
        "0x4200000000000000000000000000000000000006",
        "3000",
        "-887220",
        "887220",
        "40",
        "40000000000000",
        "0",
        "0"
      ],
      "transaction": {
        "from": "0x73d43dd9ac2c0fd004286f7a13f51bec163efb2c",
        "to": "0xf9c37099ea23388c965b390e74b3b201fed75d81",
        "gas": "0x17a527",
        "value": "0x0",
        "input": "0xe40345e2000000000000000000000000036cbd53842c5426634e7929541ec2318f3dcf7e00000000000000000000000042000000000000000000000000000000000000060000000000000000000000000000000000000000000000000000000000000bb8fffffffffffffffffffffffffffffffffffffffffffffffffffffffffff2764c00000000000000000000000000000000000000000000000000000000000d89b400000000000000000000000000000000000000000000000000000000000000280000000000000000000000000000000000000000000000000000246139ca800000000000000000000000000000000000000000000000000000000000000000000000000000000000000000000000000000000000000000000000000000000000",
        "nonce": "0x349",
        "chainId": "0x14a34"
      },
      "additionalContracts": [],
      "isFixedGasLimit": false
    }
  ],
  "receipts": [
    {
      "status": "0x1",
      "cumulativeGasUsed": "0x5a85c",
      "logs": [
        {
          "address": "0x036cbd53842c5426634e7929541ec2318f3dcf7e",
          "topics": [
            "0x8c5be1e5ebec7d5bd14f71427d1e84f3dd0314c0f7b2291e5b200ac8c7c3b925",
            "0x00000000000000000000000073d43dd9ac2c0fd004286f7a13f51bec163efb2c",
            "0x0000000000000000000000002e32d35e8c4abf8d2649aa26314956bef0449ce9"
          ],
          "data": "0x0000000000000000000000000000000000000000000000000000000000000032",
          "blockHash": "0xba840ed03bac99666e4d48c1898b22f8947c9bda574cc1338bf8b5ca14922c9d",
          "blockNumber": "0x1ee5de3",
          "blockTimestamp": "0x68f01aa6",
          "transactionHash": "0xb5f9aa97445e394ea7bfff589179975cec8dd25342702bc0440d2af9d9120718",
          "transactionIndex": "0x3",
          "logIndex": "0x6",
          "removed": false
        }
      ],
      "logsBloom": "0x00000000040000000000000000000000000000000000000000000000000000000000000000000000000000000000000000000000000000000000000000200000000000000000000000000000000000000000000000000000000000000000000800000000000000000000000000000000000020000000000010100080000000000000000000000000000100000000000008000000000000000000000000000000020000000000000000000000000000000000000000000000000000000000000000000000000000000000000000000000000000000000000000000000000000000010000000000000000000000020000000000000000000000000000000000000",
      "type": "0x2",
      "transactionHash": "0xb5f9aa97445e394ea7bfff589179975cec8dd25342702bc0440d2af9d9120718",
      "transactionIndex": "0x3",
      "blockHash": "0xba840ed03bac99666e4d48c1898b22f8947c9bda574cc1338bf8b5ca14922c9d",
      "blockNumber": "0x1ee5de3",
      "gasUsed": "0xd875",
      "effectiveGasPrice": "0xf42b2",
      "from": "0x73d43dd9ac2c0fd004286f7a13f51bec163efb2c",
      "to": "0x036cbd53842c5426634e7929541ec2318f3dcf7e",
      "contractAddress": null,
      "l1BaseFeeScalar": "0x44d",
      "l1BlobBaseFee": "0x1",
      "l1BlobBaseFeeScalar": "0xa118b",
      "l1Fee": "0x50",
      "l1GasPrice": "0x8",
      "l1GasUsed": "0x640"
    },
    {
      "status": "0x1",
      "cumulativeGasUsed": "0x6b20a",
      "logs": [
        {
          "address": "0x036cbd53842c5426634e7929541ec2318f3dcf7e",
          "topics": [
            "0xddf252ad1be2c89b69c2b068fc378daa952ba7f163c4a11628f55a4df523b3ef",
            "0x00000000000000000000000073d43dd9ac2c0fd004286f7a13f51bec163efb2c",
            "0x0000000000000000000000002e32d35e8c4abf8d2649aa26314956bef0449ce9"
          ],
          "data": "0x0000000000000000000000000000000000000000000000000000000000000032",
          "blockHash": "0xba840ed03bac99666e4d48c1898b22f8947c9bda574cc1338bf8b5ca14922c9d",
          "blockNumber": "0x1ee5de3",
          "blockTimestamp": "0x68f01aa6",
          "transactionHash": "0xcf1341478abff27920a6d12811fc73bcf02456974f9e51ecd87de9ed94d44dc2",
          "transactionIndex": "0x4",
          "logIndex": "0x7",
          "removed": false
        },
        {
          "address": "0x2e32d35e8c4abf8d2649aa26314956bef0449ce9",
          "topics": [
            "0x2da466a7b24304f47e87fa2e1e5a81b9831ce54fec19055ce277ca2f39ba42c4",
            "0x00000000000000000000000073d43dd9ac2c0fd004286f7a13f51bec163efb2c"
          ],
          "data": "0x0000000000000000000000000000000000000000000000000000000000000032",
          "blockHash": "0xba840ed03bac99666e4d48c1898b22f8947c9bda574cc1338bf8b5ca14922c9d",
          "blockNumber": "0x1ee5de3",
          "blockTimestamp": "0x68f01aa6",
          "transactionHash": "0xcf1341478abff27920a6d12811fc73bcf02456974f9e51ecd87de9ed94d44dc2",
          "transactionIndex": "0x4",
          "logIndex": "0x8",
          "removed": false
        }
      ],
      "logsBloom": "0x0000000004000000000000000000000000000000000000000000000000000000000000000000000000000000000000000000000000000000000000000000000000000000000000000000000800000000000000000000000000000000000020080000000000000000000000000000000000002000000000001010009000020000000000000000000000090000000000000c000000000000000000000000000000000000000000000000000000000000000000000000000000000000000000000000000002000000000000000000000000000000000000000000000000000000000040000000000000000000000020000000000000000000020000000000000000",
      "type": "0x2",
      "transactionHash": "0xcf1341478abff27920a6d12811fc73bcf02456974f9e51ecd87de9ed94d44dc2",
      "transactionIndex": "0x4",
      "blockHash": "0xba840ed03bac99666e4d48c1898b22f8947c9bda574cc1338bf8b5ca14922c9d",
      "blockNumber": "0x1ee5de3",
      "gasUsed": "0x109ae",
      "effectiveGasPrice": "0xf42b2",
      "from": "0x73d43dd9ac2c0fd004286f7a13f51bec163efb2c",
      "to": "0x2e32d35e8c4abf8d2649aa26314956bef0449ce9",
      "contractAddress": null,
      "l1BaseFeeScalar": "0x44d",
      "l1BlobBaseFee": "0x1",
      "l1BlobBaseFeeScalar": "0xa118b",
      "l1Fee": "0x50",
      "l1GasPrice": "0x8",
      "l1GasUsed": "0x640"
    },
    {
      "status": "0x1",
      "cumulativeGasUsed": "0x765cd",
      "logs": [
        {
          "address": "0x4200000000000000000000000000000000000006",
          "topics": [
            "0x8c5be1e5ebec7d5bd14f71427d1e84f3dd0314c0f7b2291e5b200ac8c7c3b925",
            "0x00000000000000000000000073d43dd9ac2c0fd004286f7a13f51bec163efb2c",
            "0x0000000000000000000000002e32d35e8c4abf8d2649aa26314956bef0449ce9"
          ],
          "data": "0x00000000000000000000000000000000000000000000000000002d79883d2000",
          "blockHash": "0xba840ed03bac99666e4d48c1898b22f8947c9bda574cc1338bf8b5ca14922c9d",
          "blockNumber": "0x1ee5de3",
          "blockTimestamp": "0x68f01aa6",
          "transactionHash": "0x43e3b9343ea276857ff4907694d49b73af5f6d6437be0b362c9ca4cc4c7e67bd",
          "transactionIndex": "0x5",
          "logIndex": "0x9",
          "removed": false
        }
      ],
      "logsBloom": "0x00000000000000000000000000000000000000000000000000040000000000000000000000000000000000100000000000000000000000000000000000200000000000000000000000000000000000000000000000000000000000000000000000000000000000000000000000000000000020000000000010100080000000000000000000000000000100000000000008000000002000000000000000000000020000000000000000000000000000000000000000000000000000000000000000000000000000000000000000000000000000000000000000000000000000000010000000000000000000000000000000000000000000000000000000000000",
      "type": "0x2",
      "transactionHash": "0x43e3b9343ea276857ff4907694d49b73af5f6d6437be0b362c9ca4cc4c7e67bd",
      "transactionIndex": "0x5",
      "blockHash": "0xba840ed03bac99666e4d48c1898b22f8947c9bda574cc1338bf8b5ca14922c9d",
      "blockNumber": "0x1ee5de3",
      "gasUsed": "0xb3c3",
      "effectiveGasPrice": "0xf42b2",
      "from": "0x73d43dd9ac2c0fd004286f7a13f51bec163efb2c",
      "to": "0x4200000000000000000000000000000000000006",
      "contractAddress": null,
      "l1BaseFeeScalar": "0x44d",
      "l1BlobBaseFee": "0x1",
      "l1BlobBaseFeeScalar": "0xa118b",
      "l1Fee": "0x50",
      "l1GasPrice": "0x8",
      "l1GasUsed": "0x640"
    },
    {
      "status": "0x1",
      "cumulativeGasUsed": "0x838cf",
      "logs": [
        {
          "address": "0x4200000000000000000000000000000000000006",
          "topics": [
            "0xddf252ad1be2c89b69c2b068fc378daa952ba7f163c4a11628f55a4df523b3ef",
            "0x00000000000000000000000073d43dd9ac2c0fd004286f7a13f51bec163efb2c",
            "0x0000000000000000000000002e32d35e8c4abf8d2649aa26314956bef0449ce9"
          ],
          "data": "0x00000000000000000000000000000000000000000000000000002d79883d2000",
          "blockHash": "0xba840ed03bac99666e4d48c1898b22f8947c9bda574cc1338bf8b5ca14922c9d",
          "blockNumber": "0x1ee5de3",
          "blockTimestamp": "0x68f01aa6",
          "transactionHash": "0x607ac470d0873b19c43a0be527917a29be867f52b54a131e21a96304f7adf0cc",
          "transactionIndex": "0x6",
          "logIndex": "0xa",
          "removed": false
        },
        {
          "address": "0x2e32d35e8c4abf8d2649aa26314956bef0449ce9",
          "topics": [
            "0x2da466a7b24304f47e87fa2e1e5a81b9831ce54fec19055ce277ca2f39ba42c4",
            "0x00000000000000000000000073d43dd9ac2c0fd004286f7a13f51bec163efb2c"
          ],
          "data": "0x00000000000000000000000000000000000000000000000000002d79883d2000",
          "blockHash": "0xba840ed03bac99666e4d48c1898b22f8947c9bda574cc1338bf8b5ca14922c9d",
          "blockNumber": "0x1ee5de3",
          "blockTimestamp": "0x68f01aa6",
          "transactionHash": "0x607ac470d0873b19c43a0be527917a29be867f52b54a131e21a96304f7adf0cc",
          "transactionIndex": "0x6",
          "logIndex": "0xb",
          "removed": false
        }
      ],
      "logsBloom": "0x0000000000000000000000000000000000000000000000000004000000000000000000000000000000000010000000000000000000000000000000000000000000000000000000000000000800000000000000000000000000000000000020000000000000000000000000000000000000002000000000001010009000020000000000000000000000090000000000000c000000002000000000000000000000000000000000000000000000000000000000000000000000000000000000000000000002000000000000000000000000000000000000000000000000000000000040000000000000000000000000000000000000000000020000000000000000",
      "type": "0x2",
      "transactionHash": "0x607ac470d0873b19c43a0be527917a29be867f52b54a131e21a96304f7adf0cc",
      "transactionIndex": "0x6",
      "blockHash": "0xba840ed03bac99666e4d48c1898b22f8947c9bda574cc1338bf8b5ca14922c9d",
      "blockNumber": "0x1ee5de3",
      "gasUsed": "0xd302",
      "effectiveGasPrice": "0xf42b2",
      "from": "0x73d43dd9ac2c0fd004286f7a13f51bec163efb2c",
      "to": "0x2e32d35e8c4abf8d2649aa26314956bef0449ce9",
      "contractAddress": null,
      "l1BaseFeeScalar": "0x44d",
      "l1BlobBaseFee": "0x1",
      "l1BlobBaseFeeScalar": "0xa118b",
      "l1Fee": "0x50",
      "l1GasPrice": "0x8",
      "l1GasUsed": "0x640"
    },
    {
      "status": "0x1",
      "cumulativeGasUsed": "0x91144",
      "logs": [
        {
          "address": "0x036cbd53842c5426634e7929541ec2318f3dcf7e",
          "topics": [
            "0x8c5be1e5ebec7d5bd14f71427d1e84f3dd0314c0f7b2291e5b200ac8c7c3b925",
            "0x00000000000000000000000073d43dd9ac2c0fd004286f7a13f51bec163efb2c",
            "0x000000000000000000000000f9c37099ea23388c965b390e74b3b201fed75d81"
          ],
          "data": "0x0000000000000000000000000000000000000000000000000000000000000028",
          "blockHash": "0xba840ed03bac99666e4d48c1898b22f8947c9bda574cc1338bf8b5ca14922c9d",
          "blockNumber": "0x1ee5de3",
          "blockTimestamp": "0x68f01aa6",
          "transactionHash": "0xdd63511f4ff517fd03948ceeef5e87b77efe2e10afbcb51f788f7a3fb639e882",
          "transactionIndex": "0x7",
          "logIndex": "0xc",
          "removed": false
        }
      ],
      "logsBloom": "0x00000000040000000000000000000000000000000000000000000000000000000000000000000000000000000000000000000000000000000000000010200000000000000000000000000000000000000000000000000000000000000000000800000000000000000000000000000000000000000000000010000000000000000000000000000000000100000000000008000000000000000000000000000000020000000000000000000000000004000000000000000000000000000000000000000000000000000000000000000000008000000000000000000000000000000010000000000000000000000020000000000000000000000000000000000000",
      "type": "0x2",
      "transactionHash": "0xdd63511f4ff517fd03948ceeef5e87b77efe2e10afbcb51f788f7a3fb639e882",
      "transactionIndex": "0x7",
      "blockHash": "0xba840ed03bac99666e4d48c1898b22f8947c9bda574cc1338bf8b5ca14922c9d",
      "blockNumber": "0x1ee5de3",
      "gasUsed": "0xd875",
      "effectiveGasPrice": "0xf42b2",
      "from": "0x73d43dd9ac2c0fd004286f7a13f51bec163efb2c",
      "to": "0x036cbd53842c5426634e7929541ec2318f3dcf7e",
      "contractAddress": null,
      "l1BaseFeeScalar": "0x44d",
      "l1BlobBaseFee": "0x1",
      "l1BlobBaseFeeScalar": "0xa118b",
      "l1Fee": "0x50",
      "l1GasPrice": "0x8",
      "l1GasUsed": "0x640"
    },
    {
      "status": "0x1",
      "cumulativeGasUsed": "0x9c507",
      "logs": [
        {
          "address": "0x4200000000000000000000000000000000000006",
          "topics": [
            "0x8c5be1e5ebec7d5bd14f71427d1e84f3dd0314c0f7b2291e5b200ac8c7c3b925",
            "0x00000000000000000000000073d43dd9ac2c0fd004286f7a13f51bec163efb2c",
            "0x000000000000000000000000f9c37099ea23388c965b390e74b3b201fed75d81"
          ],
          "data": "0x0000000000000000000000000000000000000000000000000000246139ca8000",
          "blockHash": "0xba840ed03bac99666e4d48c1898b22f8947c9bda574cc1338bf8b5ca14922c9d",
          "blockNumber": "0x1ee5de3",
          "blockTimestamp": "0x68f01aa6",
          "transactionHash": "0x8b0be4f2d9f7a969500a869ae5889e15af877194ff3eae785f983f71ca9cc7a4",
          "transactionIndex": "0x8",
          "logIndex": "0xd",
          "removed": false
        }
      ],
      "logsBloom": "0x00000000000000000000000000000000000000000000000000040000000000000000000000000000000000100000000000000000000000000000000010200000000000000000000000000000000000000000000000000000000000000000000000000000000000000000000000000000000000000000000010000000000000000000000000000000000100000000000008000000002000000000000000000000020000000000000000000000000004000000000000000000000000000000000000000000000000000000000000000000008000000000000000000000000000000010000000000000000000000000000000000000000000000000000000000000",
      "type": "0x2",
      "transactionHash": "0x8b0be4f2d9f7a969500a869ae5889e15af877194ff3eae785f983f71ca9cc7a4",
      "transactionIndex": "0x8",
      "blockHash": "0xba840ed03bac99666e4d48c1898b22f8947c9bda574cc1338bf8b5ca14922c9d",
      "blockNumber": "0x1ee5de3",
      "gasUsed": "0xb3c3",
      "effectiveGasPrice": "0xf42b2",
      "from": "0x73d43dd9ac2c0fd004286f7a13f51bec163efb2c",
      "to": "0x4200000000000000000000000000000000000006",
      "contractAddress": null,
      "l1BaseFeeScalar": "0x44d",
      "l1BlobBaseFee": "0x1",
      "l1BlobBaseFeeScalar": "0xa118b",
      "l1Fee": "0x50",
      "l1GasPrice": "0x8",
      "l1GasUsed": "0x640"
    },
    {
      "status": "0x1",
      "cumulativeGasUsed": "0x19eff0",
      "logs": [
        {
          "address": "0x036cbd53842c5426634e7929541ec2318f3dcf7e",
          "topics": [
            "0xddf252ad1be2c89b69c2b068fc378daa952ba7f163c4a11628f55a4df523b3ef",
            "0x00000000000000000000000073d43dd9ac2c0fd004286f7a13f51bec163efb2c",
            "0x000000000000000000000000ec8b597df83f25ac3191bb6deda31aad59c4162d"
          ],
          "data": "0x0000000000000000000000000000000000000000000000000000000000000028",
          "blockHash": "0xba840ed03bac99666e4d48c1898b22f8947c9bda574cc1338bf8b5ca14922c9d",
          "blockNumber": "0x1ee5de3",
          "blockTimestamp": "0x68f01aa6",
          "transactionHash": "0x0efb2a1b6ceed890b3d3fef8cedc49dbcb03ec236fb6b3001f6d70f5082dd5ec",
          "transactionIndex": "0x9",
          "logIndex": "0xe",
          "removed": false
        },
        {
          "address": "0x4200000000000000000000000000000000000006",
          "topics": [
            "0xddf252ad1be2c89b69c2b068fc378daa952ba7f163c4a11628f55a4df523b3ef",
            "0x00000000000000000000000073d43dd9ac2c0fd004286f7a13f51bec163efb2c",
            "0x000000000000000000000000ec8b597df83f25ac3191bb6deda31aad59c4162d"
          ],
          "data": "0x0000000000000000000000000000000000000000000000000000246139ca8000",
          "blockHash": "0xba840ed03bac99666e4d48c1898b22f8947c9bda574cc1338bf8b5ca14922c9d",
          "blockNumber": "0x1ee5de3",
          "blockTimestamp": "0x68f01aa6",
          "transactionHash": "0x0efb2a1b6ceed890b3d3fef8cedc49dbcb03ec236fb6b3001f6d70f5082dd5ec",
          "transactionIndex": "0x9",
          "logIndex": "0xf",
          "removed": false
        },
        {
          "address": "0x036cbd53842c5426634e7929541ec2318f3dcf7e",
          "topics": [
            "0x8c5be1e5ebec7d5bd14f71427d1e84f3dd0314c0f7b2291e5b200ac8c7c3b925",
            "0x000000000000000000000000ec8b597df83f25ac3191bb6deda31aad59c4162d",
            "0x00000000000000000000000027f971cb582bf9e50f397e4d29a5c7a34f11faa2"
          ],
          "data": "0x0000000000000000000000000000000000000000000000000000000000000028",
          "blockHash": "0xba840ed03bac99666e4d48c1898b22f8947c9bda574cc1338bf8b5ca14922c9d",
          "blockNumber": "0x1ee5de3",
          "blockTimestamp": "0x68f01aa6",
          "transactionHash": "0x0efb2a1b6ceed890b3d3fef8cedc49dbcb03ec236fb6b3001f6d70f5082dd5ec",
          "transactionIndex": "0x9",
          "logIndex": "0x10",
          "removed": false
        },
        {
          "address": "0x4200000000000000000000000000000000000006",
          "topics": [
            "0x8c5be1e5ebec7d5bd14f71427d1e84f3dd0314c0f7b2291e5b200ac8c7c3b925",
            "0x000000000000000000000000ec8b597df83f25ac3191bb6deda31aad59c4162d",
            "0x00000000000000000000000027f971cb582bf9e50f397e4d29a5c7a34f11faa2"
          ],
          "data": "0x0000000000000000000000000000000000000000000000000000246139ca8000",
          "blockHash": "0xba840ed03bac99666e4d48c1898b22f8947c9bda574cc1338bf8b5ca14922c9d",
          "blockNumber": "0x1ee5de3",
          "blockTimestamp": "0x68f01aa6",
          "transactionHash": "0x0efb2a1b6ceed890b3d3fef8cedc49dbcb03ec236fb6b3001f6d70f5082dd5ec",
          "transactionIndex": "0x9",
          "logIndex": "0x11",
          "removed": false
        },
        {
          "address": "0x036cbd53842c5426634e7929541ec2318f3dcf7e",
          "topics": [
            "0xddf252ad1be2c89b69c2b068fc378daa952ba7f163c4a11628f55a4df523b3ef",
            "0x000000000000000000000000ec8b597df83f25ac3191bb6deda31aad59c4162d",
            "0x00000000000000000000000046880b404cd35c165eddeff7421019f8dd25f4ad"
          ],
          "data": "0x0000000000000000000000000000000000000000000000000000000000000028",
          "blockHash": "0xba840ed03bac99666e4d48c1898b22f8947c9bda574cc1338bf8b5ca14922c9d",
          "blockNumber": "0x1ee5de3",
          "blockTimestamp": "0x68f01aa6",
          "transactionHash": "0x0efb2a1b6ceed890b3d3fef8cedc49dbcb03ec236fb6b3001f6d70f5082dd5ec",
          "transactionIndex": "0x9",
          "logIndex": "0x12",
          "removed": false
        },
        {
          "address": "0x4200000000000000000000000000000000000006",
          "topics": [
            "0xddf252ad1be2c89b69c2b068fc378daa952ba7f163c4a11628f55a4df523b3ef",
            "0x000000000000000000000000ec8b597df83f25ac3191bb6deda31aad59c4162d",
            "0x00000000000000000000000046880b404cd35c165eddeff7421019f8dd25f4ad"
          ],
          "data": "0x000000000000000000000000000000000000000000000000000000039502b009",
          "blockHash": "0xba840ed03bac99666e4d48c1898b22f8947c9bda574cc1338bf8b5ca14922c9d",
          "blockNumber": "0x1ee5de3",
          "blockTimestamp": "0x68f01aa6",
          "transactionHash": "0x0efb2a1b6ceed890b3d3fef8cedc49dbcb03ec236fb6b3001f6d70f5082dd5ec",
          "transactionIndex": "0x9",
          "logIndex": "0x13",
          "removed": false
        },
        {
          "address": "0x46880b404cd35c165eddeff7421019f8dd25f4ad",
          "topics": [
            "0x7a53080ba414158be7ec69b987b5fb7d07dee101fe85488f0853ae16239d0bde",
            "0x00000000000000000000000027f971cb582bf9e50f397e4d29a5c7a34f11faa2",
            "0xfffffffffffffffffffffffffffffffffffffffffffffffffffffffffff2764c",
            "0x00000000000000000000000000000000000000000000000000000000000d89b4"
          ],
          "data": "0x00000000000000000000000027f971cb582bf9e50f397e4d29a5c7a34f11faa200000000000000000000000000000000000000000000000000000000000bf8570000000000000000000000000000000000000000000000000000000000000028000000000000000000000000000000000000000000000000000000039502b009",
          "blockHash": "0xba840ed03bac99666e4d48c1898b22f8947c9bda574cc1338bf8b5ca14922c9d",
          "blockNumber": "0x1ee5de3",
          "blockTimestamp": "0x68f01aa6",
          "transactionHash": "0x0efb2a1b6ceed890b3d3fef8cedc49dbcb03ec236fb6b3001f6d70f5082dd5ec",
          "transactionIndex": "0x9",
          "logIndex": "0x14",
          "removed": false
        },
        {
          "address": "0x27f971cb582bf9e50f397e4d29a5c7a34f11faa2",
          "topics": [
            "0xddf252ad1be2c89b69c2b068fc378daa952ba7f163c4a11628f55a4df523b3ef",
            "0x0000000000000000000000000000000000000000000000000000000000000000",
            "0x00000000000000000000000073d43dd9ac2c0fd004286f7a13f51bec163efb2c",
            "0x000000000000000000000000000000000000000000000000000000000001157f"
          ],
          "data": "0x",
          "blockHash": "0xba840ed03bac99666e4d48c1898b22f8947c9bda574cc1338bf8b5ca14922c9d",
          "blockNumber": "0x1ee5de3",
          "blockTimestamp": "0x68f01aa6",
          "transactionHash": "0x0efb2a1b6ceed890b3d3fef8cedc49dbcb03ec236fb6b3001f6d70f5082dd5ec",
          "transactionIndex": "0x9",
          "logIndex": "0x15",
          "removed": false
        },
        {
          "address": "0x27f971cb582bf9e50f397e4d29a5c7a34f11faa2",
          "topics": [
            "0x3067048beee31b25b2f1681f88dac838c8bba36af25bfb2b7cf7473a5847e35f",
            "0x000000000000000000000000000000000000000000000000000000000001157f"
          ],
          "data": "0x00000000000000000000000000000000000000000000000000000000000bf8570000000000000000000000000000000000000000000000000000000000000028000000000000000000000000000000000000000000000000000000039502b009",
          "blockHash": "0xba840ed03bac99666e4d48c1898b22f8947c9bda574cc1338bf8b5ca14922c9d",
          "blockNumber": "0x1ee5de3",
          "blockTimestamp": "0x68f01aa6",
          "transactionHash": "0x0efb2a1b6ceed890b3d3fef8cedc49dbcb03ec236fb6b3001f6d70f5082dd5ec",
          "transactionIndex": "0x9",
          "logIndex": "0x16",
          "removed": false
        },
        {
          "address": "0x036cbd53842c5426634e7929541ec2318f3dcf7e",
          "topics": [
            "0xddf252ad1be2c89b69c2b068fc378daa952ba7f163c4a11628f55a4df523b3ef",
            "0x0000000000000000000000002e32d35e8c4abf8d2649aa26314956bef0449ce9",
            "0x000000000000000000000000ec8b597df83f25ac3191bb6deda31aad59c4162d"
          ],
          "data": "0x000000000000000000000000000000000000000000000000000000000000c369",
          "blockHash": "0xba840ed03bac99666e4d48c1898b22f8947c9bda574cc1338bf8b5ca14922c9d",
          "blockNumber": "0x1ee5de3",
          "blockTimestamp": "0x68f01aa6",
          "transactionHash": "0x0efb2a1b6ceed890b3d3fef8cedc49dbcb03ec236fb6b3001f6d70f5082dd5ec",
          "transactionIndex": "0x9",
          "logIndex": "0x17",
          "removed": false
        },
        {
          "address": "0x4200000000000000000000000000000000000006",
          "topics": [
            "0xddf252ad1be2c89b69c2b068fc378daa952ba7f163c4a11628f55a4df523b3ef",
            "0x0000000000000000000000002e32d35e8c4abf8d2649aa26314956bef0449ce9",
            "0x000000000000000000000000ec8b597df83f25ac3191bb6deda31aad59c4162d"
          ],
          "data": "0x0000000000000000000000000000000000000000000000000001cbfe7e4e860e",
          "blockHash": "0xba840ed03bac99666e4d48c1898b22f8947c9bda574cc1338bf8b5ca14922c9d",
          "blockNumber": "0x1ee5de3",
          "blockTimestamp": "0x68f01aa6",
          "transactionHash": "0x0efb2a1b6ceed890b3d3fef8cedc49dbcb03ec236fb6b3001f6d70f5082dd5ec",
          "transactionIndex": "0x9",
          "logIndex": "0x18",
          "removed": false
        },
        {
          "address": "0x036cbd53842c5426634e7929541ec2318f3dcf7e",
          "topics": [
            "0x8c5be1e5ebec7d5bd14f71427d1e84f3dd0314c0f7b2291e5b200ac8c7c3b925",
            "0x000000000000000000000000ec8b597df83f25ac3191bb6deda31aad59c4162d",
            "0x00000000000000000000000027f971cb582bf9e50f397e4d29a5c7a34f11faa2"
          ],
          "data": "0x000000000000000000000000000000000000000000000000000000000000c369",
          "blockHash": "0xba840ed03bac99666e4d48c1898b22f8947c9bda574cc1338bf8b5ca14922c9d",
          "blockNumber": "0x1ee5de3",
          "blockTimestamp": "0x68f01aa6",
          "transactionHash": "0x0efb2a1b6ceed890b3d3fef8cedc49dbcb03ec236fb6b3001f6d70f5082dd5ec",
          "transactionIndex": "0x9",
          "logIndex": "0x19",
          "removed": false
        },
        {
          "address": "0x4200000000000000000000000000000000000006",
          "topics": [
            "0x8c5be1e5ebec7d5bd14f71427d1e84f3dd0314c0f7b2291e5b200ac8c7c3b925",
            "0x000000000000000000000000ec8b597df83f25ac3191bb6deda31aad59c4162d",
            "0x00000000000000000000000027f971cb582bf9e50f397e4d29a5c7a34f11faa2"
          ],
          "data": "0x0000000000000000000000000000000000000000000000000001cbfe7e4e860e",
          "blockHash": "0xba840ed03bac99666e4d48c1898b22f8947c9bda574cc1338bf8b5ca14922c9d",
          "blockNumber": "0x1ee5de3",
          "blockTimestamp": "0x68f01aa6",
          "transactionHash": "0x0efb2a1b6ceed890b3d3fef8cedc49dbcb03ec236fb6b3001f6d70f5082dd5ec",
          "transactionIndex": "0x9",
          "logIndex": "0x1a",
          "removed": false
        },
        {
          "address": "0x036cbd53842c5426634e7929541ec2318f3dcf7e",
          "topics": [
            "0xddf252ad1be2c89b69c2b068fc378daa952ba7f163c4a11628f55a4df523b3ef",
            "0x000000000000000000000000ec8b597df83f25ac3191bb6deda31aad59c4162d",
            "0x00000000000000000000000046880b404cd35c165eddeff7421019f8dd25f4ad"
          ],
          "data": "0x000000000000000000000000000000000000000000000000000000000000c369",
          "blockHash": "0xba840ed03bac99666e4d48c1898b22f8947c9bda574cc1338bf8b5ca14922c9d",
          "blockNumber": "0x1ee5de3",
          "blockTimestamp": "0x68f01aa6",
          "transactionHash": "0x0efb2a1b6ceed890b3d3fef8cedc49dbcb03ec236fb6b3001f6d70f5082dd5ec",
          "transactionIndex": "0x9",
          "logIndex": "0x1b",
          "removed": false
        },
        {
          "address": "0x4200000000000000000000000000000000000006",
          "topics": [
            "0xddf252ad1be2c89b69c2b068fc378daa952ba7f163c4a11628f55a4df523b3ef",
            "0x000000000000000000000000ec8b597df83f25ac3191bb6deda31aad59c4162d",
            "0x00000000000000000000000046880b404cd35c165eddeff7421019f8dd25f4ad"
          ],
          "data": "0x0000000000000000000000000000000000000000000000000000117fd555018a",
          "blockHash": "0xba840ed03bac99666e4d48c1898b22f8947c9bda574cc1338bf8b5ca14922c9d",
          "blockNumber": "0x1ee5de3",
          "blockTimestamp": "0x68f01aa6",
          "transactionHash": "0x0efb2a1b6ceed890b3d3fef8cedc49dbcb03ec236fb6b3001f6d70f5082dd5ec",
          "transactionIndex": "0x9",
          "logIndex": "0x1c",
          "removed": false
        },
        {
          "address": "0x46880b404cd35c165eddeff7421019f8dd25f4ad",
          "topics": [
            "0x7a53080ba414158be7ec69b987b5fb7d07dee101fe85488f0853ae16239d0bde",
            "0x00000000000000000000000027f971cb582bf9e50f397e4d29a5c7a34f11faa2",
            "0xfffffffffffffffffffffffffffffffffffffffffffffffffffffffffff2764c",
            "0x00000000000000000000000000000000000000000000000000000000000d89b4"
          ],
          "data": "0x00000000000000000000000027f971cb582bf9e50f397e4d29a5c7a34f11faa2000000000000000000000000000000000000000000000000000000003a7a179e000000000000000000000000000000000000000000000000000000000000c3690000000000000000000000000000000000000000000000000000117fd555018a",
          "blockHash": "0xba840ed03bac99666e4d48c1898b22f8947c9bda574cc1338bf8b5ca14922c9d",
          "blockNumber": "0x1ee5de3",
          "blockTimestamp": "0x68f01aa6",
          "transactionHash": "0x0efb2a1b6ceed890b3d3fef8cedc49dbcb03ec236fb6b3001f6d70f5082dd5ec",
          "transactionIndex": "0x9",
          "logIndex": "0x1d",
          "removed": false
        },
        {
          "address": "0x27f971cb582bf9e50f397e4d29a5c7a34f11faa2",
          "topics": [
            "0xddf252ad1be2c89b69c2b068fc378daa952ba7f163c4a11628f55a4df523b3ef",
            "0x0000000000000000000000000000000000000000000000000000000000000000",
            "0x0000000000000000000000002e32d35e8c4abf8d2649aa26314956bef0449ce9",
            "0x0000000000000000000000000000000000000000000000000000000000011580"
          ],
          "data": "0x",
          "blockHash": "0xba840ed03bac99666e4d48c1898b22f8947c9bda574cc1338bf8b5ca14922c9d",
          "blockNumber": "0x1ee5de3",
          "blockTimestamp": "0x68f01aa6",
          "transactionHash": "0x0efb2a1b6ceed890b3d3fef8cedc49dbcb03ec236fb6b3001f6d70f5082dd5ec",
          "transactionIndex": "0x9",
          "logIndex": "0x1e",
          "removed": false
        },
        {
          "address": "0x27f971cb582bf9e50f397e4d29a5c7a34f11faa2",
          "topics": [
            "0x3067048beee31b25b2f1681f88dac838c8bba36af25bfb2b7cf7473a5847e35f",
            "0x0000000000000000000000000000000000000000000000000000000000011580"
          ],
          "data": "0x000000000000000000000000000000000000000000000000000000003a7a179e000000000000000000000000000000000000000000000000000000000000c3690000000000000000000000000000000000000000000000000000117fd555018a",
          "blockHash": "0xba840ed03bac99666e4d48c1898b22f8947c9bda574cc1338bf8b5ca14922c9d",
          "blockNumber": "0x1ee5de3",
          "blockTimestamp": "0x68f01aa6",
          "transactionHash": "0x0efb2a1b6ceed890b3d3fef8cedc49dbcb03ec236fb6b3001f6d70f5082dd5ec",
          "transactionIndex": "0x9",
          "logIndex": "0x1f",
          "removed": false
        },
        {
          "address": "0x4200000000000000000000000000000000000006",
          "topics": [
            "0xddf252ad1be2c89b69c2b068fc378daa952ba7f163c4a11628f55a4df523b3ef",
            "0x000000000000000000000000ec8b597df83f25ac3191bb6deda31aad59c4162d",
            "0x0000000000000000000000002e32d35e8c4abf8d2649aa26314956bef0449ce9"
          ],
          "data": "0x0000000000000000000000000000000000000000000000000001ba7ea8f98484",
          "blockHash": "0xba840ed03bac99666e4d48c1898b22f8947c9bda574cc1338bf8b5ca14922c9d",
          "blockNumber": "0x1ee5de3",
          "blockTimestamp": "0x68f01aa6",
          "transactionHash": "0x0efb2a1b6ceed890b3d3fef8cedc49dbcb03ec236fb6b3001f6d70f5082dd5ec",
          "transactionIndex": "0x9",
          "logIndex": "0x20",
          "removed": false
        },
        {
          "address": "0x2e32d35e8c4abf8d2649aa26314956bef0449ce9",
          "topics": [
            "0x1873553dae46c6c4a5009f92d87ef4b1be03943559a661467807f7dc4c4e53a3",
            "0x00000000000000000000000027f971cb582bf9e50f397e4d29a5c7a34f11faa2"
          ],
          "data": "0x000000000000000000000000036cbd53842c5426634e7929541ec2318f3dcf7e0000000000000000000000004200000000000000000000000000000000000006000000000000000000000000000000000000000000000000000000003a7a179e",
          "blockHash": "0xba840ed03bac99666e4d48c1898b22f8947c9bda574cc1338bf8b5ca14922c9d",
          "blockNumber": "0x1ee5de3",
          "blockTimestamp": "0x68f01aa6",
          "transactionHash": "0x0efb2a1b6ceed890b3d3fef8cedc49dbcb03ec236fb6b3001f6d70f5082dd5ec",
          "transactionIndex": "0x9",
          "logIndex": "0x21",
          "removed": false
        },
        {
          "address": "0x2e32d35e8c4abf8d2649aa26314956bef0449ce9",
          "topics": [
            "0x72e7c7dee9f1208e1f0e96af43dfde9f240b7f3a9a762da8ea1e8ed767a66ab7",
            "0x0000000000000000000000000000000000000000000000000000000000000001"
          ],
          "data": "0x0000000000000000000000000000000000000000000000000000000000011580000000000000000000000000000000000000000000000000000000003a7a179e",
          "blockHash": "0xba840ed03bac99666e4d48c1898b22f8947c9bda574cc1338bf8b5ca14922c9d",
          "blockNumber": "0x1ee5de3",
          "blockTimestamp": "0x68f01aa6",
          "transactionHash": "0x0efb2a1b6ceed890b3d3fef8cedc49dbcb03ec236fb6b3001f6d70f5082dd5ec",
          "transactionIndex": "0x9",
          "logIndex": "0x22",
          "removed": false
        },
        {
          "address": "0xf9c37099ea23388c965b390e74b3b201fed75d81",
          "topics": [
            "0xd11895475c54b7d51633ecc794cd50a555a5c13b37a9d83d28e8405e0a185ede",
            "0x00000000000000000000000073d43dd9ac2c0fd004286f7a13f51bec163efb2c",
            "0x00000000000000000000000027f971cb582bf9e50f397e4d29a5c7a34f11faa2"
          ],
          "data": "0x000000000000000000000000036cbd53842c5426634e7929541ec2318f3dcf7e000000000000000000000000420000000000000000000000000000000000000600000000000000000000000000000000000000000000000000000000000000280000000000000000000000000000000000000000000000000000246139ca80000000000000000000000000000000000000000000000000000000000000000001",
          "blockHash": "0xba840ed03bac99666e4d48c1898b22f8947c9bda574cc1338bf8b5ca14922c9d",
          "blockNumber": "0x1ee5de3",
          "blockTimestamp": "0x68f01aa6",
          "transactionHash": "0x0efb2a1b6ceed890b3d3fef8cedc49dbcb03ec236fb6b3001f6d70f5082dd5ec",
          "transactionIndex": "0x9",
          "logIndex": "0x23",
          "removed": false
        }
      ],
      "logsBloom": "0x000000000400000000401000000004000000000000004000800400000000000000004000100010000020001000000000000000000000000004004100002c000008000040000000000000000808000000400000000404000000000000000000084000000002000040000000008000080000002000080000001010009000000000000000000800000000090000000000000c000208002000000000002000004000020200804000000000000200000000020000000000000020200000008400000000000002020000000000080000000000000000000000020000000000000160000010000000000000000000800020000000200000010010020000000000000800",
      "type": "0x2",
      "transactionHash": "0x0efb2a1b6ceed890b3d3fef8cedc49dbcb03ec236fb6b3001f6d70f5082dd5ec",
      "transactionIndex": "0x9",
      "blockHash": "0xba840ed03bac99666e4d48c1898b22f8947c9bda574cc1338bf8b5ca14922c9d",
      "blockNumber": "0x1ee5de3",
      "gasUsed": "0x102ae9",
      "effectiveGasPrice": "0xf42b2",
      "from": "0x73d43dd9ac2c0fd004286f7a13f51bec163efb2c",
      "to": "0xf9c37099ea23388c965b390e74b3b201fed75d81",
      "contractAddress": null,
      "l1BaseFeeScalar": "0x44d",
      "l1BlobBaseFee": "0x1",
      "l1BlobBaseFeeScalar": "0xa118b",
      "l1Fee": "0x6e",
      "l1GasPrice": "0x8",
      "l1GasUsed": "0x8a1"
    }
  ],
  "libraries": [],
  "pending": [],
  "returns": {},
  "timestamp": 1760565926859,
  "chain": 84532,
  "commit": "22bec4d"
}