{
  "transactions": [
    {
      "hash": "0x53ee560a76c5746757d7e76890b000a011c7ab80f22ff41ae9af6d6ee8f6b811",
      "transactionType": "CALL",
      "contractName": null,
      "contractAddress": "0x036cbd53842c5426634e7929541ec2318f3dcf7e",
      "function": "approve(address,uint256)",
      "arguments": [
        "0xc8c309E34ef4fd87d869dd6E856934E3497A8965",
        "1000000"
      ],
      "transaction": {
        "from": "0x73d43dd9ac2c0fd004286f7a13f51bec163efb2c",
        "to": "0x036cbd53842c5426634e7929541ec2318f3dcf7e",
        "gas": "0x12b1b",
        "value": "0x0",
        "input": "0x095ea7b3000000000000000000000000c8c309e34ef4fd87d869dd6e856934e3497a896500000000000000000000000000000000000000000000000000000000000f4240",
        "nonce": "0x3a6",
        "chainId": "0x14a34"
      },
      "additionalContracts": [],
      "isFixedGasLimit": false
    },
    {
      "hash": "0x8d3983f9fdfd352e837f800062985b84e49c459f191b15696629c5ab8ba5e38f",
      "transactionType": "CALL",
      "contractName": null,
      "contractAddress": "0xc8c309e34ef4fd87d869dd6e856934e3497a8965",
      "function": "deposit(address,uint256)",
      "arguments": [
        "0x036CbD53842c5426634e7929541eC2318f3dCF7e",
        "1000000"
      ],
      "transaction": {
        "from": "0x73d43dd9ac2c0fd004286f7a13f51bec163efb2c",
        "to": "0xc8c309e34ef4fd87d869dd6e856934e3497a8965",
        "gas": "0x184d8",
        "value": "0x0",
        "input": "0x47e7ef24000000000000000000000000036cbd53842c5426634e7929541ec2318f3dcf7e00000000000000000000000000000000000000000000000000000000000f4240",
        "nonce": "0x3a7",
        "chainId": "0x14a34"
      },
      "additionalContracts": [],
      "isFixedGasLimit": false
    }
  ],
  "receipts": [
    {
      "status": "0x1",
      "cumulativeGasUsed": "0x41326e",
      "logs": [
        {
          "address": "0x036cbd53842c5426634e7929541ec2318f3dcf7e",
          "topics": [
            "0x8c5be1e5ebec7d5bd14f71427d1e84f3dd0314c0f7b2291e5b200ac8c7c3b925",
            "0x00000000000000000000000073d43dd9ac2c0fd004286f7a13f51bec163efb2c",
            "0x000000000000000000000000c8c309e34ef4fd87d869dd6e856934e3497a8965"
          ],
          "data": "0x00000000000000000000000000000000000000000000000000000000000f4240",
          "blockHash": "0x2b198a214463b35bc68bf0cdc61ceacb36dd759af4fa2f5bd6a3272d4193421b",
          "blockNumber": "0x1f40aef",
          "blockTimestamp": "0x68fb74be",
          "transactionHash": "0x53ee560a76c5746757d7e76890b000a011c7ab80f22ff41ae9af6d6ee8f6b811",
          "transactionIndex": "0x23",
          "logIndex": "0x4c",
          "removed": false
        }
      ],
      "logsBloom": "0x00000000040000000000000000000000000000000000000000000000000000000000000000000000000000000000000000000000000000010000000000200000000000000000000000000000000000000000000000000000000000000000000800000000000000000000000000000000000000000000000010000000000000040000000000000000000100000000000008000000000000000000000000000000020000000000000000000000000000000000000000000000000000000000000000000000000000000008000000000000000000000000000000000000000000000010000000000000000000000020000000000000000000000000000000000000",
      "type": "0x2",
      "transactionHash": "0x53ee560a76c5746757d7e76890b000a011c7ab80f22ff41ae9af6d6ee8f6b811",
      "transactionIndex": "0x23",
      "blockHash": "0x2b198a214463b35bc68bf0cdc61ceacb36dd759af4fa2f5bd6a3272d4193421b",
      "blockNumber": "0x1f40aef",
      "gasUsed": "0xd88d",
      "effectiveGasPrice": "0xf4293",
      "from": "0x73d43dd9ac2c0fd004286f7a13f51bec163efb2c",
      "to": "0x036cbd53842c5426634e7929541ec2318f3dcf7e",
      "contractAddress": null,
      "l1BaseFeeScalar": "0x44d",
      "l1BlobBaseFee": "0x1",
      "l1BlobBaseFeeScalar": "0xa118b",
      "l1Fee": "0x51",
      "l1GasPrice": "0x9",
      "l1GasUsed": "0x640"
    },
    {
      "status": "0x1",
      "cumulativeGasUsed": "0x423c4f",
      "logs": [
        {
          "address": "0x036cbd53842c5426634e7929541ec2318f3dcf7e",
          "topics": [
            "0xddf252ad1be2c89b69c2b068fc378daa952ba7f163c4a11628f55a4df523b3ef",
            "0x00000000000000000000000073d43dd9ac2c0fd004286f7a13f51bec163efb2c",
            "0x000000000000000000000000c8c309e34ef4fd87d869dd6e856934e3497a8965"
          ],
          "data": "0x00000000000000000000000000000000000000000000000000000000000f4240",
          "blockHash": "0x2b198a214463b35bc68bf0cdc61ceacb36dd759af4fa2f5bd6a3272d4193421b",
          "blockNumber": "0x1f40aef",
          "blockTimestamp": "0x68fb74be",
          "transactionHash": "0x8d3983f9fdfd352e837f800062985b84e49c459f191b15696629c5ab8ba5e38f",
          "transactionIndex": "0x24",
          "logIndex": "0x4d",
          "removed": false
        },
        {
          "address": "0xc8c309e34ef4fd87d869dd6e856934e3497a8965",
          "topics": [
            "0x2da466a7b24304f47e87fa2e1e5a81b9831ce54fec19055ce277ca2f39ba42c4",
            "0x00000000000000000000000073d43dd9ac2c0fd004286f7a13f51bec163efb2c"
          ],
          "data": "0x00000000000000000000000000000000000000000000000000000000000f4240",
          "blockHash": "0x2b198a214463b35bc68bf0cdc61ceacb36dd759af4fa2f5bd6a3272d4193421b",
          "blockNumber": "0x1f40aef",
          "blockTimestamp": "0x68fb74be",
          "transactionHash": "0x8d3983f9fdfd352e837f800062985b84e49c459f191b15696629c5ab8ba5e38f",
          "transactionIndex": "0x24",
          "logIndex": "0x4e",
          "removed": false
        }
      ],
      "logsBloom": "0x00000000040000000000000000000000000000000000000000000000000000000000000000000000000000000000000000000000000000010000000000000000000000000000000000000008000000000000000000000000000000000000200804000000000000004000000000000000000000000000000010000010000200040000000000000000000100000000000008000000000000000000000000000000000000000000000000000000000000000000000000000000000000000000000000000002000000000008000000000000000400000000000000000000000000000040000000000000000000000020000000000000000000000000000000000000",
      "type": "0x2",
      "transactionHash": "0x8d3983f9fdfd352e837f800062985b84e49c459f191b15696629c5ab8ba5e38f",
      "transactionIndex": "0x24",
      "blockHash": "0x2b198a214463b35bc68bf0cdc61ceacb36dd759af4fa2f5bd6a3272d4193421b",
      "blockNumber": "0x1f40aef",
      "gasUsed": "0x109e1",
      "effectiveGasPrice": "0xf4293",
      "from": "0x73d43dd9ac2c0fd004286f7a13f51bec163efb2c",
      "to": "0xc8c309e34ef4fd87d869dd6e856934e3497a8965",
      "contractAddress": null,
      "l1BaseFeeScalar": "0x44d",
      "l1BlobBaseFee": "0x1",
      "l1BlobBaseFeeScalar": "0xa118b",
      "l1Fee": "0x51",
      "l1GasPrice": "0x9",
      "l1GasUsed": "0x640"
    }
  ],
  "libraries": [],
  "pending": [],
  "returns": {},
  "timestamp": 1761309886326,
  "chain": 84532,
  "commit": "9eab8ae"
}