{
  "transactions": [
    {
      "hash": "0xede2a610782852305cefb5fb5147797c9fbf72a3003d12246e8397e5ed00f73c",
      "transactionType": "CALL",
      "contractName": null,
      "contractAddress": "0x036cbd53842c5426634e7929541ec2318f3dcf7e",
      "function": "approve(address,uint256)",
      "arguments": [
        "0x2E32D35E8C4aBf8d2649aa26314956bEf0449cE9",
        "200000"
      ],
      "transaction": {
        "from": "0x73d43dd9ac2c0fd004286f7a13f51bec163efb2c",
        "to": "0x036cbd53842c5426634e7929541ec2318f3dcf7e",
        "gas": "0x12b1b",
        "value": "0x0",
        "input": "0x095ea7b30000000000000000000000002e32d35e8c4abf8d2649aa26314956bef0449ce90000000000000000000000000000000000000000000000000000000000030d40",
        "nonce": "0x32f",
        "chainId": "0x14a34"
      },
      "additionalContracts": [],
      "isFixedGasLimit": false
    },
    {
      "hash": "0x04767dae44f056bac11faa7d3b442ba3ee9431c144df272e3a574789fecd6bda",
      "transactionType": "CALL",
      "contractName": null,
      "contractAddress": "0x2e32d35e8c4abf8d2649aa26314956bef0449ce9",
      "function": "deposit(address,uint256)",
      "arguments": [
        "0x036CbD53842c5426634e7929541eC2318f3dCF7e",
        "200000"
      ],
      "transaction": {
        "from": "0x73d43dd9ac2c0fd004286f7a13f51bec163efb2c",
        "to": "0x2e32d35e8c4abf8d2649aa26314956bef0449ce9",
        "gas": "0x293a2",
        "value": "0x0",
        "input": "0x47e7ef24000000000000000000000000036cbd53842c5426634e7929541ec2318f3dcf7e0000000000000000000000000000000000000000000000000000000000030d40",
        "nonce": "0x330",
        "chainId": "0x14a34"
      },
      "additionalContracts": [],
      "isFixedGasLimit": false
    },
    {
      "hash": "0xb1e1392374836c8a506487297cfbcccaab7e62ea37e1e3c6c0c5c05483a4f002",
      "transactionType": "CALL",
      "contractName": null,
      "contractAddress": "0x4200000000000000000000000000000000000006",
      "function": "approve(address,uint256)",
      "arguments": [
        "0x2E32D35E8C4aBf8d2649aa26314956bEf0449cE9",
        "1000000000000000"
      ],
      "transaction": {
        "from": "0x73d43dd9ac2c0fd004286f7a13f51bec163efb2c",
        "to": "0x4200000000000000000000000000000000000006",
        "gas": "0xf85b",
        "value": "0x0",
        "input": "0x095ea7b30000000000000000000000002e32d35e8c4abf8d2649aa26314956bef0449ce900000000000000000000000000000000000000000000000000038d7ea4c68000",
        "nonce": "0x331",
        "chainId": "0x14a34"
      },
      "additionalContracts": [],
      "isFixedGasLimit": false
    },
    {
      "hash": "0xaf88ad7a402ee8aeafcc3b8e31fad6b7a4cdbbc055d879673dd6f34613f7b947",
      "transactionType": "CALL",
      "contractName": null,
      "contractAddress": "0x2e32d35e8c4abf8d2649aa26314956bef0449ce9",
      "function": "deposit(address,uint256)",
      "arguments": [
        "0x4200000000000000000000000000000000000006",
        "1000000000000000"
      ],
      "transaction": {
        "from": "0x73d43dd9ac2c0fd004286f7a13f51bec163efb2c",
        "to": "0x2e32d35e8c4abf8d2649aa26314956bef0449ce9",
        "gas": "0x1965b",
        "value": "0x0",
        "input": "0x47e7ef24000000000000000000000000420000000000000000000000000000000000000600000000000000000000000000000000000000000000000000038d7ea4c68000",
        "nonce": "0x332",
        "chainId": "0x14a34"
      },
      "additionalContracts": [],
      "isFixedGasLimit": false
    },
    {
      "hash": "0x9426b8164cb21adcc75adf58c12a83b9538aec27353ba555744f514d48f3465f",
      "transactionType": "CALL",
      "contractName": null,
      "contractAddress": "0x036cbd53842c5426634e7929541ec2318f3dcf7e",
      "function": "approve(address,uint256)",
      "arguments": [
        "0xF9C37099EA23388c965b390E74B3B201FEd75d81",
        "100000"
      ],
      "transaction": {
        "from": "0x73d43dd9ac2c0fd004286f7a13f51bec163efb2c",
        "to": "0x036cbd53842c5426634e7929541ec2318f3dcf7e",
        "gas": "0x12b1b",
        "value": "0x0",
        "input": "0x095ea7b3000000000000000000000000f9c37099ea23388c965b390e74b3b201fed75d8100000000000000000000000000000000000000000000000000000000000186a0",
        "nonce": "0x333",
        "chainId": "0x14a34"
      },
      "additionalContracts": [],
      "isFixedGasLimit": false
    },
    {
      "hash": "0xc554bb4a8f278d1c410286d40630a68384ed231bec3d7437a47ba8b9df3182d6",
      "transactionType": "CALL",
      "contractName": null,
      "contractAddress": "0x4200000000000000000000000000000000000006",
      "function": "approve(address,uint256)",
      "arguments": [
        "0xF9C37099EA23388c965b390E74B3B201FEd75d81",
        "500000000000000"
      ],
      "transaction": {
        "from": "0x73d43dd9ac2c0fd004286f7a13f51bec163efb2c",
        "to": "0x4200000000000000000000000000000000000006",
        "gas": "0xf85b",
        "value": "0x0",
        "input": "0x095ea7b3000000000000000000000000f9c37099ea23388c965b390e74b3b201fed75d810000000000000000000000000000000000000000000000000001c6bf52634000",
        "nonce": "0x334",
        "chainId": "0x14a34"
      },
      "additionalContracts": [],
      "isFixedGasLimit": false
    },
    {
      "hash": "0xa0fb951f09c7808a706126ab37babf0777de96094c6cb839813ab1ee0698b33a",
      "transactionType": "CALL",
      "contractName": null,
      "contractAddress": "0xf9c37099ea23388c965b390e74b3b201fed75d81",
      "function": "addLiquidityUniswapV3(address,address,uint24,int24,int24,uint256,uint256,uint256,uint256)",
      "arguments": [
        "0x036CbD53842c5426634e7929541eC2318f3dCF7e",
        "0x4200000000000000000000000000000000000006",
        "3000",
        "-887220",
        "887220",
        "100000",
        "500000000000000",
        "0",
        "0"
      ],
      "transaction": {
        "from": "0x73d43dd9ac2c0fd004286f7a13f51bec163efb2c",
        "to": "0xf9c37099ea23388c965b390e74b3b201fed75d81",
        "gas": "0x198dd0",
        "value": "0x0",
        "input": "0xe40345e2000000000000000000000000036cbd53842c5426634e7929541ec2318f3dcf7e00000000000000000000000042000000000000000000000000000000000000060000000000000000000000000000000000000000000000000000000000000bb8fffffffffffffffffffffffffffffffffffffffffffffffffffffffffff2764c00000000000000000000000000000000000000000000000000000000000d89b400000000000000000000000000000000000000000000000000000000000186a00000000000000000000000000000000000000000000000000001c6bf5263400000000000000000000000000000000000000000000000000000000000000000000000000000000000000000000000000000000000000000000000000000000000",
        "nonce": "0x335",
        "chainId": "0x14a34"
      },
      "additionalContracts": [],
      "isFixedGasLimit": false
    }
  ],
  "receipts": [
    {
      "status": "0x1",
      "cumulativeGasUsed": "0x4a7b68",
      "logs": [
        {
          "address": "0x036cbd53842c5426634e7929541ec2318f3dcf7e",
          "topics": [
            "0x8c5be1e5ebec7d5bd14f71427d1e84f3dd0314c0f7b2291e5b200ac8c7c3b925",
            "0x00000000000000000000000073d43dd9ac2c0fd004286f7a13f51bec163efb2c",
            "0x0000000000000000000000002e32d35e8c4abf8d2649aa26314956bef0449ce9"
          ],
          "data": "0x0000000000000000000000000000000000000000000000000000000000030d40",
          "blockHash": "0x4b85ecd5c6242e941f8f8585cec5ec68f536a8dcc2170036fe916d26f518af46",
          "blockNumber": "0x1ee5ac9",
          "blockTimestamp": "0x68f01472",
          "transactionHash": "0xede2a610782852305cefb5fb5147797c9fbf72a3003d12246e8397e5ed00f73c",
          "transactionIndex": "0x13",
          "logIndex": "0x77",
          "removed": false
        }
      ],
      "logsBloom": "0x00000000040000000000000000000000000000000000000000000000000000000000000000000000000000000000000000000000000000000000000000200000000000000000000000000000000000000000000000000000000000000000000800000000000000000000000000000000000020000000000010100080000000000000000000000000000100000000000008000000000000000000000000000000020000000000000000000000000000000000000000000000000000000000000000000000000000000000000000000000000000000000000000000000000000000010000000000000000000000020000000000000000000000000000000000000",
      "type": "0x2",
      "transactionHash": "0xede2a610782852305cefb5fb5147797c9fbf72a3003d12246e8397e5ed00f73c",
      "transactionIndex": "0x13",
      "blockHash": "0x4b85ecd5c6242e941f8f8585cec5ec68f536a8dcc2170036fe916d26f518af46",
      "blockNumber": "0x1ee5ac9",
      "gasUsed": "0xd88d",
      "effectiveGasPrice": "0xf42b6",
      "from": "0x73d43dd9ac2c0fd004286f7a13f51bec163efb2c",
      "to": "0x036cbd53842c5426634e7929541ec2318f3dcf7e",
      "contractAddress": null,
      "l1BaseFeeScalar": "0x44d",
      "l1BlobBaseFee": "0x3",
      "l1BlobBaseFeeScalar": "0xa118b",
      "l1Fee": "0x1b4",
      "l1GasPrice": "0x9",
      "l1GasUsed": "0x640"
    },
    {
      "status": "0x1",
      "cumulativeGasUsed": "0x4c58f8",
      "logs": [
        {
          "address": "0x036cbd53842c5426634e7929541ec2318f3dcf7e",
          "topics": [
            "0xddf252ad1be2c89b69c2b068fc378daa952ba7f163c4a11628f55a4df523b3ef",
            "0x00000000000000000000000073d43dd9ac2c0fd004286f7a13f51bec163efb2c",
            "0x0000000000000000000000002e32d35e8c4abf8d2649aa26314956bef0449ce9"
          ],
          "data": "0x0000000000000000000000000000000000000000000000000000000000030d40",
          "blockHash": "0x4b85ecd5c6242e941f8f8585cec5ec68f536a8dcc2170036fe916d26f518af46",
          "blockNumber": "0x1ee5ac9",
          "blockTimestamp": "0x68f01472",
          "transactionHash": "0x04767dae44f056bac11faa7d3b442ba3ee9431c144df272e3a574789fecd6bda",
          "transactionIndex": "0x14",
          "logIndex": "0x78",
          "removed": false
        },
        {
          "address": "0x2e32d35e8c4abf8d2649aa26314956bef0449ce9",
          "topics": [
            "0x2da466a7b24304f47e87fa2e1e5a81b9831ce54fec19055ce277ca2f39ba42c4",
            "0x00000000000000000000000073d43dd9ac2c0fd004286f7a13f51bec163efb2c"
          ],
          "data": "0x0000000000000000000000000000000000000000000000000000000000030d40",
          "blockHash": "0x4b85ecd5c6242e941f8f8585cec5ec68f536a8dcc2170036fe916d26f518af46",
          "blockNumber": "0x1ee5ac9",
          "blockTimestamp": "0x68f01472",
          "transactionHash": "0x04767dae44f056bac11faa7d3b442ba3ee9431c144df272e3a574789fecd6bda",
          "transactionIndex": "0x14",
          "logIndex": "0x79",
          "removed": false
        }
      ],
      "logsBloom": "0x0000000004000000000000000000000000000000000000000000000000000000000000000000000000000000000000000000000000000000000000000000000000000000000000000000000800000000000000000000000000000000000020080000000000000000000000000000000000002000000000001010009000020000000000000000000000090000000000000c000000000000000000000000000000000000000000000000000000000000000000000000000000000000000000000000000002000000000000000000000000000000000000000000000000000000000040000000000000000000000020000000000000000000020000000000000000",
      "type": "0x2",
      "transactionHash": "0x04767dae44f056bac11faa7d3b442ba3ee9431c144df272e3a574789fecd6bda",
      "transactionIndex": "0x14",
      "blockHash": "0x4b85ecd5c6242e941f8f8585cec5ec68f536a8dcc2170036fe916d26f518af46",
      "blockNumber": "0x1ee5ac9",
      "gasUsed": "0x1dd90",
      "effectiveGasPrice": "0xf42b6",
      "from": "0x73d43dd9ac2c0fd004286f7a13f51bec163efb2c",
      "to": "0x2e32d35e8c4abf8d2649aa26314956bef0449ce9",
      "contractAddress": null,
      "l1BaseFeeScalar": "0x44d",
      "l1BlobBaseFee": "0x3",
      "l1BlobBaseFeeScalar": "0xa118b",
      "l1Fee": "0x1b4",
      "l1GasPrice": "0x9",
      "l1GasUsed": "0x640"
    },
    {
      "status": "0x1",
      "cumulativeGasUsed": "0x4d0cc7",
      "logs": [
        {
          "address": "0x4200000000000000000000000000000000000006",
          "topics": [
            "0x8c5be1e5ebec7d5bd14f71427d1e84f3dd0314c0f7b2291e5b200ac8c7c3b925",
            "0x00000000000000000000000073d43dd9ac2c0fd004286f7a13f51bec163efb2c",
            "0x0000000000000000000000002e32d35e8c4abf8d2649aa26314956bef0449ce9"
          ],
          "data": "0x00000000000000000000000000000000000000000000000000038d7ea4c68000",
          "blockHash": "0x4b85ecd5c6242e941f8f8585cec5ec68f536a8dcc2170036fe916d26f518af46",
          "blockNumber": "0x1ee5ac9",
          "blockTimestamp": "0x68f01472",
          "transactionHash": "0xb1e1392374836c8a506487297cfbcccaab7e62ea37e1e3c6c0c5c05483a4f002",
          "transactionIndex": "0x15",
          "logIndex": "0x7a",
          "removed": false
        }
      ],
      "logsBloom": "0x00000000000000000000000000000000000000000000000000040000000000000000000000000000000000100000000000000000000000000000000000200000000000000000000000000000000000000000000000000000000000000000000000000000000000000000000000000000000020000000000010100080000000000000000000000000000100000000000008000000002000000000000000000000020000000000000000000000000000000000000000000000000000000000000000000000000000000000000000000000000000000000000000000000000000000010000000000000000000000000000000000000000000000000000000000000",
      "type": "0x2",
      "transactionHash": "0xb1e1392374836c8a506487297cfbcccaab7e62ea37e1e3c6c0c5c05483a4f002",
      "transactionIndex": "0x15",
      "blockHash": "0x4b85ecd5c6242e941f8f8585cec5ec68f536a8dcc2170036fe916d26f518af46",
      "blockNumber": "0x1ee5ac9",
      "gasUsed": "0xb3cf",
      "effectiveGasPrice": "0xf42b6",
      "from": "0x73d43dd9ac2c0fd004286f7a13f51bec163efb2c",
      "to": "0x4200000000000000000000000000000000000006",
      "contractAddress": null,
      "l1BaseFeeScalar": "0x44d",
      "l1BlobBaseFee": "0x3",
      "l1BlobBaseFeeScalar": "0xa118b",
      "l1Fee": "0x1b4",
      "l1GasPrice": "0x9",
      "l1GasUsed": "0x640"
    },
    {
      "status": "0x1",
      "cumulativeGasUsed": "0x4e22a1",
      "logs": [
        {
          "address": "0x4200000000000000000000000000000000000006",
          "topics": [
            "0xddf252ad1be2c89b69c2b068fc378daa952ba7f163c4a11628f55a4df523b3ef",
            "0x00000000000000000000000073d43dd9ac2c0fd004286f7a13f51bec163efb2c",
            "0x0000000000000000000000002e32d35e8c4abf8d2649aa26314956bef0449ce9"
          ],
          "data": "0x00000000000000000000000000000000000000000000000000038d7ea4c68000",
          "blockHash": "0x4b85ecd5c6242e941f8f8585cec5ec68f536a8dcc2170036fe916d26f518af46",
          "blockNumber": "0x1ee5ac9",
          "blockTimestamp": "0x68f01472",
          "transactionHash": "0xaf88ad7a402ee8aeafcc3b8e31fad6b7a4cdbbc055d879673dd6f34613f7b947",
          "transactionIndex": "0x16",
          "logIndex": "0x7b",
          "removed": false
        },
        {
          "address": "0x2e32d35e8c4abf8d2649aa26314956bef0449ce9",
          "topics": [
            "0x2da466a7b24304f47e87fa2e1e5a81b9831ce54fec19055ce277ca2f39ba42c4",
            "0x00000000000000000000000073d43dd9ac2c0fd004286f7a13f51bec163efb2c"
          ],
          "data": "0x00000000000000000000000000000000000000000000000000038d7ea4c68000",
          "blockHash": "0x4b85ecd5c6242e941f8f8585cec5ec68f536a8dcc2170036fe916d26f518af46",
          "blockNumber": "0x1ee5ac9",
          "blockTimestamp": "0x68f01472",
          "transactionHash": "0xaf88ad7a402ee8aeafcc3b8e31fad6b7a4cdbbc055d879673dd6f34613f7b947",
          "transactionIndex": "0x16",
          "logIndex": "0x7c",
          "removed": false
        }
      ],
      "logsBloom": "0x0000000000000000000000000000000000000000000000000004000000000000000000000000000000000010000000000000000000000000000000000000000000000000000000000000000800000000000000000000000000000000000020000000000000000000000000000000000000002000000000001010009000020000000000000000000000090000000000000c000000002000000000000000000000000000000000000000000000000000000000000000000000000000000000000000000002000000000000000000000000000000000000000000000000000000000040000000000000000000000000000000000000000000020000000000000000",
      "type": "0x2",
      "transactionHash": "0xaf88ad7a402ee8aeafcc3b8e31fad6b7a4cdbbc055d879673dd6f34613f7b947",
      "transactionIndex": "0x16",
      "blockHash": "0x4b85ecd5c6242e941f8f8585cec5ec68f536a8dcc2170036fe916d26f518af46",
      "blockNumber": "0x1ee5ac9",
      "gasUsed": "0x115da",
      "effectiveGasPrice": "0xf42b6",
      "from": "0x73d43dd9ac2c0fd004286f7a13f51bec163efb2c",
      "to": "0x2e32d35e8c4abf8d2649aa26314956bef0449ce9",
      "contractAddress": null,
      "l1BaseFeeScalar": "0x44d",
      "l1BlobBaseFee": "0x3",
      "l1BlobBaseFeeScalar": "0xa118b",
      "l1Fee": "0x1b4",
      "l1GasPrice": "0x9",
      "l1GasUsed": "0x640"
    },
    {
      "status": "0x1",
      "cumulativeGasUsed": "0x4efb2e",
      "logs": [
        {
          "address": "0x036cbd53842c5426634e7929541ec2318f3dcf7e",
          "topics": [
            "0x8c5be1e5ebec7d5bd14f71427d1e84f3dd0314c0f7b2291e5b200ac8c7c3b925",
            "0x00000000000000000000000073d43dd9ac2c0fd004286f7a13f51bec163efb2c",
            "0x000000000000000000000000f9c37099ea23388c965b390e74b3b201fed75d81"
          ],
          "data": "0x00000000000000000000000000000000000000000000000000000000000186a0",
          "blockHash": "0x293e44c50581be251c03490a75c12d1c0efad61d14e49613df4ccc63aebca452",
          "blockNumber": "0x1ee5ac9",
          "blockTimestamp": "0x68f01472",
          "transactionHash": "0x9426b8164cb21adcc75adf58c12a83b9538aec27353ba555744f514d48f3465f",
          "transactionIndex": "0x17",
          "logIndex": "0x7d",
          "removed": false
        }
      ],
      "logsBloom": "0x00000000040000000000000000000000000000000000000000000000000000000000000000000000000000000000000000000000000000000000000010200000000000000000000000000000000000000000000000000000000000000000000800000000000000000000000000000000000000000000000010000000000000000000000000000000000100000000000008000000000000000000000000000000020000000000000000000000000004000000000000000000000000000000000000000000000000000000000000000000008000000000000000000000000000000010000000000000000000000020000000000000000000000000000000000000",
      "type": "0x2",
      "transactionHash": "0x9426b8164cb21adcc75adf58c12a83b9538aec27353ba555744f514d48f3465f",
      "transactionIndex": "0x17",
      "blockHash": "0x293e44c50581be251c03490a75c12d1c0efad61d14e49613df4ccc63aebca452",
      "blockNumber": "0x1ee5ac9",
      "gasUsed": "0xd88d",
      "effectiveGasPrice": "0xf42b6",
      "from": "0x73d43dd9ac2c0fd004286f7a13f51bec163efb2c",
      "to": "0x036cbd53842c5426634e7929541ec2318f3dcf7e",
      "contractAddress": null,
      "l1BaseFeeScalar": "0x44d",
      "l1BlobBaseFee": "0x3",
      "l1BlobBaseFeeScalar": "0xa118b",
      "l1Fee": "0xd5",
      "l1GasPrice": "0x9",
      "l1GasUsed": "0x640"
    },
    {
      "status": "0x1",
      "cumulativeGasUsed": "0x4faefd",
      "logs": [
        {
          "address": "0x4200000000000000000000000000000000000006",
          "topics": [
            "0x8c5be1e5ebec7d5bd14f71427d1e84f3dd0314c0f7b2291e5b200ac8c7c3b925",
            "0x00000000000000000000000073d43dd9ac2c0fd004286f7a13f51bec163efb2c",
            "0x000000000000000000000000f9c37099ea23388c965b390e74b3b201fed75d81"
          ],
          "data": "0x0000000000000000000000000000000000000000000000000001c6bf52634000",
          "blockHash": "0x293e44c50581be251c03490a75c12d1c0efad61d14e49613df4ccc63aebca452",
          "blockNumber": "0x1ee5ac9",
          "blockTimestamp": "0x68f01472",
          "transactionHash": "0xc554bb4a8f278d1c410286d40630a68384ed231bec3d7437a47ba8b9df3182d6",
          "transactionIndex": "0x18",
          "logIndex": "0x7e",
          "removed": false
        }
      ],
      "logsBloom": "0x00000000000000000000000000000000000000000000000000040000000000000000000000000000000000100000000000000000000000000000000010200000000000000000000000000000000000000000000000000000000000000000000000000000000000000000000000000000000000000000000010000000000000000000000000000000000100000000000008000000002000000000000000000000020000000000000000000000000004000000000000000000000000000000000000000000000000000000000000000000008000000000000000000000000000000010000000000000000000000000000000000000000000000000000000000000",
      "type": "0x2",
      "transactionHash": "0xc554bb4a8f278d1c410286d40630a68384ed231bec3d7437a47ba8b9df3182d6",
      "transactionIndex": "0x18",
      "blockHash": "0x293e44c50581be251c03490a75c12d1c0efad61d14e49613df4ccc63aebca452",
      "blockNumber": "0x1ee5ac9",
      "gasUsed": "0xb3cf",
      "effectiveGasPrice": "0xf42b6",
      "from": "0x73d43dd9ac2c0fd004286f7a13f51bec163efb2c",
      "to": "0x4200000000000000000000000000000000000006",
      "contractAddress": null,
      "l1BaseFeeScalar": "0x44d",
      "l1BlobBaseFee": "0x3",
      "l1BlobBaseFeeScalar": "0xa118b",
      "l1Fee": "0xd5",
      "l1GasPrice": "0x9",
      "l1GasUsed": "0x640"
    },
    {
      "status": "0x1",
      "cumulativeGasUsed": "0x612806",
      "logs": [
        {
          "address": "0x036cbd53842c5426634e7929541ec2318f3dcf7e",
          "topics": [
            "0xddf252ad1be2c89b69c2b068fc378daa952ba7f163c4a11628f55a4df523b3ef",
            "0x00000000000000000000000073d43dd9ac2c0fd004286f7a13f51bec163efb2c",
            "0x000000000000000000000000ec8b597df83f25ac3191bb6deda31aad59c4162d"
          ],
          "data": "0x00000000000000000000000000000000000000000000000000000000000186a0",
          "blockHash": "0x4b85ecd5c6242e941f8f8585cec5ec68f536a8dcc2170036fe916d26f518af46",
          "blockNumber": "0x1ee5ac9",
          "blockTimestamp": "0x68f01472",
          "transactionHash": "0xa0fb951f09c7808a706126ab37babf0777de96094c6cb839813ab1ee0698b33a",
          "transactionIndex": "0x19",
          "logIndex": "0x7f",
          "removed": false
        },
        {
          "address": "0x4200000000000000000000000000000000000006",
          "topics": [
            "0xddf252ad1be2c89b69c2b068fc378daa952ba7f163c4a11628f55a4df523b3ef",
            "0x00000000000000000000000073d43dd9ac2c0fd004286f7a13f51bec163efb2c",
            "0x000000000000000000000000ec8b597df83f25ac3191bb6deda31aad59c4162d"
          ],
          "data": "0x0000000000000000000000000000000000000000000000000001c6bf52634000",
          "blockHash": "0x4b85ecd5c6242e941f8f8585cec5ec68f536a8dcc2170036fe916d26f518af46",
          "blockNumber": "0x1ee5ac9",
          "blockTimestamp": "0x68f01472",
          "transactionHash": "0xa0fb951f09c7808a706126ab37babf0777de96094c6cb839813ab1ee0698b33a",
          "transactionIndex": "0x19",
          "logIndex": "0x80",
          "removed": false
        },
        {
          "address": "0x036cbd53842c5426634e7929541ec2318f3dcf7e",
          "topics": [
            "0x8c5be1e5ebec7d5bd14f71427d1e84f3dd0314c0f7b2291e5b200ac8c7c3b925",
            "0x000000000000000000000000ec8b597df83f25ac3191bb6deda31aad59c4162d",
            "0x00000000000000000000000027f971cb582bf9e50f397e4d29a5c7a34f11faa2"
          ],
          "data": "0x00000000000000000000000000000000000000000000000000000000000186a0",
          "blockHash": "0x4b85ecd5c6242e941f8f8585cec5ec68f536a8dcc2170036fe916d26f518af46",
          "blockNumber": "0x1ee5ac9",
          "blockTimestamp": "0x68f01472",
          "transactionHash": "0xa0fb951f09c7808a706126ab37babf0777de96094c6cb839813ab1ee0698b33a",
          "transactionIndex": "0x19",
          "logIndex": "0x81",
          "removed": false
        },
        {
          "address": "0x4200000000000000000000000000000000000006",
          "topics": [
            "0x8c5be1e5ebec7d5bd14f71427d1e84f3dd0314c0f7b2291e5b200ac8c7c3b925",
            "0x000000000000000000000000ec8b597df83f25ac3191bb6deda31aad59c4162d",
            "0x00000000000000000000000027f971cb582bf9e50f397e4d29a5c7a34f11faa2"
          ],
          "data": "0x0000000000000000000000000000000000000000000000000001c6bf52634000",
          "blockHash": "0x4b85ecd5c6242e941f8f8585cec5ec68f536a8dcc2170036fe916d26f518af46",
          "blockNumber": "0x1ee5ac9",
          "blockTimestamp": "0x68f01472",
          "transactionHash": "0xa0fb951f09c7808a706126ab37babf0777de96094c6cb839813ab1ee0698b33a",
          "transactionIndex": "0x19",
          "logIndex": "0x82",
          "removed": false
        },
        {
          "address": "0x036cbd53842c5426634e7929541ec2318f3dcf7e",
          "topics": [
            "0xddf252ad1be2c89b69c2b068fc378daa952ba7f163c4a11628f55a4df523b3ef",
            "0x000000000000000000000000ec8b597df83f25ac3191bb6deda31aad59c4162d",
            "0x00000000000000000000000046880b404cd35c165eddeff7421019f8dd25f4ad"
          ],
          "data": "0x00000000000000000000000000000000000000000000000000000000000186a0",
          "blockHash": "0x4b85ecd5c6242e941f8f8585cec5ec68f536a8dcc2170036fe916d26f518af46",
          "blockNumber": "0x1ee5ac9",
          "blockTimestamp": "0x68f01472",
          "transactionHash": "0xa0fb951f09c7808a706126ab37babf0777de96094c6cb839813ab1ee0698b33a",
          "transactionIndex": "0x19",
          "logIndex": "0x83",
          "removed": false
        },
        {
          "address": "0x4200000000000000000000000000000000000006",
          "topics": [
            "0xddf252ad1be2c89b69c2b068fc378daa952ba7f163c4a11628f55a4df523b3ef",
            "0x000000000000000000000000ec8b597df83f25ac3191bb6deda31aad59c4162d",
            "0x00000000000000000000000046880b404cd35c165eddeff7421019f8dd25f4ad"
          ],
          "data": "0x000000000000000000000000000000000000000000000000000022fb306693e3",
          "blockHash": "0x4b85ecd5c6242e941f8f8585cec5ec68f536a8dcc2170036fe916d26f518af46",
          "blockNumber": "0x1ee5ac9",
          "blockTimestamp": "0x68f01472",
          "transactionHash": "0xa0fb951f09c7808a706126ab37babf0777de96094c6cb839813ab1ee0698b33a",
          "transactionIndex": "0x19",
          "logIndex": "0x84",
          "removed": false
        },
        {
          "address": "0x46880b404cd35c165eddeff7421019f8dd25f4ad",
          "topics": [
            "0x7a53080ba414158be7ec69b987b5fb7d07dee101fe85488f0853ae16239d0bde",
            "0x00000000000000000000000027f971cb582bf9e50f397e4d29a5c7a34f11faa2",
            "0xfffffffffffffffffffffffffffffffffffffffffffffffffffffffffff2764c",
            "0x00000000000000000000000000000000000000000000000000000000000d89b4"
          ],
          "data": "0x00000000000000000000000027f971cb582bf9e50f397e4d29a5c7a34f11faa20000000000000000000000000000000000000000000000000000000074e538cf00000000000000000000000000000000000000000000000000000000000186a0000000000000000000000000000000000000000000000000000022fb306693e3",
          "blockHash": "0x4b85ecd5c6242e941f8f8585cec5ec68f536a8dcc2170036fe916d26f518af46",
          "blockNumber": "0x1ee5ac9",
          "blockTimestamp": "0x68f01472",
          "transactionHash": "0xa0fb951f09c7808a706126ab37babf0777de96094c6cb839813ab1ee0698b33a",
          "transactionIndex": "0x19",
          "logIndex": "0x85",
          "removed": false
        },
        {
          "address": "0x27f971cb582bf9e50f397e4d29a5c7a34f11faa2",
          "topics": [
            "0xddf252ad1be2c89b69c2b068fc378daa952ba7f163c4a11628f55a4df523b3ef",
            "0x0000000000000000000000000000000000000000000000000000000000000000",
            "0x00000000000000000000000073d43dd9ac2c0fd004286f7a13f51bec163efb2c",
            "0x000000000000000000000000000000000000000000000000000000000001157a"
          ],
          "data": "0x",
          "blockHash": "0x4b85ecd5c6242e941f8f8585cec5ec68f536a8dcc2170036fe916d26f518af46",
          "blockNumber": "0x1ee5ac9",
          "blockTimestamp": "0x68f01472",
          "transactionHash": "0xa0fb951f09c7808a706126ab37babf0777de96094c6cb839813ab1ee0698b33a",
          "transactionIndex": "0x19",
          "logIndex": "0x86",
          "removed": false
        },
        {
          "address": "0x27f971cb582bf9e50f397e4d29a5c7a34f11faa2",
          "topics": [
            "0x3067048beee31b25b2f1681f88dac838c8bba36af25bfb2b7cf7473a5847e35f",
            "0x000000000000000000000000000000000000000000000000000000000001157a"
          ],
          "data": "0x0000000000000000000000000000000000000000000000000000000074e538cf00000000000000000000000000000000000000000000000000000000000186a0000000000000000000000000000000000000000000000000000022fb306693e3",
          "blockHash": "0x4b85ecd5c6242e941f8f8585cec5ec68f536a8dcc2170036fe916d26f518af46",
          "blockNumber": "0x1ee5ac9",
          "blockTimestamp": "0x68f01472",
          "transactionHash": "0xa0fb951f09c7808a706126ab37babf0777de96094c6cb839813ab1ee0698b33a",
          "transactionIndex": "0x19",
          "logIndex": "0x87",
          "removed": false
        },
        {
          "address": "0x036cbd53842c5426634e7929541ec2318f3dcf7e",
          "topics": [
            "0xddf252ad1be2c89b69c2b068fc378daa952ba7f163c4a11628f55a4df523b3ef",
            "0x0000000000000000000000002e32d35e8c4abf8d2649aa26314956bef0449ce9",
            "0x000000000000000000000000ec8b597df83f25ac3191bb6deda31aad59c4162d"
          ],
          "data": "0x00000000000000000000000000000000000000000000000000000000000186a0",
          "blockHash": "0x4b85ecd5c6242e941f8f8585cec5ec68f536a8dcc2170036fe916d26f518af46",
          "blockNumber": "0x1ee5ac9",
          "blockTimestamp": "0x68f01472",
          "transactionHash": "0xa0fb951f09c7808a706126ab37babf0777de96094c6cb839813ab1ee0698b33a",
          "transactionIndex": "0x19",
          "logIndex": "0x88",
          "removed": false
        },
        {
          "address": "0x4200000000000000000000000000000000000006",
          "topics": [
            "0xddf252ad1be2c89b69c2b068fc378daa952ba7f163c4a11628f55a4df523b3ef",
            "0x0000000000000000000000002e32d35e8c4abf8d2649aa26314956bef0449ce9",
            "0x000000000000000000000000ec8b597df83f25ac3191bb6deda31aad59c4162d"
          ],
          "data": "0x0000000000000000000000000000000000000000000000000001c6bf52634000",
          "blockHash": "0x4b85ecd5c6242e941f8f8585cec5ec68f536a8dcc2170036fe916d26f518af46",
          "blockNumber": "0x1ee5ac9",
          "blockTimestamp": "0x68f01472",
          "transactionHash": "0xa0fb951f09c7808a706126ab37babf0777de96094c6cb839813ab1ee0698b33a",
          "transactionIndex": "0x19",
          "logIndex": "0x89",
          "removed": false
        },
        {
          "address": "0x036cbd53842c5426634e7929541ec2318f3dcf7e",
          "topics": [
            "0x8c5be1e5ebec7d5bd14f71427d1e84f3dd0314c0f7b2291e5b200ac8c7c3b925",
            "0x000000000000000000000000ec8b597df83f25ac3191bb6deda31aad59c4162d",
            "0x00000000000000000000000027f971cb582bf9e50f397e4d29a5c7a34f11faa2"
          ],
          "data": "0x00000000000000000000000000000000000000000000000000000000000186a0",
          "blockHash": "0x4b85ecd5c6242e941f8f8585cec5ec68f536a8dcc2170036fe916d26f518af46",
          "blockNumber": "0x1ee5ac9",
          "blockTimestamp": "0x68f01472",
          "transactionHash": "0xa0fb951f09c7808a706126ab37babf0777de96094c6cb839813ab1ee0698b33a",
          "transactionIndex": "0x19",
          "logIndex": "0x8a",
          "removed": false
        },
        {
          "address": "0x4200000000000000000000000000000000000006",
          "topics": [
            "0x8c5be1e5ebec7d5bd14f71427d1e84f3dd0314c0f7b2291e5b200ac8c7c3b925",
            "0x000000000000000000000000ec8b597df83f25ac3191bb6deda31aad59c4162d",
            "0x00000000000000000000000027f971cb582bf9e50f397e4d29a5c7a34f11faa2"
          ],
          "data": "0x0000000000000000000000000000000000000000000000000001c6bf52634000",
          "blockHash": "0x4b85ecd5c6242e941f8f8585cec5ec68f536a8dcc2170036fe916d26f518af46",
          "blockNumber": "0x1ee5ac9",
          "blockTimestamp": "0x68f01472",
          "transactionHash": "0xa0fb951f09c7808a706126ab37babf0777de96094c6cb839813ab1ee0698b33a",
          "transactionIndex": "0x19",
          "logIndex": "0x8b",
          "removed": false
        },
        {
          "address": "0x036cbd53842c5426634e7929541ec2318f3dcf7e",
          "topics": [
            "0xddf252ad1be2c89b69c2b068fc378daa952ba7f163c4a11628f55a4df523b3ef",
            "0x000000000000000000000000ec8b597df83f25ac3191bb6deda31aad59c4162d",
            "0x00000000000000000000000046880b404cd35c165eddeff7421019f8dd25f4ad"
          ],
          "data": "0x00000000000000000000000000000000000000000000000000000000000186a0",
          "blockHash": "0x4b85ecd5c6242e941f8f8585cec5ec68f536a8dcc2170036fe916d26f518af46",
          "blockNumber": "0x1ee5ac9",
          "blockTimestamp": "0x68f01472",
          "transactionHash": "0xa0fb951f09c7808a706126ab37babf0777de96094c6cb839813ab1ee0698b33a",
          "transactionIndex": "0x19",
          "logIndex": "0x8c",
          "removed": false
        },
        {
          "address": "0x4200000000000000000000000000000000000006",
          "topics": [
            "0xddf252ad1be2c89b69c2b068fc378daa952ba7f163c4a11628f55a4df523b3ef",
            "0x000000000000000000000000ec8b597df83f25ac3191bb6deda31aad59c4162d",
            "0x00000000000000000000000046880b404cd35c165eddeff7421019f8dd25f4ad"
          ],
          "data": "0x000000000000000000000000000000000000000000000000000022fb306693e3",
          "blockHash": "0x4b85ecd5c6242e941f8f8585cec5ec68f536a8dcc2170036fe916d26f518af46",
          "blockNumber": "0x1ee5ac9",
          "blockTimestamp": "0x68f01472",
          "transactionHash": "0xa0fb951f09c7808a706126ab37babf0777de96094c6cb839813ab1ee0698b33a",
          "transactionIndex": "0x19",
          "logIndex": "0x8d",
          "removed": false
        },
        {
          "address": "0x46880b404cd35c165eddeff7421019f8dd25f4ad",
          "topics": [
            "0x7a53080ba414158be7ec69b987b5fb7d07dee101fe85488f0853ae16239d0bde",
            "0x00000000000000000000000027f971cb582bf9e50f397e4d29a5c7a34f11faa2",
            "0xfffffffffffffffffffffffffffffffffffffffffffffffffffffffffff2764c",
            "0x00000000000000000000000000000000000000000000000000000000000d89b4"
          ],
          "data": "0x00000000000000000000000027f971cb582bf9e50f397e4d29a5c7a34f11faa20000000000000000000000000000000000000000000000000000000074e538cf00000000000000000000000000000000000000000000000000000000000186a0000000000000000000000000000000000000000000000000000022fb306693e3",
          "blockHash": "0x4b85ecd5c6242e941f8f8585cec5ec68f536a8dcc2170036fe916d26f518af46",
          "blockNumber": "0x1ee5ac9",
          "blockTimestamp": "0x68f01472",
          "transactionHash": "0xa0fb951f09c7808a706126ab37babf0777de96094c6cb839813ab1ee0698b33a",
          "transactionIndex": "0x19",
          "logIndex": "0x8e",
          "removed": false
        },
        {
          "address": "0x27f971cb582bf9e50f397e4d29a5c7a34f11faa2",
          "topics": [
            "0xddf252ad1be2c89b69c2b068fc378daa952ba7f163c4a11628f55a4df523b3ef",
            "0x0000000000000000000000000000000000000000000000000000000000000000",
            "0x0000000000000000000000002e32d35e8c4abf8d2649aa26314956bef0449ce9",
            "0x000000000000000000000000000000000000000000000000000000000001157b"
          ],
          "data": "0x",
          "blockHash": "0x4b85ecd5c6242e941f8f8585cec5ec68f536a8dcc2170036fe916d26f518af46",
          "blockNumber": "0x1ee5ac9",
          "blockTimestamp": "0x68f01472",
          "transactionHash": "0xa0fb951f09c7808a706126ab37babf0777de96094c6cb839813ab1ee0698b33a",
          "transactionIndex": "0x19",
          "logIndex": "0x8f",
          "removed": false
        },
        {
          "address": "0x27f971cb582bf9e50f397e4d29a5c7a34f11faa2",
          "topics": [
            "0x3067048beee31b25b2f1681f88dac838c8bba36af25bfb2b7cf7473a5847e35f",
            "0x000000000000000000000000000000000000000000000000000000000001157b"
          ],
          "data": "0x0000000000000000000000000000000000000000000000000000000074e538cf00000000000000000000000000000000000000000000000000000000000186a0000000000000000000000000000000000000000000000000000022fb306693e3",
          "blockHash": "0x4b85ecd5c6242e941f8f8585cec5ec68f536a8dcc2170036fe916d26f518af46",
          "blockNumber": "0x1ee5ac9",
          "blockTimestamp": "0x68f01472",
          "transactionHash": "0xa0fb951f09c7808a706126ab37babf0777de96094c6cb839813ab1ee0698b33a",
          "transactionIndex": "0x19",
          "logIndex": "0x90",
          "removed": false
        },
        {
          "address": "0x4200000000000000000000000000000000000006",
          "topics": [
            "0xddf252ad1be2c89b69c2b068fc378daa952ba7f163c4a11628f55a4df523b3ef",
            "0x000000000000000000000000ec8b597df83f25ac3191bb6deda31aad59c4162d",
            "0x0000000000000000000000002e32d35e8c4abf8d2649aa26314956bef0449ce9"
          ],
          "data": "0x0000000000000000000000000000000000000000000000000001a3c421fcac1d",
          "blockHash": "0x4b85ecd5c6242e941f8f8585cec5ec68f536a8dcc2170036fe916d26f518af46",
          "blockNumber": "0x1ee5ac9",
          "blockTimestamp": "0x68f01472",
          "transactionHash": "0xa0fb951f09c7808a706126ab37babf0777de96094c6cb839813ab1ee0698b33a",
          "transactionIndex": "0x19",
          "logIndex": "0x91",
          "removed": false
        },
        {
          "address": "0x2e32d35e8c4abf8d2649aa26314956bef0449ce9",
          "topics": [
            "0x1873553dae46c6c4a5009f92d87ef4b1be03943559a661467807f7dc4c4e53a3",
            "0x00000000000000000000000027f971cb582bf9e50f397e4d29a5c7a34f11faa2"
          ],
          "data": "0x000000000000000000000000036cbd53842c5426634e7929541ec2318f3dcf7e00000000000000000000000042000000000000000000000000000000000000060000000000000000000000000000000000000000000000000000000074e538cf",
          "blockHash": "0x4b85ecd5c6242e941f8f8585cec5ec68f536a8dcc2170036fe916d26f518af46",
          "blockNumber": "0x1ee5ac9",
          "blockTimestamp": "0x68f01472",
          "transactionHash": "0xa0fb951f09c7808a706126ab37babf0777de96094c6cb839813ab1ee0698b33a",
          "transactionIndex": "0x19",
          "logIndex": "0x92",
          "removed": false
        },
        {
          "address": "0x2e32d35e8c4abf8d2649aa26314956bef0449ce9",
          "topics": [
            "0x72e7c7dee9f1208e1f0e96af43dfde9f240b7f3a9a762da8ea1e8ed767a66ab7",
            "0x0000000000000000000000000000000000000000000000000000000000000000"
          ],
          "data": "0x000000000000000000000000000000000000000000000000000000000001157b0000000000000000000000000000000000000000000000000000000074e538cf",
          "blockHash": "0x4b85ecd5c6242e941f8f8585cec5ec68f536a8dcc2170036fe916d26f518af46",
          "blockNumber": "0x1ee5ac9",
          "blockTimestamp": "0x68f01472",
          "transactionHash": "0xa0fb951f09c7808a706126ab37babf0777de96094c6cb839813ab1ee0698b33a",
          "transactionIndex": "0x19",
          "logIndex": "0x93",
          "removed": false
        },
        {
          "address": "0xf9c37099ea23388c965b390e74b3b201fed75d81",
          "topics": [
            "0xd11895475c54b7d51633ecc794cd50a555a5c13b37a9d83d28e8405e0a185ede",
            "0x00000000000000000000000073d43dd9ac2c0fd004286f7a13f51bec163efb2c",
            "0x00000000000000000000000027f971cb582bf9e50f397e4d29a5c7a34f11faa2"
          ],
          "data": "0x000000000000000000000000036cbd53842c5426634e7929541ec2318f3dcf7e000000000000000000000000420000000000000000000000000000000000000600000000000000000000000000000000000000000000000000000000000186a00000000000000000000000000000000000000000000000000001c6bf526340000000000000000000000000000000000000000000000000000000000000000001",
          "blockHash": "0x4b85ecd5c6242e941f8f8585cec5ec68f536a8dcc2170036fe916d26f518af46",
          "blockNumber": "0x1ee5ac9",
          "blockTimestamp": "0x68f01472",
          "transactionHash": "0xa0fb951f09c7808a706126ab37babf0777de96094c6cb839813ab1ee0698b33a",
          "transactionIndex": "0x19",
          "logIndex": "0x94",
          "removed": false
        }
      ],
      "logsBloom": "0x0000000004000000004010000000040000000000000040008004000000000000000040001000100000200010000000000000000000000000040041000028000000080040000000000000000808000000000000000400000000000000000400084000000002000040000000008000080000002000080000001010009000000000020000000800000000090000000000000c000208002000000000002000000000020200804000000000000000000000020000000000000020200000008400000000000002020000000000090000000000000000004000020000000000000120080010000000000000000000800020000000200000000000020000000000000800",
      "type": "0x2",
      "transactionHash": "0xa0fb951f09c7808a706126ab37babf0777de96094c6cb839813ab1ee0698b33a",
      "transactionIndex": "0x19",
      "blockHash": "0x4b85ecd5c6242e941f8f8585cec5ec68f536a8dcc2170036fe916d26f518af46",
      "blockNumber": "0x1ee5ac9",
      "gasUsed": "0x117909",
      "effectiveGasPrice": "0xf42b6",
      "from": "0x73d43dd9ac2c0fd004286f7a13f51bec163efb2c",
      "to": "0xf9c37099ea23388c965b390e74b3b201fed75d81",
      "contractAddress": null,
      "l1BaseFeeScalar": "0x44d",
      "l1BlobBaseFee": "0x3",
      "l1BlobBaseFeeScalar": "0xa118b",
      "l1Fee": "0x1b4",
      "l1GasPrice": "0x9",
      "l1GasUsed": "0x8c9"
    }
  ],
  "libraries": [],
  "pending": [],
  "returns": {},
  "timestamp": 1760564338903,
  "chain": 84532,
  "commit": "41a22fe"
}