{
  "transactions": [
    {
      "hash": "0xdcdbdbd04fd5ee8b893e005f953a0b8c99750d027dd607f00a674f0cbd23502a",
      "transactionType": "CALL",
      "contractName": null,
      "contractAddress": "0x036cbd53842c5426634e7929541ec2318f3dcf7e",
      "function": "approve(address,uint256)",
      "arguments": [
        "0xc8c309E34ef4fd87d869dd6E856934E3497A8965",
        "2"
      ],
      "transaction": {
        "from": "0x73d43dd9ac2c0fd004286f7a13f51bec163efb2c",
        "to": "0x036cbd53842c5426634e7929541ec2318f3dcf7e",
        "gas": "0x12afa",
        "value": "0x0",
        "input": "0x095ea7b3000000000000000000000000c8c309e34ef4fd87d869dd6e856934e3497a89650000000000000000000000000000000000000000000000000000000000000002",
        "nonce": "0x3a4",
        "chainId": "0x14a34"
      },
      "additionalContracts": [],
      "isFixedGasLimit": false
    },
    {
      "hash": "0x652b28116f51b055c992d44c07aab554a64ea7d9d01a9a268587051ba6e2bd90",
      "transactionType": "CALL",
      "contractName": null,
      "contractAddress": "0xc8c309e34ef4fd87d869dd6e856934e3497a8965",
      "function": "deposit(address,uint256)",
      "arguments": [
        "0x036CbD53842c5426634e7929541eC2318f3dCF7e",
        "2"
      ],
      "transaction": {
        "from": "0x73d43dd9ac2c0fd004286f7a13f51bec163efb2c",
        "to": "0xc8c309e34ef4fd87d869dd6e856934e3497a8965",
        "gas": "0x184b5",
        "value": "0x0",
        "input": "0x47e7ef24000000000000000000000000036cbd53842c5426634e7929541ec2318f3dcf7e0000000000000000000000000000000000000000000000000000000000000002",
        "nonce": "0x3a5",
        "chainId": "0x14a34"
      },
      "additionalContracts": [],
      "isFixedGasLimit": false
    }
  ],
  "receipts": [
    {
      "status": "0x1",
      "cumulativeGasUsed": "0x97c9e8",
      "logs": [
        {
          "address": "0x036cbd53842c5426634e7929541ec2318f3dcf7e",
          "topics": [
            "0x8c5be1e5ebec7d5bd14f71427d1e84f3dd0314c0f7b2291e5b200ac8c7c3b925",
            "0x00000000000000000000000073d43dd9ac2c0fd004286f7a13f51bec163efb2c",
            "0x000000000000000000000000c8c309e34ef4fd87d869dd6e856934e3497a8965"
          ],
          "data": "0x0000000000000000000000000000000000000000000000000000000000000002",
          "blockHash": "0xd2508d0826f34a4a86f7f29e5b257b1ed5b6cda98588f665f13d77559d5e20ee",
          "blockNumber": "0x1f409c1",
          "blockTimestamp": "0x68fb7262",
          "transactionHash": "0xdcdbdbd04fd5ee8b893e005f953a0b8c99750d027dd607f00a674f0cbd23502a",
          "transactionIndex": "0xf",
          "logIndex": "0x13d",
          "removed": false
        }
      ],
      "logsBloom": "0x00000000040000000000000000000000000000000000000000000000000000000000000000000000000000000000000000000000000000010000000000200000000000000000000000000000000000000000000000000000000000000000000800000000000000000000000000000000000000000000000010000000000000040000000000000000000100000000000008000000000000000000000000000000020000000000000000000000000000000000000000000000000000000000000000000000000000000008000000000000000000000000000000000000000000000010000000000000000000000020000000000000000000000000000000000000",
      "type": "0x2",
      "transactionHash": "0xdcdbdbd04fd5ee8b893e005f953a0b8c99750d027dd607f00a674f0cbd23502a",
      "transactionIndex": "0xf",
      "blockHash": "0xd2508d0826f34a4a86f7f29e5b257b1ed5b6cda98588f665f13d77559d5e20ee",
      "blockNumber": "0x1f409c1",
      "gasUsed": "0xd875",
      "effectiveGasPrice": "0xf4287",
      "from": "0x73d43dd9ac2c0fd004286f7a13f51bec163efb2c",
      "to": "0x036cbd53842c5426634e7929541ec2318f3dcf7e",
      "contractAddress": null,
      "l1BaseFeeScalar": "0x44d",
      "l1BlobBaseFee": "0x1",
      "l1BlobBaseFeeScalar": "0xa118b",
      "l1Fee": "0x51",
      "l1GasPrice": "0x9",
      "l1GasUsed": "0x640"
    },
    {
      "status": "0x1",
      "cumulativeGasUsed": "0xa80db0",
      "logs": [
        {
          "address": "0x036cbd53842c5426634e7929541ec2318f3dcf7e",
          "topics": [
            "0xddf252ad1be2c89b69c2b068fc378daa952ba7f163c4a11628f55a4df523b3ef",
            "0x00000000000000000000000073d43dd9ac2c0fd004286f7a13f51bec163efb2c",
            "0x000000000000000000000000c8c309e34ef4fd87d869dd6e856934e3497a8965"
          ],
          "data": "0x0000000000000000000000000000000000000000000000000000000000000002",
          "blockHash": "0xd2508d0826f34a4a86f7f29e5b257b1ed5b6cda98588f665f13d77559d5e20ee",
          "blockNumber": "0x1f409c1",
          "blockTimestamp": "0x68fb7262",
          "transactionHash": "0x652b28116f51b055c992d44c07aab554a64ea7d9d01a9a268587051ba6e2bd90",
          "transactionIndex": "0x1d",
          "logIndex": "0x151",
          "removed": false
        },
        {
          "address": "0xc8c309e34ef4fd87d869dd6e856934e3497a8965",
          "topics": [
            "0x2da466a7b24304f47e87fa2e1e5a81b9831ce54fec19055ce277ca2f39ba42c4",
            "0x00000000000000000000000073d43dd9ac2c0fd004286f7a13f51bec163efb2c"
          ],
          "data": "0x0000000000000000000000000000000000000000000000000000000000000002",
          "blockHash": "0xd2508d0826f34a4a86f7f29e5b257b1ed5b6cda98588f665f13d77559d5e20ee",
          "blockNumber": "0x1f409c1",
          "blockTimestamp": "0x68fb7262",
          "transactionHash": "0x652b28116f51b055c992d44c07aab554a64ea7d9d01a9a268587051ba6e2bd90",
          "transactionIndex": "0x1d",
          "logIndex": "0x152",
          "removed": false
        }
      ],
      "logsBloom": "0x00000000040000000000000000000000000000000000000000000000000000000000000000000000000000000000000000000000000000010000000000000000000000000000000000000008000000000000000000000000000000000000200804000000000000004000000000000000000000000000000010000010000200040000000000000000000100000000000008000000000000000000000000000000000000000000000000000000000000000000000000000000000000000000000000000002000000000008000000000000000400000000000000000000000000000040000000000000000000000020000000000000000000000000000000000000",
      "type": "0x2",
      "transactionHash": "0x652b28116f51b055c992d44c07aab554a64ea7d9d01a9a268587051ba6e2bd90",
      "transactionIndex": "0x1d",
      "blockHash": "0xd2508d0826f34a4a86f7f29e5b257b1ed5b6cda98588f665f13d77559d5e20ee",
      "blockNumber": "0x1f409c1",
      "gasUsed": "0x109c9",
      "effectiveGasPrice": "0xf4287",
      "from": "0x73d43dd9ac2c0fd004286f7a13f51bec163efb2c",
      "to": "0xc8c309e34ef4fd87d869dd6e856934e3497a8965",
      "contractAddress": null,
      "l1BaseFeeScalar": "0x44d",
      "l1BlobBaseFee": "0x1",
      "l1BlobBaseFeeScalar": "0xa118b",
      "l1Fee": "0x51",
      "l1GasPrice": "0x9",
      "l1GasUsed": "0x640"
    }
  ],
  "libraries": [],
  "pending": [],
  "returns": {},
  "timestamp": 1761309282497,
  "chain": 84532,
  "commit": "9eab8ae"
}