{
  "transactions": [
    {
      "hash": "0xf627b584ab5f19abf2a16ef1641b86e57b552839470c0c8c430c4a214907c542",
      "transactionType": "CALL",
      "contractName": null,
      "contractAddress": "0x036cbd53842c5426634e7929541ec2318f3dcf7e",
      "function": "approve(address,uint256)",
      "arguments": [
        "0x361F39FAF33B0BeA1E09fe15B956bbbD304374C9",
        "2"
      ],
      "transaction": {
        "from": "0x73d43dd9ac2c0fd004286f7a13f51bec163efb2c",
        "to": "0x036cbd53842c5426634e7929541ec2318f3dcf7e",
        "gas": "0x12afa",
        "value": "0x0",
        "input": "0x095ea7b3000000000000000000000000361f39faf33b0bea1e09fe15b956bbbd304374c90000000000000000000000000000000000000000000000000000000000000002",
        "nonce": "0x350",
        "chainId": "0x14a34"
      },
      "additionalContracts": [],
      "isFixedGasLimit": false
    },
    {
      "hash": "0xb2bc506e48327d949ae2a23d02de14a3ac0daa8068543c893037764b60a831af",
      "transactionType": "CALL",
      "contractName": null,
      "contractAddress": "0x361f39faf33b0bea1e09fe15b956bbbd304374c9",
      "function": "deposit(address,uint256)",
      "arguments": [
        "0x036CbD53842c5426634e7929541eC2318f3dCF7e",
        "2"
      ],
      "transaction": {
        "from": "0x73d43dd9ac2c0fd004286f7a13f51bec163efb2c",
        "to": "0x361f39faf33b0bea1e09fe15b956bbbd304374c9",
        "gas": "0x1cb41",
        "value": "0x0",
        "input": "0x47e7ef24000000000000000000000000036cbd53842c5426634e7929541ec2318f3dcf7e0000000000000000000000000000000000000000000000000000000000000002",
        "nonce": "0x351",
        "chainId": "0x14a34"
      },
      "additionalContracts": [],
      "isFixedGasLimit": false
    },
    {
      "hash": "0x6c5d608906e3d41eb3c91cc42dd1ab4a9254b9c6d0052b719174fe843da3fd17",
      "transactionType": "CALL",
      "contractName": null,
      "contractAddress": "0x4200000000000000000000000000000000000006",
      "function": "approve(address,uint256)",
      "arguments": [
        "0x361F39FAF33B0BeA1E09fe15B956bbbD304374C9",
        "50000000000000"
      ],
      "transaction": {
        "from": "0x73d43dd9ac2c0fd004286f7a13f51bec163efb2c",
        "to": "0x4200000000000000000000000000000000000006",
        "gas": "0x106e6",
        "value": "0x0",
        "input": "0x095ea7b3000000000000000000000000361f39faf33b0bea1e09fe15b956bbbd304374c900000000000000000000000000000000000000000000000000002d79883d2000",
        "nonce": "0x352",
        "chainId": "0x14a34"
      },
      "additionalContracts": [],
      "isFixedGasLimit": false
    },
    {
      "hash": "0xe64f92001aa2611da00e15ce03e399809b07ad06b51d8c798939ba946bb0d052",
      "transactionType": "CALL",
      "contractName": null,
      "contractAddress": "0x361f39faf33b0bea1e09fe15b956bbbd304374c9",
      "function": "deposit(address,uint256)",
      "arguments": [
        "0x4200000000000000000000000000000000000006",
        "50000000000000"
      ],
      "transaction": {
        "from": "0x73d43dd9ac2c0fd004286f7a13f51bec163efb2c",
        "to": "0x361f39faf33b0bea1e09fe15b956bbbd304374c9",
        "gas": "0x1237a",
        "value": "0x0",
        "input": "0x47e7ef24000000000000000000000000420000000000000000000000000000000000000600000000000000000000000000000000000000000000000000002d79883d2000",
        "nonce": "0x353",
        "chainId": "0x14a34"
      },
      "additionalContracts": [],
      "isFixedGasLimit": false
    },
    {
      "hash": "0x9db371db5b19ce67b5637c90f3962d3cd220937acf73d52bbadd842419cd4caa",
      "transactionType": "CALL",
      "contractName": null,
      "contractAddress": "0x4200000000000000000000000000000000000006",
      "function": "approve(address,uint256)",
      "arguments": [
        "0xA3fB2Bc377d8DBeAB98a3C8703Ec7E000E2BAd3A",
        "40000000000000"
      ],
      "transaction": {
        "from": "0x73d43dd9ac2c0fd004286f7a13f51bec163efb2c",
        "to": "0x4200000000000000000000000000000000000006",
        "gas": "0xf83a",
        "value": "0x0",
        "input": "0x095ea7b3000000000000000000000000a3fb2bc377d8dbeab98a3c8703ec7e000e2bad3a0000000000000000000000000000000000000000000000000000246139ca8000",
        "nonce": "0x354",
        "chainId": "0x14a34"
      },
      "additionalContracts": [],
      "isFixedGasLimit": false
    },
    {
      "hash": "0x7c8cec23b161b3b685c32673d8d253f76f41188ce3bd361cab747bfe33a694a7",
      "transactionType": "CALL",
      "contractName": null,
      "contractAddress": "0xa3fb2bc377d8dbeab98a3c8703ec7e000e2bad3a",
      "function": "addLiquidityUniswapV3(address,address,uint24,int24,int24,uint256,uint256,uint256,uint256)",
      "arguments": [
        "0x036CbD53842c5426634e7929541eC2318f3dCF7e",
        "0x4200000000000000000000000000000000000006",
        "3000",
        "0",
        "60",
        "0",
        "40000000000000",
        "0",
        "0"
      ],
      "transaction": {
        "from": "0x73d43dd9ac2c0fd004286f7a13f51bec163efb2c",
        "to": "0xa3fb2bc377d8dbeab98a3c8703ec7e000e2bad3a",
        "gas": "0x18621b",
        "value": "0x0",
        "input": "0xe40345e2000000000000000000000000036cbd53842c5426634e7929541ec2318f3dcf7e00000000000000000000000042000000000000000000000000000000000000060000000000000000000000000000000000000000000000000000000000000bb80000000000000000000000000000000000000000000000000000000000000000000000000000000000000000000000000000000000000000000000000000003c00000000000000000000000000000000000000000000000000000000000000000000000000000000000000000000000000000000000000000000246139ca800000000000000000000000000000000000000000000000000000000000000000000000000000000000000000000000000000000000000000000000000000000000",
        "nonce": "0x355",
        "chainId": "0x14a34"
      },
      "additionalContracts": [],
      "isFixedGasLimit": false
    }
  ],
  "receipts": [
    {
      "status": "0x1",
      "cumulativeGasUsed": "0x33332",
      "logs": [
        {
          "address": "0x036cbd53842c5426634e7929541ec2318f3dcf7e",
          "topics": [
            "0x8c5be1e5ebec7d5bd14f71427d1e84f3dd0314c0f7b2291e5b200ac8c7c3b925",
            "0x00000000000000000000000073d43dd9ac2c0fd004286f7a13f51bec163efb2c",
            "0x000000000000000000000000361f39faf33b0bea1e09fe15b956bbbd304374c9"
          ],
          "data": "0x0000000000000000000000000000000000000000000000000000000000000002",
          "blockHash": "0xb8e2cd5970451bc859d73ac9034242bddb4895ffe88971a3b20f036461a7d198",
          "blockNumber": "0x1ee5ffb",
          "blockTimestamp": "0x68f01ed6",
          "transactionHash": "0xf627b584ab5f19abf2a16ef1641b86e57b552839470c0c8c430c4a214907c542",
          "transactionIndex": "0x2",
          "logIndex": "0x4",
          "removed": false
        }
      ],
      "logsBloom": "0x00000000040000000000000000000000000000000000000000000000000000000000000000000000000000000000000000000000000000000000000000200000000000000000000000000000000000000000000000000000000000000000020800000000000000000000000000000000000000000100000010000000000000000000000000000000000100000000000008000000000000000000000000080000020000000000000000000000000000000000000000000000000000000000000000000000000000000000000000000000000000000000000000000000000000000010000000000000000000000020000000000000000000000000000000000000",
      "type": "0x2",
      "transactionHash": "0xf627b584ab5f19abf2a16ef1641b86e57b552839470c0c8c430c4a214907c542",
      "transactionIndex": "0x2",
      "blockHash": "0xb8e2cd5970451bc859d73ac9034242bddb4895ffe88971a3b20f036461a7d198",
      "blockNumber": "0x1ee5ffb",
      "gasUsed": "0xd875",
      "effectiveGasPrice": "0xf42b7",
      "from": "0x73d43dd9ac2c0fd004286f7a13f51bec163efb2c",
      "to": "0x036cbd53842c5426634e7929541ec2318f3dcf7e",
      "contractAddress": null,
      "l1BaseFeeScalar": "0x44d",
      "l1BlobBaseFee": "0x1",
      "l1BlobBaseFeeScalar": "0xa118b",
      "l1Fee": "0x50",
      "l1GasPrice": "0x8",
      "l1GasUsed": "0x640"
    },
    {
      "status": "0x1",
      "cumulativeGasUsed": "0x47fb1",
      "logs": [
        {
          "address": "0x036cbd53842c5426634e7929541ec2318f3dcf7e",
          "topics": [
            "0xddf252ad1be2c89b69c2b068fc378daa952ba7f163c4a11628f55a4df523b3ef",
            "0x00000000000000000000000073d43dd9ac2c0fd004286f7a13f51bec163efb2c",
            "0x000000000000000000000000361f39faf33b0bea1e09fe15b956bbbd304374c9"
          ],
          "data": "0x0000000000000000000000000000000000000000000000000000000000000002",
          "blockHash": "0xb8e2cd5970451bc859d73ac9034242bddb4895ffe88971a3b20f036461a7d198",
          "blockNumber": "0x1ee5ffb",
          "blockTimestamp": "0x68f01ed6",
          "transactionHash": "0xb2bc506e48327d949ae2a23d02de14a3ac0daa8068543c893037764b60a831af",
          "transactionIndex": "0x3",
          "logIndex": "0x5",
          "removed": false
        },
        {
          "address": "0x361f39faf33b0bea1e09fe15b956bbbd304374c9",
          "topics": [
            "0x2da466a7b24304f47e87fa2e1e5a81b9831ce54fec19055ce277ca2f39ba42c4",
            "0x00000000000000000000000073d43dd9ac2c0fd004286f7a13f51bec163efb2c"
          ],
          "data": "0x0000000000000000000000000000000000000000000000000000000000000002",
          "blockHash": "0xb8e2cd5970451bc859d73ac9034242bddb4895ffe88971a3b20f036461a7d198",
          "blockNumber": "0x1ee5ffb",
          "blockTimestamp": "0x68f01ed6",
          "transactionHash": "0xb2bc506e48327d949ae2a23d02de14a3ac0daa8068543c893037764b60a831af",
          "transactionIndex": "0x3",
          "logIndex": "0x6",
          "removed": false
        }
      ],
      "logsBloom": "0x000000000c0000000100000000000000000000000000000000000000000000000000000000000000000000000000000000000000000000000000000000000000000000000000000000000008000000000100000000000000000000000000220800000000000000000000000000000000000000000100000010000010000200000000000000000000000100000000000008000000000000000000000000080000000000000000000000000000000000000000000000000000000000000000000000000002000000000000000000000000000000000000000000000000000000000040000000000000000000000020000000000000000000000000000000000000",
      "type": "0x2",
      "transactionHash": "0xb2bc506e48327d949ae2a23d02de14a3ac0daa8068543c893037764b60a831af",
      "transactionIndex": "0x3",
      "blockHash": "0xb8e2cd5970451bc859d73ac9034242bddb4895ffe88971a3b20f036461a7d198",
      "blockNumber": "0x1ee5ffb",
      "gasUsed": "0x14c7f",
      "effectiveGasPrice": "0xf42b7",
      "from": "0x73d43dd9ac2c0fd004286f7a13f51bec163efb2c",
      "to": "0x361f39faf33b0bea1e09fe15b956bbbd304374c9",
      "contractAddress": null,
      "l1BaseFeeScalar": "0x44d",
      "l1BlobBaseFee": "0x1",
      "l1BlobBaseFeeScalar": "0xa118b",
      "l1Fee": "0x50",
      "l1GasPrice": "0x8",
      "l1GasUsed": "0x640"
    },
    {
      "status": "0x1",
      "cumulativeGasUsed": "0x53374",
      "logs": [
        {
          "address": "0x4200000000000000000000000000000000000006",
          "topics": [
            "0x8c5be1e5ebec7d5bd14f71427d1e84f3dd0314c0f7b2291e5b200ac8c7c3b925",
            "0x00000000000000000000000073d43dd9ac2c0fd004286f7a13f51bec163efb2c",
            "0x000000000000000000000000361f39faf33b0bea1e09fe15b956bbbd304374c9"
          ],
          "data": "0x00000000000000000000000000000000000000000000000000002d79883d2000",
          "blockHash": "0xb8e2cd5970451bc859d73ac9034242bddb4895ffe88971a3b20f036461a7d198",
          "blockNumber": "0x1ee5ffb",
          "blockTimestamp": "0x68f01ed6",
          "transactionHash": "0x6c5d608906e3d41eb3c91cc42dd1ab4a9254b9c6d0052b719174fe843da3fd17",
          "transactionIndex": "0x4",
          "logIndex": "0x7",
          "removed": false
        }
      ],
      "logsBloom": "0x00000000000000000000000000000000000000000000000000040000000000000000000000000000000000100000000000000000000000000000000000200000000000000000000000000000000000000000000000000000000000000000020000000000000000000000000000000000000000000100000010000000000000000000000000000000000100000000000008000000002000000000000000080000020000000000000000000000000000000000000000000000000000000000000000000000000000000000000000000000000000000000000000000000000000000010000000000000000000000000000000000000000000000000000000000000",
      "type": "0x2",
      "transactionHash": "0x6c5d608906e3d41eb3c91cc42dd1ab4a9254b9c6d0052b719174fe843da3fd17",
      "transactionIndex": "0x4",
      "blockHash": "0xb8e2cd5970451bc859d73ac9034242bddb4895ffe88971a3b20f036461a7d198",
      "blockNumber": "0x1ee5ffb",
      "gasUsed": "0xb3c3",
      "effectiveGasPrice": "0xf42b7",
      "from": "0x73d43dd9ac2c0fd004286f7a13f51bec163efb2c",
      "to": "0x4200000000000000000000000000000000000006",
      "contractAddress": null,
      "l1BaseFeeScalar": "0x44d",
      "l1BlobBaseFee": "0x1",
      "l1BlobBaseFeeScalar": "0xa118b",
      "l1Fee": "0x50",
      "l1GasPrice": "0x8",
      "l1GasUsed": "0x640"
    },
    {
      "status": "0x1",
      "cumulativeGasUsed": "0x6067b",
      "logs": [
        {
          "address": "0x4200000000000000000000000000000000000006",
          "topics": [
            "0xddf252ad1be2c89b69c2b068fc378daa952ba7f163c4a11628f55a4df523b3ef",
            "0x00000000000000000000000073d43dd9ac2c0fd004286f7a13f51bec163efb2c",
            "0x000000000000000000000000361f39faf33b0bea1e09fe15b956bbbd304374c9"
          ],
          "data": "0x00000000000000000000000000000000000000000000000000002d79883d2000",
          "blockHash": "0xb8e2cd5970451bc859d73ac9034242bddb4895ffe88971a3b20f036461a7d198",
          "blockNumber": "0x1ee5ffb",
          "blockTimestamp": "0x68f01ed6",
          "transactionHash": "0xe64f92001aa2611da00e15ce03e399809b07ad06b51d8c798939ba946bb0d052",
          "transactionIndex": "0x5",
          "logIndex": "0x8",
          "removed": false
        },
        {
          "address": "0x361f39faf33b0bea1e09fe15b956bbbd304374c9",
          "topics": [
            "0x2da466a7b24304f47e87fa2e1e5a81b9831ce54fec19055ce277ca2f39ba42c4",
            "0x00000000000000000000000073d43dd9ac2c0fd004286f7a13f51bec163efb2c"
          ],
          "data": "0x00000000000000000000000000000000000000000000000000002d79883d2000",
          "blockHash": "0xb8e2cd5970451bc859d73ac9034242bddb4895ffe88971a3b20f036461a7d198",
          "blockNumber": "0x1ee5ffb",
          "blockTimestamp": "0x68f01ed6",
          "transactionHash": "0xe64f92001aa2611da00e15ce03e399809b07ad06b51d8c798939ba946bb0d052",
          "transactionIndex": "0x5",
          "logIndex": "0x9",
          "removed": false
        }
      ],
      "logsBloom": "0x00000000080000000100000000000000000000000000000000040000000000000000000000000000000000100000000000000000000000000000000000000000000000000000000000000008000000000100000000000000000000000000220000000000000000000000000000000000000000000100000010000010000200000000000000000000000100000000000008000000002000000000000000080000000000000000000000000000000000000000000000000000000000000000000000000002000000000000000000000000000000000000000000000000000000000040000000000000000000000000000000000000000000000000000000000000",
      "type": "0x2",
      "transactionHash": "0xe64f92001aa2611da00e15ce03e399809b07ad06b51d8c798939ba946bb0d052",
      "transactionIndex": "0x5",
      "blockHash": "0xb8e2cd5970451bc859d73ac9034242bddb4895ffe88971a3b20f036461a7d198",
      "blockNumber": "0x1ee5ffb",
      "gasUsed": "0xd307",
      "effectiveGasPrice": "0xf42b7",
      "from": "0x73d43dd9ac2c0fd004286f7a13f51bec163efb2c",
      "to": "0x361f39faf33b0bea1e09fe15b956bbbd304374c9",
      "contractAddress": null,
      "l1BaseFeeScalar": "0x44d",
      "l1BlobBaseFee": "0x1",
      "l1BlobBaseFeeScalar": "0xa118b",
      "l1Fee": "0x50",
      "l1GasPrice": "0x8",
      "l1GasUsed": "0x640"
    },
    {
      "status": "0x1",
      "cumulativeGasUsed": "0x6ba32",
      "logs": [
        {
          "address": "0x4200000000000000000000000000000000000006",
          "topics": [
            "0x8c5be1e5ebec7d5bd14f71427d1e84f3dd0314c0f7b2291e5b200ac8c7c3b925",
            "0x00000000000000000000000073d43dd9ac2c0fd004286f7a13f51bec163efb2c",
            "0x000000000000000000000000a3fb2bc377d8dbeab98a3c8703ec7e000e2bad3a"
          ],
          "data": "0x0000000000000000000000000000000000000000000000000000246139ca8000",
          "blockHash": "0xb8e2cd5970451bc859d73ac9034242bddb4895ffe88971a3b20f036461a7d198",
          "blockNumber": "0x1ee5ffb",
          "blockTimestamp": "0x68f01ed6",
          "transactionHash": "0x9db371db5b19ce67b5637c90f3962d3cd220937acf73d52bbadd842419cd4caa",
          "transactionIndex": "0x6",
          "logIndex": "0xa",
          "removed": false
        }
      ],
      "logsBloom": "0x00000000000000000000000000000000000000000000000000040000000000000020000000000000000000100000000000000000000000000000000000200000000000000000000000000000000000040000000000000000000000000000000000000000000000000000000000000000000000000000000010000000000000000000000000000000000100000000000008000000002000000000000000000000020000000000000000000000000000000000000000000000000000000000000000000000000000000000000000000000000000004000000000000000000000000010000000000000000000000000000000000000000000000000000000000000",
      "type": "0x2",
      "transactionHash": "0x9db371db5b19ce67b5637c90f3962d3cd220937acf73d52bbadd842419cd4caa",
      "transactionIndex": "0x6",
      "blockHash": "0xb8e2cd5970451bc859d73ac9034242bddb4895ffe88971a3b20f036461a7d198",
      "blockNumber": "0x1ee5ffb",
      "gasUsed": "0xb3b7",
      "effectiveGasPrice": "0xf42b7",
      "from": "0x73d43dd9ac2c0fd004286f7a13f51bec163efb2c",
      "to": "0x4200000000000000000000000000000000000006",
      "contractAddress": null,
      "l1BaseFeeScalar": "0x44d",
      "l1BlobBaseFee": "0x1",
      "l1BlobBaseFeeScalar": "0xa118b",
      "l1Fee": "0x50",
      "l1GasPrice": "0x8",
      "l1GasUsed": "0x640"
    },
    {
      "status": "0x1",
      "cumulativeGasUsed": "0x18615f",
      "logs": [
        {
          "address": "0x036cbd53842c5426634e7929541ec2318f3dcf7e",
          "topics": [
            "0xddf252ad1be2c89b69c2b068fc378daa952ba7f163c4a11628f55a4df523b3ef",
            "0x00000000000000000000000073d43dd9ac2c0fd004286f7a13f51bec163efb2c",
            "0x000000000000000000000000713277e80daeb64d5646f7362bb788ec66de9127"
          ],
          "data": "0x0000000000000000000000000000000000000000000000000000000000000000",
          "blockHash": "0xb8e2cd5970451bc859d73ac9034242bddb4895ffe88971a3b20f036461a7d198",
          "blockNumber": "0x1ee5ffb",
          "blockTimestamp": "0x68f01ed6",
          "transactionHash": "0x7c8cec23b161b3b685c32673d8d253f76f41188ce3bd361cab747bfe33a694a7",
          "transactionIndex": "0x7",
          "logIndex": "0xb",
          "removed": false
        },
        {
          "address": "0x4200000000000000000000000000000000000006",
          "topics": [
            "0xddf252ad1be2c89b69c2b068fc378daa952ba7f163c4a11628f55a4df523b3ef",
            "0x00000000000000000000000073d43dd9ac2c0fd004286f7a13f51bec163efb2c",
            "0x000000000000000000000000713277e80daeb64d5646f7362bb788ec66de9127"
          ],
          "data": "0x0000000000000000000000000000000000000000000000000000246139ca8000",
          "blockHash": "0xb8e2cd5970451bc859d73ac9034242bddb4895ffe88971a3b20f036461a7d198",
          "blockNumber": "0x1ee5ffb",
          "blockTimestamp": "0x68f01ed6",
          "transactionHash": "0x7c8cec23b161b3b685c32673d8d253f76f41188ce3bd361cab747bfe33a694a7",
          "transactionIndex": "0x7",
          "logIndex": "0xc",
          "removed": false
        },
        {
          "address": "0x036cbd53842c5426634e7929541ec2318f3dcf7e",
          "topics": [
            "0x8c5be1e5ebec7d5bd14f71427d1e84f3dd0314c0f7b2291e5b200ac8c7c3b925",
            "0x000000000000000000000000713277e80daeb64d5646f7362bb788ec66de9127",
            "0x00000000000000000000000027f971cb582bf9e50f397e4d29a5c7a34f11faa2"
          ],
          "data": "0x0000000000000000000000000000000000000000000000000000000000000000",
          "blockHash": "0xb8e2cd5970451bc859d73ac9034242bddb4895ffe88971a3b20f036461a7d198",
          "blockNumber": "0x1ee5ffb",
          "blockTimestamp": "0x68f01ed6",
          "transactionHash": "0x7c8cec23b161b3b685c32673d8d253f76f41188ce3bd361cab747bfe33a694a7",
          "transactionIndex": "0x7",
          "logIndex": "0xd",
          "removed": false
        },
        {
          "address": "0x4200000000000000000000000000000000000006",
          "topics": [
            "0x8c5be1e5ebec7d5bd14f71427d1e84f3dd0314c0f7b2291e5b200ac8c7c3b925",
            "0x000000000000000000000000713277e80daeb64d5646f7362bb788ec66de9127",
            "0x00000000000000000000000027f971cb582bf9e50f397e4d29a5c7a34f11faa2"
          ],
          "data": "0x0000000000000000000000000000000000000000000000000000246139ca8000",
          "blockHash": "0xb8e2cd5970451bc859d73ac9034242bddb4895ffe88971a3b20f036461a7d198",
          "blockNumber": "0x1ee5ffb",
          "blockTimestamp": "0x68f01ed6",
          "transactionHash": "0x7c8cec23b161b3b685c32673d8d253f76f41188ce3bd361cab747bfe33a694a7",
          "transactionIndex": "0x7",
          "logIndex": "0xe",
          "removed": false
        },
        {
          "address": "0x4200000000000000000000000000000000000006",
          "topics": [
            "0xddf252ad1be2c89b69c2b068fc378daa952ba7f163c4a11628f55a4df523b3ef",
            "0x000000000000000000000000713277e80daeb64d5646f7362bb788ec66de9127",
            "0x00000000000000000000000046880b404cd35c165eddeff7421019f8dd25f4ad"
          ],
          "data": "0x0000000000000000000000000000000000000000000000000000246139ca8000",
          "blockHash": "0xb8e2cd5970451bc859d73ac9034242bddb4895ffe88971a3b20f036461a7d198",
          "blockNumber": "0x1ee5ffb",
          "blockTimestamp": "0x68f01ed6",
          "transactionHash": "0x7c8cec23b161b3b685c32673d8d253f76f41188ce3bd361cab747bfe33a694a7",
          "transactionIndex": "0x7",
          "logIndex": "0xf",
          "removed": false
        },
        {
          "address": "0x46880b404cd35c165eddeff7421019f8dd25f4ad",
          "topics": [
            "0x7a53080ba414158be7ec69b987b5fb7d07dee101fe85488f0853ae16239d0bde",
            "0x00000000000000000000000027f971cb582bf9e50f397e4d29a5c7a34f11faa2",
            "0x0000000000000000000000000000000000000000000000000000000000000000",
            "0x000000000000000000000000000000000000000000000000000000000000003c"
          ],
          "data": "0x00000000000000000000000027f971cb582bf9e50f397e4d29a5c7a34f11faa2000000000000000000000000000000000000000000000000002f4d0583e4d48900000000000000000000000000000000000000000000000000000000000000000000000000000000000000000000000000000000000000000000246139ca8000",
          "blockHash": "0xb8e2cd5970451bc859d73ac9034242bddb4895ffe88971a3b20f036461a7d198",
          "blockNumber": "0x1ee5ffb",
          "blockTimestamp": "0x68f01ed6",
          "transactionHash": "0x7c8cec23b161b3b685c32673d8d253f76f41188ce3bd361cab747bfe33a694a7",
          "transactionIndex": "0x7",
          "logIndex": "0x10",
          "removed": false
        },
        {
          "address": "0x27f971cb582bf9e50f397e4d29a5c7a34f11faa2",
          "topics": [
            "0xddf252ad1be2c89b69c2b068fc378daa952ba7f163c4a11628f55a4df523b3ef",
            "0x0000000000000000000000000000000000000000000000000000000000000000",
            "0x00000000000000000000000073d43dd9ac2c0fd004286f7a13f51bec163efb2c",
            "0x0000000000000000000000000000000000000000000000000000000000011584"
          ],
          "data": "0x",
          "blockHash": "0xb8e2cd5970451bc859d73ac9034242bddb4895ffe88971a3b20f036461a7d198",
          "blockNumber": "0x1ee5ffb",
          "blockTimestamp": "0x68f01ed6",
          "transactionHash": "0x7c8cec23b161b3b685c32673d8d253f76f41188ce3bd361cab747bfe33a694a7",
          "transactionIndex": "0x7",
          "logIndex": "0x11",
          "removed": false
        },
        {
          "address": "0x27f971cb582bf9e50f397e4d29a5c7a34f11faa2",
          "topics": [
            "0x3067048beee31b25b2f1681f88dac838c8bba36af25bfb2b7cf7473a5847e35f",
            "0x0000000000000000000000000000000000000000000000000000000000011584"
          ],
          "data": "0x000000000000000000000000000000000000000000000000002f4d0583e4d48900000000000000000000000000000000000000000000000000000000000000000000000000000000000000000000000000000000000000000000246139ca8000",
          "blockHash": "0xb8e2cd5970451bc859d73ac9034242bddb4895ffe88971a3b20f036461a7d198",
          "blockNumber": "0x1ee5ffb",
          "blockTimestamp": "0x68f01ed6",
          "transactionHash": "0x7c8cec23b161b3b685c32673d8d253f76f41188ce3bd361cab747bfe33a694a7",
          "transactionIndex": "0x7",
          "logIndex": "0x12",
          "removed": false
        },
        {
          "address": "0x036cbd53842c5426634e7929541ec2318f3dcf7e",
          "topics": [
            "0xddf252ad1be2c89b69c2b068fc378daa952ba7f163c4a11628f55a4df523b3ef",
            "0x000000000000000000000000361f39faf33b0bea1e09fe15b956bbbd304374c9",
            "0x000000000000000000000000713277e80daeb64d5646f7362bb788ec66de9127"
          ],
          "data": "0x0000000000000000000000000000000000000000000000000000000000000001",
          "blockHash": "0xb8e2cd5970451bc859d73ac9034242bddb4895ffe88971a3b20f036461a7d198",
          "blockNumber": "0x1ee5ffb",
          "blockTimestamp": "0x68f01ed6",
          "transactionHash": "0x7c8cec23b161b3b685c32673d8d253f76f41188ce3bd361cab747bfe33a694a7",
          "transactionIndex": "0x7",
          "logIndex": "0x13",
          "removed": false
        },
        {
          "address": "0x4200000000000000000000000000000000000006",
          "topics": [
            "0xddf252ad1be2c89b69c2b068fc378daa952ba7f163c4a11628f55a4df523b3ef",
            "0x000000000000000000000000361f39faf33b0bea1e09fe15b956bbbd304374c9",
            "0x000000000000000000000000713277e80daeb64d5646f7362bb788ec66de9127"
          ],
          "data": "0x00000000000000000000000000000000000000000000000000005af3107a4000",
          "blockHash": "0xb8e2cd5970451bc859d73ac9034242bddb4895ffe88971a3b20f036461a7d198",
          "blockNumber": "0x1ee5ffb",
          "blockTimestamp": "0x68f01ed6",
          "transactionHash": "0x7c8cec23b161b3b685c32673d8d253f76f41188ce3bd361cab747bfe33a694a7",
          "transactionIndex": "0x7",
          "logIndex": "0x14",
          "removed": false
        },
        {
          "address": "0x036cbd53842c5426634e7929541ec2318f3dcf7e",
          "topics": [
            "0x8c5be1e5ebec7d5bd14f71427d1e84f3dd0314c0f7b2291e5b200ac8c7c3b925",
            "0x000000000000000000000000713277e80daeb64d5646f7362bb788ec66de9127",
            "0x00000000000000000000000027f971cb582bf9e50f397e4d29a5c7a34f11faa2"
          ],
          "data": "0x0000000000000000000000000000000000000000000000000000000000000001",
          "blockHash": "0xb8e2cd5970451bc859d73ac9034242bddb4895ffe88971a3b20f036461a7d198",
          "blockNumber": "0x1ee5ffb",
          "blockTimestamp": "0x68f01ed6",
          "transactionHash": "0x7c8cec23b161b3b685c32673d8d253f76f41188ce3bd361cab747bfe33a694a7",
          "transactionIndex": "0x7",
          "logIndex": "0x15",
          "removed": false
        },
        {
          "address": "0x4200000000000000000000000000000000000006",
          "topics": [
            "0x8c5be1e5ebec7d5bd14f71427d1e84f3dd0314c0f7b2291e5b200ac8c7c3b925",
            "0x000000000000000000000000713277e80daeb64d5646f7362bb788ec66de9127",
            "0x00000000000000000000000027f971cb582bf9e50f397e4d29a5c7a34f11faa2"
          ],
          "data": "0x00000000000000000000000000000000000000000000000000005af3107a4000",
          "blockHash": "0xb8e2cd5970451bc859d73ac9034242bddb4895ffe88971a3b20f036461a7d198",
          "blockNumber": "0x1ee5ffb",
          "blockTimestamp": "0x68f01ed6",
          "transactionHash": "0x7c8cec23b161b3b685c32673d8d253f76f41188ce3bd361cab747bfe33a694a7",
          "transactionIndex": "0x7",
          "logIndex": "0x16",
          "removed": false
        },
        {
          "address": "0x4200000000000000000000000000000000000006",
          "topics": [
            "0xddf252ad1be2c89b69c2b068fc378daa952ba7f163c4a11628f55a4df523b3ef",
            "0x000000000000000000000000713277e80daeb64d5646f7362bb788ec66de9127",
            "0x00000000000000000000000046880b404cd35c165eddeff7421019f8dd25f4ad"
          ],
          "data": "0x00000000000000000000000000000000000000000000000000005af3107a4000",
          "blockHash": "0xb8e2cd5970451bc859d73ac9034242bddb4895ffe88971a3b20f036461a7d198",
          "blockNumber": "0x1ee5ffb",
          "blockTimestamp": "0x68f01ed6",
          "transactionHash": "0x7c8cec23b161b3b685c32673d8d253f76f41188ce3bd361cab747bfe33a694a7",
          "transactionIndex": "0x7",
          "logIndex": "0x17",
          "removed": false
        },
        {
          "address": "0x46880b404cd35c165eddeff7421019f8dd25f4ad",
          "topics": [
            "0x7a53080ba414158be7ec69b987b5fb7d07dee101fe85488f0853ae16239d0bde",
            "0x00000000000000000000000027f971cb582bf9e50f397e4d29a5c7a34f11faa2",
            "0x0000000000000000000000000000000000000000000000000000000000000000",
            "0x000000000000000000000000000000000000000000000000000000000000003c"
          ],
          "data": "0x00000000000000000000000027f971cb582bf9e50f397e4d29a5c7a34f11faa20000000000000000000000000000000000000000000000000076408dc9bc1358000000000000000000000000000000000000000000000000000000000000000000000000000000000000000000000000000000000000000000005af3107a4000",
          "blockHash": "0xb8e2cd5970451bc859d73ac9034242bddb4895ffe88971a3b20f036461a7d198",
          "blockNumber": "0x1ee5ffb",
          "blockTimestamp": "0x68f01ed6",
          "transactionHash": "0x7c8cec23b161b3b685c32673d8d253f76f41188ce3bd361cab747bfe33a694a7",
          "transactionIndex": "0x7",
          "logIndex": "0x18",
          "removed": false
        },
        {
          "address": "0x27f971cb582bf9e50f397e4d29a5c7a34f11faa2",
          "topics": [
            "0xddf252ad1be2c89b69c2b068fc378daa952ba7f163c4a11628f55a4df523b3ef",
            "0x0000000000000000000000000000000000000000000000000000000000000000",
            "0x000000000000000000000000361f39faf33b0bea1e09fe15b956bbbd304374c9",
            "0x0000000000000000000000000000000000000000000000000000000000011585"
          ],
          "data": "0x",
          "blockHash": "0xb8e2cd5970451bc859d73ac9034242bddb4895ffe88971a3b20f036461a7d198",
          "blockNumber": "0x1ee5ffb",
          "blockTimestamp": "0x68f01ed6",
          "transactionHash": "0x7c8cec23b161b3b685c32673d8d253f76f41188ce3bd361cab747bfe33a694a7",
          "transactionIndex": "0x7",
          "logIndex": "0x19",
          "removed": false
        },
        {
          "address": "0x27f971cb582bf9e50f397e4d29a5c7a34f11faa2",
          "topics": [
            "0x3067048beee31b25b2f1681f88dac838c8bba36af25bfb2b7cf7473a5847e35f",
            "0x0000000000000000000000000000000000000000000000000000000000011585"
          ],
          "data": "0x0000000000000000000000000000000000000000000000000076408dc9bc1358000000000000000000000000000000000000000000000000000000000000000000000000000000000000000000000000000000000000000000005af3107a4000",
          "blockHash": "0xb8e2cd5970451bc859d73ac9034242bddb4895ffe88971a3b20f036461a7d198",
          "blockNumber": "0x1ee5ffb",
          "blockTimestamp": "0x68f01ed6",
          "transactionHash": "0x7c8cec23b161b3b685c32673d8d253f76f41188ce3bd361cab747bfe33a694a7",
          "transactionIndex": "0x7",
          "logIndex": "0x1a",
          "removed": false
        },
        {
          "address": "0x036cbd53842c5426634e7929541ec2318f3dcf7e",
          "topics": [
            "0xddf252ad1be2c89b69c2b068fc378daa952ba7f163c4a11628f55a4df523b3ef",
            "0x000000000000000000000000713277e80daeb64d5646f7362bb788ec66de9127",
            "0x000000000000000000000000361f39faf33b0bea1e09fe15b956bbbd304374c9"
          ],
          "data": "0x0000000000000000000000000000000000000000000000000000000000000001",
          "blockHash": "0xb8e2cd5970451bc859d73ac9034242bddb4895ffe88971a3b20f036461a7d198",
          "blockNumber": "0x1ee5ffb",
          "blockTimestamp": "0x68f01ed6",
          "transactionHash": "0x7c8cec23b161b3b685c32673d8d253f76f41188ce3bd361cab747bfe33a694a7",
          "transactionIndex": "0x7",
          "logIndex": "0x1b",
          "removed": false
        },
        {
          "address": "0x361f39faf33b0bea1e09fe15b956bbbd304374c9",
          "topics": [
            "0x1873553dae46c6c4a5009f92d87ef4b1be03943559a661467807f7dc4c4e53a3",
            "0x00000000000000000000000027f971cb582bf9e50f397e4d29a5c7a34f11faa2"
          ],
          "data": "0x000000000000000000000000036cbd53842c5426634e7929541ec2318f3dcf7e00000000000000000000000042000000000000000000000000000000000000060000000000000000000000000000000000000000000000000076408dc9bc1358",
          "blockHash": "0xb8e2cd5970451bc859d73ac9034242bddb4895ffe88971a3b20f036461a7d198",
          "blockNumber": "0x1ee5ffb",
          "blockTimestamp": "0x68f01ed6",
          "transactionHash": "0x7c8cec23b161b3b685c32673d8d253f76f41188ce3bd361cab747bfe33a694a7",
          "transactionIndex": "0x7",
          "logIndex": "0x1c",
          "removed": false
        },
        {
          "address": "0x361f39faf33b0bea1e09fe15b956bbbd304374c9",
          "topics": [
            "0x72e7c7dee9f1208e1f0e96af43dfde9f240b7f3a9a762da8ea1e8ed767a66ab7",
            "0x0000000000000000000000000000000000000000000000000000000000000000"
          ],
          "data": "0x00000000000000000000000000000000000000000000000000000000000115850000000000000000000000000000000000000000000000000076408dc9bc1358",
          "blockHash": "0xb8e2cd5970451bc859d73ac9034242bddb4895ffe88971a3b20f036461a7d198",
          "blockNumber": "0x1ee5ffb",
          "blockTimestamp": "0x68f01ed6",
          "transactionHash": "0x7c8cec23b161b3b685c32673d8d253f76f41188ce3bd361cab747bfe33a694a7",
          "transactionIndex": "0x7",
          "logIndex": "0x1d",
          "removed": false
        },
        {
          "address": "0xa3fb2bc377d8dbeab98a3c8703ec7e000e2bad3a",
          "topics": [
            "0xd11895475c54b7d51633ecc794cd50a555a5c13b37a9d83d28e8405e0a185ede",
            "0x00000000000000000000000073d43dd9ac2c0fd004286f7a13f51bec163efb2c",
            "0x00000000000000000000000027f971cb582bf9e50f397e4d29a5c7a34f11faa2"
          ],
          "data": "0x000000000000000000000000036cbd53842c5426634e7929541ec2318f3dcf7e000000000000000000000000420000000000000000000000000000000000000600000000000000000000000000000000000000000000000000000000000000000000000000000000000000000000000000000000000000000000246139ca80000000000000000000000000000000000000000000000000000000000000000001",
          "blockHash": "0xb8e2cd5970451bc859d73ac9034242bddb4895ffe88971a3b20f036461a7d198",
          "blockNumber": "0x1ee5ffb",
          "blockTimestamp": "0x68f01ed6",
          "transactionHash": "0x7c8cec23b161b3b685c32673d8d253f76f41188ce3bd361cab747bfe33a694a7",
          "transactionIndex": "0x7",
          "logIndex": "0x1e",
          "removed": false
        }
      ],
      "logsBloom": "0x000000000c0000000100100000040400000000000000400000040000000000000000400010001800080000100000000000040000000000020400410000200000000000400000000000000008080000000100000008000000080080000000020840000000020000400000000080000800000800000900000050000010000000000000000008000000000100000000000408000008002000000000000000080000020000004000008000000100000000000000000000000020000000008400000000000002020000000000080000400000000000000000020000000000000120000010000000000000000000800020000000000000000000000001000000000800",
      "type": "0x2",
      "transactionHash": "0x7c8cec23b161b3b685c32673d8d253f76f41188ce3bd361cab747bfe33a694a7",
      "transactionIndex": "0x7",
      "blockHash": "0xb8e2cd5970451bc859d73ac9034242bddb4895ffe88971a3b20f036461a7d198",
      "blockNumber": "0x1ee5ffb",
      "gasUsed": "0x11a72d",
      "effectiveGasPrice": "0xf42b7",
      "from": "0x73d43dd9ac2c0fd004286f7a13f51bec163efb2c",
      "to": "0xa3fb2bc377d8dbeab98a3c8703ec7e000e2bad3a",
      "contractAddress": null,
      "l1BaseFeeScalar": "0x44d",
      "l1BlobBaseFee": "0x1",
      "l1BlobBaseFeeScalar": "0xa118b",
      "l1Fee": "0x62",
      "l1GasPrice": "0x8",
      "l1GasUsed": "0x7b0"
    }
  ],
  "libraries": [],
  "pending": [],
  "returns": {},
  "timestamp": 1760566998332,
  "chain": 84532,
  "commit": "22bec4d"
}