{
  "transactions": [
    {
      "hash": "0x5fc3b127984adf53a031d375abc9a4d140e5b87dcfed75990149a35b0bb74191",
      "transactionType": "CALL",
      "contractName": null,
      "contractAddress": "0x036cbd53842c5426634e7929541ec2318f3dcf7e",
      "function": "approve(address,uint256)",
      "arguments": [
        "0xc8c309E34ef4fd87d869dd6E856934E3497A8965",
        "2"
      ],
      "transaction": {
        "from": "0x73d43dd9ac2c0fd004286f7a13f51bec163efb2c",
        "to": "0x036cbd53842c5426634e7929541ec2318f3dcf7e",
        "gas": "0x12afa",
        "value": "0x0",
        "input": "0x095ea7b3000000000000000000000000c8c309e34ef4fd87d869dd6e856934e3497a89650000000000000000000000000000000000000000000000000000000000000002",
        "nonce": "0x398",
        "chainId": "0x14a34"
      },
      "additionalContracts": [],
      "isFixedGasLimit": false
    },
    {
      "hash": "0xdbac8f052403728eace7ca13371c03c3e7e5cbe9dc6d1491f7325990914be33a",
      "transactionType": "CALL",
      "contractName": null,
      "contractAddress": "0xc8c309e34ef4fd87d869dd6e856934e3497a8965",
      "function": "deposit(address,uint256)",
      "arguments": [
        "0x036CbD53842c5426634e7929541eC2318f3dCF7e",
        "2"
      ],
      "transaction": {
        "from": "0x73d43dd9ac2c0fd004286f7a13f51bec163efb2c",
        "to": "0xc8c309e34ef4fd87d869dd6e856934e3497a8965",
        "gas": "0x184b5",
        "value": "0x0",
        "input": "0x47e7ef24000000000000000000000000036cbd53842c5426634e7929541ec2318f3dcf7e0000000000000000000000000000000000000000000000000000000000000002",
        "nonce": "0x399",
        "chainId": "0x14a34"
      },
      "additionalContracts": [],
      "isFixedGasLimit": false
    },
    {
      "hash": "0xea6af9425685fb4f04956cf42eb51a0ea51ea84d9ac62073d7ab5d4d20047f2c",
      "transactionType": "CALL",
      "contractName": null,
      "contractAddress": "0x4200000000000000000000000000000000000006",
      "function": "approve(address,uint256)",
      "arguments": [
        "0xc8c309E34ef4fd87d869dd6E856934E3497A8965",
        "50000000000000"
      ],
      "transaction": {
        "from": "0x73d43dd9ac2c0fd004286f7a13f51bec163efb2c",
        "to": "0x4200000000000000000000000000000000000006",
        "gas": "0x106e6",
        "value": "0x0",
        "input": "0x095ea7b3000000000000000000000000c8c309e34ef4fd87d869dd6e856934e3497a896500000000000000000000000000000000000000000000000000002d79883d2000",
        "nonce": "0x39a",
        "chainId": "0x14a34"
      },
      "additionalContracts": [],
      "isFixedGasLimit": false
    },
    {
      "hash": "0xc6cbf06c675a64c7e045a16277fe373a49aa3b47a7809ed19cd696aaeff2e20f",
      "transactionType": "CALL",
      "contractName": null,
      "contractAddress": "0xc8c309e34ef4fd87d869dd6e856934e3497a8965",
      "function": "deposit(address,uint256)",
      "arguments": [
        "0x4200000000000000000000000000000000000006",
        "50000000000000"
      ],
      "transaction": {
        "from": "0x73d43dd9ac2c0fd004286f7a13f51bec163efb2c",
        "to": "0xc8c309e34ef4fd87d869dd6e856934e3497a8965",
        "gas": "0x12398",
        "value": "0x0",
        "input": "0x47e7ef24000000000000000000000000420000000000000000000000000000000000000600000000000000000000000000000000000000000000000000002d79883d2000",
        "nonce": "0x39b",
        "chainId": "0x14a34"
      },
      "additionalContracts": [],
      "isFixedGasLimit": false
    }
  ],
  "receipts": [
    {
      "status": "0x1",
      "cumulativeGasUsed": "0x339e6f",
      "logs": [
        {
          "address": "0x036cbd53842c5426634e7929541ec2318f3dcf7e",
          "topics": [
            "0x8c5be1e5ebec7d5bd14f71427d1e84f3dd0314c0f7b2291e5b200ac8c7c3b925",
            "0x00000000000000000000000073d43dd9ac2c0fd004286f7a13f51bec163efb2c",
            "0x000000000000000000000000c8c309e34ef4fd87d869dd6e856934e3497a8965"
          ],
          "data": "0x0000000000000000000000000000000000000000000000000000000000000002",
          "blockHash": "0x98d1748f8a130de6c46a342b5d1a595283034d724fa2da712b152c7a704f7a83",
          "blockNumber": "0x1f39b44",
          "blockTimestamp": "0x68fa9568",
          "transactionHash": "0x5fc3b127984adf53a031d375abc9a4d140e5b87dcfed75990149a35b0bb74191",
          "transactionIndex": "0xc",
          "logIndex": "0x2b",
          "removed": false
        }
      ],
      "logsBloom": "0x00000000040000000000000000000000000000000000000000000000000000000000000000000000000000000000000000000000000000010000000000200000000000000000000000000000000000000000000000000000000000000000000800000000000000000000000000000000000000000000000010000000000000040000000000000000000100000000000008000000000000000000000000000000020000000000000000000000000000000000000000000000000000000000000000000000000000000008000000000000000000000000000000000000000000000010000000000000000000000020000000000000000000000000000000000000",
      "type": "0x2",
      "transactionHash": "0x5fc3b127984adf53a031d375abc9a4d140e5b87dcfed75990149a35b0bb74191",
      "transactionIndex": "0xc",
      "blockHash": "0x98d1748f8a130de6c46a342b5d1a595283034d724fa2da712b152c7a704f7a83",
      "blockNumber": "0x1f39b44",
      "gasUsed": "0xd875",
      "effectiveGasPrice": "0xf4277",
      "from": "0x73d43dd9ac2c0fd004286f7a13f51bec163efb2c",
      "to": "0x036cbd53842c5426634e7929541ec2318f3dcf7e",
      "contractAddress": null,
      "l1BaseFeeScalar": "0x44d",
      "l1BlobBaseFee": "0x1",
      "l1BlobBaseFeeScalar": "0xa118b",
      "l1Fee": "0x20e",
      "l1GasPrice": "0x9",
      "l1GasUsed": "0x640"
    },
    {
      "status": "0x1",
      "cumulativeGasUsed": "0x34a838",
      "logs": [
        {
          "address": "0x036cbd53842c5426634e7929541ec2318f3dcf7e",
          "topics": [
            "0xddf252ad1be2c89b69c2b068fc378daa952ba7f163c4a11628f55a4df523b3ef",
            "0x00000000000000000000000073d43dd9ac2c0fd004286f7a13f51bec163efb2c",
            "0x000000000000000000000000c8c309e34ef4fd87d869dd6e856934e3497a8965"
          ],
          "data": "0x0000000000000000000000000000000000000000000000000000000000000002",
          "blockHash": "0xf631dbe4e62b54be87bcf5b06ac4baadba52ff9e86801a4fafc55410bb9d317a",
          "blockNumber": "0x1f39b44",
          "blockTimestamp": "0x68fa9568",
          "transactionHash": "0xdbac8f052403728eace7ca13371c03c3e7e5cbe9dc6d1491f7325990914be33a",
          "transactionIndex": "0xd",
          "logIndex": "0x2c",
          "removed": false
        },
        {
          "address": "0xc8c309e34ef4fd87d869dd6e856934e3497a8965",
          "topics": [
            "0x2da466a7b24304f47e87fa2e1e5a81b9831ce54fec19055ce277ca2f39ba42c4",
            "0x00000000000000000000000073d43dd9ac2c0fd004286f7a13f51bec163efb2c"
          ],
          "data": "0x0000000000000000000000000000000000000000000000000000000000000002",
          "blockHash": "0xf631dbe4e62b54be87bcf5b06ac4baadba52ff9e86801a4fafc55410bb9d317a",
          "blockNumber": "0x1f39b44",
          "blockTimestamp": "0x68fa9568",
          "transactionHash": "0xdbac8f052403728eace7ca13371c03c3e7e5cbe9dc6d1491f7325990914be33a",
          "transactionIndex": "0xd",
          "logIndex": "0x2d",
          "removed": false
        }
      ],
      "logsBloom": "0x00000000040000000000000000000000000000000000000000000000000000000000000000000000000000000000000000000000000000010000000000000000000000000000000000000008000000000000000000000000000000000000200804000000000000004000000000000000000000000000000010000010000200040000000000000000000100000000000008000000000000000000000000000000000000000000000000000000000000000000000000000000000000000000000000000002000000000008000000000000000400000000000000000000000000000040000000000000000000000020000000000000000000000000000000000000",
      "type": "0x2",
      "transactionHash": "0xdbac8f052403728eace7ca13371c03c3e7e5cbe9dc6d1491f7325990914be33a",
      "transactionIndex": "0xd",
      "blockHash": "0xf631dbe4e62b54be87bcf5b06ac4baadba52ff9e86801a4fafc55410bb9d317a",
      "blockNumber": "0x1f39b44",
      "gasUsed": "0x109c9",
      "effectiveGasPrice": "0xf4277",
      "from": "0x73d43dd9ac2c0fd004286f7a13f51bec163efb2c",
      "to": "0xc8c309e34ef4fd87d869dd6e856934e3497a8965",
      "contractAddress": null,
      "l1BaseFeeScalar": "0x44d",
      "l1BlobBaseFee": "0x1",
      "l1BlobBaseFeeScalar": "0xa118b",
      "l1Fee": "0x20e",
      "l1GasPrice": "0x9",
      "l1GasUsed": "0x640"
    },
    {
      "status": "0x1",
      "cumulativeGasUsed": "0x355bfb",
      "logs": [
        {
          "address": "0x4200000000000000000000000000000000000006",
          "topics": [
            "0x8c5be1e5ebec7d5bd14f71427d1e84f3dd0314c0f7b2291e5b200ac8c7c3b925",
            "0x00000000000000000000000073d43dd9ac2c0fd004286f7a13f51bec163efb2c",
            "0x000000000000000000000000c8c309e34ef4fd87d869dd6e856934e3497a8965"
          ],
          "data": "0x00000000000000000000000000000000000000000000000000002d79883d2000",
          "blockHash": "0xf631dbe4e62b54be87bcf5b06ac4baadba52ff9e86801a4fafc55410bb9d317a",
          "blockNumber": "0x1f39b44",
          "blockTimestamp": "0x68fa9568",
          "transactionHash": "0xea6af9425685fb4f04956cf42eb51a0ea51ea84d9ac62073d7ab5d4d20047f2c",
          "transactionIndex": "0xe",
          "logIndex": "0x2e",
          "removed": false
        }
      ],
      "logsBloom": "0x00000000000000000000000000000000000000000000000000040000000000000000000000000000000000100000000000000000000000010000000000200000000000000000000000000000000000000000000000000000000000000000000000000000000000000000000000000000000000000000000010000000000000040000000000000000000100000000000008000000002000000000000000000000020000000000000000000000000000000000000000000000000000000000000000000000000000000008000000000000000000000000000000000000000000000010000000000000000000000000000000000000000000000000000000000000",
      "type": "0x2",
      "transactionHash": "0xea6af9425685fb4f04956cf42eb51a0ea51ea84d9ac62073d7ab5d4d20047f2c",
      "transactionIndex": "0xe",
      "blockHash": "0xf631dbe4e62b54be87bcf5b06ac4baadba52ff9e86801a4fafc55410bb9d317a",
      "blockNumber": "0x1f39b44",
      "gasUsed": "0xb3c3",
      "effectiveGasPrice": "0xf4277",
      "from": "0x73d43dd9ac2c0fd004286f7a13f51bec163efb2c",
      "to": "0x4200000000000000000000000000000000000006",
      "contractAddress": null,
      "l1BaseFeeScalar": "0x44d",
      "l1BlobBaseFee": "0x1",
      "l1BlobBaseFeeScalar": "0xa118b",
      "l1Fee": "0x20e",
      "l1GasPrice": "0x9",
      "l1GasUsed": "0x640"
    },
    {
      "status": "0x1",
      "cumulativeGasUsed": "0x362f18",
      "logs": [
        {
          "address": "0x4200000000000000000000000000000000000006",
          "topics": [
            "0xddf252ad1be2c89b69c2b068fc378daa952ba7f163c4a11628f55a4df523b3ef",
            "0x00000000000000000000000073d43dd9ac2c0fd004286f7a13f51bec163efb2c",
            "0x000000000000000000000000c8c309e34ef4fd87d869dd6e856934e3497a8965"
          ],
          "data": "0x00000000000000000000000000000000000000000000000000002d79883d2000",
          "blockHash": "0x98d1748f8a130de6c46a342b5d1a595283034d724fa2da712b152c7a704f7a83",
          "blockNumber": "0x1f39b44",
          "blockTimestamp": "0x68fa9568",
          "transactionHash": "0xc6cbf06c675a64c7e045a16277fe373a49aa3b47a7809ed19cd696aaeff2e20f",
          "transactionIndex": "0xf",
          "logIndex": "0x2f",
          "removed": false
        },
        {
          "address": "0xc8c309e34ef4fd87d869dd6e856934e3497a8965",
          "topics": [
            "0x2da466a7b24304f47e87fa2e1e5a81b9831ce54fec19055ce277ca2f39ba42c4",
            "0x00000000000000000000000073d43dd9ac2c0fd004286f7a13f51bec163efb2c"
          ],
          "data": "0x00000000000000000000000000000000000000000000000000002d79883d2000",
          "blockHash": "0x98d1748f8a130de6c46a342b5d1a595283034d724fa2da712b152c7a704f7a83",
          "blockNumber": "0x1f39b44",
          "blockTimestamp": "0x68fa9568",
          "transactionHash": "0xc6cbf06c675a64c7e045a16277fe373a49aa3b47a7809ed19cd696aaeff2e20f",
          "transactionIndex": "0xf",
          "logIndex": "0x30",
          "removed": false
        }
      ],
      "logsBloom": "0x00000000000000000000000000000000000000000000000000040000000000000000000000000000000000100000000000000000000000010000000000000000000000000000000000000008000000000000000000000000000000000000200004000000000000004000000000000000000000000000000010000010000200040000000000000000000100000000000008000000002000000000000000000000000000000000000000000000000000000000000000000000000000000000000000000002000000000008000000000000000400000000000000000000000000000040000000000000000000000000000000000000000000000000000000000000",
      "type": "0x2",
      "transactionHash": "0xc6cbf06c675a64c7e045a16277fe373a49aa3b47a7809ed19cd696aaeff2e20f",
      "transactionIndex": "0xf",
      "blockHash": "0x98d1748f8a130de6c46a342b5d1a595283034d724fa2da712b152c7a704f7a83",
      "blockNumber": "0x1f39b44",
      "gasUsed": "0xd31d",
      "effectiveGasPrice": "0xf4277",
      "from": "0x73d43dd9ac2c0fd004286f7a13f51bec163efb2c",
      "to": "0xc8c309e34ef4fd87d869dd6e856934e3497a8965",
      "contractAddress": null,
      "l1BaseFeeScalar": "0x44d",
      "l1BlobBaseFee": "0x1",
      "l1BlobBaseFeeScalar": "0xa118b",
      "l1Fee": "0x20e",
      "l1GasPrice": "0x9",
      "l1GasUsed": "0x640"
    }
  ],
  "libraries": [],
  "pending": [],
  "returns": {},
  "timestamp": 1761252712268,
  "chain": 84532,
  "commit": "9eab8ae"
}