{
  "transactions": [
    {
      "hash": "0x9442a769c528103bc709b48b71941851bf60b241fc17dbd31ca2dc94ff21338a",
      "transactionType": "CALL",
      "contractName": null,
      "contractAddress": "0x036cbd53842c5426634e7929541ec2318f3dcf7e",
      "function": "approve(address,uint256)",
      "arguments": [
        "0xB4919d4C0F261B2258740A0b69c45b4413dC2500",
        "1000000"
      ],
      "transaction": {
        "from": "0x73d43dd9ac2c0fd004286f7a13f51bec163efb2c",
        "to": "0x036cbd53842c5426634e7929541ec2318f3dcf7e",
        "gas": "0x13ca2",
        "value": "0x0",
        "input": "0x095ea7b3000000000000000000000000b4919d4c0f261b2258740a0b69c45b4413dc250000000000000000000000000000000000000000000000000000000000000f4240",
        "nonce": "0x31b",
        "chainId": "0x14a34"
      },
      "additionalContracts": [],
      "isFixedGasLimit": false
    },
    {
      "hash": "0x9b83399329cfc4a27f93686f972e5498f143d151b6a0b24dda9501354e4277da",
      "transactionType": "CALL",
      "contractName": null,
      "contractAddress": "0xb4919d4c0f261b2258740a0b69c45b4413dc2500",
      "function": "deposit(address,uint256)",
      "arguments": [
        "0x036CbD53842c5426634e7929541eC2318f3dCF7e",
        "1000000"
      ],
      "transaction": {
        "from": "0x73d43dd9ac2c0fd004286f7a13f51bec163efb2c",
        "to": "0xb4919d4c0f261b2258740a0b69c45b4413dc2500",
        "gas": "0x29385",
        "value": "0x0",
        "input": "0x47e7ef24000000000000000000000000036cbd53842c5426634e7929541ec2318f3dcf7e00000000000000000000000000000000000000000000000000000000000f4240",
        "nonce": "0x31c",
        "chainId": "0x14a34"
      },
      "additionalContracts": [],
      "isFixedGasLimit": false
    },
    {
      "hash": "0x58d537b69900c8567b7fbb73d0a00098da77fe5b15d82cd8f596309f71e4cb16",
      "transactionType": "CALL",
      "contractName": null,
      "contractAddress": "0x4200000000000000000000000000000000000006",
      "function": "approve(address,uint256)",
      "arguments": [
        "0xB4919d4C0F261B2258740A0b69c45b4413dC2500",
        "10000000000000000"
      ],
      "transaction": {
        "from": "0x73d43dd9ac2c0fd004286f7a13f51bec163efb2c",
        "to": "0x4200000000000000000000000000000000000006",
        "gas": "0xf83a",
        "value": "0x0",
        "input": "0x095ea7b3000000000000000000000000b4919d4c0f261b2258740a0b69c45b4413dc2500000000000000000000000000000000000000000000000000002386f26fc10000",
        "nonce": "0x31d",
        "chainId": "0x14a34"
      },
      "additionalContracts": [],
      "isFixedGasLimit": false
    },
    {
      "hash": "0xd1055ddbb3e263eac2c2e935b0c6512039bc590398e96a23b07f45f0b201c94b",
      "transactionType": "CALL",
      "contractName": null,
      "contractAddress": "0xb4919d4c0f261b2258740a0b69c45b4413dc2500",
      "function": "deposit(address,uint256)",
      "arguments": [
        "0x4200000000000000000000000000000000000006",
        "10000000000000000"
      ],
      "transaction": {
        "from": "0x73d43dd9ac2c0fd004286f7a13f51bec163efb2c",
        "to": "0xb4919d4c0f261b2258740a0b69c45b4413dc2500",
        "gas": "0x1962c",
        "value": "0x0",
        "input": "0x47e7ef240000000000000000000000004200000000000000000000000000000000000006000000000000000000000000000000000000000000000000002386f26fc10000",
        "nonce": "0x31e",
        "chainId": "0x14a34"
      },
      "additionalContracts": [],
      "isFixedGasLimit": false
    },
    {
      "hash": "0x06fa42539fd2fea54c5775f91de1f2354328b2e3fa926d24a96e279f081d9632",
      "transactionType": "CALL",
      "contractName": null,
      "contractAddress": "0x036cbd53842c5426634e7929541ec2318f3dcf7e",
      "function": "approve(address,uint256)",
      "arguments": [
        "0x5737e1Be8CA566E0c903a973991E0FF6b027281F",
        "500000"
      ],
      "transaction": {
        "from": "0x73d43dd9ac2c0fd004286f7a13f51bec163efb2c",
        "to": "0x036cbd53842c5426634e7929541ec2318f3dcf7e",
        "gas": "0x12b1b",
        "value": "0x0",
        "input": "0x095ea7b30000000000000000000000005737e1be8ca566e0c903a973991e0ff6b027281f000000000000000000000000000000000000000000000000000000000007a120",
        "nonce": "0x31f",
        "chainId": "0x14a34"
      },
      "additionalContracts": [],
      "isFixedGasLimit": false
    },
    {
      "hash": "0x0b58b5d5031f2b28a8f468465617b5d6e736dfc3c409c89fd4663521e7cad5a2",
      "transactionType": "CALL",
      "contractName": null,
      "contractAddress": "0x4200000000000000000000000000000000000006",
      "function": "approve(address,uint256)",
      "arguments": [
        "0x5737e1Be8CA566E0c903a973991E0FF6b027281F",
        "5000000000000000"
      ],
      "transaction": {
        "from": "0x73d43dd9ac2c0fd004286f7a13f51bec163efb2c",
        "to": "0x4200000000000000000000000000000000000006",
        "gas": "0xf85b",
        "value": "0x0",
        "input": "0x095ea7b30000000000000000000000005737e1be8ca566e0c903a973991e0ff6b027281f0000000000000000000000000000000000000000000000000011c37937e08000",
        "nonce": "0x320",
        "chainId": "0x14a34"
      },
      "additionalContracts": [],
      "isFixedGasLimit": false
    },
    {
      "hash": "0x956bc50d654dc42636e1eb89906fa395f93388d50985d3ef63cf65d662a4c81b",
      "transactionType": "CALL",
      "contractName": null,
      "contractAddress": "0x5737e1be8ca566e0c903a973991e0ff6b027281f",
      "function": "addLiquidityUniswapV3(address,address,uint24,int24,int24,uint256,uint256,uint256,uint256)",
      "arguments": [
        "0x036CbD53842c5426634e7929541eC2318f3dCF7e",
        "0x4200000000000000000000000000000000000006",
        "3000",
        "-887220",
        "887220",
        "500000",
        "5000000000000000",
        "0",
        "0"
      ],
      "transaction": {
        "from": "0x73d43dd9ac2c0fd004286f7a13f51bec163efb2c",
        "to": "0x5737e1be8ca566e0c903a973991e0ff6b027281f",
        "gas": "0x1261a6",
        "value": "0x0",
        "input": "0xe40345e2000000000000000000000000036cbd53842c5426634e7929541ec2318f3dcf7e00000000000000000000000042000000000000000000000000000000000000060000000000000000000000000000000000000000000000000000000000000bb8fffffffffffffffffffffffffffffffffffffffffffffffffffffffffff2764c00000000000000000000000000000000000000000000000000000000000d89b4000000000000000000000000000000000000000000000000000000000007a1200000000000000000000000000000000000000000000000000011c37937e0800000000000000000000000000000000000000000000000000000000000000000000000000000000000000000000000000000000000000000000000000000000000",
        "nonce": "0x321",
        "chainId": "0x14a34"
      },
      "additionalContracts": [],
      "isFixedGasLimit": false
    }
  ],
  "receipts": [
    {
      "status": "0x1",
      "cumulativeGasUsed": "0x1660974",
      "logs": [
        {
          "address": "0x036cbd53842c5426634e7929541ec2318f3dcf7e",
          "topics": [
            "0x8c5be1e5ebec7d5bd14f71427d1e84f3dd0314c0f7b2291e5b200ac8c7c3b925",
            "0x00000000000000000000000073d43dd9ac2c0fd004286f7a13f51bec163efb2c",
            "0x000000000000000000000000b4919d4c0f261b2258740a0b69c45b4413dc2500"
          ],
          "data": "0x00000000000000000000000000000000000000000000000000000000000f4240",
          "blockHash": "0x7c858045890e4e61f97d79c2ccf22a0e930d766301a01893dc16eae0e077cc42",
          "blockNumber": "0x1ee56a9",
          "blockTimestamp": "0x68f00c32",
          "transactionHash": "0x9442a769c528103bc709b48b71941851bf60b241fc17dbd31ca2dc94ff21338a",
          "transactionIndex": "0x1b",
          "logIndex": "0x1a2",
          "removed": false
        }
      ],
      "logsBloom": "0x00000000040000000000000000000000000000000000000000000000000000000000000000000000000000000000000000000000000000000000000000200000000000000000000000000000000000000000000000000000000000000000000800000010000000000000000000000000000000000000000010000000000000000000000000000000002100000000000028000000000000000000000000000000020000000000000000000000000000000000000000000000000000000000000000000000000000000000000000000000000000000000000000000000000000000010000000000000000000000020000000000000000000000000000000000000",
      "type": "0x2",
      "transactionHash": "0x9442a769c528103bc709b48b71941851bf60b241fc17dbd31ca2dc94ff21338a",
      "transactionIndex": "0x1b",
      "blockHash": "0x7c858045890e4e61f97d79c2ccf22a0e930d766301a01893dc16eae0e077cc42",
      "blockNumber": "0x1ee56a9",
      "gasUsed": "0xd881",
      "effectiveGasPrice": "0xf42b3",
      "from": "0x73d43dd9ac2c0fd004286f7a13f51bec163efb2c",
      "to": "0x036cbd53842c5426634e7929541ec2318f3dcf7e",
      "contractAddress": null,
      "l1BaseFeeScalar": "0x44d",
      "l1BlobBaseFee": "0x1",
      "l1BlobBaseFeeScalar": "0xa118b",
      "l1Fee": "0x51",
      "l1GasPrice": "0x9",
      "l1GasUsed": "0x640"
    },
    {
      "status": "0x1",
      "cumulativeGasUsed": "0x167e6f0",
      "logs": [
        {
          "address": "0x036cbd53842c5426634e7929541ec2318f3dcf7e",
          "topics": [
            "0xddf252ad1be2c89b69c2b068fc378daa952ba7f163c4a11628f55a4df523b3ef",
            "0x00000000000000000000000073d43dd9ac2c0fd004286f7a13f51bec163efb2c",
            "0x000000000000000000000000b4919d4c0f261b2258740a0b69c45b4413dc2500"
          ],
          "data": "0x00000000000000000000000000000000000000000000000000000000000f4240",
          "blockHash": "0x7c858045890e4e61f97d79c2ccf22a0e930d766301a01893dc16eae0e077cc42",
          "blockNumber": "0x1ee56a9",
          "blockTimestamp": "0x68f00c32",
          "transactionHash": "0x9b83399329cfc4a27f93686f972e5498f143d151b6a0b24dda9501354e4277da",
          "transactionIndex": "0x1c",
          "logIndex": "0x1a3",
          "removed": false
        },
        {
          "address": "0xb4919d4c0f261b2258740a0b69c45b4413dc2500",
          "topics": [
            "0x2da466a7b24304f47e87fa2e1e5a81b9831ce54fec19055ce277ca2f39ba42c4",
            "0x00000000000000000000000073d43dd9ac2c0fd004286f7a13f51bec163efb2c"
          ],
          "data": "0x00000000000000000000000000000000000000000000000000000000000f4240",
          "blockHash": "0x7c858045890e4e61f97d79c2ccf22a0e930d766301a01893dc16eae0e077cc42",
          "blockNumber": "0x1ee56a9",
          "blockTimestamp": "0x68f00c32",
          "transactionHash": "0x9b83399329cfc4a27f93686f972e5498f143d151b6a0b24dda9501354e4277da",
          "transactionIndex": "0x1c",
          "logIndex": "0x1a4",
          "removed": false
        }
      ],
      "logsBloom": "0x00000000040000000000000000000000000000000000000000000000000000000000000000000000000000000000000000000000000000000000000000000000000000000000000000000008000000000000000000000000000000000000200800000010880000000000000000000000000000000000000010000010000200000000000000000000002100000000000028000000000000000000000000000000000000000000000000000000000000000000000000000000000000000000000000000002000000000000000000000000000000000080000000000000000000000040000000000000000000000020000000000000000000000000000000000000",
      "type": "0x2",
      "transactionHash": "0x9b83399329cfc4a27f93686f972e5498f143d151b6a0b24dda9501354e4277da",
      "transactionIndex": "0x1c",
      "blockHash": "0x7c858045890e4e61f97d79c2ccf22a0e930d766301a01893dc16eae0e077cc42",
      "blockNumber": "0x1ee56a9",
      "gasUsed": "0x1dd7c",
      "effectiveGasPrice": "0xf42b3",
      "from": "0x73d43dd9ac2c0fd004286f7a13f51bec163efb2c",
      "to": "0xb4919d4c0f261b2258740a0b69c45b4413dc2500",
      "contractAddress": null,
      "l1BaseFeeScalar": "0x44d",
      "l1BlobBaseFee": "0x1",
      "l1BlobBaseFeeScalar": "0xa118b",
      "l1Fee": "0x51",
      "l1GasPrice": "0x9",
      "l1GasUsed": "0x640"
    },
    {
      "status": "0x1",
      "cumulativeGasUsed": "0x1689aa7",
      "logs": [
        {
          "address": "0x4200000000000000000000000000000000000006",
          "topics": [
            "0x8c5be1e5ebec7d5bd14f71427d1e84f3dd0314c0f7b2291e5b200ac8c7c3b925",
            "0x00000000000000000000000073d43dd9ac2c0fd004286f7a13f51bec163efb2c",
            "0x000000000000000000000000b4919d4c0f261b2258740a0b69c45b4413dc2500"
          ],
          "data": "0x000000000000000000000000000000000000000000000000002386f26fc10000",
          "blockHash": "0x7c858045890e4e61f97d79c2ccf22a0e930d766301a01893dc16eae0e077cc42",
          "blockNumber": "0x1ee56a9",
          "blockTimestamp": "0x68f00c32",
          "transactionHash": "0x58d537b69900c8567b7fbb73d0a00098da77fe5b15d82cd8f596309f71e4cb16",
          "transactionIndex": "0x1d",
          "logIndex": "0x1a5",
          "removed": false
        }
      ],
      "logsBloom": "0x00000000000000000000000000000000000000000000000000040000000000000000000000000000000000100000000000000000000000000000000000200000000000000000000000000000000000000000000000000000000000000000000000000010000000000000000000000000000000000000000010000000000000000000000000000000002100000000000028000000002000000000000000000000020000000000000000000000000000000000000000000000000000000000000000000000000000000000000000000000000000000000000000000000000000000010000000000000000000000000000000000000000000000000000000000000",
      "type": "0x2",
      "transactionHash": "0x58d537b69900c8567b7fbb73d0a00098da77fe5b15d82cd8f596309f71e4cb16",
      "transactionIndex": "0x1d",
      "blockHash": "0x7c858045890e4e61f97d79c2ccf22a0e930d766301a01893dc16eae0e077cc42",
      "blockNumber": "0x1ee56a9",
      "gasUsed": "0xb3b7",
      "effectiveGasPrice": "0xf42b3",
      "from": "0x73d43dd9ac2c0fd004286f7a13f51bec163efb2c",
      "to": "0x4200000000000000000000000000000000000006",
      "contractAddress": null,
      "l1BaseFeeScalar": "0x44d",
      "l1BlobBaseFee": "0x1",
      "l1BlobBaseFeeScalar": "0xa118b",
      "l1Fee": "0x51",
      "l1GasPrice": "0x9",
      "l1GasUsed": "0x640"
    },
    {
      "status": "0x1",
      "cumulativeGasUsed": "0x169b061",
      "logs": [
        {
          "address": "0x4200000000000000000000000000000000000006",
          "topics": [
            "0xddf252ad1be2c89b69c2b068fc378daa952ba7f163c4a11628f55a4df523b3ef",
            "0x00000000000000000000000073d43dd9ac2c0fd004286f7a13f51bec163efb2c",
            "0x000000000000000000000000b4919d4c0f261b2258740a0b69c45b4413dc2500"
          ],
          "data": "0x000000000000000000000000000000000000000000000000002386f26fc10000",
          "blockHash": "0x7c858045890e4e61f97d79c2ccf22a0e930d766301a01893dc16eae0e077cc42",
          "blockNumber": "0x1ee56a9",
          "blockTimestamp": "0x68f00c32",
          "transactionHash": "0xd1055ddbb3e263eac2c2e935b0c6512039bc590398e96a23b07f45f0b201c94b",
          "transactionIndex": "0x1e",
          "logIndex": "0x1a6",
          "removed": false
        },
        {
          "address": "0xb4919d4c0f261b2258740a0b69c45b4413dc2500",
          "topics": [
            "0x2da466a7b24304f47e87fa2e1e5a81b9831ce54fec19055ce277ca2f39ba42c4",
            "0x00000000000000000000000073d43dd9ac2c0fd004286f7a13f51bec163efb2c"
          ],
          "data": "0x000000000000000000000000000000000000000000000000002386f26fc10000",
          "blockHash": "0x7c858045890e4e61f97d79c2ccf22a0e930d766301a01893dc16eae0e077cc42",
          "blockNumber": "0x1ee56a9",
          "blockTimestamp": "0x68f00c32",
          "transactionHash": "0xd1055ddbb3e263eac2c2e935b0c6512039bc590398e96a23b07f45f0b201c94b",
          "transactionIndex": "0x1e",
          "logIndex": "0x1a7",
          "removed": false
        }
      ],
      "logsBloom": "0x00000000000000000000000000000000000000000000000000040000000000000000000000000000000000100000000000000000000000000000000000000000000000000000000000000008000000000000000000000000000000000000200000000010880000000000000000000000000000000000000010000010000200000000000000000000002100000000000028000000002000000000000000000000000000000000000000000000000000000000000000000000000000000000000000000002000000000000000000000000000000000080000000000000000000000040000000000000000000000000000000000000000000000000000000000000",
      "type": "0x2",
      "transactionHash": "0xd1055ddbb3e263eac2c2e935b0c6512039bc590398e96a23b07f45f0b201c94b",
      "transactionIndex": "0x1e",
      "blockHash": "0x7c858045890e4e61f97d79c2ccf22a0e930d766301a01893dc16eae0e077cc42",
      "blockNumber": "0x1ee56a9",
      "gasUsed": "0x115ba",
      "effectiveGasPrice": "0xf42b3",
      "from": "0x73d43dd9ac2c0fd004286f7a13f51bec163efb2c",
      "to": "0xb4919d4c0f261b2258740a0b69c45b4413dc2500",
      "contractAddress": null,
      "l1BaseFeeScalar": "0x44d",
      "l1BlobBaseFee": "0x1",
      "l1BlobBaseFeeScalar": "0xa118b",
      "l1Fee": "0x51",
      "l1GasPrice": "0x9",
      "l1GasUsed": "0x640"
    },
    {
      "status": "0x1",
      "cumulativeGasUsed": "0x16a88ee",
      "logs": [
        {
          "address": "0x036cbd53842c5426634e7929541ec2318f3dcf7e",
          "topics": [
            "0x8c5be1e5ebec7d5bd14f71427d1e84f3dd0314c0f7b2291e5b200ac8c7c3b925",
            "0x00000000000000000000000073d43dd9ac2c0fd004286f7a13f51bec163efb2c",
            "0x0000000000000000000000005737e1be8ca566e0c903a973991e0ff6b027281f"
          ],
          "data": "0x000000000000000000000000000000000000000000000000000000000007a120",
          "blockHash": "0x7c858045890e4e61f97d79c2ccf22a0e930d766301a01893dc16eae0e077cc42",
          "blockNumber": "0x1ee56a9",
          "blockTimestamp": "0x68f00c32",
          "transactionHash": "0x06fa42539fd2fea54c5775f91de1f2354328b2e3fa926d24a96e279f081d9632",
          "transactionIndex": "0x1f",
          "logIndex": "0x1a8",
          "removed": false
        }
      ],
      "logsBloom": "0x00000000040000000000000000000000000000000000000000000000000000000000000000000000000000000000000000000000000000000000020000200000000000000000000000000000000000008000000000000000000000000000000800000000000000000000000000000000000000000000000010000000000000000000000000000000000100000000000008000000000000000000000000000000020000000000000000000000000000000000000000000000000000000000000000000000000000000000000000000000000000000008000000000000000000000010000000000000000000000020000000000000000000000000000000000000",
      "type": "0x2",
      "transactionHash": "0x06fa42539fd2fea54c5775f91de1f2354328b2e3fa926d24a96e279f081d9632",
      "transactionIndex": "0x1f",
      "blockHash": "0x7c858045890e4e61f97d79c2ccf22a0e930d766301a01893dc16eae0e077cc42",
      "blockNumber": "0x1ee56a9",
      "gasUsed": "0xd88d",
      "effectiveGasPrice": "0xf42b3",
      "from": "0x73d43dd9ac2c0fd004286f7a13f51bec163efb2c",
      "to": "0x036cbd53842c5426634e7929541ec2318f3dcf7e",
      "contractAddress": null,
      "l1BaseFeeScalar": "0x44d",
      "l1BlobBaseFee": "0x1",
      "l1BlobBaseFeeScalar": "0xa118b",
      "l1Fee": "0x51",
      "l1GasPrice": "0x9",
      "l1GasUsed": "0x640"
    },
    {
      "status": "0x1",
      "cumulativeGasUsed": "0x16b3cbd",
      "logs": [
        {
          "address": "0x4200000000000000000000000000000000000006",
          "topics": [
            "0x8c5be1e5ebec7d5bd14f71427d1e84f3dd0314c0f7b2291e5b200ac8c7c3b925",
            "0x00000000000000000000000073d43dd9ac2c0fd004286f7a13f51bec163efb2c",
            "0x0000000000000000000000005737e1be8ca566e0c903a973991e0ff6b027281f"
          ],
          "data": "0x0000000000000000000000000000000000000000000000000011c37937e08000",
          "blockHash": "0x7c858045890e4e61f97d79c2ccf22a0e930d766301a01893dc16eae0e077cc42",
          "blockNumber": "0x1ee56a9",
          "blockTimestamp": "0x68f00c32",
          "transactionHash": "0x0b58b5d5031f2b28a8f468465617b5d6e736dfc3c409c89fd4663521e7cad5a2",
          "transactionIndex": "0x20",
          "logIndex": "0x1a9",
          "removed": false
        }
      ],
      "logsBloom": "0x00000000000000000000000000000000000000000000000000040000000000000000000000000000000000100000000000000000000000000000020000200000000000000000000000000000000000008000000000000000000000000000000000000000000000000000000000000000000000000000000010000000000000000000000000000000000100000000000008000000002000000000000000000000020000000000000000000000000000000000000000000000000000000000000000000000000000000000000000000000000000000008000000000000000000000010000000000000000000000000000000000000000000000000000000000000",
      "type": "0x2",
      "transactionHash": "0x0b58b5d5031f2b28a8f468465617b5d6e736dfc3c409c89fd4663521e7cad5a2",
      "transactionIndex": "0x20",
      "blockHash": "0x7c858045890e4e61f97d79c2ccf22a0e930d766301a01893dc16eae0e077cc42",
      "blockNumber": "0x1ee56a9",
      "gasUsed": "0xb3cf",
      "effectiveGasPrice": "0xf42b3",
      "from": "0x73d43dd9ac2c0fd004286f7a13f51bec163efb2c",
      "to": "0x4200000000000000000000000000000000000006",
      "contractAddress": null,
      "l1BaseFeeScalar": "0x44d",
      "l1BlobBaseFee": "0x1",
      "l1BlobBaseFeeScalar": "0xa118b",
      "l1Fee": "0x51",
      "l1GasPrice": "0x9",
      "l1GasUsed": "0x640"
    },
    {
      "status": "0x1",
      "cumulativeGasUsed": "0x177ce47",
      "logs": [
        {
          "address": "0x036cbd53842c5426634e7929541ec2318f3dcf7e",
          "topics": [
            "0xddf252ad1be2c89b69c2b068fc378daa952ba7f163c4a11628f55a4df523b3ef",
            "0x00000000000000000000000073d43dd9ac2c0fd004286f7a13f51bec163efb2c",
            "0x000000000000000000000000aca3d2bb7f4ff4f61718ca642ba61899cf6d5db1"
          ],
          "data": "0x000000000000000000000000000000000000000000000000000000000007a120",
          "blockHash": "0x7c858045890e4e61f97d79c2ccf22a0e930d766301a01893dc16eae0e077cc42",
          "blockNumber": "0x1ee56a9",
          "blockTimestamp": "0x68f00c32",
          "transactionHash": "0x956bc50d654dc42636e1eb89906fa395f93388d50985d3ef63cf65d662a4c81b",
          "transactionIndex": "0x21",
          "logIndex": "0x1aa",
          "removed": false
        },
        {
          "address": "0x4200000000000000000000000000000000000006",
          "topics": [
            "0xddf252ad1be2c89b69c2b068fc378daa952ba7f163c4a11628f55a4df523b3ef",
            "0x00000000000000000000000073d43dd9ac2c0fd004286f7a13f51bec163efb2c",
            "0x000000000000000000000000aca3d2bb7f4ff4f61718ca642ba61899cf6d5db1"
          ],
          "data": "0x0000000000000000000000000000000000000000000000000011c37937e08000",
          "blockHash": "0x7c858045890e4e61f97d79c2ccf22a0e930d766301a01893dc16eae0e077cc42",
          "blockNumber": "0x1ee56a9",
          "blockTimestamp": "0x68f00c32",
          "transactionHash": "0x956bc50d654dc42636e1eb89906fa395f93388d50985d3ef63cf65d662a4c81b",
          "transactionIndex": "0x21",
          "logIndex": "0x1ab",
          "removed": false
        },
        {
          "address": "0x036cbd53842c5426634e7929541ec2318f3dcf7e",
          "topics": [
            "0x8c5be1e5ebec7d5bd14f71427d1e84f3dd0314c0f7b2291e5b200ac8c7c3b925",
            "0x000000000000000000000000aca3d2bb7f4ff4f61718ca642ba61899cf6d5db1",
            "0x00000000000000000000000027f971cb582bf9e50f397e4d29a5c7a34f11faa2"
          ],
          "data": "0x000000000000000000000000000000000000000000000000000000000007a120",
          "blockHash": "0x7c858045890e4e61f97d79c2ccf22a0e930d766301a01893dc16eae0e077cc42",
          "blockNumber": "0x1ee56a9",
          "blockTimestamp": "0x68f00c32",
          "transactionHash": "0x956bc50d654dc42636e1eb89906fa395f93388d50985d3ef63cf65d662a4c81b",
          "transactionIndex": "0x21",
          "logIndex": "0x1ac",
          "removed": false
        },
        {
          "address": "0x4200000000000000000000000000000000000006",
          "topics": [
            "0x8c5be1e5ebec7d5bd14f71427d1e84f3dd0314c0f7b2291e5b200ac8c7c3b925",
            "0x000000000000000000000000aca3d2bb7f4ff4f61718ca642ba61899cf6d5db1",
            "0x00000000000000000000000027f971cb582bf9e50f397e4d29a5c7a34f11faa2"
          ],
          "data": "0x0000000000000000000000000000000000000000000000000011c37937e08000",
          "blockHash": "0x7c858045890e4e61f97d79c2ccf22a0e930d766301a01893dc16eae0e077cc42",
          "blockNumber": "0x1ee56a9",
          "blockTimestamp": "0x68f00c32",
          "transactionHash": "0x956bc50d654dc42636e1eb89906fa395f93388d50985d3ef63cf65d662a4c81b",
          "transactionIndex": "0x21",
          "logIndex": "0x1ad",
          "removed": false
        },
        {
          "address": "0x036cbd53842c5426634e7929541ec2318f3dcf7e",
          "topics": [
            "0xddf252ad1be2c89b69c2b068fc378daa952ba7f163c4a11628f55a4df523b3ef",
            "0x000000000000000000000000aca3d2bb7f4ff4f61718ca642ba61899cf6d5db1",
            "0x00000000000000000000000046880b404cd35c165eddeff7421019f8dd25f4ad"
          ],
          "data": "0x000000000000000000000000000000000000000000000000000000000007a120",
          "blockHash": "0x7c858045890e4e61f97d79c2ccf22a0e930d766301a01893dc16eae0e077cc42",
          "blockNumber": "0x1ee56a9",
          "blockTimestamp": "0x68f00c32",
          "transactionHash": "0x956bc50d654dc42636e1eb89906fa395f93388d50985d3ef63cf65d662a4c81b",
          "transactionIndex": "0x21",
          "logIndex": "0x1ae",
          "removed": false
        },
        {
          "address": "0x4200000000000000000000000000000000000006",
          "topics": [
            "0xddf252ad1be2c89b69c2b068fc378daa952ba7f163c4a11628f55a4df523b3ef",
            "0x000000000000000000000000aca3d2bb7f4ff4f61718ca642ba61899cf6d5db1",
            "0x00000000000000000000000046880b404cd35c165eddeff7421019f8dd25f4ad"
          ],
          "data": "0x0000000000000000000000000000000000000000000000000000aee7f2017ca4",
          "blockHash": "0x7c858045890e4e61f97d79c2ccf22a0e930d766301a01893dc16eae0e077cc42",
          "blockNumber": "0x1ee56a9",
          "blockTimestamp": "0x68f00c32",
          "transactionHash": "0x956bc50d654dc42636e1eb89906fa395f93388d50985d3ef63cf65d662a4c81b",
          "transactionIndex": "0x21",
          "logIndex": "0x1af",
          "removed": false
        },
        {
          "address": "0x46880b404cd35c165eddeff7421019f8dd25f4ad",
          "topics": [
            "0x7a53080ba414158be7ec69b987b5fb7d07dee101fe85488f0853ae16239d0bde",
            "0x00000000000000000000000027f971cb582bf9e50f397e4d29a5c7a34f11faa2",
            "0xfffffffffffffffffffffffffffffffffffffffffffffffffffffffffff2764c",
            "0x00000000000000000000000000000000000000000000000000000000000d89b4"
          ],
          "data": "0x00000000000000000000000027f971cb582bf9e50f397e4d29a5c7a34f11faa200000000000000000000000000000000000000000000000000000002487a1c0d000000000000000000000000000000000000000000000000000000000007a1200000000000000000000000000000000000000000000000000000aee7f2017ca4",
          "blockHash": "0x7c858045890e4e61f97d79c2ccf22a0e930d766301a01893dc16eae0e077cc42",
          "blockNumber": "0x1ee56a9",
          "blockTimestamp": "0x68f00c32",
          "transactionHash": "0x956bc50d654dc42636e1eb89906fa395f93388d50985d3ef63cf65d662a4c81b",
          "transactionIndex": "0x21",
          "logIndex": "0x1b0",
          "removed": false
        },
        {
          "address": "0x27f971cb582bf9e50f397e4d29a5c7a34f11faa2",
          "topics": [
            "0xddf252ad1be2c89b69c2b068fc378daa952ba7f163c4a11628f55a4df523b3ef",
            "0x0000000000000000000000000000000000000000000000000000000000000000",
            "0x00000000000000000000000073d43dd9ac2c0fd004286f7a13f51bec163efb2c",
            "0x0000000000000000000000000000000000000000000000000000000000011578"
          ],
          "data": "0x",
          "blockHash": "0x7c858045890e4e61f97d79c2ccf22a0e930d766301a01893dc16eae0e077cc42",
          "blockNumber": "0x1ee56a9",
          "blockTimestamp": "0x68f00c32",
          "transactionHash": "0x956bc50d654dc42636e1eb89906fa395f93388d50985d3ef63cf65d662a4c81b",
          "transactionIndex": "0x21",
          "logIndex": "0x1b1",
          "removed": false
        },
        {
          "address": "0x27f971cb582bf9e50f397e4d29a5c7a34f11faa2",
          "topics": [
            "0x3067048beee31b25b2f1681f88dac838c8bba36af25bfb2b7cf7473a5847e35f",
            "0x0000000000000000000000000000000000000000000000000000000000011578"
          ],
          "data": "0x00000000000000000000000000000000000000000000000000000002487a1c0d000000000000000000000000000000000000000000000000000000000007a1200000000000000000000000000000000000000000000000000000aee7f2017ca4",
          "blockHash": "0x7c858045890e4e61f97d79c2ccf22a0e930d766301a01893dc16eae0e077cc42",
          "blockNumber": "0x1ee56a9",
          "blockTimestamp": "0x68f00c32",
          "transactionHash": "0x956bc50d654dc42636e1eb89906fa395f93388d50985d3ef63cf65d662a4c81b",
          "transactionIndex": "0x21",
          "logIndex": "0x1b2",
          "removed": false
        },
        {
          "address": "0xb4919d4c0f261b2258740a0b69c45b4413dc2500",
          "topics": [
            "0x1873553dae46c6c4a5009f92d87ef4b1be03943559a661467807f7dc4c4e53a3",
            "0x00000000000000000000000027f971cb582bf9e50f397e4d29a5c7a34f11faa2"
          ],
          "data": "0x000000000000000000000000036cbd53842c5426634e7929541ec2318f3dcf7e000000000000000000000000420000000000000000000000000000000000000600000000000000000000000000000000000000000000000000000002487a1c0d",
          "blockHash": "0x7c858045890e4e61f97d79c2ccf22a0e930d766301a01893dc16eae0e077cc42",
          "blockNumber": "0x1ee56a9",
          "blockTimestamp": "0x68f00c32",
          "transactionHash": "0x956bc50d654dc42636e1eb89906fa395f93388d50985d3ef63cf65d662a4c81b",
          "transactionIndex": "0x21",
          "logIndex": "0x1b3",
          "removed": false
        },
        {
          "address": "0x5737e1be8ca566e0c903a973991e0ff6b027281f",
          "topics": [
            "0xd11895475c54b7d51633ecc794cd50a555a5c13b37a9d83d28e8405e0a185ede",
            "0x00000000000000000000000073d43dd9ac2c0fd004286f7a13f51bec163efb2c",
            "0x00000000000000000000000027f971cb582bf9e50f397e4d29a5c7a34f11faa2"
          ],
          "data": "0x000000000000000000000000036cbd53842c5426634e7929541ec2318f3dcf7e0000000000000000000000004200000000000000000000000000000000000006000000000000000000000000000000000000000000000000000000000007a1200000000000000000000000000000000000000000000000000011c37937e080000000000000000000000000000000000000000000000000000000000000000001",
          "blockHash": "0x7c858045890e4e61f97d79c2ccf22a0e930d766301a01893dc16eae0e077cc42",
          "blockNumber": "0x1ee56a9",
          "blockTimestamp": "0x68f00c32",
          "transactionHash": "0x956bc50d654dc42636e1eb89906fa395f93388d50985d3ef63cf65d662a4c81b",
          "transactionIndex": "0x21",
          "logIndex": "0x1b4",
          "removed": false
        }
      ],
      "logsBloom": "0x000000000400012000001000000004000000000000004000000400000000000000004000000010000020001000000000000000000000000004004100002800000000004000000000000000080800000000000000000000000000000000008008400000208a0000400000000081000800000000000800000010000010000000000000000008000000000100000000000008000008002000000000002000000000120200804000000000000000000000020000000000000020000000208000000000000002020000000000080000000000000000000080020000000000000120002010000000000000000000000020000000000000000000000000000000000840",
      "type": "0x2",
      "transactionHash": "0x956bc50d654dc42636e1eb89906fa395f93388d50985d3ef63cf65d662a4c81b",
      "transactionIndex": "0x21",
      "blockHash": "0x7c858045890e4e61f97d79c2ccf22a0e930d766301a01893dc16eae0e077cc42",
      "blockNumber": "0x1ee56a9",
      "gasUsed": "0xc918a",
      "effectiveGasPrice": "0xf42b3",
      "from": "0x73d43dd9ac2c0fd004286f7a13f51bec163efb2c",
      "to": "0x5737e1be8ca566e0c903a973991e0ff6b027281f",
      "contractAddress": null,
      "l1BaseFeeScalar": "0x44d",
      "l1BlobBaseFee": "0x1",
      "l1BlobBaseFeeScalar": "0xa118b",
      "l1Fee": "0x73",
      "l1GasPrice": "0x9",
      "l1GasUsed": "0x8c9"
    }
  ],
  "libraries": [],
  "pending": [],
  "returns": {},
  "timestamp": 1760562226480,
  "chain": 84532,
  "commit": "650dba8"
}