{
  "transactions": [
    {
      "hash": "0x240e69150a9cbbb141e80fe7111792e06d50ed8126faa9ee3998b9fc3943dd3d",
      "transactionType": "CALL",
      "contractName": null,
      "contractAddress": "0xdec456e502cb9bab4a33153206a470b65bedcf9e",
      "function": "createVault(address)",
      "arguments": [
        "0x73D43dd9Ac2C0Fd004286F7a13F51bec163efB2C"
      ],
      "transaction": {
        "from": "0x73d43dd9ac2c0fd004286f7a13f51bec163efb2c",
        "to": "0xdec456e502cb9bab4a33153206a470b65bedcf9e",
        "gas": "0x268fd3",
        "value": "0x0",
        "input": "0xb4bd6f4600000000000000000000000073d43dd9ac2c0fd004286f7a13f51bec163efb2c",
        "nonce": "0x36b",
        "chainId": "0x14a34"
      },
      "additionalContracts": [
        {
          "transactionType": "CREATE",
          "address": "0xc8c309e34ef4fd87d869dd6e856934e3497a8965",
          "initCode": "0x60e03461026d57601f61202b38819003918201601f19168301916001600160401b038311848410176102715780849260809460405283398101031261026d5761004781610285565b9061005460208201610285565b606061006260408401610285565b9201519261ffff841680940361026d5760015f55331561025a5760018054336001600160a01b03198216811790925560405191906001600160a01b03167f8be0079c531659141344cd1fd0a4f28419497f9722a3daafe3b4186f6b6457e05f80a36001600160a01b0382161561022557506001600160a01b038216156101ef576001600160a01b038316156101b7576107d084116101835760805260a05260c05261ffff19600454161760045542600855604051611d91908161029a82396080518181816102e901528181610f9c0152818161106f0152818161133501526114c3015260a0518181816104a80152611290015260c051818181610227015281816106e80152818161083901528181610af7015281816110de01526117320152f35b60405162461bcd60e51b815260206004820152600c60248201526b08ccaca40e8dede40d0d2ced60a31b6044820152606490fd5b60405162461bcd60e51b815260206004820152601060248201526f125b9d985b1a59081d195c9b5a5b985b60821b6044820152606490fd5b60405162461bcd60e51b815260206004820152600e60248201526d24b73b30b634b2103632b0b232b960911b6044820152606490fd5b62461bcd60e51b815260206004820152601060248201526f24b73b30b634b2103337b63637bbb2b960811b6044820152606490fd5b631e4fbdf760e01b5f525f60045260245ffd5b5f80fd5b634e487b7160e01b5f52604160045260245ffd5b51906001600160a01b038216820361026d5756fe6080806040526004361015610012575f80fd5b5f905f3560e01c9081630654dc9a14611783575080630905f56014611761578063160668af1461171d578063161e5c581461170057806318f56a0a146115d35780631e8410da146115b657806347e7ef241461149c57806348f5b9801461147b5780636ff1c9bc1461131a578063715018a6146112bf57806376e2acfa1461127b5780638da5cb5b146112535780639566433a146111c957806399fbab8814611146578063adcf93b31461109e578063b5c099f91461105a578063c5b01a2314611002578063d009601014610f8a578063d9747fa314610f6d578063e393d58514610abd578063e52411be146107c5578063ebce49a914610663578063f2fde38b146105da578063f3fef3a3146102cd578063f6d9b0b11461020c5763f8f8bb4b1461013c575f80fd5b346102095760203660031901126102095760249060206001600160a01b036101626117ae565b16604051938480926370a0823160e01b82523060048301525afa9182156101fc5781926101c4575b50600254918183820393128184128116918413901516176101b057602082604051908152f35b634e487b7160e01b81526011600452602490fd5b9091506020813d6020116101f4575b816101e060209383611880565b810103126101f05751905f61018a565b5f80fd5b3d91506101d3565b50604051903d90823e3d90fd5b80fd5b503461020957602036600319011261020957600435610255337f00000000000000000000000000000000000000000000000000000000000000006001600160a01b0316146119bc565b61025d611c04565b808252600660205261027560ff6040842054166119f8565b600561028082611806565b500160ff19815416905580825260066020526040822060ff198154169055426008557fbf542298705ed6fd22ddf94ee2db731ced9191396e6e7f7b6862803555f9ff218280a26001815580f35b5034610209576040366003190112610209576102e76117ae565b7f00000000000000000000000000000000000000000000000000000000000000006001600160a01b0381169160243591906103233385146118fb565b61032b611c04565b610336831515611937565b6040516370a0823160e01b81523060048201526001600160a01b039190911692602082602481875afa9182156105cf57869261059b575b5080821061055f5785916003548082116103f5575b5050906103bf7f92ccf450a286a957af52509bc1c9939d1a6a481783e142e41e2499f0bb66ebc6946103b78360409695611a3a565b938491611c22565b60025482808211156103ed576103d491611a3a565b6002554260085582519182526020820152a26001815580f35b5050856103d4565b8294935091610408829361040d93611a3a565b611bf1565b811561054b5761042982612710920461ffff6004541690611bf1565b049083821161050e577f92ccf450a286a957af52509bc1c9939d1a6a481783e142e41e2499f0bb66ebc6946103b7836040966103bf94826104a6575b61046f8383611a3a565b600354838282111561049557506104869250611a3a565b60035594509495505094610382565b9150506104a191611a3a565b610486565b7f00000000000000000000000000000000000000000000000000000000000000006104d2848288611c22565b89518481526001600160a01b03909116907f15edf35fb4e11a69b84fe0957af501729657cbb5afb5e47bc896438dff4e5dce90602090a2610465565b60405162461bcd60e51b81526020600482015260156024820152742332b29031b0b631bab630ba34b7b71032b93937b960591b6044820152606490fd5b634e487b7160e01b87526012600452602487fd5b60405162461bcd60e51b8152602060048201526014602482015273496e73756666696369656e742062616c616e636560601b6044820152606490fd5b9091506020813d6020116105c7575b816105b760209383611880565b810103126101f05751905f61036d565b3d91506105aa565b6040513d88823e3d90fd5b5034610209576020366003190112610209576105f46117ae565b6105fc611c62565b6001600160a01b0316801561064f57600180546001600160a01b0319811683179091556001600160a01b03167f8be0079c531659141344cd1fd0a4f28419497f9722a3daafe3b4186f6b6457e08380a380f35b631e4fbdf760e01b82526004829052602482fd5b50346102095760a03660031901126102095761067d6117ae565b6106856117c4565b9061068e6117da565b6064359260843567ffffffffffffffff81116107c15760209592600194926106db7f1873553dae46c6c4a5009f92d87ef4b1be03943559a661467807f7dc4c4e53a3933690600401611836565b505061070f868060a01b037f00000000000000000000000000000000000000000000000000000000000000001633146119bc565b610717611c04565b61072660ff6007541615611978565b6107b5600554976107736040519661073d88611864565b60a08a811b8b9003918216808a528683168e8b015291871660408a015260608901849052608089018a905288018a905296611a86565b88875260068a526040808820805460ff19168a1790554260085580516001600160a01b0394851681529490931660208501529183019190915281906060820190565b0390a255604051908152f35b8580fd5b503461020957610120366003190112610209576107e06117ae565b6107e86117c4565b6107f06117da565b906107f96117f0565b916084359262ffffff84168094036107c15760a435948560020b809603610ab95760c435948560020b809603610ab557610104359660e4359690610867337f00000000000000000000000000000000000000000000000000000000000000006001600160a01b0316146119bc565b61086f611c04565b61087e60ff6007541615611978565b87151580610aac575b15610a715788888b9793868998818a97600160a01b60019003169d6108ac918f611c22565b6001600160a01b03169c6108c0918e611c22565b604051936020850196636e608bc560e01b88528c60248701528d60448701526064860152608485015260a484015260c483015260e482015281610104820152816101248201523061014482015230610164820152610164815261092561018482611880565b51925af190610932611a47565b9115610a3e57608082805181010312610a3a5760406020830151920151926001600160801b0384168094036107c157946001917f1873553dae46c6c4a5009f92d87ef4b1be03943559a661467807f7dc4c4e53a360608098600554986109cb6040519561099e87611864565b888060a01b0316958681528360208201528260408201528a858201528960808201528860a0820152611a86565b8986526006602052604086208760ff19825416179055426008556040519182526020820152876040820152a2847f72e7c7dee9f1208e1f0e96af43dfde9f240b7f3a9a762da8ea1e8ed767a66ab760408051868152876020820152a25560405192835260208301526040820152f35b8480fd5b60405162461bcd60e51b815260206004820152600b60248201526a135a5b9d0819985a5b195960aa1b6044820152606490fd5b60405162461bcd60e51b81526020600482015260136024820152720416d6f756e7473206d757374206265203e203606c1b6044820152606490fd5b50881515610887565b8780fd5b8680fd5b50346101f05760c03660031901126101f057610ad76117ae565b610adf6117c4565b610ae76117da565b91610af06117f0565b92610b25337f00000000000000000000000000000000000000000000000000000000000000006001600160a01b0316146119bc565b610b2d611c04565b610b3c60ff6007541615611978565b5f1993600554805b610e9f575b5050505f198314610e5a57610b5d83611806565b5090600482015460038301936001600160801b03855416908115610e26576001600160a01b0316803b156101f05760405163a22cb46560e01b81526001600160a01b0385166004820152600160248201525f8160448183865af18015610e1b57610e04575b50908188923b15610e005760405163095ea7b360e01b81526001600160a01b0386166004820152602481018590529083908290604490829084905af1908115610df5578391610ddc575b50906040516020810191638e5f597760e01b83528560248301526044820152608435606482015260a435608482015260848152610c4a60a482611880565b519082865af1610c58611a47565b9015610da5578060409151810103126107c157858060405160208101906351f3b4bd60e01b825284602482015230604482015260448152610c9a606482611880565b519082865af1610ca8611a47565b5015610d6f5785918291826040516020810192630e3298ef60e21b8452602482015260248152610cd9604482611880565b51925af1610ce5611a47565b5015610d3c5783600592550160ff19815416905580825260066020526040822060ff198154169055426008557fbf542298705ed6fd22ddf94ee2db731ced9191396e6e7f7b6862803555f9ff218280a26001815580f35b60405162461bcd60e51b815260206004820152600b60248201526a109d5c9b8819985a5b195960aa1b6044820152606490fd5b60405162461bcd60e51b815260206004820152600e60248201526d10dbdb1b1958dd0819985a5b195960921b6044820152606490fd5b60405162461bcd60e51b815260206004820152600f60248201526e111958dc99585cd94819985a5b1959608a1b6044820152606490fd5b81610de691611880565b610df157815f610c0c565b5080fd5b6040513d85823e3d90fd5b8280fd5b610e12919298505f90611880565b5f96905f610bc2565b6040513d5f823e3d90fd5b60405162461bcd60e51b815260206004820152600c60248201526b4e6f206c697175696469747960a01b6044820152606490fd5b60405162461bcd60e51b815260206004820152601b60248201527f4e6f206d61746368696e672061637469766520706f736974696f6e00000000006044820152606490fd5b5f198101818111610ef157610ebc610eb682611806565b506118a2565b60a081015115159081610f56575b81610f48575b81610f2e575b81610f14575b50610f0557508015610ef1575f190180610b44565b634e487b7160e01b5f52601160045260245ffd5b939550505050915f8080610b49565b604001516001600160a01b0385811691161490505f610edc565b60208101516001600160a01b038781169116149150610ed6565b608081015115159150610ed0565b80516001600160a01b038981169116149150610eca565b346101f0575f3660031901126101f0576020600854604051908152f35b346101f0575f3660031901126101f0577f00000000000000000000000000000000000000000000000000000000000000006001600160a01b0316610fcf3382146118fb565b600160ff1960075416176007557f43f3e8d1092da4d3201e4d117b99bf80e75127516bc6523bd8cdb4464a923cde5f80a2005b346101f0575f3660031901126101f0575f80600554905b81811061102b57602083604051908152f35b805f52600660205260ff60405f205416611048575b600101611019565b915f198114610ef15760010191611040565b346101f0575f3660031901126101f0576040517f00000000000000000000000000000000000000000000000000000000000000006001600160a01b03168152602090f35b346101f05760603660031901126101f05760443560043567ffffffffffffffff82116101f0576110d5611131923690600401611836565b5061110c9050337f00000000000000000000000000000000000000000000000000000000000000006001600160a01b0316146119bc565b611114611c04565b805f52600660205261112c60ff60405f2054166119f8565b611806565b5060036024359101554260085560015f555f80f35b346101f05760203660031901126101f0576004356005548110156101f05761116f60c091611806565b5080546001820154600283015460038401546004850154600590950154604080516001600160a01b039687168152948616602086015292909416918301919091526060820152608081019290925260ff16151560a0820152f35b346101f05760203660031901126101f057602460206001600160a01b036111ee6117ae565b16604051928380926370a0823160e01b82523060048301525afa8015610e1b575f90611220575b602090604051908152f35b506020813d60201161124b575b8161123a60209383611880565b810103126101f05760209051611215565b3d915061122d565b346101f0575f3660031901126101f0576001546040516001600160a01b039091168152602090f35b346101f0575f3660031901126101f0576040517f00000000000000000000000000000000000000000000000000000000000000006001600160a01b03168152602090f35b346101f0575f3660031901126101f0576112d7611c62565b600180546001600160a01b031981169091555f906001600160a01b03167f8be0079c531659141344cd1fd0a4f28419497f9722a3daafe3b4186f6b6457e08280a3005b346101f05760203660031901126101f0576113336117ae565b7f00000000000000000000000000000000000000000000000000000000000000006001600160a01b0381169161136a3384146118fb565b611372611c04565b60ff6007541615611436576040516370a0823160e01b81523060048201526001600160a01b039190911690602081602481855afa908115610e1b575f91611404575b50806113c1575b60015f55005b6113ef817f92ccf450a286a957af52509bc1c9939d1a6a481783e142e41e2499f0bb66ebc694604094611c22565b81519081525f6020820152a2808080806113bb565b90506020813d60201161142e575b8161141f60209383611880565b810103126101f05751846113b4565b3d9150611412565b60405162461bcd60e51b815260206004820152601960248201527f456d657267656e6379206d6f6465206e6f7420616374697665000000000000006044820152606490fd5b346101f0575f3660031901126101f057602061ffff60045416604051908152f35b346101f05760403660031901126101f0576114b56117ae565b6024359061155c906114f1337f00000000000000000000000000000000000000000000000000000000000000006001600160a01b0316146118fb565b6114f9611c04565b611504831515611937565b61151360ff6007541615611978565b6040516323b872dd60e01b6020820152336024820152306044820152606481018490529061154e82608481015b03601f198101845283611880565b6001600160a01b0316611c89565b600254818101809111610ef15780600255600354156115ad575b50426008556040519081527f2da466a7b24304f47e87fa2e1e5a81b9831ce54fec19055ce277ca2f39ba42c460203392a260015f55005b60035581611576565b346101f0575f3660031901126101f0576020600354604051908152f35b346101f0575f3660031901126101f05760055467ffffffffffffffff81116116ec576040519061160960208260051b0183611880565b80825260208201908160055f527f036b6384b5eca791c62761152d0c79bb0604c104a5fb6f4eb0703f3154bb3db05f915b8383106116ce578486604051918291602083019060208452518091526040830191905f5b81811061166c575050500390f35b91935091602060c060019260a087518580831b0381511683528580831b038582015116858401528580831b03604082015116604084015260608101516060840152608081015160808401520151151560a082015201940191019184939261165e565b600660206001926116de856118a2565b81520192019201919061163a565b634e487b7160e01b5f52604160045260245ffd5b346101f0575f3660031901126101f0576020600254604051908152f35b346101f0575f3660031901126101f0576040517f00000000000000000000000000000000000000000000000000000000000000006001600160a01b03168152602090f35b346101f0575f3660031901126101f057602060ff600754166040519015158152f35b346101f05760203660031901126101f0576020906004355f526006825260ff60405f20541615158152f35b600435906001600160a01b03821682036101f057565b602435906001600160a01b03821682036101f057565b604435906001600160a01b03821682036101f057565b606435906001600160a01b03821682036101f057565b6005548110156118225760055f52600660205f20910201905f90565b634e487b7160e01b5f52603260045260245ffd5b9181601f840112156101f05782359167ffffffffffffffff83116101f057602083818601950101116101f057565b60c0810190811067ffffffffffffffff8211176116ec57604052565b90601f8019910116810190811067ffffffffffffffff8211176116ec57604052565b906040516118af81611864565b82546001600160a01b0390811682526001840154811660208301526002840154166040820152600383015460608201526004830154608082015260059092015460ff16151560a0830152565b1561190257565b60405162461bcd60e51b815260206004820152600d60248201526c27b7363c903337b63637bbb2b960991b6044820152606490fd5b1561193e57565b60405162461bcd60e51b81526020600482015260126024820152710416d6f756e74206d757374206265203e20360741b6044820152606490fd5b1561197f57565b60405162461bcd60e51b8152602060048201526015602482015274456d657267656e6379206d6f64652061637469766560581b6044820152606490fd5b156119c357565b60405162461bcd60e51b815260206004820152600d60248201526c13db9b1e481d195c9b5a5b985b609a1b6044820152606490fd5b156119ff57565b60405162461bcd60e51b8152602060048201526013602482015272506f736974696f6e206e6f742061637469766560681b6044820152606490fd5b91908203918211610ef157565b3d15611a81573d9067ffffffffffffffff82116116ec5760405191611a76601f8201601f191660200184611880565b82523d5f602084013e565b606090565b600554680100000000000000008110156116ec57600181016005556005548110156118225760055f5281517f036b6384b5eca791c62761152d0c79bb0604c104a5fb6f4eb0703f3154bb3db060069290920291820180546001600160a01b039283166001600160a01b03199182161790915560208401517f036b6384b5eca791c62761152d0c79bb0604c104a5fb6f4eb0703f3154bb3db18401805491841691831691909117905560408401517f036b6384b5eca791c62761152d0c79bb0604c104a5fb6f4eb0703f3154bb3db28401805491909316911617905560608201517f036b6384b5eca791c62761152d0c79bb0604c104a5fb6f4eb0703f3154bb3db382015560808201517f036b6384b5eca791c62761152d0c79bb0604c104a5fb6f4eb0703f3154bb3db482015560a0909101517f036b6384b5eca791c62761152d0c79bb0604c104a5fb6f4eb0703f3154bb3db5909101805460ff191691151560ff16919091179055565b81810292918115918404141715610ef157565b60025f5414611c135760025f55565b633ee5aeb560e01b5f5260045ffd5b60405163a9059cbb60e01b60208201526001600160a01b0390921660248301526044820192909252611c6091611c5b8260648101611540565b611c89565b565b6001546001600160a01b03163303611c7657565b63118cdaa760e01b5f523360045260245ffd5b5f80611cb19260018060a01b03169360208151910182865af1611caa611a47565b9083611cfd565b8051908115159182611cd9575b5050611cc75750565b635274afe760e01b5f5260045260245ffd5b81925090602091810103126101f057602001518015908115036101f0575f80611cbe565b90611d215750805115611d1257805190602001fd5b630a12f52160e11b5f5260045ffd5b81511580611d52575b611d32575090565b639996b31560e01b5f9081526001600160a01b0391909116600452602490fd5b50803b15611d2a56fea264697066735822122063c826b08108cc02b0e94c829a8166b07577f88d3cf4cbf9076a5570e4b4758464736f6c634300081a003300000000000000000000000073d43dd9ac2c0fd004286f7a13f51bec163efb2c00000000000000000000000073d43dd9ac2c0fd004286f7a13f51bec163efb2c0000000000000000000000005b9118131ff1f1c8f097828182e0560241cb9ba100000000000000000000000000000000000000000000000000000000000003e8"
        }
      ],
      "isFixedGasLimit": false
    },
    {
      "hash": "0x2f12b77876f08fa8ae9dc3e15239b425d9d2a2199bfcfd7052c107b73ad5a49e",
      "transactionType": "CALL",
      "contractName": null,
      "contractAddress": "0x036cbd53842c5426634e7929541ec2318f3dcf7e",
      "function": "approve(address,uint256)",
      "arguments": [
        "0xc8c309E34ef4fd87d869dd6E856934E3497A8965",
        "1"
      ],
      "transaction": {
        "from": "0x73d43dd9ac2c0fd004286f7a13f51bec163efb2c",
        "to": "0x036cbd53842c5426634e7929541ec2318f3dcf7e",
        "gas": "0x12afa",
        "value": "0x0",
        "input": "0x095ea7b3000000000000000000000000c8c309e34ef4fd87d869dd6e856934e3497a89650000000000000000000000000000000000000000000000000000000000000001",
        "nonce": "0x36c",
        "chainId": "0x14a34"
      },
      "additionalContracts": [],
      "isFixedGasLimit": false
    },
    {
      "hash": "0xd7f188d30d943453ea81492144f23e0ea07214debcb7a8f4be5fbf0e6efb205c",
      "transactionType": "CALL",
      "contractName": null,
      "contractAddress": "0x4200000000000000000000000000000000000006",
      "function": "approve(address,uint256)",
      "arguments": [
        "0xc8c309E34ef4fd87d869dd6E856934E3497A8965",
        "10000000000000"
      ],
      "transaction": {
        "from": "0x73d43dd9ac2c0fd004286f7a13f51bec163efb2c",
        "to": "0x4200000000000000000000000000000000000006",
        "gas": "0x106e6",
        "value": "0x0",
        "input": "0x095ea7b3000000000000000000000000c8c309e34ef4fd87d869dd6e856934e3497a8965000000000000000000000000000000000000000000000000000009184e72a000",
        "nonce": "0x36d",
        "chainId": "0x14a34"
      },
      "additionalContracts": [],
      "isFixedGasLimit": false
    },
    {
      "hash": "0x64ff239921b1eb868d53c4317c09043646328f2e73d77e9f8d3dad7368b15e23",
      "transactionType": "CALL",
      "contractName": "TribeCopyVault",
      "contractAddress": "0xc8c309e34ef4fd87d869dd6e856934e3497a8965",
      "function": "deposit(address,uint256)",
      "arguments": [
        "0x036CbD53842c5426634e7929541eC2318f3dCF7e",
        "1"
      ],
      "transaction": {
        "from": "0x73d43dd9ac2c0fd004286f7a13f51bec163efb2c",
        "to": "0xc8c309e34ef4fd87d869dd6e856934e3497a8965",
        "gas": "0x2aa74",
        "value": "0x0",
        "input": "0x47e7ef24000000000000000000000000036cbd53842c5426634e7929541ec2318f3dcf7e0000000000000000000000000000000000000000000000000000000000000001",
        "nonce": "0x36e",
        "chainId": "0x14a34"
      },
      "additionalContracts": [],
      "isFixedGasLimit": false
    },
    {
      "hash": "0x2022a52c93559cf845a091256e4e0fc0c7ed1d63123bf22f44f4e42f45bbef55",
      "transactionType": "CALL",
      "contractName": "TribeCopyVault",
      "contractAddress": "0xc8c309e34ef4fd87d869dd6e856934e3497a8965",
      "function": "deposit(address,uint256)",
      "arguments": [
        "0x4200000000000000000000000000000000000006",
        "10000000000000"
      ],
      "transaction": {
        "from": "0x73d43dd9ac2c0fd004286f7a13f51bec163efb2c",
        "to": "0xc8c309e34ef4fd87d869dd6e856934e3497a8965",
        "gas": "0x19671",
        "value": "0x0",
        "input": "0x47e7ef240000000000000000000000004200000000000000000000000000000000000006000000000000000000000000000000000000000000000000000009184e72a000",
        "nonce": "0x36f",
        "chainId": "0x14a34"
      },
      "additionalContracts": [],
      "isFixedGasLimit": false
    }
  ],
  "receipts": [
    {
      "status": "0x1",
      "cumulativeGasUsed": "0x5ac481",
      "logs": [
        {
          "address": "0xc8c309e34ef4fd87d869dd6e856934e3497a8965",
          "topics": [
            "0x8be0079c531659141344cd1fd0a4f28419497f9722a3daafe3b4186f6b6457e0",
            "0x0000000000000000000000000000000000000000000000000000000000000000",
            "0x000000000000000000000000dec456e502cb9bab4a33153206a470b65bedcf9e"
          ],
          "data": "0x",
          "blockHash": "0xb97d86453f55d054bdcb0fa4b509f977906e2070b24a2e5fe722b48bf7f2f169",
          "blockNumber": "0x1eeff9e",
          "blockTimestamp": "0x68f15e1c",
          "transactionHash": "0x240e69150a9cbbb141e80fe7111792e06d50ed8126faa9ee3998b9fc3943dd3d",
          "transactionIndex": "0x42",
          "logIndex": "0x6f",
          "removed": false
        },
        {
          "address": "0xdec456e502cb9bab4a33153206a470b65bedcf9e",
          "topics": [
            "0xc8c56e66c9548bdbc9bfb0459274fac9cf2f1122b6190ede47f82fef71d4b83f",
            "0x00000000000000000000000073d43dd9ac2c0fd004286f7a13f51bec163efb2c",
            "0x00000000000000000000000073d43dd9ac2c0fd004286f7a13f51bec163efb2c"
          ],
          "data": "0x000000000000000000000000c8c309e34ef4fd87d869dd6e856934e3497a896500000000000000000000000000000000000000000000000000000000000003e8",
          "blockHash": "0xb97d86453f55d054bdcb0fa4b509f977906e2070b24a2e5fe722b48bf7f2f169",
          "blockNumber": "0x1eeff9e",
          "blockTimestamp": "0x68f15e1c",
          "transactionHash": "0x240e69150a9cbbb141e80fe7111792e06d50ed8126faa9ee3998b9fc3943dd3d",
          "transactionIndex": "0x42",
          "logIndex": "0x70",
          "removed": false
        }
      ],
      "logsBloom": "0x00000000000000000000000000000000000000000000000000800000000000000000000000000000000000000000000000000000000000000000000000000000000000000000002000000000000000000001000000000000000008000000000004000000020000804000000000000800000000080000000010000000000000400000000000000008000100000000000008000000000000000000000000000000000000000000000000000000000000000000000000000000000000000000000000000000000000000000000000000000000400000000000000400000000020400000000000000000000000000000004000001000000000000000000000000000",
      "type": "0x2",
      "transactionHash": "0x240e69150a9cbbb141e80fe7111792e06d50ed8126faa9ee3998b9fc3943dd3d",
      "transactionIndex": "0x42",
      "blockHash": "0xb97d86453f55d054bdcb0fa4b509f977906e2070b24a2e5fe722b48bf7f2f169",
      "blockNumber": "0x1eeff9e",
      "gasUsed": "0x1beb06",
      "effectiveGasPrice": "0xf4284",
      "from": "0x73d43dd9ac2c0fd004286f7a13f51bec163efb2c",
      "to": "0xdec456e502cb9bab4a33153206a470b65bedcf9e",
      "contractAddress": null,
      "l1BaseFeeScalar": "0x44d",
      "l1BlobBaseFee": "0x1",
      "l1BlobBaseFeeScalar": "0xa118b",
      "l1Fee": "0x51",
      "l1GasPrice": "0x9",
      "l1GasUsed": "0x640"
    },
    {
      "status": "0x1",
      "cumulativeGasUsed": "0x5b9cf6",
      "logs": [
        {
          "address": "0x036cbd53842c5426634e7929541ec2318f3dcf7e",
          "topics": [
            "0x8c5be1e5ebec7d5bd14f71427d1e84f3dd0314c0f7b2291e5b200ac8c7c3b925",
            "0x00000000000000000000000073d43dd9ac2c0fd004286f7a13f51bec163efb2c",
            "0x000000000000000000000000c8c309e34ef4fd87d869dd6e856934e3497a8965"
          ],
          "data": "0x0000000000000000000000000000000000000000000000000000000000000001",
          "blockHash": "0xb97d86453f55d054bdcb0fa4b509f977906e2070b24a2e5fe722b48bf7f2f169",
          "blockNumber": "0x1eeff9e",
          "blockTimestamp": "0x68f15e1c",
          "transactionHash": "0x2f12b77876f08fa8ae9dc3e15239b425d9d2a2199bfcfd7052c107b73ad5a49e",
          "transactionIndex": "0x43",
          "logIndex": "0x71",
          "removed": false
        }
      ],
      "logsBloom": "0x00000000040000000000000000000000000000000000000000000000000000000000000000000000000000000000000000000000000000010000000000200000000000000000000000000000000000000000000000000000000000000000000800000000000000000000000000000000000000000000000010000000000000040000000000000000000100000000000008000000000000000000000000000000020000000000000000000000000000000000000000000000000000000000000000000000000000000008000000000000000000000000000000000000000000000010000000000000000000000020000000000000000000000000000000000000",
      "type": "0x2",
      "transactionHash": "0x2f12b77876f08fa8ae9dc3e15239b425d9d2a2199bfcfd7052c107b73ad5a49e",
      "transactionIndex": "0x43",
      "blockHash": "0xb97d86453f55d054bdcb0fa4b509f977906e2070b24a2e5fe722b48bf7f2f169",
      "blockNumber": "0x1eeff9e",
      "gasUsed": "0xd875",
      "effectiveGasPrice": "0xf4284",
      "from": "0x73d43dd9ac2c0fd004286f7a13f51bec163efb2c",
      "to": "0x036cbd53842c5426634e7929541ec2318f3dcf7e",
      "contractAddress": null,
      "l1BaseFeeScalar": "0x44d",
      "l1BlobBaseFee": "0x1",
      "l1BlobBaseFeeScalar": "0xa118b",
      "l1Fee": "0x51",
      "l1GasPrice": "0x9",
      "l1GasUsed": "0x640"
    },
    {
      "status": "0x1",
      "cumulativeGasUsed": "0x5c50b9",
      "logs": [
        {
          "address": "0x4200000000000000000000000000000000000006",
          "topics": [
            "0x8c5be1e5ebec7d5bd14f71427d1e84f3dd0314c0f7b2291e5b200ac8c7c3b925",
            "0x00000000000000000000000073d43dd9ac2c0fd004286f7a13f51bec163efb2c",
            "0x000000000000000000000000c8c309e34ef4fd87d869dd6e856934e3497a8965"
          ],
          "data": "0x000000000000000000000000000000000000000000000000000009184e72a000",
          "blockHash": "0xb97d86453f55d054bdcb0fa4b509f977906e2070b24a2e5fe722b48bf7f2f169",
          "blockNumber": "0x1eeff9e",
          "blockTimestamp": "0x68f15e1c",
          "transactionHash": "0xd7f188d30d943453ea81492144f23e0ea07214debcb7a8f4be5fbf0e6efb205c",
          "transactionIndex": "0x44",
          "logIndex": "0x72",
          "removed": false
        }
      ],
      "logsBloom": "0x00000000000000000000000000000000000000000000000000040000000000000000000000000000000000100000000000000000000000010000000000200000000000000000000000000000000000000000000000000000000000000000000000000000000000000000000000000000000000000000000010000000000000040000000000000000000100000000000008000000002000000000000000000000020000000000000000000000000000000000000000000000000000000000000000000000000000000008000000000000000000000000000000000000000000000010000000000000000000000000000000000000000000000000000000000000",
      "type": "0x2",
      "transactionHash": "0xd7f188d30d943453ea81492144f23e0ea07214debcb7a8f4be5fbf0e6efb205c",
      "transactionIndex": "0x44",
      "blockHash": "0xb97d86453f55d054bdcb0fa4b509f977906e2070b24a2e5fe722b48bf7f2f169",
      "blockNumber": "0x1eeff9e",
      "gasUsed": "0xb3c3",
      "effectiveGasPrice": "0xf4284",
      "from": "0x73d43dd9ac2c0fd004286f7a13f51bec163efb2c",
      "to": "0x4200000000000000000000000000000000000006",
      "contractAddress": null,
      "l1BaseFeeScalar": "0x44d",
      "l1BlobBaseFee": "0x1",
      "l1BlobBaseFeeScalar": "0xa118b",
      "l1Fee": "0x51",
      "l1GasPrice": "0x9",
      "l1GasUsed": "0x640"
    },
    {
      "status": "0x1",
      "cumulativeGasUsed": "0x5e235c",
      "logs": [
        {
          "address": "0x036cbd53842c5426634e7929541ec2318f3dcf7e",
          "topics": [
            "0xddf252ad1be2c89b69c2b068fc378daa952ba7f163c4a11628f55a4df523b3ef",
            "0x00000000000000000000000073d43dd9ac2c0fd004286f7a13f51bec163efb2c",
            "0x000000000000000000000000c8c309e34ef4fd87d869dd6e856934e3497a8965"
          ],
          "data": "0x0000000000000000000000000000000000000000000000000000000000000001",
          "blockHash": "0xe570c5ca5e596c2e5eb0021e03985b50f7a3c1072c28d71f9bc6b866d7ece270",
          "blockNumber": "0x1eeff9e",
          "blockTimestamp": "0x68f15e1c",
          "transactionHash": "0x64ff239921b1eb868d53c4317c09043646328f2e73d77e9f8d3dad7368b15e23",
          "transactionIndex": "0x45",
          "logIndex": "0x73",
          "removed": false
        },
        {
          "address": "0xc8c309e34ef4fd87d869dd6e856934e3497a8965",
          "topics": [
            "0x2da466a7b24304f47e87fa2e1e5a81b9831ce54fec19055ce277ca2f39ba42c4",
            "0x00000000000000000000000073d43dd9ac2c0fd004286f7a13f51bec163efb2c"
          ],
          "data": "0x0000000000000000000000000000000000000000000000000000000000000001",
          "blockHash": "0xe570c5ca5e596c2e5eb0021e03985b50f7a3c1072c28d71f9bc6b866d7ece270",
          "blockNumber": "0x1eeff9e",
          "blockTimestamp": "0x68f15e1c",
          "transactionHash": "0x64ff239921b1eb868d53c4317c09043646328f2e73d77e9f8d3dad7368b15e23",
          "transactionIndex": "0x45",
          "logIndex": "0x74",
          "removed": false
        }
      ],
      "logsBloom": "0x00000000040000000000000000000000000000000000000000000000000000000000000000000000000000000000000000000000000000010000000000000000000000000000000000000008000000000000000000000000000000000000200804000000000000004000000000000000000000000000000010000010000200040000000000000000000100000000000008000000000000000000000000000000000000000000000000000000000000000000000000000000000000000000000000000002000000000008000000000000000400000000000000000000000000000040000000000000000000000020000000000000000000000000000000000000",
      "type": "0x2",
      "transactionHash": "0x64ff239921b1eb868d53c4317c09043646328f2e73d77e9f8d3dad7368b15e23",
      "transactionIndex": "0x45",
      "blockHash": "0xe570c5ca5e596c2e5eb0021e03985b50f7a3c1072c28d71f9bc6b866d7ece270",
      "blockNumber": "0x1eeff9e",
      "gasUsed": "0x1d2a3",
      "effectiveGasPrice": "0xf4284",
      "from": "0x73d43dd9ac2c0fd004286f7a13f51bec163efb2c",
      "to": "0xc8c309e34ef4fd87d869dd6e856934e3497a8965",
      "contractAddress": null,
      "l1BaseFeeScalar": "0x44d",
      "l1BlobBaseFee": "0x1",
      "l1BlobBaseFeeScalar": "0xa118b",
      "l1Fee": "0x51",
      "l1GasPrice": "0x9",
      "l1GasUsed": "0x640"
    },
    {
      "status": "0x1",
      "cumulativeGasUsed": "0x5f3945",
      "logs": [
        {
          "address": "0x4200000000000000000000000000000000000006",
          "topics": [
            "0xddf252ad1be2c89b69c2b068fc378daa952ba7f163c4a11628f55a4df523b3ef",
            "0x00000000000000000000000073d43dd9ac2c0fd004286f7a13f51bec163efb2c",
            "0x000000000000000000000000c8c309e34ef4fd87d869dd6e856934e3497a8965"
          ],
          "data": "0x000000000000000000000000000000000000000000000000000009184e72a000",
          "blockHash": "0xb97d86453f55d054bdcb0fa4b509f977906e2070b24a2e5fe722b48bf7f2f169",
          "blockNumber": "0x1eeff9e",
          "blockTimestamp": "0x68f15e1c",
          "transactionHash": "0x2022a52c93559cf845a091256e4e0fc0c7ed1d63123bf22f44f4e42f45bbef55",
          "transactionIndex": "0x46",
          "logIndex": "0x75",
          "removed": false
        },
        {
          "address": "0xc8c309e34ef4fd87d869dd6e856934e3497a8965",
          "topics": [
            "0x2da466a7b24304f47e87fa2e1e5a81b9831ce54fec19055ce277ca2f39ba42c4",
            "0x00000000000000000000000073d43dd9ac2c0fd004286f7a13f51bec163efb2c"
          ],
          "data": "0x000000000000000000000000000000000000000000000000000009184e72a000",
          "blockHash": "0xb97d86453f55d054bdcb0fa4b509f977906e2070b24a2e5fe722b48bf7f2f169",
          "blockNumber": "0x1eeff9e",
          "blockTimestamp": "0x68f15e1c",
          "transactionHash": "0x2022a52c93559cf845a091256e4e0fc0c7ed1d63123bf22f44f4e42f45bbef55",
          "transactionIndex": "0x46",
          "logIndex": "0x76",
          "removed": false
        }
      ],
      "logsBloom": "0x00000000000000000000000000000000000000000000000000040000000000000000000000000000000000100000000000000000000000010000000000000000000000000000000000000008000000000000000000000000000000000000200004000000000000004000000000000000000000000000000010000010000200040000000000000000000100000000000008000000002000000000000000000000000000000000000000000000000000000000000000000000000000000000000000000002000000000008000000000000000400000000000000000000000000000040000000000000000000000000000000000000000000000000000000000000",
      "type": "0x2",
      "transactionHash": "0x2022a52c93559cf845a091256e4e0fc0c7ed1d63123bf22f44f4e42f45bbef55",
      "transactionIndex": "0x46",
      "blockHash": "0xb97d86453f55d054bdcb0fa4b509f977906e2070b24a2e5fe722b48bf7f2f169",
      "blockNumber": "0x1eeff9e",
      "gasUsed": "0x115e9",
      "effectiveGasPrice": "0xf4284",
      "from": "0x73d43dd9ac2c0fd004286f7a13f51bec163efb2c",
      "to": "0xc8c309e34ef4fd87d869dd6e856934e3497a8965",
      "contractAddress": null,
      "l1BaseFeeScalar": "0x44d",
      "l1BlobBaseFee": "0x1",
      "l1BlobBaseFeeScalar": "0xa118b",
      "l1Fee": "0x51",
      "l1GasPrice": "0x9",
      "l1GasUsed": "0x640"
    }
  ],
  "libraries": [],
  "pending": [],
  "returns": {},
  "timestamp": 1760648733179,
  "chain": 84532,
  "commit": "9eab8ae"
}