{
  "transactions": [
    {
      "hash": "0x6326d1566b50e5ff7195bc0003492ac46c24a7f91b31c899f02742a5058628bb",
      "transactionType": "CALL",
      "contractName": null,
      "contractAddress": "0xb28049bea41b96b54a8da0ee47c8f7209e820150",
      "function": "submitHistoricalPositions((address,address,uint256,uint256,uint256,int256,bool)[])",
      "arguments": [
        "[(0x0000000000000000000000000000000000000001, 0x0000000000000000000000000000000000000002, 1759685806, 1759772206, 1000000000000000000000, 100000000000000000000, true), (0x0000000000000000000000000000000000000001, 0x0000000000000000000000000000000000000002, 1759599406, 1759685806, 1000000000000000000000, 100000000000000000000, true), (0x0000000000000000000000000000000000000001, 0x0000000000000000000000000000000000000002, 1759513006, 1759599406, 1000000000000000000000, 100000000000000000000, true), (0x0000000000000000000000000000000000000001, 0x0000000000000000000000000000000000000002, 1759426606, 1759513006, 1000000000000000000000, 100000000000000000000, true), (0x0000000000000000000000000000000000000001, 0x0000000000000000000000000000000000000002, 1759340206, 1759426606, 1000000000000000000000, 100000000000000000000, true)]"
      ],
      "transaction": {
        "from": "0x73d43dd9ac2c0fd004286f7a13f51bec163efb2c",
        "to": "0xb28049bea41b96b54a8da0ee47c8f7209e820150",
        "gas": "0x11beb3",
        "value": "0x0",
        "input": "0xc319e86400000000000000000000000000000000000000000000000000000000000000200000000000000000000000000000000000000000000000000000000000000005000000000000000000000000000000000000000000000000000000000000000100000000000000000000000000000000000000000000000000000000000000020000000000000000000000000000000000000000000000000000000068e2acae0000000000000000000000000000000000000000000000000000000068e3fe2e00000000000000000000000000000000000000000000003635c9adc5dea000000000000000000000000000000000000000000000000000056bc75e2d631000000000000000000000000000000000000000000000000000000000000000000001000000000000000000000000000000000000000000000000000000000000000100000000000000000000000000000000000000000000000000000000000000020000000000000000000000000000000000000000000000000000000068e15b2e0000000000000000000000000000000000000000000000000000000068e2acae00000000000000000000000000000000000000000000003635c9adc5dea000000000000000000000000000000000000000000000000000056bc75e2d631000000000000000000000000000000000000000000000000000000000000000000001000000000000000000000000000000000000000000000000000000000000000100000000000000000000000000000000000000000000000000000000000000020000000000000000000000000000000000000000000000000000000068e009ae0000000000000000000000000000000000000000000000000000000068e15b2e00000000000000000000000000000000000000000000003635c9adc5dea000000000000000000000000000000000000000000000000000056bc75e2d631000000000000000000000000000000000000000000000000000000000000000000001000000000000000000000000000000000000000000000000000000000000000100000000000000000000000000000000000000000000000000000000000000020000000000000000000000000000000000000000000000000000000068deb82e0000000000000000000000000000000000000000000000000000000068e009ae00000000000000000000000000000000000000000000003635c9adc5dea000000000000000000000000000000000000000000000000000056bc75e2d631000000000000000000000000000000000000000000000000000000000000000000001000000000000000000000000000000000000000000000000000000000000000100000000000000000000000000000000000000000000000000000000000000020000000000000000000000000000000000000000000000000000000068dd66ae0000000000000000000000000000000000000000000000000000000068deb82e00000000000000000000000000000000000000000000003635c9adc5dea000000000000000000000000000000000000000000000000000056bc75e2d631000000000000000000000000000000000000000000000000000000000000000000001",
        "nonce": "0x2f9",
        "chainId": "0x14a34"
      },
      "additionalContracts": [],
      "isFixedGasLimit": false
    },
    {
      "hash": "0x4e6577259b621bfbb6d10d7ed664d60e360620ce2247418384b27aebaee890b8",
      "transactionType": "CALL",
      "contractName": null,
      "contractAddress": "0xb28049bea41b96b54a8da0ee47c8f7209e820150",
      "function": "registerAsLeader(string,string,uint16)",
      "arguments": [
        "Test Strategy",
        "A test strategy for registration.",
        "1000"
      ],
      "transaction": {
        "from": "0x73d43dd9ac2c0fd004286f7a13f51bec163efb2c",
        "to": "0xb28049bea41b96b54a8da0ee47c8f7209e820150",
        "gas": "0x64300",
        "value": "0x0",
        "input": "0x3dc0f16f000000000000000000000000000000000000000000000000000000000000006000000000000000000000000000000000000000000000000000000000000000a000000000000000000000000000000000000000000000000000000000000003e8000000000000000000000000000000000000000000000000000000000000000d5465737420537472617465677900000000000000000000000000000000000000000000000000000000000000000000000000000000000000000000000000002141207465737420737472617465677920666f7220726567697374726174696f6e2e00000000000000000000000000000000000000000000000000000000000000",
        "nonce": "0x2fa",
        "chainId": "0x14a34"
      },
      "additionalContracts": [],
      "isFixedGasLimit": false
    }
  ],
  "receipts": [
    {
      "status": "0x1",
      "cumulativeGasUsed": "0x7741a7",
      "logs": [
        {
          "address": "0xb28049bea41b96b54a8da0ee47c8f7209e820150",
          "topics": [
            "0x0eaafde5ebec39b0111c5c7d6d1fcecac398382ff423cbaaf8ea499d21066d5a",
            "0x00000000000000000000000073d43dd9ac2c0fd004286f7a13f51bec163efb2c"
          ],
          "data": "0x0000000000000000000000000000000000000000000000000000000000000001",
          "blockHash": "0x180c62fcc29313498c94cb5b20e75a88054a0a7e0c72bf24f4a79baed6813a44",
          "blockNumber": "0x1ee3e7b",
          "blockTimestamp": "0x68efdbd6",
          "transactionHash": "0x6326d1566b50e5ff7195bc0003492ac46c24a7f91b31c899f02742a5058628bb",
          "transactionIndex": "0x8",
          "logIndex": "0x5b",
          "removed": false
        },
        {
          "address": "0xb28049bea41b96b54a8da0ee47c8f7209e820150",
          "topics": [
            "0x0eaafde5ebec39b0111c5c7d6d1fcecac398382ff423cbaaf8ea499d21066d5a",
            "0x00000000000000000000000073d43dd9ac2c0fd004286f7a13f51bec163efb2c"
          ],
          "data": "0x0000000000000000000000000000000000000000000000000000000000000001",
          "blockHash": "0x180c62fcc29313498c94cb5b20e75a88054a0a7e0c72bf24f4a79baed6813a44",
          "blockNumber": "0x1ee3e7b",
          "blockTimestamp": "0x68efdbd6",
          "transactionHash": "0x6326d1566b50e5ff7195bc0003492ac46c24a7f91b31c899f02742a5058628bb",
          "transactionIndex": "0x8",
          "logIndex": "0x5c",
          "removed": false
        },
        {
          "address": "0xb28049bea41b96b54a8da0ee47c8f7209e820150",
          "topics": [
            "0x0eaafde5ebec39b0111c5c7d6d1fcecac398382ff423cbaaf8ea499d21066d5a",
            "0x00000000000000000000000073d43dd9ac2c0fd004286f7a13f51bec163efb2c"
          ],
          "data": "0x0000000000000000000000000000000000000000000000000000000000000001",
          "blockHash": "0x180c62fcc29313498c94cb5b20e75a88054a0a7e0c72bf24f4a79baed6813a44",
          "blockNumber": "0x1ee3e7b",
          "blockTimestamp": "0x68efdbd6",
          "transactionHash": "0x6326d1566b50e5ff7195bc0003492ac46c24a7f91b31c899f02742a5058628bb",
          "transactionIndex": "0x8",
          "logIndex": "0x5d",
          "removed": false
        },
        {
          "address": "0xb28049bea41b96b54a8da0ee47c8f7209e820150",
          "topics": [
            "0x0eaafde5ebec39b0111c5c7d6d1fcecac398382ff423cbaaf8ea499d21066d5a",
            "0x00000000000000000000000073d43dd9ac2c0fd004286f7a13f51bec163efb2c"
          ],
          "data": "0x0000000000000000000000000000000000000000000000000000000000000001",
          "blockHash": "0x180c62fcc29313498c94cb5b20e75a88054a0a7e0c72bf24f4a79baed6813a44",
          "blockNumber": "0x1ee3e7b",
          "blockTimestamp": "0x68efdbd6",
          "transactionHash": "0x6326d1566b50e5ff7195bc0003492ac46c24a7f91b31c899f02742a5058628bb",
          "transactionIndex": "0x8",
          "logIndex": "0x5e",
          "removed": false
        },
        {
          "address": "0xb28049bea41b96b54a8da0ee47c8f7209e820150",
          "topics": [
            "0x0eaafde5ebec39b0111c5c7d6d1fcecac398382ff423cbaaf8ea499d21066d5a",
            "0x00000000000000000000000073d43dd9ac2c0fd004286f7a13f51bec163efb2c"
          ],
          "data": "0x0000000000000000000000000000000000000000000000000000000000000001",
          "blockHash": "0x180c62fcc29313498c94cb5b20e75a88054a0a7e0c72bf24f4a79baed6813a44",
          "blockNumber": "0x1ee3e7b",
          "blockTimestamp": "0x68efdbd6",
          "transactionHash": "0x6326d1566b50e5ff7195bc0003492ac46c24a7f91b31c899f02742a5058628bb",
          "transactionIndex": "0x8",
          "logIndex": "0x5f",
          "removed": false
        }
      ],
      "logsBloom": "0x00100000000000000000000000000000000000000000000000000000000000008000000000000000000000000000000000000000000000000000000000000000000000000000000000000000000000000000000000000000000000000000000000000000000000000000000000000000000000000000000018000000000000000000000000000000000100000000000008000000000000000000000000000000000000000000000000000000000000000000000000000000000000000000000000000000000000000000000000000000000002000000000000000000000000080000000000000800000000000000000000000000000000000000000000000000",
      "type": "0x2",
      "transactionHash": "0x6326d1566b50e5ff7195bc0003492ac46c24a7f91b31c899f02742a5058628bb",
      "transactionIndex": "0x8",
      "blockHash": "0x180c62fcc29313498c94cb5b20e75a88054a0a7e0c72bf24f4a79baed6813a44",
      "blockNumber": "0x1ee3e7b",
      "gasUsed": "0xcd8d6",
      "effectiveGasPrice": "0xf42ba",
      "from": "0x73d43dd9ac2c0fd004286f7a13f51bec163efb2c",
      "to": "0xb28049bea41b96b54a8da0ee47c8f7209e820150",
      "contractAddress": null,
      "l1BaseFeeScalar": "0x44d",
      "l1BlobBaseFee": "0x1",
      "l1BlobBaseFeeScalar": "0xa118b",
      "l1Fee": "0x8f",
      "l1GasPrice": "0x9",
      "l1GasUsed": "0xafb"
    },
    {
      "status": "0x1",
      "cumulativeGasUsed": "0x88c0b1",
      "logs": [
        {
          "address": "0xb28049bea41b96b54a8da0ee47c8f7209e820150",
          "topics": [
            "0xdbd939f05a8bb6d12c02e60cc29d73fffd1263d3c03d1536f6dad0775c9209db",
            "0x00000000000000000000000073d43dd9ac2c0fd004286f7a13f51bec163efb2c"
          ],
          "data": "0x000000000000000000000000000000000000000000000000000000000000004000000000000000000000000000000000000000000000000000000000000003e8000000000000000000000000000000000000000000000000000000000000000d5465737420537472617465677900000000000000000000000000000000000000",
          "blockHash": "0x180c62fcc29313498c94cb5b20e75a88054a0a7e0c72bf24f4a79baed6813a44",
          "blockNumber": "0x1ee3e7b",
          "blockTimestamp": "0x68efdbd6",
          "transactionHash": "0x4e6577259b621bfbb6d10d7ed664d60e360620ce2247418384b27aebaee890b8",
          "transactionIndex": "0xb",
          "logIndex": "0x89",
          "removed": false
        }
      ],
      "logsBloom": "0x00100000000000000000000000000000000000000000000000000000000000008000000000000000000000000000000000000000000000000000000000000000000000000000000000000000000001000000000000000000000000000000000000000000000000000000000000000000000000000000000010000000000000000000000000000000000100000000000008000000000000000000000000000000000000000000000000000000000000000000000020000000000000000000000000000000000000000000000000000000000000000000000000000000000000080000000000000200000000000000000000000000000000000000000000000000",
      "type": "0x2",
      "transactionHash": "0x4e6577259b621bfbb6d10d7ed664d60e360620ce2247418384b27aebaee890b8",
      "transactionIndex": "0xb",
      "blockHash": "0x180c62fcc29313498c94cb5b20e75a88054a0a7e0c72bf24f4a79baed6813a44",
      "blockNumber": "0x1ee3e7b",
      "gasUsed": "0x44812",
      "effectiveGasPrice": "0xf42ba",
      "from": "0x73d43dd9ac2c0fd004286f7a13f51bec163efb2c",
      "to": "0xb28049bea41b96b54a8da0ee47c8f7209e820150",
      "contractAddress": null,
      "l1BaseFeeScalar": "0x44d",
      "l1BlobBaseFee": "0x1",
      "l1BlobBaseFeeScalar": "0xa118b",
      "l1Fee": "0x66",
      "l1GasPrice": "0x9",
      "l1GasUsed": "0x7d8"
    }
  ],
  "libraries": [],
  "pending": [],
  "returns": {},
  "timestamp": 1760549846681,
  "chain": 84532,
  "commit": null
}