{
  "transactions": [
    {
      "hash": "0xf15f24299a929aa7e8747560decc42d01728c93d6774b6f45395b21a677bbb5b",
      "transactionType": "CALL",
      "contractName": null,
      "contractAddress": "0x428413e5d967d155613329224997485f903f7092",
      "function": "submitHistoricalPositions((address,address,uint256,uint256,uint256,int256,bool)[])",
      "arguments": [
        "[(0x0000000000000000000000000000000000000001, 0x0000000000000000000000000000000000000002, 1759694714, 1759781114, 1000000000000000000000, 100000000000000000000, true), (0x0000000000000000000000000000000000000001, 0x0000000000000000000000000000000000000002, 1759608314, 1759694714, 1000000000000000000000, 100000000000000000000, true), (0x0000000000000000000000000000000000000001, 0x0000000000000000000000000000000000000002, 1759521914, 1759608314, 1000000000000000000000, 100000000000000000000, true), (0x0000000000000000000000000000000000000001, 0x0000000000000000000000000000000000000002, 1759435514, 1759521914, 1000000000000000000000, 100000000000000000000, true), (0x0000000000000000000000000000000000000001, 0x0000000000000000000000000000000000000002, 1759349114, 1759435514, 1000000000000000000000, 100000000000000000000, true)]"
      ],
      "transaction": {
        "from": "0x73d43dd9ac2c0fd004286f7a13f51bec163efb2c",
        "to": "0x428413e5d967d155613329224997485f903f7092",
        "gas": "0x11beb3",
        "value": "0x0",
        "input": "0xc319e86400000000000000000000000000000000000000000000000000000000000000200000000000000000000000000000000000000000000000000000000000000005000000000000000000000000000000000000000000000000000000000000000100000000000000000000000000000000000000000000000000000000000000020000000000000000000000000000000000000000000000000000000068e2cf7a0000000000000000000000000000000000000000000000000000000068e420fa00000000000000000000000000000000000000000000003635c9adc5dea000000000000000000000000000000000000000000000000000056bc75e2d631000000000000000000000000000000000000000000000000000000000000000000001000000000000000000000000000000000000000000000000000000000000000100000000000000000000000000000000000000000000000000000000000000020000000000000000000000000000000000000000000000000000000068e17dfa0000000000000000000000000000000000000000000000000000000068e2cf7a00000000000000000000000000000000000000000000003635c9adc5dea000000000000000000000000000000000000000000000000000056bc75e2d631000000000000000000000000000000000000000000000000000000000000000000001000000000000000000000000000000000000000000000000000000000000000100000000000000000000000000000000000000000000000000000000000000020000000000000000000000000000000000000000000000000000000068e02c7a0000000000000000000000000000000000000000000000000000000068e17dfa00000000000000000000000000000000000000000000003635c9adc5dea000000000000000000000000000000000000000000000000000056bc75e2d631000000000000000000000000000000000000000000000000000000000000000000001000000000000000000000000000000000000000000000000000000000000000100000000000000000000000000000000000000000000000000000000000000020000000000000000000000000000000000000000000000000000000068dedafa0000000000000000000000000000000000000000000000000000000068e02c7a00000000000000000000000000000000000000000000003635c9adc5dea000000000000000000000000000000000000000000000000000056bc75e2d631000000000000000000000000000000000000000000000000000000000000000000001000000000000000000000000000000000000000000000000000000000000000100000000000000000000000000000000000000000000000000000000000000020000000000000000000000000000000000000000000000000000000068dd897a0000000000000000000000000000000000000000000000000000000068dedafa00000000000000000000000000000000000000000000003635c9adc5dea000000000000000000000000000000000000000000000000000056bc75e2d631000000000000000000000000000000000000000000000000000000000000000000001",
        "nonce": "0x311",
        "chainId": "0x14a34"
      },
      "additionalContracts": [],
      "isFixedGasLimit": false
    },
    {
      "hash": "0xc0b21037f9fac9d410b18a5cfe973605796780e6a8656ee90534d0832c0c52eb",
      "transactionType": "CALL",
      "contractName": null,
      "contractAddress": "0x428413e5d967d155613329224997485f903f7092",
      "function": "registerAsLeader(string,string,uint16)",
      "arguments": [
        "Test Strategy",
        "A test strategy for registration.",
        "1000"
      ],
      "transaction": {
        "from": "0x73d43dd9ac2c0fd004286f7a13f51bec163efb2c",
        "to": "0x428413e5d967d155613329224997485f903f7092",
        "gas": "0x64300",
        "value": "0x0",
        "input": "0x3dc0f16f000000000000000000000000000000000000000000000000000000000000006000000000000000000000000000000000000000000000000000000000000000a000000000000000000000000000000000000000000000000000000000000003e8000000000000000000000000000000000000000000000000000000000000000d5465737420537472617465677900000000000000000000000000000000000000000000000000000000000000000000000000000000000000000000000000002141207465737420737472617465677920666f7220726567697374726174696f6e2e00000000000000000000000000000000000000000000000000000000000000",
        "nonce": "0x312",
        "chainId": "0x14a34"
      },
      "additionalContracts": [],
      "isFixedGasLimit": false
    },
    {
      "hash": "0x226e34ef11615661e93d8f55439e4b6f567e1a7eed3af98e29c384bacebf0de6",
      "transactionType": "CALL",
      "contractName": null,
      "contractAddress": "0x428413e5d967d155613329224997485f903f7092",
      "function": "updateStrategy(string,string)",
      "arguments": [
        "Updated Strategy",
        "Updated description."
      ],
      "transaction": {
        "from": "0x73d43dd9ac2c0fd004286f7a13f51bec163efb2c",
        "to": "0x428413e5d967d155613329224997485f903f7092",
        "gas": "0xe283",
        "value": "0x0",
        "input": "0x2dc768980000000000000000000000000000000000000000000000000000000000000040000000000000000000000000000000000000000000000000000000000000008000000000000000000000000000000000000000000000000000000000000000105570646174656420537472617465677900000000000000000000000000000000000000000000000000000000000000000000000000000000000000000000001455706461746564206465736372697074696f6e2e000000000000000000000000",
        "nonce": "0x313",
        "chainId": "0x14a34"
      },
      "additionalContracts": [],
      "isFixedGasLimit": false
    },
    {
      "hash": "0xdf2c83836a0a18bda7eb56be2169c601e08625aafcdfc7f819c0847ad7fdcaaa",
      "transactionType": "CALL",
      "contractName": null,
      "contractAddress": "0x428413e5d967d155613329224997485f903f7092",
      "function": "deactivateLeader(address)",
      "arguments": [
        "0x73D43dd9Ac2C0Fd004286F7a13F51bec163efB2C"
      ],
      "transaction": {
        "from": "0x73d43dd9ac2c0fd004286f7a13f51bec163efb2c",
        "to": "0x428413e5d967d155613329224997485f903f7092",
        "gas": "0x9dd2",
        "value": "0x0",
        "input": "0x55a78e6e00000000000000000000000073d43dd9ac2c0fd004286f7a13f51bec163efb2c",
        "nonce": "0x314",
        "chainId": "0x14a34"
      },
      "additionalContracts": [],
      "isFixedGasLimit": false
    },
    {
      "hash": "0xbc4a3cd65d8c681e0acd9d6f875aa6f75d3053a0e408475bf9bdf1a70668b61d",
      "transactionType": "CALL",
      "contractName": null,
      "contractAddress": "0x428413e5d967d155613329224997485f903f7092",
      "function": "reactivateLeader(address)",
      "arguments": [
        "0x73D43dd9Ac2C0Fd004286F7a13F51bec163efB2C"
      ],
      "transaction": {
        "from": "0x73d43dd9ac2c0fd004286f7a13f51bec163efb2c",
        "to": "0x428413e5d967d155613329224997485f903f7092",
        "gas": "0x10b9a",
        "value": "0x0",
        "input": "0x7a54d7bf00000000000000000000000073d43dd9ac2c0fd004286f7a13f51bec163efb2c",
        "nonce": "0x315",
        "chainId": "0x14a34"
      },
      "additionalContracts": [],
      "isFixedGasLimit": false
    }
  ],
  "receipts": [
    {
      "status": "0x1",
      "cumulativeGasUsed": "0x4e14f7",
      "logs": [
        {
          "address": "0x428413e5d967d155613329224997485f903f7092",
          "topics": [
            "0x0eaafde5ebec39b0111c5c7d6d1fcecac398382ff423cbaaf8ea499d21066d5a",
            "0x00000000000000000000000073d43dd9ac2c0fd004286f7a13f51bec163efb2c"
          ],
          "data": "0x0000000000000000000000000000000000000000000000000000000000000001",
          "blockHash": "0x8bbeab3e78d0f9e63101a275ef64fddad138cbeb0684262d6c6ac1ac5fb15ba6",
          "blockNumber": "0x1ee4fd7",
          "blockTimestamp": "0x68effe8e",
          "transactionHash": "0xf15f24299a929aa7e8747560decc42d01728c93d6774b6f45395b21a677bbb5b",
          "transactionIndex": "0x1c",
          "logIndex": "0x9d",
          "removed": false
        },
        {
          "address": "0x428413e5d967d155613329224997485f903f7092",
          "topics": [
            "0x0eaafde5ebec39b0111c5c7d6d1fcecac398382ff423cbaaf8ea499d21066d5a",
            "0x00000000000000000000000073d43dd9ac2c0fd004286f7a13f51bec163efb2c"
          ],
          "data": "0x0000000000000000000000000000000000000000000000000000000000000001",
          "blockHash": "0x8bbeab3e78d0f9e63101a275ef64fddad138cbeb0684262d6c6ac1ac5fb15ba6",
          "blockNumber": "0x1ee4fd7",
          "blockTimestamp": "0x68effe8e",
          "transactionHash": "0xf15f24299a929aa7e8747560decc42d01728c93d6774b6f45395b21a677bbb5b",
          "transactionIndex": "0x1c",
          "logIndex": "0x9e",
          "removed": false
        },
        {
          "address": "0x428413e5d967d155613329224997485f903f7092",
          "topics": [
            "0x0eaafde5ebec39b0111c5c7d6d1fcecac398382ff423cbaaf8ea499d21066d5a",
            "0x00000000000000000000000073d43dd9ac2c0fd004286f7a13f51bec163efb2c"
          ],
          "data": "0x0000000000000000000000000000000000000000000000000000000000000001",
          "blockHash": "0x8bbeab3e78d0f9e63101a275ef64fddad138cbeb0684262d6c6ac1ac5fb15ba6",
          "blockNumber": "0x1ee4fd7",
          "blockTimestamp": "0x68effe8e",
          "transactionHash": "0xf15f24299a929aa7e8747560decc42d01728c93d6774b6f45395b21a677bbb5b",
          "transactionIndex": "0x1c",
          "logIndex": "0x9f",
          "removed": false
        },
        {
          "address": "0x428413e5d967d155613329224997485f903f7092",
          "topics": [
            "0x0eaafde5ebec39b0111c5c7d6d1fcecac398382ff423cbaaf8ea499d21066d5a",
            "0x00000000000000000000000073d43dd9ac2c0fd004286f7a13f51bec163efb2c"
          ],
          "data": "0x0000000000000000000000000000000000000000000000000000000000000001",
          "blockHash": "0x8bbeab3e78d0f9e63101a275ef64fddad138cbeb0684262d6c6ac1ac5fb15ba6",
          "blockNumber": "0x1ee4fd7",
          "blockTimestamp": "0x68effe8e",
          "transactionHash": "0xf15f24299a929aa7e8747560decc42d01728c93d6774b6f45395b21a677bbb5b",
          "transactionIndex": "0x1c",
          "logIndex": "0xa0",
          "removed": false
        },
        {
          "address": "0x428413e5d967d155613329224997485f903f7092",
          "topics": [
            "0x0eaafde5ebec39b0111c5c7d6d1fcecac398382ff423cbaaf8ea499d21066d5a",
            "0x00000000000000000000000073d43dd9ac2c0fd004286f7a13f51bec163efb2c"
          ],
          "data": "0x0000000000000000000000000000000000000000000000000000000000000001",
          "blockHash": "0x8bbeab3e78d0f9e63101a275ef64fddad138cbeb0684262d6c6ac1ac5fb15ba6",
          "blockNumber": "0x1ee4fd7",
          "blockTimestamp": "0x68effe8e",
          "transactionHash": "0xf15f24299a929aa7e8747560decc42d01728c93d6774b6f45395b21a677bbb5b",
          "transactionIndex": "0x1c",
          "logIndex": "0xa1",
          "removed": false
        }
      ],
      "logsBloom": "0x00000000000000000000000000000000000000000000000000100000000000000000000000000000000000000000000000000000000000000000000000000000000000000000000000000000000000000000000000000000000000000000000000000000000000000000000000000000000000000000000018000000000000000000000000000000000100000000000008000000000000000000000000000000000000000000000000000000000000000000000000000000000000000000000000000000000000000000000000000000000002000000000000000000000000010000000000000800000000000000000000000000010000000000000000000000",
      "type": "0x2",
      "transactionHash": "0xf15f24299a929aa7e8747560decc42d01728c93d6774b6f45395b21a677bbb5b",
      "transactionIndex": "0x1c",
      "blockHash": "0x8bbeab3e78d0f9e63101a275ef64fddad138cbeb0684262d6c6ac1ac5fb15ba6",
      "blockNumber": "0x1ee4fd7",
      "gasUsed": "0xcd8d6",
      "effectiveGasPrice": "0xf42b2",
      "from": "0x73d43dd9ac2c0fd004286f7a13f51bec163efb2c",
      "to": "0x428413e5d967d155613329224997485f903f7092",
      "contractAddress": null,
      "l1BaseFeeScalar": "0x44d",
      "l1BlobBaseFee": "0x1",
      "l1BlobBaseFeeScalar": "0xa118b",
      "l1Fee": "0x8f",
      "l1GasPrice": "0x9",
      "l1GasUsed": "0xafb"
    },
    {
      "status": "0x1",
      "cumulativeGasUsed": "0x525d09",
      "logs": [
        {
          "address": "0x428413e5d967d155613329224997485f903f7092",
          "topics": [
            "0xdbd939f05a8bb6d12c02e60cc29d73fffd1263d3c03d1536f6dad0775c9209db",
            "0x00000000000000000000000073d43dd9ac2c0fd004286f7a13f51bec163efb2c"
          ],
          "data": "0x000000000000000000000000000000000000000000000000000000000000004000000000000000000000000000000000000000000000000000000000000003e8000000000000000000000000000000000000000000000000000000000000000d5465737420537472617465677900000000000000000000000000000000000000",
          "blockHash": "0x8bbeab3e78d0f9e63101a275ef64fddad138cbeb0684262d6c6ac1ac5fb15ba6",
          "blockNumber": "0x1ee4fd7",
          "blockTimestamp": "0x68effe8e",
          "transactionHash": "0xc0b21037f9fac9d410b18a5cfe973605796780e6a8656ee90534d0832c0c52eb",
          "transactionIndex": "0x1d",
          "logIndex": "0xa2",
          "removed": false
        }
      ],
      "logsBloom": "0x00000000000000000000000000000000000000000000000000100000000000000000000000000000000000000000000000000000000000000000000000000000000000000000000000000000000001000000000000000000000000000000000000000000000000000000000000000000000000000000000010000000000000000000000000000000000100000000000008000000000000000000000000000000000000000000000000000000000000000000000020000000000000000000000000000000000000000000000000000000000000000000000000000000000000010000000000000200000000000000000000000000010000000000000000000000",
      "type": "0x2",
      "transactionHash": "0xc0b21037f9fac9d410b18a5cfe973605796780e6a8656ee90534d0832c0c52eb",
      "transactionIndex": "0x1d",
      "blockHash": "0x8bbeab3e78d0f9e63101a275ef64fddad138cbeb0684262d6c6ac1ac5fb15ba6",
      "blockNumber": "0x1ee4fd7",
      "gasUsed": "0x44812",
      "effectiveGasPrice": "0xf42b2",
      "from": "0x73d43dd9ac2c0fd004286f7a13f51bec163efb2c",
      "to": "0x428413e5d967d155613329224997485f903f7092",
      "contractAddress": null,
      "l1BaseFeeScalar": "0x44d",
      "l1BlobBaseFee": "0x1",
      "l1BlobBaseFeeScalar": "0xa118b",
      "l1Fee": "0x66",
      "l1GasPrice": "0x9",
      "l1GasUsed": "0x7d8"
    },
    {
      "status": "0x1",
      "cumulativeGasUsed": "0x52f7eb",
      "logs": [
        {
          "address": "0x428413e5d967d155613329224997485f903f7092",
          "topics": [
            "0x5a5248d054573022847923c7aff5393f051da7c24370d3da722cef7afadaa980",
            "0x00000000000000000000000073d43dd9ac2c0fd004286f7a13f51bec163efb2c"
          ],
          "data": "0x0000000000000000000000000000000000000000000000000000000000000040000000000000000000000000000000000000000000000000000000000000008000000000000000000000000000000000000000000000000000000000000000105570646174656420537472617465677900000000000000000000000000000000000000000000000000000000000000000000000000000000000000000000001455706461746564206465736372697074696f6e2e000000000000000000000000",
          "blockHash": "0x8bbeab3e78d0f9e63101a275ef64fddad138cbeb0684262d6c6ac1ac5fb15ba6",
          "blockNumber": "0x1ee4fd7",
          "blockTimestamp": "0x68effe8e",
          "transactionHash": "0x226e34ef11615661e93d8f55439e4b6f567e1a7eed3af98e29c384bacebf0de6",
          "transactionIndex": "0x1e",
          "logIndex": "0xa3",
          "removed": false
        }
      ],
      "logsBloom": "0x00000000000000000000000000000000000000000000000000100000000000000000000000000000000000000000000000000000000000000000000000000000000000000000000000000000000000000000000000000080000000000000000000000000000000000000000000000000000000000000000010000000000000000000000000000000000100000000000008000000000000000000000000002000000000000000000000000000000000100000000000000000000000000000000000000000000000000000000000000000000000000000000000000000000000010000000000000000000000000000000000000000010000000000000000000000",
      "type": "0x2",
      "transactionHash": "0x226e34ef11615661e93d8f55439e4b6f567e1a7eed3af98e29c384bacebf0de6",
      "transactionIndex": "0x1e",
      "blockHash": "0x8bbeab3e78d0f9e63101a275ef64fddad138cbeb0684262d6c6ac1ac5fb15ba6",
      "blockNumber": "0x1ee4fd7",
      "gasUsed": "0x9ae2",
      "effectiveGasPrice": "0xf42b2",
      "from": "0x73d43dd9ac2c0fd004286f7a13f51bec163efb2c",
      "to": "0x428413e5d967d155613329224997485f903f7092",
      "contractAddress": null,
      "l1BaseFeeScalar": "0x44d",
      "l1BlobBaseFee": "0x1",
      "l1BlobBaseFeeScalar": "0xa118b",
      "l1Fee": "0x5b",
      "l1GasPrice": "0x9",
      "l1GasUsed": "0x6f5"
    },
    {
      "status": "0x1",
      "cumulativeGasUsed": "0x5363d5",
      "logs": [
        {
          "address": "0x428413e5d967d155613329224997485f903f7092",
          "topics": [
            "0x26d054e0e8857287b16c4219214d225a5fda1924b52253039bff4b7b26d830d0",
            "0x00000000000000000000000073d43dd9ac2c0fd004286f7a13f51bec163efb2c"
          ],
          "data": "0x",
          "blockHash": "0x8bbeab3e78d0f9e63101a275ef64fddad138cbeb0684262d6c6ac1ac5fb15ba6",
          "blockNumber": "0x1ee4fd7",
          "blockTimestamp": "0x68effe8e",
          "transactionHash": "0xdf2c83836a0a18bda7eb56be2169c601e08625aafcdfc7f819c0847ad7fdcaaa",
          "transactionIndex": "0x1f",
          "logIndex": "0xa4",
          "removed": false
        }
      ],
      "logsBloom": "0x00000000000000000000000000000000000000000000000000100000000000000000000000000000000000000000000000000000000000000000000000000000000000000020000000000000000000000000000000000000000000000000000000000000000000000000000000000000000000000000000010000000000000000000000000000000000100000000000008000000000000000000000000000000000000000000000000000000000000000000000000000000000000000000000000000000000000000000000000000000000000001000000000000000000000010000000000000000000000000000000000000000090000000000000000000000",
      "type": "0x2",
      "transactionHash": "0xdf2c83836a0a18bda7eb56be2169c601e08625aafcdfc7f819c0847ad7fdcaaa",
      "transactionIndex": "0x1f",
      "blockHash": "0x8bbeab3e78d0f9e63101a275ef64fddad138cbeb0684262d6c6ac1ac5fb15ba6",
      "blockNumber": "0x1ee4fd7",
      "gasUsed": "0x6bea",
      "effectiveGasPrice": "0xf42b2",
      "from": "0x73d43dd9ac2c0fd004286f7a13f51bec163efb2c",
      "to": "0x428413e5d967d155613329224997485f903f7092",
      "contractAddress": null,
      "l1BaseFeeScalar": "0x44d",
      "l1BlobBaseFee": "0x1",
      "l1BlobBaseFeeScalar": "0xa118b",
      "l1Fee": "0x51",
      "l1GasPrice": "0x9",
      "l1GasUsed": "0x640"
    },
    {
      "status": "0x1",
      "cumulativeGasUsed": "0x542593",
      "logs": [
        {
          "address": "0x428413e5d967d155613329224997485f903f7092",
          "topics": [
            "0x6de5969ea600bf6dfd17c1b1dcd5ef7bea84f201675f4c8a8bbc6a888880f7c5",
            "0x00000000000000000000000073d43dd9ac2c0fd004286f7a13f51bec163efb2c"
          ],
          "data": "0x",
          "blockHash": "0x8bbeab3e78d0f9e63101a275ef64fddad138cbeb0684262d6c6ac1ac5fb15ba6",
          "blockNumber": "0x1ee4fd7",
          "blockTimestamp": "0x68effe8e",
          "transactionHash": "0xbc4a3cd65d8c681e0acd9d6f875aa6f75d3053a0e408475bf9bdf1a70668b61d",
          "transactionIndex": "0x20",
          "logIndex": "0xa5",
          "removed": false
        }
      ],
      "logsBloom": "0x00000000000000000000000000000000000040000000000000100000000010000000000000000000000000000000000000000000000000000000000000000000000000000000000000000000000000000000000000000000000000000000000000000000000000000000000000000000000000000000000010000000000000000000000000000000000100000000000008000000000000000000000000000000000000000000000000000000000000000000000000000000000000000000000000000000000000000000000000000004000000000000000000000000000000010000000000000000000000000000000000000000010000000000000000000000",
      "type": "0x2",
      "transactionHash": "0xbc4a3cd65d8c681e0acd9d6f875aa6f75d3053a0e408475bf9bdf1a70668b61d",
      "transactionIndex": "0x20",
      "blockHash": "0x8bbeab3e78d0f9e63101a275ef64fddad138cbeb0684262d6c6ac1ac5fb15ba6",
      "blockNumber": "0x1ee4fd7",
      "gasUsed": "0xc1be",
      "effectiveGasPrice": "0xf42b2",
      "from": "0x73d43dd9ac2c0fd004286f7a13f51bec163efb2c",
      "to": "0x428413e5d967d155613329224997485f903f7092",
      "contractAddress": null,
      "l1BaseFeeScalar": "0x44d",
      "l1BlobBaseFee": "0x1",
      "l1BlobBaseFeeScalar": "0xa118b",
      "l1Fee": "0x51",
      "l1GasPrice": "0x9",
      "l1GasUsed": "0x640"
    }
  ],
  "libraries": [],
  "pending": [],
  "returns": {},
  "timestamp": 1760558735398,
  "chain": 84532,
  "commit": "650dba8"
}