{
  "transactions": [
    {
      "hash": "0xc1b7af5cf60283918c1c1f2fa6363ff23795164200f7f0e5474eab86724ac128",
      "transactionType": "CALL",
      "contractName": null,
      "contractAddress": "0xb8c3b995e91e42b3fb0fe6f0ee6a9840515d3e90",
      "function": "submitHistoricalPositions((address,address,uint256,uint256,uint256,int256,bool)[])",
      "arguments": [
        "[(0x0000000000000000000000000000000000000001, 0x0000000000000000000000000000000000000002, 1759701396, 1759787796, 1000000000000000000000, 100000000000000000000, true), (0x0000000000000000000000000000000000000001, 0x0000000000000000000000000000000000000002, 1759614996, 1759701396, 1000000000000000000000, 100000000000000000000, true), (0x0000000000000000000000000000000000000001, 0x0000000000000000000000000000000000000002, 1759528596, 1759614996, 1000000000000000000000, 100000000000000000000, true), (0x0000000000000000000000000000000000000001, 0x0000000000000000000000000000000000000002, 1759442196, 1759528596, 1000000000000000000000, 100000000000000000000, true), (0x0000000000000000000000000000000000000001, 0x0000000000000000000000000000000000000002, 1759355796, 1759442196, 1000000000000000000000, 100000000000000000000, true)]"
      ],
      "transaction": {
        "from": "0x73d43dd9ac2c0fd004286f7a13f51bec163efb2c",
        "to": "0xb8c3b995e91e42b3fb0fe6f0ee6a9840515d3e90",
        "gas": "0x11beb3",
        "value": "0x0",
        "input": "0xc319e86400000000000000000000000000000000000000000000000000000000000000200000000000000000000000000000000000000000000000000000000000000005000000000000000000000000000000000000000000000000000000000000000100000000000000000000000000000000000000000000000000000000000000020000000000000000000000000000000000000000000000000000000068e2e9940000000000000000000000000000000000000000000000000000000068e43b1400000000000000000000000000000000000000000000003635c9adc5dea000000000000000000000000000000000000000000000000000056bc75e2d631000000000000000000000000000000000000000000000000000000000000000000001000000000000000000000000000000000000000000000000000000000000000100000000000000000000000000000000000000000000000000000000000000020000000000000000000000000000000000000000000000000000000068e198140000000000000000000000000000000000000000000000000000000068e2e99400000000000000000000000000000000000000000000003635c9adc5dea000000000000000000000000000000000000000000000000000056bc75e2d631000000000000000000000000000000000000000000000000000000000000000000001000000000000000000000000000000000000000000000000000000000000000100000000000000000000000000000000000000000000000000000000000000020000000000000000000000000000000000000000000000000000000068e046940000000000000000000000000000000000000000000000000000000068e1981400000000000000000000000000000000000000000000003635c9adc5dea000000000000000000000000000000000000000000000000000056bc75e2d631000000000000000000000000000000000000000000000000000000000000000000001000000000000000000000000000000000000000000000000000000000000000100000000000000000000000000000000000000000000000000000000000000020000000000000000000000000000000000000000000000000000000068def5140000000000000000000000000000000000000000000000000000000068e0469400000000000000000000000000000000000000000000003635c9adc5dea000000000000000000000000000000000000000000000000000056bc75e2d631000000000000000000000000000000000000000000000000000000000000000000001000000000000000000000000000000000000000000000000000000000000000100000000000000000000000000000000000000000000000000000000000000020000000000000000000000000000000000000000000000000000000068dda3940000000000000000000000000000000000000000000000000000000068def51400000000000000000000000000000000000000000000003635c9adc5dea000000000000000000000000000000000000000000000000000056bc75e2d631000000000000000000000000000000000000000000000000000000000000000000001",
        "nonce": "0x33d",
        "chainId": "0x14a34"
      },
      "additionalContracts": [],
      "isFixedGasLimit": false
    },
    {
      "hash": "0xde1f06455de9aa82c208aba3352c49b1cc2d282fb57d99e5b41bf432ba01b334",
      "transactionType": "CALL",
      "contractName": null,
      "contractAddress": "0xb8c3b995e91e42b3fb0fe6f0ee6a9840515d3e90",
      "function": "registerAsLeader(string,string,uint16)",
      "arguments": [
        "Test Strategy",
        "A test strategy for registration.",
        "1000"
      ],
      "transaction": {
        "from": "0x73d43dd9ac2c0fd004286f7a13f51bec163efb2c",
        "to": "0xb8c3b995e91e42b3fb0fe6f0ee6a9840515d3e90",
        "gas": "0x64300",
        "value": "0x0",
        "input": "0x3dc0f16f000000000000000000000000000000000000000000000000000000000000006000000000000000000000000000000000000000000000000000000000000000a000000000000000000000000000000000000000000000000000000000000003e8000000000000000000000000000000000000000000000000000000000000000d5465737420537472617465677900000000000000000000000000000000000000000000000000000000000000000000000000000000000000000000000000002141207465737420737472617465677920666f7220726567697374726174696f6e2e00000000000000000000000000000000000000000000000000000000000000",
        "nonce": "0x33e",
        "chainId": "0x14a34"
      },
      "additionalContracts": [],
      "isFixedGasLimit": false
    },
    {
      "hash": "0x9adf4d74848e78be1b8e8ba7cce246b3652bb2a229ff158861f467cd298242b1",
      "transactionType": "CALL",
      "contractName": null,
      "contractAddress": "0xb8c3b995e91e42b3fb0fe6f0ee6a9840515d3e90",
      "function": "updateStrategy(string,string)",
      "arguments": [
        "Updated Strategy",
        "Updated description."
      ],
      "transaction": {
        "from": "0x73d43dd9ac2c0fd004286f7a13f51bec163efb2c",
        "to": "0xb8c3b995e91e42b3fb0fe6f0ee6a9840515d3e90",
        "gas": "0xe283",
        "value": "0x0",
        "input": "0x2dc768980000000000000000000000000000000000000000000000000000000000000040000000000000000000000000000000000000000000000000000000000000008000000000000000000000000000000000000000000000000000000000000000105570646174656420537472617465677900000000000000000000000000000000000000000000000000000000000000000000000000000000000000000000001455706461746564206465736372697074696f6e2e000000000000000000000000",
        "nonce": "0x33f",
        "chainId": "0x14a34"
      },
      "additionalContracts": [],
      "isFixedGasLimit": false
    },
    {
      "hash": "0x9f8fb1b1ebcd17bcb2728d1b978788369e91165e9e40a63d678ca151880e10bb",
      "transactionType": "CALL",
      "contractName": null,
      "contractAddress": "0xb8c3b995e91e42b3fb0fe6f0ee6a9840515d3e90",
      "function": "deactivateLeader(address)",
      "arguments": [
        "0x73D43dd9Ac2C0Fd004286F7a13F51bec163efB2C"
      ],
      "transaction": {
        "from": "0x73d43dd9ac2c0fd004286f7a13f51bec163efb2c",
        "to": "0xb8c3b995e91e42b3fb0fe6f0ee6a9840515d3e90",
        "gas": "0x9dd2",
        "value": "0x0",
        "input": "0x55a78e6e00000000000000000000000073d43dd9ac2c0fd004286f7a13f51bec163efb2c",
        "nonce": "0x340",
        "chainId": "0x14a34"
      },
      "additionalContracts": [],
      "isFixedGasLimit": false
    },
    {
      "hash": "0xaff58ab2cc15f78394e8089996c9add0b650014f80c07d1a85b5614de7f54742",
      "transactionType": "CALL",
      "contractName": null,
      "contractAddress": "0xb8c3b995e91e42b3fb0fe6f0ee6a9840515d3e90",
      "function": "reactivateLeader(address)",
      "arguments": [
        "0x73D43dd9Ac2C0Fd004286F7a13F51bec163efB2C"
      ],
      "transaction": {
        "from": "0x73d43dd9ac2c0fd004286f7a13f51bec163efb2c",
        "to": "0xb8c3b995e91e42b3fb0fe6f0ee6a9840515d3e90",
        "gas": "0x10b9a",
        "value": "0x0",
        "input": "0x7a54d7bf00000000000000000000000073d43dd9ac2c0fd004286f7a13f51bec163efb2c",
        "nonce": "0x341",
        "chainId": "0x14a34"
      },
      "additionalContracts": [],
      "isFixedGasLimit": false
    }
  ],
  "receipts": [
    {
      "status": "0x1",
      "cumulativeGasUsed": "0xde73bd",
      "logs": [
        {
          "address": "0xb8c3b995e91e42b3fb0fe6f0ee6a9840515d3e90",
          "topics": [
            "0x0eaafde5ebec39b0111c5c7d6d1fcecac398382ff423cbaaf8ea499d21066d5a",
            "0x00000000000000000000000073d43dd9ac2c0fd004286f7a13f51bec163efb2c"
          ],
          "data": "0x0000000000000000000000000000000000000000000000000000000000000001",
          "blockHash": "0xc3b83be990367ea4aee2733a5071b9373233db085a3bd36452a25dcadf1a7f95",
          "blockNumber": "0x1ee5ce4",
          "blockTimestamp": "0x68f018a8",
          "transactionHash": "0xc1b7af5cf60283918c1c1f2fa6363ff23795164200f7f0e5474eab86724ac128",
          "transactionIndex": "0xe",
          "logIndex": "0x16b",
          "removed": false
        },
        {
          "address": "0xb8c3b995e91e42b3fb0fe6f0ee6a9840515d3e90",
          "topics": [
            "0x0eaafde5ebec39b0111c5c7d6d1fcecac398382ff423cbaaf8ea499d21066d5a",
            "0x00000000000000000000000073d43dd9ac2c0fd004286f7a13f51bec163efb2c"
          ],
          "data": "0x0000000000000000000000000000000000000000000000000000000000000001",
          "blockHash": "0xc3b83be990367ea4aee2733a5071b9373233db085a3bd36452a25dcadf1a7f95",
          "blockNumber": "0x1ee5ce4",
          "blockTimestamp": "0x68f018a8",
          "transactionHash": "0xc1b7af5cf60283918c1c1f2fa6363ff23795164200f7f0e5474eab86724ac128",
          "transactionIndex": "0xe",
          "logIndex": "0x16c",
          "removed": false
        },
        {
          "address": "0xb8c3b995e91e42b3fb0fe6f0ee6a9840515d3e90",
          "topics": [
            "0x0eaafde5ebec39b0111c5c7d6d1fcecac398382ff423cbaaf8ea499d21066d5a",
            "0x00000000000000000000000073d43dd9ac2c0fd004286f7a13f51bec163efb2c"
          ],
          "data": "0x0000000000000000000000000000000000000000000000000000000000000001",
          "blockHash": "0xc3b83be990367ea4aee2733a5071b9373233db085a3bd36452a25dcadf1a7f95",
          "blockNumber": "0x1ee5ce4",
          "blockTimestamp": "0x68f018a8",
          "transactionHash": "0xc1b7af5cf60283918c1c1f2fa6363ff23795164200f7f0e5474eab86724ac128",
          "transactionIndex": "0xe",
          "logIndex": "0x16d",
          "removed": false
        },
        {
          "address": "0xb8c3b995e91e42b3fb0fe6f0ee6a9840515d3e90",
          "topics": [
            "0x0eaafde5ebec39b0111c5c7d6d1fcecac398382ff423cbaaf8ea499d21066d5a",
            "0x00000000000000000000000073d43dd9ac2c0fd004286f7a13f51bec163efb2c"
          ],
          "data": "0x0000000000000000000000000000000000000000000000000000000000000001",
          "blockHash": "0xc3b83be990367ea4aee2733a5071b9373233db085a3bd36452a25dcadf1a7f95",
          "blockNumber": "0x1ee5ce4",
          "blockTimestamp": "0x68f018a8",
          "transactionHash": "0xc1b7af5cf60283918c1c1f2fa6363ff23795164200f7f0e5474eab86724ac128",
          "transactionIndex": "0xe",
          "logIndex": "0x16e",
          "removed": false
        },
        {
          "address": "0xb8c3b995e91e42b3fb0fe6f0ee6a9840515d3e90",
          "topics": [
            "0x0eaafde5ebec39b0111c5c7d6d1fcecac398382ff423cbaaf8ea499d21066d5a",
            "0x00000000000000000000000073d43dd9ac2c0fd004286f7a13f51bec163efb2c"
          ],
          "data": "0x0000000000000000000000000000000000000000000000000000000000000001",
          "blockHash": "0xc3b83be990367ea4aee2733a5071b9373233db085a3bd36452a25dcadf1a7f95",
          "blockNumber": "0x1ee5ce4",
          "blockTimestamp": "0x68f018a8",
          "transactionHash": "0xc1b7af5cf60283918c1c1f2fa6363ff23795164200f7f0e5474eab86724ac128",
          "transactionIndex": "0xe",
          "logIndex": "0x16f",
          "removed": false
        }
      ],
      "logsBloom": "0x00000000000000000000000000000000000000000000000000000000000000000000000000000000000000000000000000000000000000000000000000000000000000000000000000000000000000000000000000000000000000000000000000000000000000000000000000000000000000000000000018001000000000000000000000000000000100000000000008000000000000000000000000000000000000000000000000000000000000000000000000000040000000000000000000000000000000000000000000000000000002000000000000000000000000000000000000000800000000000008000000000000000000000000000000000000",
      "type": "0x2",
      "transactionHash": "0xc1b7af5cf60283918c1c1f2fa6363ff23795164200f7f0e5474eab86724ac128",
      "transactionIndex": "0xe",
      "blockHash": "0xc3b83be990367ea4aee2733a5071b9373233db085a3bd36452a25dcadf1a7f95",
      "blockNumber": "0x1ee5ce4",
      "gasUsed": "0xcd8d6",
      "effectiveGasPrice": "0xf42bc",
      "from": "0x73d43dd9ac2c0fd004286f7a13f51bec163efb2c",
      "to": "0xb8c3b995e91e42b3fb0fe6f0ee6a9840515d3e90",
      "contractAddress": null,
      "l1BaseFeeScalar": "0x44d",
      "l1BlobBaseFee": "0x1",
      "l1BlobBaseFeeScalar": "0xa118b",
      "l1Fee": "0x8c",
      "l1GasPrice": "0x8",
      "l1GasUsed": "0xafb"
    },
    {
      "status": "0x1",
      "cumulativeGasUsed": "0xe2bbcf",
      "logs": [
        {
          "address": "0xb8c3b995e91e42b3fb0fe6f0ee6a9840515d3e90",
          "topics": [
            "0xdbd939f05a8bb6d12c02e60cc29d73fffd1263d3c03d1536f6dad0775c9209db",
            "0x00000000000000000000000073d43dd9ac2c0fd004286f7a13f51bec163efb2c"
          ],
          "data": "0x000000000000000000000000000000000000000000000000000000000000004000000000000000000000000000000000000000000000000000000000000003e8000000000000000000000000000000000000000000000000000000000000000d5465737420537472617465677900000000000000000000000000000000000000",
          "blockHash": "0xc3b83be990367ea4aee2733a5071b9373233db085a3bd36452a25dcadf1a7f95",
          "blockNumber": "0x1ee5ce4",
          "blockTimestamp": "0x68f018a8",
          "transactionHash": "0xde1f06455de9aa82c208aba3352c49b1cc2d282fb57d99e5b41bf432ba01b334",
          "transactionIndex": "0xf",
          "logIndex": "0x170",
          "removed": false
        }
      ],
      "logsBloom": "0x00000000000000000000000000000000000000000000000000000000000000000000000000000000000000000000000000000000000000000000000000000000000000000000000000000000000001000000000000000000000000000000000000000000000000000000000000000000000000000000000010001000000000000000000000000000000100000000000008000000000000000000000000000000000000000000000000000000000000000000000020000040000000000000000000000000000000000000000000000000000000000000000000000000000000000000000000000200000000000008000000000000000000000000000000000000",
      "type": "0x2",
      "transactionHash": "0xde1f06455de9aa82c208aba3352c49b1cc2d282fb57d99e5b41bf432ba01b334",
      "transactionIndex": "0xf",
      "blockHash": "0xc3b83be990367ea4aee2733a5071b9373233db085a3bd36452a25dcadf1a7f95",
      "blockNumber": "0x1ee5ce4",
      "gasUsed": "0x44812",
      "effectiveGasPrice": "0xf42bc",
      "from": "0x73d43dd9ac2c0fd004286f7a13f51bec163efb2c",
      "to": "0xb8c3b995e91e42b3fb0fe6f0ee6a9840515d3e90",
      "contractAddress": null,
      "l1BaseFeeScalar": "0x44d",
      "l1BlobBaseFee": "0x1",
      "l1BlobBaseFeeScalar": "0xa118b",
      "l1Fee": "0x64",
      "l1GasPrice": "0x8",
      "l1GasUsed": "0x7d8"
    },
    {
      "status": "0x1",
      "cumulativeGasUsed": "0xe356b1",
      "logs": [
        {
          "address": "0xb8c3b995e91e42b3fb0fe6f0ee6a9840515d3e90",
          "topics": [
            "0x5a5248d054573022847923c7aff5393f051da7c24370d3da722cef7afadaa980",
            "0x00000000000000000000000073d43dd9ac2c0fd004286f7a13f51bec163efb2c"
          ],
          "data": "0x0000000000000000000000000000000000000000000000000000000000000040000000000000000000000000000000000000000000000000000000000000008000000000000000000000000000000000000000000000000000000000000000105570646174656420537472617465677900000000000000000000000000000000000000000000000000000000000000000000000000000000000000000000001455706461746564206465736372697074696f6e2e000000000000000000000000",
          "blockHash": "0xc3b83be990367ea4aee2733a5071b9373233db085a3bd36452a25dcadf1a7f95",
          "blockNumber": "0x1ee5ce4",
          "blockTimestamp": "0x68f018a8",
          "transactionHash": "0x9adf4d74848e78be1b8e8ba7cce246b3652bb2a229ff158861f467cd298242b1",
          "transactionIndex": "0x10",
          "logIndex": "0x171",
          "removed": false
        }
      ],
      "logsBloom": "0x00000000000000000000000000000000000000000000000000000000000000000000000000000000000000000000000000000000000000000000000000000000000000000000000000000000000000000000000000000080000000000000000000000000000000000000000000000000000000000000000010001000000000000000000000000000000100000000000008000000000000000000000000002000000000000000000000000000000000100000000000000040000000000000000000000000000000000000000000000000000000000000000000000000000000000000000000000000000000000008000000000000000000000000000000000000",
      "type": "0x2",
      "transactionHash": "0x9adf4d74848e78be1b8e8ba7cce246b3652bb2a229ff158861f467cd298242b1",
      "transactionIndex": "0x10",
      "blockHash": "0xc3b83be990367ea4aee2733a5071b9373233db085a3bd36452a25dcadf1a7f95",
      "blockNumber": "0x1ee5ce4",
      "gasUsed": "0x9ae2",
      "effectiveGasPrice": "0xf42bc",
      "from": "0x73d43dd9ac2c0fd004286f7a13f51bec163efb2c",
      "to": "0xb8c3b995e91e42b3fb0fe6f0ee6a9840515d3e90",
      "contractAddress": null,
      "l1BaseFeeScalar": "0x44d",
      "l1BlobBaseFee": "0x1",
      "l1BlobBaseFeeScalar": "0xa118b",
      "l1Fee": "0x59",
      "l1GasPrice": "0x8",
      "l1GasUsed": "0x6f5"
    },
    {
      "status": "0x1",
      "cumulativeGasUsed": "0x135da",
      "logs": [
        {
          "address": "0xb8c3b995e91e42b3fb0fe6f0ee6a9840515d3e90",
          "topics": [
            "0x26d054e0e8857287b16c4219214d225a5fda1924b52253039bff4b7b26d830d0",
            "0x00000000000000000000000073d43dd9ac2c0fd004286f7a13f51bec163efb2c"
          ],
          "data": "0x",
          "blockHash": "0x96176b3f25fcc0ad8078f4b23df651ed92547bebca5c935d0d72e4d5962090d2",
          "blockNumber": "0x1ee5ce5",
          "blockTimestamp": "0x68f018aa",
          "transactionHash": "0x9f8fb1b1ebcd17bcb2728d1b978788369e91165e9e40a63d678ca151880e10bb",
          "transactionIndex": "0x1",
          "logIndex": "0x0",
          "removed": false
        }
      ],
      "logsBloom": "0x00000000000000000000000000000000000000000000000000000000000000000000000000000000000000000000000000000000000000000000000000000000000000000020000000000000000000000000000000000000000000000000000000000000000000000000000000000000000000000000000010001000000000000000000000000000000100000000000008000000000000000000000000000000000000000000000000000000000000000000000000000040000000000000000000000000000000000000000000000000000000001000000000000000000000000000000000000000000000000008000000000000080000000000000000000000",
      "type": "0x2",
      "transactionHash": "0x9f8fb1b1ebcd17bcb2728d1b978788369e91165e9e40a63d678ca151880e10bb",
      "transactionIndex": "0x1",
      "blockHash": "0x96176b3f25fcc0ad8078f4b23df651ed92547bebca5c935d0d72e4d5962090d2",
      "blockNumber": "0x1ee5ce5",
      "gasUsed": "0x6bea",
      "effectiveGasPrice": "0xf42bc",
      "from": "0x73d43dd9ac2c0fd004286f7a13f51bec163efb2c",
      "to": "0xb8c3b995e91e42b3fb0fe6f0ee6a9840515d3e90",
      "contractAddress": null,
      "l1BaseFeeScalar": "0x44d",
      "l1BlobBaseFee": "0x1",
      "l1BlobBaseFeeScalar": "0xa118b",
      "l1Fee": "0x50",
      "l1GasPrice": "0x8",
      "l1GasUsed": "0x640"
    },
    {
      "status": "0x1",
      "cumulativeGasUsed": "0x1f798",
      "logs": [
        {
          "address": "0xb8c3b995e91e42b3fb0fe6f0ee6a9840515d3e90",
          "topics": [
            "0x6de5969ea600bf6dfd17c1b1dcd5ef7bea84f201675f4c8a8bbc6a888880f7c5",
            "0x00000000000000000000000073d43dd9ac2c0fd004286f7a13f51bec163efb2c"
          ],
          "data": "0x",
          "blockHash": "0x96176b3f25fcc0ad8078f4b23df651ed92547bebca5c935d0d72e4d5962090d2",
          "blockNumber": "0x1ee5ce5",
          "blockTimestamp": "0x68f018aa",
          "transactionHash": "0xaff58ab2cc15f78394e8089996c9add0b650014f80c07d1a85b5614de7f54742",
          "transactionIndex": "0x2",
          "logIndex": "0x1",
          "removed": false
        }
      ],
      "logsBloom": "0x00000000000000000000000000000000000040000000000000000000000010000000000000000000000000000000000000000000000000000000000000000000000000000000000000000000000000000000000000000000000000000000000000000000000000000000000000000000000000000000000010001000000000000000000000000000000100000000000008000000000000000000000000000000000000000000000000000000000000000000000000000040000000000000000000000000000000000000000000000004000000000000000000000000000000000000000000000000000000000008000000000000000000000000000000000000",
      "type": "0x2",
      "transactionHash": "0xaff58ab2cc15f78394e8089996c9add0b650014f80c07d1a85b5614de7f54742",
      "transactionIndex": "0x2",
      "blockHash": "0x96176b3f25fcc0ad8078f4b23df651ed92547bebca5c935d0d72e4d5962090d2",
      "blockNumber": "0x1ee5ce5",
      "gasUsed": "0xc1be",
      "effectiveGasPrice": "0xf42bc",
      "from": "0x73d43dd9ac2c0fd004286f7a13f51bec163efb2c",
      "to": "0xb8c3b995e91e42b3fb0fe6f0ee6a9840515d3e90",
      "contractAddress": null,
      "l1BaseFeeScalar": "0x44d",
      "l1BlobBaseFee": "0x1",
      "l1BlobBaseFeeScalar": "0xa118b",
      "l1Fee": "0x50",
      "l1GasPrice": "0x8",
      "l1GasUsed": "0x640"
    }
  ],
  "libraries": [],
  "pending": [],
  "returns": {},
  "timestamp": 1760565418775,
  "chain": 84532,
  "commit": "22bec4d"
}