{
  "transactions": [
    {
      "hash": "0xdca890a71fb70939298488b2b9958e7911c35f1ade40d23441d3ea676e52eb99",
      "transactionType": "CALL",
      "contractName": null,
      "contractAddress": "0xb28049bea41b96b54a8da0ee47c8f7209e820150",
      "function": "updateStrategy(string,string)",
      "arguments": [
        "Updated Strategy",
        "Updated description."
      ],
      "transaction": {
        "from": "0x73d43dd9ac2c0fd004286f7a13f51bec163efb2c",
        "to": "0xb28049bea41b96b54a8da0ee47c8f7209e820150",
        "gas": "0xe283",
        "value": "0x0",
        "input": "0x2dc768980000000000000000000000000000000000000000000000000000000000000040000000000000000000000000000000000000000000000000000000000000008000000000000000000000000000000000000000000000000000000000000000105570646174656420537472617465677900000000000000000000000000000000000000000000000000000000000000000000000000000000000000000000001455706461746564206465736372697074696f6e2e000000000000000000000000",
        "nonce": "0x2fb",
        "chainId": "0x14a34"
      },
      "additionalContracts": [],
      "isFixedGasLimit": false
    },
    {
      "hash": "0x4772a2e9666ecc315fd210001e045a951110f6d5b5a7b7bb3fe195dd21764495",
      "transactionType": "CALL",
      "contractName": null,
      "contractAddress": "0xb28049bea41b96b54a8da0ee47c8f7209e820150",
      "function": "deactivateLeader(address)",
      "arguments": [
        "0x73D43dd9Ac2C0Fd004286F7a13F51bec163efB2C"
      ],
      "transaction": {
        "from": "0x73d43dd9ac2c0fd004286f7a13f51bec163efb2c",
        "to": "0xb28049bea41b96b54a8da0ee47c8f7209e820150",
        "gas": "0x9dd2",
        "value": "0x0",
        "input": "0x55a78e6e00000000000000000000000073d43dd9ac2c0fd004286f7a13f51bec163efb2c",
        "nonce": "0x2fc",
        "chainId": "0x14a34"
      },
      "additionalContracts": [],
      "isFixedGasLimit": false
    },
    {
      "hash": "0xd75d56884d6ba97dab73c4b7b3b1816a81b2384683becc7dae613bb47cf00d66",
      "transactionType": "CALL",
      "contractName": null,
      "contractAddress": "0xb28049bea41b96b54a8da0ee47c8f7209e820150",
      "function": "reactivateLeader(address)",
      "arguments": [
        "0x73D43dd9Ac2C0Fd004286F7a13F51bec163efB2C"
      ],
      "transaction": {
        "from": "0x73d43dd9ac2c0fd004286f7a13f51bec163efb2c",
        "to": "0xb28049bea41b96b54a8da0ee47c8f7209e820150",
        "gas": "0x10b9a",
        "value": "0x0",
        "input": "0x7a54d7bf00000000000000000000000073d43dd9ac2c0fd004286f7a13f51bec163efb2c",
        "nonce": "0x2fd",
        "chainId": "0x14a34"
      },
      "additionalContracts": [],
      "isFixedGasLimit": false
    }
  ],
  "receipts": [
    {
      "status": "0x1",
      "cumulativeGasUsed": "0x3975cb",
      "logs": [
        {
          "address": "0xb28049bea41b96b54a8da0ee47c8f7209e820150",
          "topics": [
            "0x5a5248d054573022847923c7aff5393f051da7c24370d3da722cef7afadaa980",
            "0x00000000000000000000000073d43dd9ac2c0fd004286f7a13f51bec163efb2c"
          ],
          "data": "0x0000000000000000000000000000000000000000000000000000000000000040000000000000000000000000000000000000000000000000000000000000008000000000000000000000000000000000000000000000000000000000000000105570646174656420537472617465677900000000000000000000000000000000000000000000000000000000000000000000000000000000000000000000001455706461746564206465736372697074696f6e2e000000000000000000000000",
          "blockHash": "0x68eeb7d0ba4acc0c512a589253470a8c5cab8d272e02473b181b3598b96ded70",
          "blockNumber": "0x1ee3f2c",
          "blockTimestamp": "0x68efdd38",
          "transactionHash": "0xdca890a71fb70939298488b2b9958e7911c35f1ade40d23441d3ea676e52eb99",
          "transactionIndex": "0x10",
          "logIndex": "0x8c",
          "removed": false
        }
      ],
      "logsBloom": "0x00100000000000000000000000000000000000000000000000000000000000008000000000000000000000000000000000000000000000000000000000000000000000000000000000000000000000000000000000000080000000000000000000000000000000000000000000000000000000000000000010000000000000000000000000000000000100000000000008000000000000000000000000002000000000000000000000000000000000100000000000000000000000000000000000000000000000000000000000000000000000000000000000000000000000080000000000000000000000000000000000000000000000000000000000000000",
      "type": "0x2",
      "transactionHash": "0xdca890a71fb70939298488b2b9958e7911c35f1ade40d23441d3ea676e52eb99",
      "transactionIndex": "0x10",
      "blockHash": "0x68eeb7d0ba4acc0c512a589253470a8c5cab8d272e02473b181b3598b96ded70",
      "blockNumber": "0x1ee3f2c",
      "gasUsed": "0x9ae2",
      "effectiveGasPrice": "0xf42b7",
      "from": "0x73d43dd9ac2c0fd004286f7a13f51bec163efb2c",
      "to": "0xb28049bea41b96b54a8da0ee47c8f7209e820150",
      "contractAddress": null,
      "l1BaseFeeScalar": "0x44d",
      "l1BlobBaseFee": "0x1",
      "l1BlobBaseFeeScalar": "0xa118b",
      "l1Fee": "0x5d",
      "l1GasPrice": "0xa",
      "l1GasUsed": "0x6f5"
    },
    {
      "status": "0x1",
      "cumulativeGasUsed": "0x39e1b5",
      "logs": [
        {
          "address": "0xb28049bea41b96b54a8da0ee47c8f7209e820150",
          "topics": [
            "0x26d054e0e8857287b16c4219214d225a5fda1924b52253039bff4b7b26d830d0",
            "0x00000000000000000000000073d43dd9ac2c0fd004286f7a13f51bec163efb2c"
          ],
          "data": "0x",
          "blockHash": "0xb6ad0bbc3174981fcff86b477c236035abf45a8d6d2c63fe03725ee5f692ec46",
          "blockNumber": "0x1ee3f2c",
          "blockTimestamp": "0x68efdd38",
          "transactionHash": "0x4772a2e9666ecc315fd210001e045a951110f6d5b5a7b7bb3fe195dd21764495",
          "transactionIndex": "0x11",
          "logIndex": "0x8d",
          "removed": false
        }
      ],
      "logsBloom": "0x00100000000000000000000000000000000000000000000000000000000000008000000000000000000000000000000000000000000000000000000000000000000000000020000000000000000000000000000000000000000000000000000000000000000000000000000000000000000000000000000010000000000000000000000000000000000100000000000008000000000000000000000000000000000000000000000000000000000000000000000000000000000000000000000000000000000000000000000000000000000000001000000000000000000000080000000000000000000000000000000000000000080000000000000000000000",
      "type": "0x2",
      "transactionHash": "0x4772a2e9666ecc315fd210001e045a951110f6d5b5a7b7bb3fe195dd21764495",
      "transactionIndex": "0x11",
      "blockHash": "0xb6ad0bbc3174981fcff86b477c236035abf45a8d6d2c63fe03725ee5f692ec46",
      "blockNumber": "0x1ee3f2c",
      "gasUsed": "0x6bea",
      "effectiveGasPrice": "0xf42b7",
      "from": "0x73d43dd9ac2c0fd004286f7a13f51bec163efb2c",
      "to": "0xb28049bea41b96b54a8da0ee47c8f7209e820150",
      "contractAddress": null,
      "l1BaseFeeScalar": "0x44d",
      "l1BlobBaseFee": "0x1",
      "l1BlobBaseFeeScalar": "0xa118b",
      "l1Fee": "0x53",
      "l1GasPrice": "0xa",
      "l1GasUsed": "0x640"
    },
    {
      "status": "0x1",
      "cumulativeGasUsed": "0x436337",
      "logs": [
        {
          "address": "0xb28049bea41b96b54a8da0ee47c8f7209e820150",
          "topics": [
            "0x6de5969ea600bf6dfd17c1b1dcd5ef7bea84f201675f4c8a8bbc6a888880f7c5",
            "0x00000000000000000000000073d43dd9ac2c0fd004286f7a13f51bec163efb2c"
          ],
          "data": "0x",
          "blockHash": "0x68eeb7d0ba4acc0c512a589253470a8c5cab8d272e02473b181b3598b96ded70",
          "blockNumber": "0x1ee3f2c",
          "blockTimestamp": "0x68efdd38",
          "transactionHash": "0xd75d56884d6ba97dab73c4b7b3b1816a81b2384683becc7dae613bb47cf00d66",
          "transactionIndex": "0x16",
          "logIndex": "0x94",
          "removed": false
        }
      ],
      "logsBloom": "0x00100000000000000000000000000000000040000000000000000000000010008000000000000000000000000000000000000000000000000000000000000000000000000000000000000000000000000000000000000000000000000000000000000000000000000000000000000000000000000000000010000000000000000000000000000000000100000000000008000000000000000000000000000000000000000000000000000000000000000000000000000000000000000000000000000000000000000000000000000004000000000000000000000000000000080000000000000000000000000000000000000000000000000000000000000000",
      "type": "0x2",
      "transactionHash": "0xd75d56884d6ba97dab73c4b7b3b1816a81b2384683becc7dae613bb47cf00d66",
      "transactionIndex": "0x16",
      "blockHash": "0x68eeb7d0ba4acc0c512a589253470a8c5cab8d272e02473b181b3598b96ded70",
      "blockNumber": "0x1ee3f2c",
      "gasUsed": "0xc1be",
      "effectiveGasPrice": "0xf42b7",
      "from": "0x73d43dd9ac2c0fd004286f7a13f51bec163efb2c",
      "to": "0xb28049bea41b96b54a8da0ee47c8f7209e820150",
      "contractAddress": null,
      "l1BaseFeeScalar": "0x44d",
      "l1BlobBaseFee": "0x1",
      "l1BlobBaseFeeScalar": "0xa118b",
      "l1Fee": "0x53",
      "l1GasPrice": "0xa",
      "l1GasUsed": "0x640"
    }
  ],
  "libraries": [],
  "pending": [],
  "returns": {},
  "timestamp": 1760550201586,
  "chain": 84532,
  "commit": null
}