{
  "transactions": [
    {
      "hash": "0x683c6d14f93fbaf6b8d1f4b0081a75c4a9571c577c6351f893e7ebc47b981340",
      "transactionType": "CALL",
      "contractName": null,
      "contractAddress": "0xe73eb839a848237e53988f0d74b069763ac38fe3",
      "function": "submitHistoricalPositions((address,address,uint256,uint256,uint256,int256,bool)[])",
      "arguments": [
        "[(0x0000000000000000000000000000000000000001, 0x0000000000000000000000000000000000000002, 1759740184, 1759826584, 1000000000000000000000, 100000000000000000000, true), (0x0000000000000000000000000000000000000001, 0x0000000000000000000000000000000000000002, 1759653784, 1759740184, 1000000000000000000000, 100000000000000000000, true), (0x0000000000000000000000000000000000000001, 0x0000000000000000000000000000000000000002, 1759567384, 1759653784, 1000000000000000000000, 100000000000000000000, true), (0x0000000000000000000000000000000000000001, 0x0000000000000000000000000000000000000002, 1759480984, 1759567384, 1000000000000000000000, 100000000000000000000, true), (0x0000000000000000000000000000000000000001, 0x0000000000000000000000000000000000000002, 1759394584, 1759480984, 1000000000000000000000, 100000000000000000000, true)]"
      ],
      "transaction": {
        "from": "0x73d43dd9ac2c0fd004286f7a13f51bec163efb2c",
        "to": "0xe73eb839a848237e53988f0d74b069763ac38fe3",
        "gas": "0x11bf0e",
        "value": "0x0",
        "input": "0xc319e86400000000000000000000000000000000000000000000000000000000000000200000000000000000000000000000000000000000000000000000000000000005000000000000000000000000000000000000000000000000000000000000000100000000000000000000000000000000000000000000000000000000000000020000000000000000000000000000000000000000000000000000000068e381180000000000000000000000000000000000000000000000000000000068e4d29800000000000000000000000000000000000000000000003635c9adc5dea000000000000000000000000000000000000000000000000000056bc75e2d631000000000000000000000000000000000000000000000000000000000000000000001000000000000000000000000000000000000000000000000000000000000000100000000000000000000000000000000000000000000000000000000000000020000000000000000000000000000000000000000000000000000000068e22f980000000000000000000000000000000000000000000000000000000068e3811800000000000000000000000000000000000000000000003635c9adc5dea000000000000000000000000000000000000000000000000000056bc75e2d631000000000000000000000000000000000000000000000000000000000000000000001000000000000000000000000000000000000000000000000000000000000000100000000000000000000000000000000000000000000000000000000000000020000000000000000000000000000000000000000000000000000000068e0de180000000000000000000000000000000000000000000000000000000068e22f9800000000000000000000000000000000000000000000003635c9adc5dea000000000000000000000000000000000000000000000000000056bc75e2d631000000000000000000000000000000000000000000000000000000000000000000001000000000000000000000000000000000000000000000000000000000000000100000000000000000000000000000000000000000000000000000000000000020000000000000000000000000000000000000000000000000000000068df8c980000000000000000000000000000000000000000000000000000000068e0de1800000000000000000000000000000000000000000000003635c9adc5dea000000000000000000000000000000000000000000000000000056bc75e2d631000000000000000000000000000000000000000000000000000000000000000000001000000000000000000000000000000000000000000000000000000000000000100000000000000000000000000000000000000000000000000000000000000020000000000000000000000000000000000000000000000000000000068de3b180000000000000000000000000000000000000000000000000000000068df8c9800000000000000000000000000000000000000000000003635c9adc5dea000000000000000000000000000000000000000000000000000056bc75e2d631000000000000000000000000000000000000000000000000000000000000000000001",
        "nonce": "0x366",
        "chainId": "0x14a34"
      },
      "additionalContracts": [],
      "isFixedGasLimit": false
    },
    {
      "hash": "0xbe89f023db4287dd5d53d6717d5407cce3faf4b811bf6d43d5104bb9cc9b7494",
      "transactionType": "CALL",
      "contractName": null,
      "contractAddress": "0xe73eb839a848237e53988f0d74b069763ac38fe3",
      "function": "registerAsLeader(string,string,uint16)",
      "arguments": [
        "Test Strategy",
        "A test strategy for registration.",
        "1000"
      ],
      "transaction": {
        "from": "0x73d43dd9ac2c0fd004286f7a13f51bec163efb2c",
        "to": "0xe73eb839a848237e53988f0d74b069763ac38fe3",
        "gas": "0x64300",
        "value": "0x0",
        "input": "0x3dc0f16f000000000000000000000000000000000000000000000000000000000000006000000000000000000000000000000000000000000000000000000000000000a000000000000000000000000000000000000000000000000000000000000003e8000000000000000000000000000000000000000000000000000000000000000d5465737420537472617465677900000000000000000000000000000000000000000000000000000000000000000000000000000000000000000000000000002141207465737420737472617465677920666f7220726567697374726174696f6e2e00000000000000000000000000000000000000000000000000000000000000",
        "nonce": "0x367",
        "chainId": "0x14a34"
      },
      "additionalContracts": [],
      "isFixedGasLimit": false
    },
    {
      "hash": "0x94978b5cbdd713a7c8afd7fbd84f54375e7e69a56f22ea91f01cc51a927adf6e",
      "transactionType": "CALL",
      "contractName": null,
      "contractAddress": "0xe73eb839a848237e53988f0d74b069763ac38fe3",
      "function": "updateStrategy(string,string)",
      "arguments": [
        "Updated Strategy",
        "Updated description."
      ],
      "transaction": {
        "from": "0x73d43dd9ac2c0fd004286f7a13f51bec163efb2c",
        "to": "0xe73eb839a848237e53988f0d74b069763ac38fe3",
        "gas": "0xe283",
        "value": "0x0",
        "input": "0x2dc768980000000000000000000000000000000000000000000000000000000000000040000000000000000000000000000000000000000000000000000000000000008000000000000000000000000000000000000000000000000000000000000000105570646174656420537472617465677900000000000000000000000000000000000000000000000000000000000000000000000000000000000000000000001455706461746564206465736372697074696f6e2e000000000000000000000000",
        "nonce": "0x368",
        "chainId": "0x14a34"
      },
      "additionalContracts": [],
      "isFixedGasLimit": false
    },
    {
      "hash": "0xfb15b4d9b598cf0247e0c2967c9642c805b632973c3abcd914e2f8134131a98f",
      "transactionType": "CALL",
      "contractName": null,
      "contractAddress": "0xe73eb839a848237e53988f0d74b069763ac38fe3",
      "function": "deactivateLeader(address)",
      "arguments": [
        "0x73D43dd9Ac2C0Fd004286F7a13F51bec163efB2C"
      ],
      "transaction": {
        "from": "0x73d43dd9ac2c0fd004286f7a13f51bec163efb2c",
        "to": "0xe73eb839a848237e53988f0d74b069763ac38fe3",
        "gas": "0x9dd2",
        "value": "0x0",
        "input": "0x55a78e6e00000000000000000000000073d43dd9ac2c0fd004286f7a13f51bec163efb2c",
        "nonce": "0x369",
        "chainId": "0x14a34"
      },
      "additionalContracts": [],
      "isFixedGasLimit": false
    },
    {
      "hash": "0x0fd69b36ee20b6237161390524bfca15b5df1dfb707e2278ddda180a6efc7ac0",
      "transactionType": "CALL",
      "contractName": null,
      "contractAddress": "0xe73eb839a848237e53988f0d74b069763ac38fe3",
      "function": "reactivateLeader(address)",
      "arguments": [
        "0x73D43dd9Ac2C0Fd004286F7a13F51bec163efB2C"
      ],
      "transaction": {
        "from": "0x73d43dd9ac2c0fd004286f7a13f51bec163efb2c",
        "to": "0xe73eb839a848237e53988f0d74b069763ac38fe3",
        "gas": "0x10bb9",
        "value": "0x0",
        "input": "0x7a54d7bf00000000000000000000000073d43dd9ac2c0fd004286f7a13f51bec163efb2c",
        "nonce": "0x36a",
        "chainId": "0x14a34"
      },
      "additionalContracts": [],
      "isFixedGasLimit": false
    }
  ],
  "receipts": [
    {
      "status": "0x1",
      "cumulativeGasUsed": "0x275eb2",
      "logs": [
        {
          "address": "0xe73eb839a848237e53988f0d74b069763ac38fe3",
          "topics": [
            "0x0eaafde5ebec39b0111c5c7d6d1fcecac398382ff423cbaaf8ea499d21066d5a",
            "0x00000000000000000000000073d43dd9ac2c0fd004286f7a13f51bec163efb2c"
          ],
          "data": "0x0000000000000000000000000000000000000000000000000000000000000001",
          "blockHash": "0x3b4f6b5e298873f880079eef95e7d096fc7a44d952d44f063e4705eade4118af",
          "blockNumber": "0x1eea8a8",
          "blockTimestamp": "0x68f0b030",
          "transactionHash": "0x683c6d14f93fbaf6b8d1f4b0081a75c4a9571c577c6351f893e7ebc47b981340",
          "transactionIndex": "0xa",
          "logIndex": "0x3e",
          "removed": false
        },
        {
          "address": "0xe73eb839a848237e53988f0d74b069763ac38fe3",
          "topics": [
            "0x0eaafde5ebec39b0111c5c7d6d1fcecac398382ff423cbaaf8ea499d21066d5a",
            "0x00000000000000000000000073d43dd9ac2c0fd004286f7a13f51bec163efb2c"
          ],
          "data": "0x0000000000000000000000000000000000000000000000000000000000000001",
          "blockHash": "0x3b4f6b5e298873f880079eef95e7d096fc7a44d952d44f063e4705eade4118af",
          "blockNumber": "0x1eea8a8",
          "blockTimestamp": "0x68f0b030",
          "transactionHash": "0x683c6d14f93fbaf6b8d1f4b0081a75c4a9571c577c6351f893e7ebc47b981340",
          "transactionIndex": "0xa",
          "logIndex": "0x3f",
          "removed": false
        },
        {
          "address": "0xe73eb839a848237e53988f0d74b069763ac38fe3",
          "topics": [
            "0x0eaafde5ebec39b0111c5c7d6d1fcecac398382ff423cbaaf8ea499d21066d5a",
            "0x00000000000000000000000073d43dd9ac2c0fd004286f7a13f51bec163efb2c"
          ],
          "data": "0x0000000000000000000000000000000000000000000000000000000000000001",
          "blockHash": "0x3b4f6b5e298873f880079eef95e7d096fc7a44d952d44f063e4705eade4118af",
          "blockNumber": "0x1eea8a8",
          "blockTimestamp": "0x68f0b030",
          "transactionHash": "0x683c6d14f93fbaf6b8d1f4b0081a75c4a9571c577c6351f893e7ebc47b981340",
          "transactionIndex": "0xa",
          "logIndex": "0x40",
          "removed": false
        },
        {
          "address": "0xe73eb839a848237e53988f0d74b069763ac38fe3",
          "topics": [
            "0x0eaafde5ebec39b0111c5c7d6d1fcecac398382ff423cbaaf8ea499d21066d5a",
            "0x00000000000000000000000073d43dd9ac2c0fd004286f7a13f51bec163efb2c"
          ],
          "data": "0x0000000000000000000000000000000000000000000000000000000000000001",
          "blockHash": "0x3b4f6b5e298873f880079eef95e7d096fc7a44d952d44f063e4705eade4118af",
          "blockNumber": "0x1eea8a8",
          "blockTimestamp": "0x68f0b030",
          "transactionHash": "0x683c6d14f93fbaf6b8d1f4b0081a75c4a9571c577c6351f893e7ebc47b981340",
          "transactionIndex": "0xa",
          "logIndex": "0x41",
          "removed": false
        },
        {
          "address": "0xe73eb839a848237e53988f0d74b069763ac38fe3",
          "topics": [
            "0x0eaafde5ebec39b0111c5c7d6d1fcecac398382ff423cbaaf8ea499d21066d5a",
            "0x00000000000000000000000073d43dd9ac2c0fd004286f7a13f51bec163efb2c"
          ],
          "data": "0x0000000000000000000000000000000000000000000000000000000000000001",
          "blockHash": "0x3b4f6b5e298873f880079eef95e7d096fc7a44d952d44f063e4705eade4118af",
          "blockNumber": "0x1eea8a8",
          "blockTimestamp": "0x68f0b030",
          "transactionHash": "0x683c6d14f93fbaf6b8d1f4b0081a75c4a9571c577c6351f893e7ebc47b981340",
          "transactionIndex": "0xa",
          "logIndex": "0x42",
          "removed": false
        }
      ],
      "logsBloom": "0x00000000000000000000000000000000000000000000000000000000000000000000000040000000000000000000000000000000000000000000000000000100000000000000000000000000000000000000000000000000000000000000000000000000000000000000000000000000000000000000000018000000000000000000000000000000000100000000000008000000000000000000000000000000000000000000000000000000000000000000000000000000000000000000000000000000000000000000000400000000000002000000000000000000000000000000000000000800000000000000000000000000000000000000000000000000",
      "type": "0x2",
      "transactionHash": "0x683c6d14f93fbaf6b8d1f4b0081a75c4a9571c577c6351f893e7ebc47b981340",
      "transactionIndex": "0xa",
      "blockHash": "0x3b4f6b5e298873f880079eef95e7d096fc7a44d952d44f063e4705eade4118af",
      "blockNumber": "0x1eea8a8",
      "gasUsed": "0xcd918",
      "effectiveGasPrice": "0x437eeb",
      "from": "0x73d43dd9ac2c0fd004286f7a13f51bec163efb2c",
      "to": "0xe73eb839a848237e53988f0d74b069763ac38fe3",
      "contractAddress": null,
      "l1BaseFeeScalar": "0x44d",
      "l1BlobBaseFee": "0x1",
      "l1BlobBaseFeeScalar": "0xa118b",
      "l1Fee": "0x53",
      "l1GasPrice": "0xa",
      "l1GasUsed": "0xafb"
    },
    {
      "status": "0x1",
      "cumulativeGasUsed": "0x2ba6c4",
      "logs": [
        {
          "address": "0xe73eb839a848237e53988f0d74b069763ac38fe3",
          "topics": [
            "0xdbd939f05a8bb6d12c02e60cc29d73fffd1263d3c03d1536f6dad0775c9209db",
            "0x00000000000000000000000073d43dd9ac2c0fd004286f7a13f51bec163efb2c"
          ],
          "data": "0x000000000000000000000000000000000000000000000000000000000000004000000000000000000000000000000000000000000000000000000000000003e8000000000000000000000000000000000000000000000000000000000000000d5465737420537472617465677900000000000000000000000000000000000000",
          "blockHash": "0x3b4f6b5e298873f880079eef95e7d096fc7a44d952d44f063e4705eade4118af",
          "blockNumber": "0x1eea8a8",
          "blockTimestamp": "0x68f0b030",
          "transactionHash": "0xbe89f023db4287dd5d53d6717d5407cce3faf4b811bf6d43d5104bb9cc9b7494",
          "transactionIndex": "0xb",
          "logIndex": "0x43",
          "removed": false
        }
      ],
      "logsBloom": "0x00000000000000000000000000000000000000000000000000000000000000000000000040000000000000000000000000000000000000000000000000000100000000000000000000000000000001000000000000000000000000000000000000000000000000000000000000000000000000000000000010000000000000000000000000000000000100000000000008000000000000000000000000000000000000000000000000000000000000000000000020000000000000000000000000000000000000000000000400000000000000000000000000000000000000000000000000000200000000000000000000000000000000000000000000000000",
      "type": "0x2",
      "transactionHash": "0xbe89f023db4287dd5d53d6717d5407cce3faf4b811bf6d43d5104bb9cc9b7494",
      "transactionIndex": "0xb",
      "blockHash": "0x3b4f6b5e298873f880079eef95e7d096fc7a44d952d44f063e4705eade4118af",
      "blockNumber": "0x1eea8a8",
      "gasUsed": "0x44812",
      "effectiveGasPrice": "0x437eeb",
      "from": "0x73d43dd9ac2c0fd004286f7a13f51bec163efb2c",
      "to": "0xe73eb839a848237e53988f0d74b069763ac38fe3",
      "contractAddress": null,
      "l1BaseFeeScalar": "0x44d",
      "l1BlobBaseFee": "0x1",
      "l1BlobBaseFeeScalar": "0xa118b",
      "l1Fee": "0x53",
      "l1GasPrice": "0xa",
      "l1GasUsed": "0x7d8"
    },
    {
      "status": "0x1",
      "cumulativeGasUsed": "0x2c41a6",
      "logs": [
        {
          "address": "0xe73eb839a848237e53988f0d74b069763ac38fe3",
          "topics": [
            "0x5a5248d054573022847923c7aff5393f051da7c24370d3da722cef7afadaa980",
            "0x00000000000000000000000073d43dd9ac2c0fd004286f7a13f51bec163efb2c"
          ],
          "data": "0x0000000000000000000000000000000000000000000000000000000000000040000000000000000000000000000000000000000000000000000000000000008000000000000000000000000000000000000000000000000000000000000000105570646174656420537472617465677900000000000000000000000000000000000000000000000000000000000000000000000000000000000000000000001455706461746564206465736372697074696f6e2e000000000000000000000000",
          "blockHash": "0x3b4f6b5e298873f880079eef95e7d096fc7a44d952d44f063e4705eade4118af",
          "blockNumber": "0x1eea8a8",
          "blockTimestamp": "0x68f0b030",
          "transactionHash": "0x94978b5cbdd713a7c8afd7fbd84f54375e7e69a56f22ea91f01cc51a927adf6e",
          "transactionIndex": "0xc",
          "logIndex": "0x44",
          "removed": false
        }
      ],
      "logsBloom": "0x00000000000000000000000000000000000000000000000000000000000000000000000040000000000000000000000000000000000000000000000000000100000000000000000000000000000000000000000000000080000000000000000000000000000000000000000000000000000000000000000010000000000000000000000000000000000100000000000008000000000000000000000000002000000000000000000000000000000000100000000000000000000000000000000000000000000000000000000400000000000000000000000000000000000000000000000000000000000000000000000000000000000000000000000000000000",
      "type": "0x2",
      "transactionHash": "0x94978b5cbdd713a7c8afd7fbd84f54375e7e69a56f22ea91f01cc51a927adf6e",
      "transactionIndex": "0xc",
      "blockHash": "0x3b4f6b5e298873f880079eef95e7d096fc7a44d952d44f063e4705eade4118af",
      "blockNumber": "0x1eea8a8",
      "gasUsed": "0x9ae2",
      "effectiveGasPrice": "0x437eeb",
      "from": "0x73d43dd9ac2c0fd004286f7a13f51bec163efb2c",
      "to": "0xe73eb839a848237e53988f0d74b069763ac38fe3",
      "contractAddress": null,
      "l1BaseFeeScalar": "0x44d",
      "l1BlobBaseFee": "0x1",
      "l1BlobBaseFeeScalar": "0xa118b",
      "l1Fee": "0x53",
      "l1GasPrice": "0xa",
      "l1GasUsed": "0x6f5"
    },
    {
      "status": "0x1",
      "cumulativeGasUsed": "0x2cad90",
      "logs": [
        {
          "address": "0xe73eb839a848237e53988f0d74b069763ac38fe3",
          "topics": [
            "0x26d054e0e8857287b16c4219214d225a5fda1924b52253039bff4b7b26d830d0",
            "0x00000000000000000000000073d43dd9ac2c0fd004286f7a13f51bec163efb2c"
          ],
          "data": "0x",
          "blockHash": "0x3b4f6b5e298873f880079eef95e7d096fc7a44d952d44f063e4705eade4118af",
          "blockNumber": "0x1eea8a8",
          "blockTimestamp": "0x68f0b030",
          "transactionHash": "0xfb15b4d9b598cf0247e0c2967c9642c805b632973c3abcd914e2f8134131a98f",
          "transactionIndex": "0xd",
          "logIndex": "0x45",
          "removed": false
        }
      ],
      "logsBloom": "0x00000000000000000000000000000000000000000000000000000000000000000000000040000000000000000000000000000000000000000000000000000100000000000020000000000000000000000000000000000000000000000000000000000000000000000000000000000000000000000000000010000000000000000000000000000000000100000000000008000000000000000000000000000000000000000000000000000000000000000000000000000000000000000000000000000000000000000000000400000000000000001000000000000000000000000000000000000000000000000000000000000000080000000000000000000000",
      "type": "0x2",
      "transactionHash": "0xfb15b4d9b598cf0247e0c2967c9642c805b632973c3abcd914e2f8134131a98f",
      "transactionIndex": "0xd",
      "blockHash": "0x3b4f6b5e298873f880079eef95e7d096fc7a44d952d44f063e4705eade4118af",
      "blockNumber": "0x1eea8a8",
      "gasUsed": "0x6bea",
      "effectiveGasPrice": "0x437eeb",
      "from": "0x73d43dd9ac2c0fd004286f7a13f51bec163efb2c",
      "to": "0xe73eb839a848237e53988f0d74b069763ac38fe3",
      "contractAddress": null,
      "l1BaseFeeScalar": "0x44d",
      "l1BlobBaseFee": "0x1",
      "l1BlobBaseFeeScalar": "0xa118b",
      "l1Fee": "0x53",
      "l1GasPrice": "0xa",
      "l1GasUsed": "0x640"
    },
    {
      "status": "0x1",
      "cumulativeGasUsed": "0x2d6f64",
      "logs": [
        {
          "address": "0xe73eb839a848237e53988f0d74b069763ac38fe3",
          "topics": [
            "0x6de5969ea600bf6dfd17c1b1dcd5ef7bea84f201675f4c8a8bbc6a888880f7c5",
            "0x00000000000000000000000073d43dd9ac2c0fd004286f7a13f51bec163efb2c"
          ],
          "data": "0x",
          "blockHash": "0x3b4f6b5e298873f880079eef95e7d096fc7a44d952d44f063e4705eade4118af",
          "blockNumber": "0x1eea8a8",
          "blockTimestamp": "0x68f0b030",
          "transactionHash": "0x0fd69b36ee20b6237161390524bfca15b5df1dfb707e2278ddda180a6efc7ac0",
          "transactionIndex": "0xe",
          "logIndex": "0x46",
          "removed": false
        }
      ],
      "logsBloom": "0x00000000000000000000000000000000000040000000000000000000000010000000000040000000000000000000000000000000000000000000000000000100000000000000000000000000000000000000000000000000000000000000000000000000000000000000000000000000000000000000000010000000000000000000000000000000000100000000000008000000000000000000000000000000000000000000000000000000000000000000000000000000000000000000000000000000000000000000000400000004000000000000000000000000000000000000000000000000000000000000000000000000000000000000000000000000",
      "type": "0x2",
      "transactionHash": "0x0fd69b36ee20b6237161390524bfca15b5df1dfb707e2278ddda180a6efc7ac0",
      "transactionIndex": "0xe",
      "blockHash": "0x3b4f6b5e298873f880079eef95e7d096fc7a44d952d44f063e4705eade4118af",
      "blockNumber": "0x1eea8a8",
      "gasUsed": "0xc1d4",
      "effectiveGasPrice": "0x437eeb",
      "from": "0x73d43dd9ac2c0fd004286f7a13f51bec163efb2c",
      "to": "0xe73eb839a848237e53988f0d74b069763ac38fe3",
      "contractAddress": null,
      "l1BaseFeeScalar": "0x44d",
      "l1BlobBaseFee": "0x1",
      "l1BlobBaseFeeScalar": "0xa118b",
      "l1Fee": "0x53",
      "l1GasPrice": "0xa",
      "l1GasUsed": "0x640"
    }
  ],
  "libraries": [],
  "pending": [],
  "returns": {},
  "timestamp": 1760604206941,
  "chain": 84532,
  "commit": "9eab8ae"
}