{
  "transactions": [
    {
      "hash": "0xaa3e7b09054d75feaca8dbf879d7adb88e2ca9b5a284bbf7557c0e476e3a2118",
      "transactionType": "CALL",
      "contractName": null,
      "contractAddress": "0x9ddf0eb842c45e3dfa15d9270a086bcd41a8c8c9",
      "function": "submitHistoricalPositions((address,address,uint256,uint256,uint256,int256,bool)[])",
      "arguments": [
        "[(0x0000000000000000000000000000000000000001, 0x0000000000000000000000000000000000000002, 1759700134, 1759786534, 1000000000000000000000, 100000000000000000000, true), (0x0000000000000000000000000000000000000001, 0x0000000000000000000000000000000000000002, 1759613734, 1759700134, 1000000000000000000000, 100000000000000000000, true), (0x0000000000000000000000000000000000000001, 0x0000000000000000000000000000000000000002, 1759527334, 1759613734, 1000000000000000000000, 100000000000000000000, true), (0x0000000000000000000000000000000000000001, 0x0000000000000000000000000000000000000002, 1759440934, 1759527334, 1000000000000000000000, 100000000000000000000, true), (0x0000000000000000000000000000000000000001, 0x0000000000000000000000000000000000000002, 1759354534, 1759440934, 1000000000000000000000, 100000000000000000000, true)]"
      ],
      "transaction": {
        "from": "0x73d43dd9ac2c0fd004286f7a13f51bec163efb2c",
        "to": "0x9ddf0eb842c45e3dfa15d9270a086bcd41a8c8c9",
        "gas": "0x11beb3",
        "value": "0x0",
        "input": "0xc319e86400000000000000000000000000000000000000000000000000000000000000200000000000000000000000000000000000000000000000000000000000000005000000000000000000000000000000000000000000000000000000000000000100000000000000000000000000000000000000000000000000000000000000020000000000000000000000000000000000000000000000000000000068e2e4a60000000000000000000000000000000000000000000000000000000068e4362600000000000000000000000000000000000000000000003635c9adc5dea000000000000000000000000000000000000000000000000000056bc75e2d631000000000000000000000000000000000000000000000000000000000000000000001000000000000000000000000000000000000000000000000000000000000000100000000000000000000000000000000000000000000000000000000000000020000000000000000000000000000000000000000000000000000000068e193260000000000000000000000000000000000000000000000000000000068e2e4a600000000000000000000000000000000000000000000003635c9adc5dea000000000000000000000000000000000000000000000000000056bc75e2d631000000000000000000000000000000000000000000000000000000000000000000001000000000000000000000000000000000000000000000000000000000000000100000000000000000000000000000000000000000000000000000000000000020000000000000000000000000000000000000000000000000000000068e041a60000000000000000000000000000000000000000000000000000000068e1932600000000000000000000000000000000000000000000003635c9adc5dea000000000000000000000000000000000000000000000000000056bc75e2d631000000000000000000000000000000000000000000000000000000000000000000001000000000000000000000000000000000000000000000000000000000000000100000000000000000000000000000000000000000000000000000000000000020000000000000000000000000000000000000000000000000000000068def0260000000000000000000000000000000000000000000000000000000068e041a600000000000000000000000000000000000000000000003635c9adc5dea000000000000000000000000000000000000000000000000000056bc75e2d631000000000000000000000000000000000000000000000000000000000000000000001000000000000000000000000000000000000000000000000000000000000000100000000000000000000000000000000000000000000000000000000000000020000000000000000000000000000000000000000000000000000000068dd9ea60000000000000000000000000000000000000000000000000000000068def02600000000000000000000000000000000000000000000003635c9adc5dea000000000000000000000000000000000000000000000000000056bc75e2d631000000000000000000000000000000000000000000000000000000000000000000001",
        "nonce": "0x329",
        "chainId": "0x14a34"
      },
      "additionalContracts": [],
      "isFixedGasLimit": false
    },
    {
      "hash": "0xf66145209aad854495a30594a0ab00960b4e9737aae76972db7358d4aacbf987",
      "transactionType": "CALL",
      "contractName": null,
      "contractAddress": "0x9ddf0eb842c45e3dfa15d9270a086bcd41a8c8c9",
      "function": "registerAsLeader(string,string,uint16)",
      "arguments": [
        "Test Strategy",
        "A test strategy for registration.",
        "1000"
      ],
      "transaction": {
        "from": "0x73d43dd9ac2c0fd004286f7a13f51bec163efb2c",
        "to": "0x9ddf0eb842c45e3dfa15d9270a086bcd41a8c8c9",
        "gas": "0x64300",
        "value": "0x0",
        "input": "0x3dc0f16f000000000000000000000000000000000000000000000000000000000000006000000000000000000000000000000000000000000000000000000000000000a000000000000000000000000000000000000000000000000000000000000003e8000000000000000000000000000000000000000000000000000000000000000d5465737420537472617465677900000000000000000000000000000000000000000000000000000000000000000000000000000000000000000000000000002141207465737420737472617465677920666f7220726567697374726174696f6e2e00000000000000000000000000000000000000000000000000000000000000",
        "nonce": "0x32a",
        "chainId": "0x14a34"
      },
      "additionalContracts": [],
      "isFixedGasLimit": false
    },
    {
      "hash": "0x02cafd95f1721346ba77107de01a84ba52873a80b385e5c081e2eba40550a1d3",
      "transactionType": "CALL",
      "contractName": null,
      "contractAddress": "0x9ddf0eb842c45e3dfa15d9270a086bcd41a8c8c9",
      "function": "updateStrategy(string,string)",
      "arguments": [
        "Updated Strategy",
        "Updated description."
      ],
      "transaction": {
        "from": "0x73d43dd9ac2c0fd004286f7a13f51bec163efb2c",
        "to": "0x9ddf0eb842c45e3dfa15d9270a086bcd41a8c8c9",
        "gas": "0xe283",
        "value": "0x0",
        "input": "0x2dc768980000000000000000000000000000000000000000000000000000000000000040000000000000000000000000000000000000000000000000000000000000008000000000000000000000000000000000000000000000000000000000000000105570646174656420537472617465677900000000000000000000000000000000000000000000000000000000000000000000000000000000000000000000001455706461746564206465736372697074696f6e2e000000000000000000000000",
        "nonce": "0x32b",
        "chainId": "0x14a34"
      },
      "additionalContracts": [],
      "isFixedGasLimit": false
    },
    {
      "hash": "0xd5e738e3c8c48e359a766d2af09e5bd8c0aef47b60cc791c6961285e81bd5074",
      "transactionType": "CALL",
      "contractName": null,
      "contractAddress": "0x9ddf0eb842c45e3dfa15d9270a086bcd41a8c8c9",
      "function": "deactivateLeader(address)",
      "arguments": [
        "0x73D43dd9Ac2C0Fd004286F7a13F51bec163efB2C"
      ],
      "transaction": {
        "from": "0x73d43dd9ac2c0fd004286f7a13f51bec163efb2c",
        "to": "0x9ddf0eb842c45e3dfa15d9270a086bcd41a8c8c9",
        "gas": "0x9dd2",
        "value": "0x0",
        "input": "0x55a78e6e00000000000000000000000073d43dd9ac2c0fd004286f7a13f51bec163efb2c",
        "nonce": "0x32c",
        "chainId": "0x14a34"
      },
      "additionalContracts": [],
      "isFixedGasLimit": false
    },
    {
      "hash": "0x012a3f14ee1f3bdf17030ea317651b1cfca18bfcb92e8d026a53d8389acc257c",
      "transactionType": "CALL",
      "contractName": null,
      "contractAddress": "0x9ddf0eb842c45e3dfa15d9270a086bcd41a8c8c9",
      "function": "reactivateLeader(address)",
      "arguments": [
        "0x73D43dd9Ac2C0Fd004286F7a13F51bec163efB2C"
      ],
      "transaction": {
        "from": "0x73d43dd9ac2c0fd004286f7a13f51bec163efb2c",
        "to": "0x9ddf0eb842c45e3dfa15d9270a086bcd41a8c8c9",
        "gas": "0x10b9a",
        "value": "0x0",
        "input": "0x7a54d7bf00000000000000000000000073d43dd9ac2c0fd004286f7a13f51bec163efb2c",
        "nonce": "0x32d",
        "chainId": "0x14a34"
      },
      "additionalContracts": [],
      "isFixedGasLimit": false
    }
  ],
  "receipts": [
    {
      "status": "0x1",
      "cumulativeGasUsed": "0x3c97ba",
      "logs": [
        {
          "address": "0x9ddf0eb842c45e3dfa15d9270a086bcd41a8c8c9",
          "topics": [
            "0x0eaafde5ebec39b0111c5c7d6d1fcecac398382ff423cbaaf8ea499d21066d5a",
            "0x00000000000000000000000073d43dd9ac2c0fd004286f7a13f51bec163efb2c"
          ],
          "data": "0x0000000000000000000000000000000000000000000000000000000000000001",
          "blockHash": "0xd03a9d9954131606d2211bfc22646d3d37742955dd24e6018cc1b9e75af61fac",
          "blockNumber": "0x1ee5a6d",
          "blockTimestamp": "0x68f013ba",
          "transactionHash": "0xaa3e7b09054d75feaca8dbf879d7adb88e2ca9b5a284bbf7557c0e476e3a2118",
          "transactionIndex": "0x9",
          "logIndex": "0x5f",
          "removed": false
        },
        {
          "address": "0x9ddf0eb842c45e3dfa15d9270a086bcd41a8c8c9",
          "topics": [
            "0x0eaafde5ebec39b0111c5c7d6d1fcecac398382ff423cbaaf8ea499d21066d5a",
            "0x00000000000000000000000073d43dd9ac2c0fd004286f7a13f51bec163efb2c"
          ],
          "data": "0x0000000000000000000000000000000000000000000000000000000000000001",
          "blockHash": "0xd03a9d9954131606d2211bfc22646d3d37742955dd24e6018cc1b9e75af61fac",
          "blockNumber": "0x1ee5a6d",
          "blockTimestamp": "0x68f013ba",
          "transactionHash": "0xaa3e7b09054d75feaca8dbf879d7adb88e2ca9b5a284bbf7557c0e476e3a2118",
          "transactionIndex": "0x9",
          "logIndex": "0x60",
          "removed": false
        },
        {
          "address": "0x9ddf0eb842c45e3dfa15d9270a086bcd41a8c8c9",
          "topics": [
            "0x0eaafde5ebec39b0111c5c7d6d1fcecac398382ff423cbaaf8ea499d21066d5a",
            "0x00000000000000000000000073d43dd9ac2c0fd004286f7a13f51bec163efb2c"
          ],
          "data": "0x0000000000000000000000000000000000000000000000000000000000000001",
          "blockHash": "0xd03a9d9954131606d2211bfc22646d3d37742955dd24e6018cc1b9e75af61fac",
          "blockNumber": "0x1ee5a6d",
          "blockTimestamp": "0x68f013ba",
          "transactionHash": "0xaa3e7b09054d75feaca8dbf879d7adb88e2ca9b5a284bbf7557c0e476e3a2118",
          "transactionIndex": "0x9",
          "logIndex": "0x61",
          "removed": false
        },
        {
          "address": "0x9ddf0eb842c45e3dfa15d9270a086bcd41a8c8c9",
          "topics": [
            "0x0eaafde5ebec39b0111c5c7d6d1fcecac398382ff423cbaaf8ea499d21066d5a",
            "0x00000000000000000000000073d43dd9ac2c0fd004286f7a13f51bec163efb2c"
          ],
          "data": "0x0000000000000000000000000000000000000000000000000000000000000001",
          "blockHash": "0xd03a9d9954131606d2211bfc22646d3d37742955dd24e6018cc1b9e75af61fac",
          "blockNumber": "0x1ee5a6d",
          "blockTimestamp": "0x68f013ba",
          "transactionHash": "0xaa3e7b09054d75feaca8dbf879d7adb88e2ca9b5a284bbf7557c0e476e3a2118",
          "transactionIndex": "0x9",
          "logIndex": "0x62",
          "removed": false
        },
        {
          "address": "0x9ddf0eb842c45e3dfa15d9270a086bcd41a8c8c9",
          "topics": [
            "0x0eaafde5ebec39b0111c5c7d6d1fcecac398382ff423cbaaf8ea499d21066d5a",
            "0x00000000000000000000000073d43dd9ac2c0fd004286f7a13f51bec163efb2c"
          ],
          "data": "0x0000000000000000000000000000000000000000000000000000000000000001",
          "blockHash": "0xd03a9d9954131606d2211bfc22646d3d37742955dd24e6018cc1b9e75af61fac",
          "blockNumber": "0x1ee5a6d",
          "blockTimestamp": "0x68f013ba",
          "transactionHash": "0xaa3e7b09054d75feaca8dbf879d7adb88e2ca9b5a284bbf7557c0e476e3a2118",
          "transactionIndex": "0x9",
          "logIndex": "0x63",
          "removed": false
        }
      ],
      "logsBloom": "0x00000000000000000000000000000000000000000000000000000000000000000000000000000000000000000000000000000000000000000000000000000000000000000000000000000000000000000000000000000000000000000000000000000000000000000000000000000000000000000000000018000000000000000000000000000800000100000000000008010000000000000000000000000000000000000000000000000000000000000000000000000000000800000000000000000000000000000000000000000000000002000000000000000000000000000000000000000800000000000000000000000000000000000000000000000000",
      "type": "0x2",
      "transactionHash": "0xaa3e7b09054d75feaca8dbf879d7adb88e2ca9b5a284bbf7557c0e476e3a2118",
      "transactionIndex": "0x9",
      "blockHash": "0xd03a9d9954131606d2211bfc22646d3d37742955dd24e6018cc1b9e75af61fac",
      "blockNumber": "0x1ee5a6d",
      "gasUsed": "0xcd8d6",
      "effectiveGasPrice": "0xf42bc",
      "from": "0x73d43dd9ac2c0fd004286f7a13f51bec163efb2c",
      "to": "0x9ddf0eb842c45e3dfa15d9270a086bcd41a8c8c9",
      "contractAddress": null,
      "l1BaseFeeScalar": "0x44d",
      "l1BlobBaseFee": "0x1",
      "l1BlobBaseFeeScalar": "0xa118b",
      "l1Fee": "0x8f",
      "l1GasPrice": "0x9",
      "l1GasUsed": "0xafb"
    },
    {
      "status": "0x1",
      "cumulativeGasUsed": "0xc086d7",
      "logs": [
        {
          "address": "0x9ddf0eb842c45e3dfa15d9270a086bcd41a8c8c9",
          "topics": [
            "0xdbd939f05a8bb6d12c02e60cc29d73fffd1263d3c03d1536f6dad0775c9209db",
            "0x00000000000000000000000073d43dd9ac2c0fd004286f7a13f51bec163efb2c"
          ],
          "data": "0x000000000000000000000000000000000000000000000000000000000000004000000000000000000000000000000000000000000000000000000000000003e8000000000000000000000000000000000000000000000000000000000000000d5465737420537472617465677900000000000000000000000000000000000000",
          "blockHash": "0xd03a9d9954131606d2211bfc22646d3d37742955dd24e6018cc1b9e75af61fac",
          "blockNumber": "0x1ee5a6d",
          "blockTimestamp": "0x68f013ba",
          "transactionHash": "0xf66145209aad854495a30594a0ab00960b4e9737aae76972db7358d4aacbf987",
          "transactionIndex": "0xe",
          "logIndex": "0x15e",
          "removed": false
        }
      ],
      "logsBloom": "0x00000000000000000000000000000000000000000000000000000000000000000000000000000000000000000000000000000000000000000000000000000000000000000000000000000000000001000000000000000000000000000000000000000000000000000000000000000000000000000000000010000000000000000000000000000800000100000000000008010000000000000000000000000000000000000000000000000000000000000000000020000000000800000000000000000000000000000000000000000000000000000000000000000000000000000000000000000200000000000000000000000000000000000000000000000000",
      "type": "0x2",
      "transactionHash": "0xf66145209aad854495a30594a0ab00960b4e9737aae76972db7358d4aacbf987",
      "transactionIndex": "0xe",
      "blockHash": "0xd03a9d9954131606d2211bfc22646d3d37742955dd24e6018cc1b9e75af61fac",
      "blockNumber": "0x1ee5a6d",
      "gasUsed": "0x44812",
      "effectiveGasPrice": "0xf42bc",
      "from": "0x73d43dd9ac2c0fd004286f7a13f51bec163efb2c",
      "to": "0x9ddf0eb842c45e3dfa15d9270a086bcd41a8c8c9",
      "contractAddress": null,
      "l1BaseFeeScalar": "0x44d",
      "l1BlobBaseFee": "0x1",
      "l1BlobBaseFeeScalar": "0xa118b",
      "l1Fee": "0x66",
      "l1GasPrice": "0x9",
      "l1GasUsed": "0x7d8"
    },
    {
      "status": "0x1",
      "cumulativeGasUsed": "0xc121b9",
      "logs": [
        {
          "address": "0x9ddf0eb842c45e3dfa15d9270a086bcd41a8c8c9",
          "topics": [
            "0x5a5248d054573022847923c7aff5393f051da7c24370d3da722cef7afadaa980",
            "0x00000000000000000000000073d43dd9ac2c0fd004286f7a13f51bec163efb2c"
          ],
          "data": "0x0000000000000000000000000000000000000000000000000000000000000040000000000000000000000000000000000000000000000000000000000000008000000000000000000000000000000000000000000000000000000000000000105570646174656420537472617465677900000000000000000000000000000000000000000000000000000000000000000000000000000000000000000000001455706461746564206465736372697074696f6e2e000000000000000000000000",
          "blockHash": "0xd03a9d9954131606d2211bfc22646d3d37742955dd24e6018cc1b9e75af61fac",
          "blockNumber": "0x1ee5a6d",
          "blockTimestamp": "0x68f013ba",
          "transactionHash": "0x02cafd95f1721346ba77107de01a84ba52873a80b385e5c081e2eba40550a1d3",
          "transactionIndex": "0xf",
          "logIndex": "0x15f",
          "removed": false
        }
      ],
      "logsBloom": "0x00000000000000000000000000000000000000000000000000000000000000000000000000000000000000000000000000000000000000000000000000000000000000000000000000000000000000000000000000000080000000000000000000000000000000000000000000000000000000000000000010000000000000000000000000000800000100000000000008010000000000000000000000002000000000000000000000000000000000100000000000000000000800000000000000000000000000000000000000000000000000000000000000000000000000000000000000000000000000000000000000000000000000000000000000000000",
      "type": "0x2",
      "transactionHash": "0x02cafd95f1721346ba77107de01a84ba52873a80b385e5c081e2eba40550a1d3",
      "transactionIndex": "0xf",
      "blockHash": "0xd03a9d9954131606d2211bfc22646d3d37742955dd24e6018cc1b9e75af61fac",
      "blockNumber": "0x1ee5a6d",
      "gasUsed": "0x9ae2",
      "effectiveGasPrice": "0xf42bc",
      "from": "0x73d43dd9ac2c0fd004286f7a13f51bec163efb2c",
      "to": "0x9ddf0eb842c45e3dfa15d9270a086bcd41a8c8c9",
      "contractAddress": null,
      "l1BaseFeeScalar": "0x44d",
      "l1BlobBaseFee": "0x1",
      "l1BlobBaseFeeScalar": "0xa118b",
      "l1Fee": "0x5b",
      "l1GasPrice": "0x9",
      "l1GasUsed": "0x6f5"
    },
    {
      "status": "0x1",
      "cumulativeGasUsed": "0xc18da3",
      "logs": [
        {
          "address": "0x9ddf0eb842c45e3dfa15d9270a086bcd41a8c8c9",
          "topics": [
            "0x26d054e0e8857287b16c4219214d225a5fda1924b52253039bff4b7b26d830d0",
            "0x00000000000000000000000073d43dd9ac2c0fd004286f7a13f51bec163efb2c"
          ],
          "data": "0x",
          "blockHash": "0xd03a9d9954131606d2211bfc22646d3d37742955dd24e6018cc1b9e75af61fac",
          "blockNumber": "0x1ee5a6d",
          "blockTimestamp": "0x68f013ba",
          "transactionHash": "0xd5e738e3c8c48e359a766d2af09e5bd8c0aef47b60cc791c6961285e81bd5074",
          "transactionIndex": "0x10",
          "logIndex": "0x160",
          "removed": false
        }
      ],
      "logsBloom": "0x00000000000000000000000000000000000000000000000000000000000000000000000000000000000000000000000000000000000000000000000000000000000000000020000000000000000000000000000000000000000000000000000000000000000000000000000000000000000000000000000010000000000000000000000000000800000100000000000008010000000000000000000000000000000000000000000000000000000000000000000000000000000800000000000000000000000000000000000000000000000000001000000000000000000000000000000000000000000000000000000000000000080000000000000000000000",
      "type": "0x2",
      "transactionHash": "0xd5e738e3c8c48e359a766d2af09e5bd8c0aef47b60cc791c6961285e81bd5074",
      "transactionIndex": "0x10",
      "blockHash": "0xd03a9d9954131606d2211bfc22646d3d37742955dd24e6018cc1b9e75af61fac",
      "blockNumber": "0x1ee5a6d",
      "gasUsed": "0x6bea",
      "effectiveGasPrice": "0xf42bc",
      "from": "0x73d43dd9ac2c0fd004286f7a13f51bec163efb2c",
      "to": "0x9ddf0eb842c45e3dfa15d9270a086bcd41a8c8c9",
      "contractAddress": null,
      "l1BaseFeeScalar": "0x44d",
      "l1BlobBaseFee": "0x1",
      "l1BlobBaseFeeScalar": "0xa118b",
      "l1Fee": "0x51",
      "l1GasPrice": "0x9",
      "l1GasUsed": "0x640"
    },
    {
      "status": "0x1",
      "cumulativeGasUsed": "0xc24f61",
      "logs": [
        {
          "address": "0x9ddf0eb842c45e3dfa15d9270a086bcd41a8c8c9",
          "topics": [
            "0x6de5969ea600bf6dfd17c1b1dcd5ef7bea84f201675f4c8a8bbc6a888880f7c5",
            "0x00000000000000000000000073d43dd9ac2c0fd004286f7a13f51bec163efb2c"
          ],
          "data": "0x",
          "blockHash": "0xd03a9d9954131606d2211bfc22646d3d37742955dd24e6018cc1b9e75af61fac",
          "blockNumber": "0x1ee5a6d",
          "blockTimestamp": "0x68f013ba",
          "transactionHash": "0x012a3f14ee1f3bdf17030ea317651b1cfca18bfcb92e8d026a53d8389acc257c",
          "transactionIndex": "0x11",
          "logIndex": "0x161",
          "removed": false
        }
      ],
      "logsBloom": "0x00000000000000000000000000000000000040000000000000000000000010000000000000000000000000000000000000000000000000000000000000000000000000000000000000000000000000000000000000000000000000000000000000000000000000000000000000000000000000000000000010000000000000000000000000000800000100000000000008010000000000000000000000000000000000000000000000000000000000000000000000000000000800000000000000000000000000000000000000000004000000000000000000000000000000000000000000000000000000000000000000000000000000000000000000000000",
      "type": "0x2",
      "transactionHash": "0x012a3f14ee1f3bdf17030ea317651b1cfca18bfcb92e8d026a53d8389acc257c",
      "transactionIndex": "0x11",
      "blockHash": "0xd03a9d9954131606d2211bfc22646d3d37742955dd24e6018cc1b9e75af61fac",
      "blockNumber": "0x1ee5a6d",
      "gasUsed": "0xc1be",
      "effectiveGasPrice": "0xf42bc",
      "from": "0x73d43dd9ac2c0fd004286f7a13f51bec163efb2c",
      "to": "0x9ddf0eb842c45e3dfa15d9270a086bcd41a8c8c9",
      "contractAddress": null,
      "l1BaseFeeScalar": "0x44d",
      "l1BlobBaseFee": "0x1",
      "l1BlobBaseFeeScalar": "0xa118b",
      "l1Fee": "0x51",
      "l1GasPrice": "0x9",
      "l1GasUsed": "0x640"
    }
  ],
  "libraries": [],
  "pending": [],
  "returns": {},
  "timestamp": 1760564155915,
  "chain": 84532,
  "commit": "41a22fe"
}