{
  "transactions": [
    {
      "hash": "0xefabda1966304eb4d4205e2a03b3ad11b46a8d45f7663f24964476911ae1a08f",
      "transactionType": "CALL",
      "contractName": null,
      "contractAddress": "0x036cbd53842c5426634e7929541ec2318f3dcf7e",
      "function": "approve(address,uint256)",
      "arguments": [
        "0x5b9118131ff1F1c8f097828182E0560241CB9BA1",
        "1000000"
      ],
      "transaction": {
        "from": "0x73d43dd9ac2c0fd004286f7a13f51bec163efb2c",
        "to": "0x036cbd53842c5426634e7929541ec2318f3dcf7e",
        "gas": "0xdb03",
        "value": "0x0",
        "input": "0x095ea7b30000000000000000000000005b9118131ff1f1c8f097828182e0560241cb9ba100000000000000000000000000000000000000000000000000000000000f4240",
        "nonce": "0x382",
        "chainId": "0x14a34"
      },
      "additionalContracts": [],
      "isFixedGasLimit": false
    },
    {
      "hash": "0xe981987d11d8c39295c3780445c2b4848cae73e4f3287e1a75f03c341805dbe6",
      "transactionType": "CALL",
      "contractName": null,
      "contractAddress": "0x4200000000000000000000000000000000000006",
      "function": "approve(address,uint256)",
      "arguments": [
        "0x5b9118131ff1F1c8f097828182E0560241CB9BA1",
        "100000000000000"
      ],
      "transaction": {
        "from": "0x73d43dd9ac2c0fd004286f7a13f51bec163efb2c",
        "to": "0x4200000000000000000000000000000000000006",
        "gas": "0x106e6",
        "value": "0x0",
        "input": "0x095ea7b30000000000000000000000005b9118131ff1f1c8f097828182e0560241cb9ba100000000000000000000000000000000000000000000000000005af3107a4000",
        "nonce": "0x383",
        "chainId": "0x14a34"
      },
      "additionalContracts": [],
      "isFixedGasLimit": false
    },
    {
      "hash": "0xf25663d6a036c7328234c31ed44c0b562c213b302f0432e7c8e36b55be376ea6",
      "transactionType": "CALL",
      "contractName": "TribeLeaderTerminal",
      "contractAddress": "0x5b9118131ff1f1c8f097828182e0560241cb9ba1",
      "function": "addLiquidityUniswapV3(address,address,uint24,int24,int24,uint256,uint256,uint256,uint256)",
      "arguments": [
        "0x036CbD53842c5426634e7929541eC2318f3dCF7e",
        "0x4200000000000000000000000000000000000006",
        "3000",
        "-887220",
        "887220",
        "1000000",
        "100000000000000",
        "0",
        "0"
      ],
      "transaction": {
        "from": "0x73d43dd9ac2c0fd004286f7a13f51bec163efb2c",
        "to": "0x5b9118131ff1f1c8f097828182e0560241cb9ba1",
        "gas": "0x12ce1b",
        "value": "0x0",
        "input": "0xe40345e2000000000000000000000000036cbd53842c5426634e7929541ec2318f3dcf7e00000000000000000000000042000000000000000000000000000000000000060000000000000000000000000000000000000000000000000000000000000bb8fffffffffffffffffffffffffffffffffffffffffffffffffffffffffff2764c00000000000000000000000000000000000000000000000000000000000d89b400000000000000000000000000000000000000000000000000000000000f424000000000000000000000000000000000000000000000000000005af3107a400000000000000000000000000000000000000000000000000000000000000000000000000000000000000000000000000000000000000000000000000000000000",
        "nonce": "0x384",
        "chainId": "0x14a34"
      },
      "additionalContracts": [],
      "isFixedGasLimit": false
    }
  ],
  "receipts": [
    {
      "status": "0x1",
      "cumulativeGasUsed": "0x12b8bd",
      "logs": [
        {
          "address": "0x036cbd53842c5426634e7929541ec2318f3dcf7e",
          "topics": [
            "0x8c5be1e5ebec7d5bd14f71427d1e84f3dd0314c0f7b2291e5b200ac8c7c3b925",
            "0x00000000000000000000000073d43dd9ac2c0fd004286f7a13f51bec163efb2c",
            "0x0000000000000000000000005b9118131ff1f1c8f097828182e0560241cb9ba1"
          ],
          "data": "0x00000000000000000000000000000000000000000000000000000000000f4240",
          "blockHash": "0x7993229984017b310f25f122a3cc3f8ba4598dbdea60e570a4d59435d59794fe",
          "blockNumber": "0x1f2bd0a",
          "blockTimestamp": "0x68f8d8f4",
          "transactionHash": "0xefabda1966304eb4d4205e2a03b3ad11b46a8d45f7663f24964476911ae1a08f",
          "transactionIndex": "0xc",
          "logIndex": "0x33",
          "removed": false
        }
      ],
      "logsBloom": "0x00000000040000000000000000000000000000000000000000000000000000000000000000000010000000000000000000000000000000000000000000200000000000000000100000000000000000000000000000000000000000000000000800000000000000000000000000000000000000000000000010000000000000000000000004000000000100000000000008000000000000000000000000000000020000000000000000000000000000000000000000000000000000000000000000000000000000000000000000000000000000000000000000000000000000000010000000000000000000000020000000000000000000000000000000000000",
      "type": "0x2",
      "transactionHash": "0xefabda1966304eb4d4205e2a03b3ad11b46a8d45f7663f24964476911ae1a08f",
      "transactionIndex": "0xc",
      "blockHash": "0x7993229984017b310f25f122a3cc3f8ba4598dbdea60e570a4d59435d59794fe",
      "blockNumber": "0x1f2bd0a",
      "gasUsed": "0x95c1",
      "effectiveGasPrice": "0xf4293",
      "from": "0x73d43dd9ac2c0fd004286f7a13f51bec163efb2c",
      "to": "0x036cbd53842c5426634e7929541ec2318f3dcf7e",
      "contractAddress": null,
      "l1BaseFeeScalar": "0x44d",
      "l1BlobBaseFee": "0x1",
      "l1BlobBaseFeeScalar": "0xa118b",
      "l1Fee": "0x53",
      "l1GasPrice": "0xa",
      "l1GasUsed": "0x640"
    },
    {
      "status": "0x1",
      "cumulativeGasUsed": "0x136c80",
      "logs": [
        {
          "address": "0x4200000000000000000000000000000000000006",
          "topics": [
            "0x8c5be1e5ebec7d5bd14f71427d1e84f3dd0314c0f7b2291e5b200ac8c7c3b925",
            "0x00000000000000000000000073d43dd9ac2c0fd004286f7a13f51bec163efb2c",
            "0x0000000000000000000000005b9118131ff1f1c8f097828182e0560241cb9ba1"
          ],
          "data": "0x00000000000000000000000000000000000000000000000000005af3107a4000",
          "blockHash": "0x7993229984017b310f25f122a3cc3f8ba4598dbdea60e570a4d59435d59794fe",
          "blockNumber": "0x1f2bd0a",
          "blockTimestamp": "0x68f8d8f4",
          "transactionHash": "0xe981987d11d8c39295c3780445c2b4848cae73e4f3287e1a75f03c341805dbe6",
          "transactionIndex": "0xd",
          "logIndex": "0x34",
          "removed": false
        }
      ],
      "logsBloom": "0x00000000000000000000000000000000000000000000000000040000000000000000000000000010000000100000000000000000000000000000000000200000000000000000100000000000000000000000000000000000000000000000000000000000000000000000000000000000000000000000000010000000000000000000000004000000000100000000000008000000002000000000000000000000020000000000000000000000000000000000000000000000000000000000000000000000000000000000000000000000000000000000000000000000000000000010000000000000000000000000000000000000000000000000000000000000",
      "type": "0x2",
      "transactionHash": "0xe981987d11d8c39295c3780445c2b4848cae73e4f3287e1a75f03c341805dbe6",
      "transactionIndex": "0xd",
      "blockHash": "0x7993229984017b310f25f122a3cc3f8ba4598dbdea60e570a4d59435d59794fe",
      "blockNumber": "0x1f2bd0a",
      "gasUsed": "0xb3c3",
      "effectiveGasPrice": "0xf4293",
      "from": "0x73d43dd9ac2c0fd004286f7a13f51bec163efb2c",
      "to": "0x4200000000000000000000000000000000000006",
      "contractAddress": null,
      "l1BaseFeeScalar": "0x44d",
      "l1BlobBaseFee": "0x1",
      "l1BlobBaseFeeScalar": "0xa118b",
      "l1Fee": "0x53",
      "l1GasPrice": "0xa",
      "l1GasUsed": "0x640"
    },
    {
      "status": "0x1",
      "cumulativeGasUsed": "0x2109d4",
      "logs": [
        {
          "address": "0x036cbd53842c5426634e7929541ec2318f3dcf7e",
          "topics": [
            "0xddf252ad1be2c89b69c2b068fc378daa952ba7f163c4a11628f55a4df523b3ef",
            "0x00000000000000000000000073d43dd9ac2c0fd004286f7a13f51bec163efb2c",
            "0x00000000000000000000000059ef3234e328a150886758a6c529196d2f979e56"
          ],
          "data": "0x00000000000000000000000000000000000000000000000000000000000f4240",
          "blockHash": "0x7993229984017b310f25f122a3cc3f8ba4598dbdea60e570a4d59435d59794fe",
          "blockNumber": "0x1f2bd0a",
          "blockTimestamp": "0x68f8d8f4",
          "transactionHash": "0xf25663d6a036c7328234c31ed44c0b562c213b302f0432e7c8e36b55be376ea6",
          "transactionIndex": "0xe",
          "logIndex": "0x35",
          "removed": false
        },
        {
          "address": "0x4200000000000000000000000000000000000006",
          "topics": [
            "0xddf252ad1be2c89b69c2b068fc378daa952ba7f163c4a11628f55a4df523b3ef",
            "0x00000000000000000000000073d43dd9ac2c0fd004286f7a13f51bec163efb2c",
            "0x00000000000000000000000059ef3234e328a150886758a6c529196d2f979e56"
          ],
          "data": "0x00000000000000000000000000000000000000000000000000005af3107a4000",
          "blockHash": "0x7993229984017b310f25f122a3cc3f8ba4598dbdea60e570a4d59435d59794fe",
          "blockNumber": "0x1f2bd0a",
          "blockTimestamp": "0x68f8d8f4",
          "transactionHash": "0xf25663d6a036c7328234c31ed44c0b562c213b302f0432e7c8e36b55be376ea6",
          "transactionIndex": "0xe",
          "logIndex": "0x36",
          "removed": false
        },
        {
          "address": "0x036cbd53842c5426634e7929541ec2318f3dcf7e",
          "topics": [
            "0x8c5be1e5ebec7d5bd14f71427d1e84f3dd0314c0f7b2291e5b200ac8c7c3b925",
            "0x00000000000000000000000059ef3234e328a150886758a6c529196d2f979e56",
            "0x00000000000000000000000027f971cb582bf9e50f397e4d29a5c7a34f11faa2"
          ],
          "data": "0x00000000000000000000000000000000000000000000000000000000000f4240",
          "blockHash": "0x7993229984017b310f25f122a3cc3f8ba4598dbdea60e570a4d59435d59794fe",
          "blockNumber": "0x1f2bd0a",
          "blockTimestamp": "0x68f8d8f4",
          "transactionHash": "0xf25663d6a036c7328234c31ed44c0b562c213b302f0432e7c8e36b55be376ea6",
          "transactionIndex": "0xe",
          "logIndex": "0x37",
          "removed": false
        },
        {
          "address": "0x4200000000000000000000000000000000000006",
          "topics": [
            "0x8c5be1e5ebec7d5bd14f71427d1e84f3dd0314c0f7b2291e5b200ac8c7c3b925",
            "0x00000000000000000000000059ef3234e328a150886758a6c529196d2f979e56",
            "0x00000000000000000000000027f971cb582bf9e50f397e4d29a5c7a34f11faa2"
          ],
          "data": "0x00000000000000000000000000000000000000000000000000005af3107a4000",
          "blockHash": "0x7993229984017b310f25f122a3cc3f8ba4598dbdea60e570a4d59435d59794fe",
          "blockNumber": "0x1f2bd0a",
          "blockTimestamp": "0x68f8d8f4",
          "transactionHash": "0xf25663d6a036c7328234c31ed44c0b562c213b302f0432e7c8e36b55be376ea6",
          "transactionIndex": "0xe",
          "logIndex": "0x38",
          "removed": false
        },
        {
          "address": "0x036cbd53842c5426634e7929541ec2318f3dcf7e",
          "topics": [
            "0xddf252ad1be2c89b69c2b068fc378daa952ba7f163c4a11628f55a4df523b3ef",
            "0x00000000000000000000000059ef3234e328a150886758a6c529196d2f979e56",
            "0x00000000000000000000000046880b404cd35c165eddeff7421019f8dd25f4ad"
          ],
          "data": "0x0000000000000000000000000000000000000000000000000000000000002de0",
          "blockHash": "0x7993229984017b310f25f122a3cc3f8ba4598dbdea60e570a4d59435d59794fe",
          "blockNumber": "0x1f2bd0a",
          "blockTimestamp": "0x68f8d8f4",
          "transactionHash": "0xf25663d6a036c7328234c31ed44c0b562c213b302f0432e7c8e36b55be376ea6",
          "transactionIndex": "0xe",
          "logIndex": "0x39",
          "removed": false
        },
        {
          "address": "0x4200000000000000000000000000000000000006",
          "topics": [
            "0xddf252ad1be2c89b69c2b068fc378daa952ba7f163c4a11628f55a4df523b3ef",
            "0x00000000000000000000000059ef3234e328a150886758a6c529196d2f979e56",
            "0x00000000000000000000000046880b404cd35c165eddeff7421019f8dd25f4ad"
          ],
          "data": "0x00000000000000000000000000000000000000000000000000005af3107916da",
          "blockHash": "0x7993229984017b310f25f122a3cc3f8ba4598dbdea60e570a4d59435d59794fe",
          "blockNumber": "0x1f2bd0a",
          "blockTimestamp": "0x68f8d8f4",
          "transactionHash": "0xf25663d6a036c7328234c31ed44c0b562c213b302f0432e7c8e36b55be376ea6",
          "transactionIndex": "0xe",
          "logIndex": "0x3a",
          "removed": false
        },
        {
          "address": "0x46880b404cd35c165eddeff7421019f8dd25f4ad",
          "topics": [
            "0x7a53080ba414158be7ec69b987b5fb7d07dee101fe85488f0853ae16239d0bde",
            "0x00000000000000000000000027f971cb582bf9e50f397e4d29a5c7a34f11faa2",
            "0xfffffffffffffffffffffffffffffffffffffffffffffffffffffffffff2764c",
            "0x00000000000000000000000000000000000000000000000000000000000d89b4"
          ],
          "data": "0x00000000000000000000000027f971cb582bf9e50f397e4d29a5c7a34f11faa200000000000000000000000000000000000000000000000000000000409782ae0000000000000000000000000000000000000000000000000000000000002de000000000000000000000000000000000000000000000000000005af3107916da",
          "blockHash": "0x7993229984017b310f25f122a3cc3f8ba4598dbdea60e570a4d59435d59794fe",
          "blockNumber": "0x1f2bd0a",
          "blockTimestamp": "0x68f8d8f4",
          "transactionHash": "0xf25663d6a036c7328234c31ed44c0b562c213b302f0432e7c8e36b55be376ea6",
          "transactionIndex": "0xe",
          "logIndex": "0x3b",
          "removed": false
        },
        {
          "address": "0x27f971cb582bf9e50f397e4d29a5c7a34f11faa2",
          "topics": [
            "0xddf252ad1be2c89b69c2b068fc378daa952ba7f163c4a11628f55a4df523b3ef",
            "0x0000000000000000000000000000000000000000000000000000000000000000",
            "0x00000000000000000000000073d43dd9ac2c0fd004286f7a13f51bec163efb2c",
            "0x000000000000000000000000000000000000000000000000000000000001161f"
          ],
          "data": "0x",
          "blockHash": "0x7993229984017b310f25f122a3cc3f8ba4598dbdea60e570a4d59435d59794fe",
          "blockNumber": "0x1f2bd0a",
          "blockTimestamp": "0x68f8d8f4",
          "transactionHash": "0xf25663d6a036c7328234c31ed44c0b562c213b302f0432e7c8e36b55be376ea6",
          "transactionIndex": "0xe",
          "logIndex": "0x3c",
          "removed": false
        },
        {
          "address": "0x27f971cb582bf9e50f397e4d29a5c7a34f11faa2",
          "topics": [
            "0x3067048beee31b25b2f1681f88dac838c8bba36af25bfb2b7cf7473a5847e35f",
            "0x000000000000000000000000000000000000000000000000000000000001161f"
          ],
          "data": "0x00000000000000000000000000000000000000000000000000000000409782ae0000000000000000000000000000000000000000000000000000000000002de000000000000000000000000000000000000000000000000000005af3107916da",
          "blockHash": "0x7993229984017b310f25f122a3cc3f8ba4598dbdea60e570a4d59435d59794fe",
          "blockNumber": "0x1f2bd0a",
          "blockTimestamp": "0x68f8d8f4",
          "transactionHash": "0xf25663d6a036c7328234c31ed44c0b562c213b302f0432e7c8e36b55be376ea6",
          "transactionIndex": "0xe",
          "logIndex": "0x3d",
          "removed": false
        },
        {
          "address": "0xc8c309e34ef4fd87d869dd6e856934e3497a8965",
          "topics": [
            "0x1873553dae46c6c4a5009f92d87ef4b1be03943559a661467807f7dc4c4e53a3",
            "0x00000000000000000000000027f971cb582bf9e50f397e4d29a5c7a34f11faa2"
          ],
          "data": "0x000000000000000000000000036cbd53842c5426634e7929541ec2318f3dcf7e000000000000000000000000420000000000000000000000000000000000000600000000000000000000000000000000000000000000000000000000409782ae",
          "blockHash": "0x7993229984017b310f25f122a3cc3f8ba4598dbdea60e570a4d59435d59794fe",
          "blockNumber": "0x1f2bd0a",
          "blockTimestamp": "0x68f8d8f4",
          "transactionHash": "0xf25663d6a036c7328234c31ed44c0b562c213b302f0432e7c8e36b55be376ea6",
          "transactionIndex": "0xe",
          "logIndex": "0x3e",
          "removed": false
        },
        {
          "address": "0x5b9118131ff1f1c8f097828182e0560241cb9ba1",
          "topics": [
            "0xd11895475c54b7d51633ecc794cd50a555a5c13b37a9d83d28e8405e0a185ede",
            "0x00000000000000000000000073d43dd9ac2c0fd004286f7a13f51bec163efb2c",
            "0x00000000000000000000000027f971cb582bf9e50f397e4d29a5c7a34f11faa2"
          ],
          "data": "0x000000000000000000000000036cbd53842c5426634e7929541ec2318f3dcf7e000000000000000000000000420000000000000000000000000000000000000600000000000000000000000000000000000000000000000000000000000f424000000000000000000000000000000000000000000000000000005af3107a40000000000000000000000000000000000000000000000000000000000000000001",
          "blockHash": "0x7993229984017b310f25f122a3cc3f8ba4598dbdea60e570a4d59435d59794fe",
          "blockNumber": "0x1f2bd0a",
          "blockTimestamp": "0x68f8d8f4",
          "transactionHash": "0xf25663d6a036c7328234c31ed44c0b562c213b302f0432e7c8e36b55be376ea6",
          "transactionIndex": "0xe",
          "logIndex": "0x3f",
          "removed": false
        }
      ],
      "logsBloom": "0x00000000044000000000100000000400000000000000400000040000000000000000400000001000002000100000000000000000000000000400410200280000000000400000000000000808080000000000000000000000000000000000000844000000020000404000000080000800000000000800000010000010000000000000000008000000000100000000000008000008002000000000002000000000020200804000000000000000004000020000000000000020002000008000000000000002020000000000080000000000000400000000020000000000000120000010000000000000000000000020100000000801000004000000000000000800",
      "type": "0x2",
      "transactionHash": "0xf25663d6a036c7328234c31ed44c0b562c213b302f0432e7c8e36b55be376ea6",
      "transactionIndex": "0xe",
      "blockHash": "0x7993229984017b310f25f122a3cc3f8ba4598dbdea60e570a4d59435d59794fe",
      "blockNumber": "0x1f2bd0a",
      "gasUsed": "0xd9d54",
      "effectiveGasPrice": "0xf4293",
      "from": "0x73d43dd9ac2c0fd004286f7a13f51bec163efb2c",
      "to": "0x5b9118131ff1f1c8f097828182e0560241cb9ba1",
      "contractAddress": null,
      "l1BaseFeeScalar": "0x44d",
      "l1BlobBaseFee": "0x1",
      "l1BlobBaseFeeScalar": "0xa118b",
      "l1Fee": "0x53",
      "l1GasPrice": "0xa",
      "l1GasUsed": "0x894"
    }
  ],
  "libraries": [],
  "pending": [],
  "returns": {},
  "timestamp": 1761138931003,
  "chain": 84532,
  "commit": "9eab8ae"
}