{
  "transactions": [
    {
      "hash": "0x5754cf1b9f0538105076e6e835b681cfe75e0f58abd1ea91e26c84b484621706",
      "transactionType": "CALL",
      "contractName": null,
      "contractAddress": "0x036cbd53842c5426634e7929541ec2318f3dcf7e",
      "function": "approve(address,uint256)",
      "arguments": [
        "0xE4E9D97664f1c74aEe1E6A83866E9749D32e02CE",
        "3000000"
      ],
      "transaction": {
        "from": "0x73d43dd9ac2c0fd004286f7a13f51bec163efb2c",
        "to": "0x036cbd53842c5426634e7929541ec2318f3dcf7e",
        "gas": "0x12b1b",
        "value": "0x0",
        "input": "0x095ea7b3000000000000000000000000e4e9d97664f1c74aee1e6a83866e9749d32e02ce00000000000000000000000000000000000000000000000000000000002dc6c0",
        "nonce": "0x300",
        "chainId": "0x14a34"
      },
      "additionalContracts": [],
      "isFixedGasLimit": false
    },
    {
      "hash": "0x8328e7faa5805b31c4c3bf6ac529639688b4b0d21edcbc89fb6e003c3efcf36b",
      "transactionType": "CALL",
      "contractName": null,
      "contractAddress": "0x4200000000000000000000000000000000000006",
      "function": "approve(address,uint256)",
      "arguments": [
        "0xE4E9D97664f1c74aEe1E6A83866E9749D32e02CE",
        "1000000000000000"
      ],
      "transaction": {
        "from": "0x73d43dd9ac2c0fd004286f7a13f51bec163efb2c",
        "to": "0x4200000000000000000000000000000000000006",
        "gas": "0xf85b",
        "value": "0x0",
        "input": "0x095ea7b3000000000000000000000000e4e9d97664f1c74aee1e6a83866e9749d32e02ce00000000000000000000000000000000000000000000000000038d7ea4c68000",
        "nonce": "0x301",
        "chainId": "0x14a34"
      },
      "additionalContracts": [],
      "isFixedGasLimit": false
    },
    {
      "hash": "0x2fa1190dbee2d975e8820700ca7abf673f654d843a0cf642a2f7d7d4142a25a0",
      "transactionType": "CALL",
      "contractName": null,
      "contractAddress": "0xe4e9d97664f1c74aee1e6a83866e9749d32e02ce",
      "function": "addLiquidityUniswapV3(address,address,uint24,int24,int24,uint256,uint256,uint256,uint256)",
      "arguments": [
        "0x036CbD53842c5426634e7929541eC2318f3dCF7e",
        "0x4200000000000000000000000000000000000006",
        "3000",
        "-887220",
        "887220",
        "3000000",
        "1000000000000000",
        "0",
        "0"
      ],
      "transaction": {
        "from": "0x73d43dd9ac2c0fd004286f7a13f51bec163efb2c",
        "to": "0xe4e9d97664f1c74aee1e6a83866e9749d32e02ce",
        "gas": "0x78e84",
        "value": "0x0",
        "input": "0xe40345e2000000000000000000000000036cbd53842c5426634e7929541ec2318f3dcf7e00000000000000000000000042000000000000000000000000000000000000060000000000000000000000000000000000000000000000000000000000000bb8fffffffffffffffffffffffffffffffffffffffffffffffffffffffffff2764c00000000000000000000000000000000000000000000000000000000000d89b400000000000000000000000000000000000000000000000000000000002dc6c000000000000000000000000000000000000000000000000000038d7ea4c6800000000000000000000000000000000000000000000000000000000000000000000000000000000000000000000000000000000000000000000000000000000000",
        "nonce": "0x302",
        "chainId": "0x14a34"
      },
      "additionalContracts": [],
      "isFixedGasLimit": false
    }
  ],
  "receipts": [
    {
      "status": "0x1",
      "cumulativeGasUsed": "0x42a97b",
      "logs": [
        {
          "address": "0x036cbd53842c5426634e7929541ec2318f3dcf7e",
          "topics": [
            "0x8c5be1e5ebec7d5bd14f71427d1e84f3dd0314c0f7b2291e5b200ac8c7c3b925",
            "0x00000000000000000000000073d43dd9ac2c0fd004286f7a13f51bec163efb2c",
            "0x000000000000000000000000e4e9d97664f1c74aee1e6a83866e9749d32e02ce"
          ],
          "data": "0x00000000000000000000000000000000000000000000000000000000002dc6c0",
          "blockHash": "0x0fb1e777eda077c2ef25d28d48a02b2f98e132289a104214ff1ee9bd2ac55822",
          "blockNumber": "0x1ee417c",
          "blockTimestamp": "0x68efe1d8",
          "transactionHash": "0x5754cf1b9f0538105076e6e835b681cfe75e0f58abd1ea91e26c84b484621706",
          "transactionIndex": "0x10",
          "logIndex": "0x8b",
          "removed": false
        }
      ],
      "logsBloom": "0x00000000040000000000000000000000000000000000000000000000000000000000000000000000000000000000000000000000000000000000000000200000000000000000000000000000000000000000000000000000000000000000000800000000000000000400000000000000000000000000000010080000000000000000000000000000000100000000000008000000000000000000000000000000020000000000000000001000000000000000000000000000000000000000000000000000000000000000000000000000000000000000000000000000000000000010000000000000000000000020000000000000000000000000000000000000",
      "type": "0x2",
      "transactionHash": "0x5754cf1b9f0538105076e6e835b681cfe75e0f58abd1ea91e26c84b484621706",
      "transactionIndex": "0x10",
      "blockHash": "0x0fb1e777eda077c2ef25d28d48a02b2f98e132289a104214ff1ee9bd2ac55822",
      "blockNumber": "0x1ee417c",
      "gasUsed": "0xd88d",
      "effectiveGasPrice": "0xf42c0",
      "from": "0x73d43dd9ac2c0fd004286f7a13f51bec163efb2c",
      "to": "0x036cbd53842c5426634e7929541ec2318f3dcf7e",
      "contractAddress": null,
      "l1BaseFeeScalar": "0x44d",
      "l1BlobBaseFee": "0x9",
      "l1BlobBaseFeeScalar": "0xa118b",
      "l1Fee": "0x261",
      "l1GasPrice": "0x9",
      "l1GasUsed": "0x640"
    },
    {
      "status": "0x1",
      "cumulativeGasUsed": "0x435d4a",
      "logs": [
        {
          "address": "0x4200000000000000000000000000000000000006",
          "topics": [
            "0x8c5be1e5ebec7d5bd14f71427d1e84f3dd0314c0f7b2291e5b200ac8c7c3b925",
            "0x00000000000000000000000073d43dd9ac2c0fd004286f7a13f51bec163efb2c",
            "0x000000000000000000000000e4e9d97664f1c74aee1e6a83866e9749d32e02ce"
          ],
          "data": "0x00000000000000000000000000000000000000000000000000038d7ea4c68000",
          "blockHash": "0x0fb1e777eda077c2ef25d28d48a02b2f98e132289a104214ff1ee9bd2ac55822",
          "blockNumber": "0x1ee417c",
          "blockTimestamp": "0x68efe1d8",
          "transactionHash": "0x8328e7faa5805b31c4c3bf6ac529639688b4b0d21edcbc89fb6e003c3efcf36b",
          "transactionIndex": "0x11",
          "logIndex": "0x8c",
          "removed": false
        }
      ],
      "logsBloom": "0x00000000000000000000000000000000000000000000000000040000000000000000000000000000000000100000000000000000000000000000000000200000000000000000000000000000000000000000000000000000000000000000000000000000000000000400000000000000000000000000000010080000000000000000000000000000000100000000000008000000002000000000000000000000020000000000000000001000000000000000000000000000000000000000000000000000000000000000000000000000000000000000000000000000000000000010000000000000000000000000000000000000000000000000000000000000",
      "type": "0x2",
      "transactionHash": "0x8328e7faa5805b31c4c3bf6ac529639688b4b0d21edcbc89fb6e003c3efcf36b",
      "transactionIndex": "0x11",
      "blockHash": "0x0fb1e777eda077c2ef25d28d48a02b2f98e132289a104214ff1ee9bd2ac55822",
      "blockNumber": "0x1ee417c",
      "gasUsed": "0xb3cf",
      "effectiveGasPrice": "0xf42c0",
      "from": "0x73d43dd9ac2c0fd004286f7a13f51bec163efb2c",
      "to": "0x4200000000000000000000000000000000000006",
      "contractAddress": null,
      "l1BaseFeeScalar": "0x44d",
      "l1BlobBaseFee": "0x9",
      "l1BlobBaseFeeScalar": "0xa118b",
      "l1Fee": "0x261",
      "l1GasPrice": "0x9",
      "l1GasUsed": "0x640"
    },
    {
      "status": "0x1",
      "cumulativeGasUsed": "0x48d5d9",
      "logs": [
        {
          "address": "0x036cbd53842c5426634e7929541ec2318f3dcf7e",
          "topics": [
            "0xddf252ad1be2c89b69c2b068fc378daa952ba7f163c4a11628f55a4df523b3ef",
            "0x00000000000000000000000073d43dd9ac2c0fd004286f7a13f51bec163efb2c",
            "0x000000000000000000000000e4e9d97664f1c74aee1e6a83866e9749d32e02ce"
          ],
          "data": "0x00000000000000000000000000000000000000000000000000000000002dc6c0",
          "blockHash": "0x0fb1e777eda077c2ef25d28d48a02b2f98e132289a104214ff1ee9bd2ac55822",
          "blockNumber": "0x1ee417c",
          "blockTimestamp": "0x68efe1d8",
          "transactionHash": "0x2fa1190dbee2d975e8820700ca7abf673f654d843a0cf642a2f7d7d4142a25a0",
          "transactionIndex": "0x12",
          "logIndex": "0x8d",
          "removed": false
        },
        {
          "address": "0x4200000000000000000000000000000000000006",
          "topics": [
            "0xddf252ad1be2c89b69c2b068fc378daa952ba7f163c4a11628f55a4df523b3ef",
            "0x00000000000000000000000073d43dd9ac2c0fd004286f7a13f51bec163efb2c",
            "0x000000000000000000000000e4e9d97664f1c74aee1e6a83866e9749d32e02ce"
          ],
          "data": "0x00000000000000000000000000000000000000000000000000038d7ea4c68000",
          "blockHash": "0x0fb1e777eda077c2ef25d28d48a02b2f98e132289a104214ff1ee9bd2ac55822",
          "blockNumber": "0x1ee417c",
          "blockTimestamp": "0x68efe1d8",
          "transactionHash": "0x2fa1190dbee2d975e8820700ca7abf673f654d843a0cf642a2f7d7d4142a25a0",
          "transactionIndex": "0x12",
          "logIndex": "0x8e",
          "removed": false
        },
        {
          "address": "0x036cbd53842c5426634e7929541ec2318f3dcf7e",
          "topics": [
            "0x8c5be1e5ebec7d5bd14f71427d1e84f3dd0314c0f7b2291e5b200ac8c7c3b925",
            "0x000000000000000000000000e4e9d97664f1c74aee1e6a83866e9749d32e02ce",
            "0x00000000000000000000000027f971cb582bf9e50f397e4d29a5c7a34f11faa2"
          ],
          "data": "0x00000000000000000000000000000000000000000000000000000000002dc6c0",
          "blockHash": "0x0fb1e777eda077c2ef25d28d48a02b2f98e132289a104214ff1ee9bd2ac55822",
          "blockNumber": "0x1ee417c",
          "blockTimestamp": "0x68efe1d8",
          "transactionHash": "0x2fa1190dbee2d975e8820700ca7abf673f654d843a0cf642a2f7d7d4142a25a0",
          "transactionIndex": "0x12",
          "logIndex": "0x8f",
          "removed": false
        },
        {
          "address": "0x4200000000000000000000000000000000000006",
          "topics": [
            "0x8c5be1e5ebec7d5bd14f71427d1e84f3dd0314c0f7b2291e5b200ac8c7c3b925",
            "0x000000000000000000000000e4e9d97664f1c74aee1e6a83866e9749d32e02ce",
            "0x00000000000000000000000027f971cb582bf9e50f397e4d29a5c7a34f11faa2"
          ],
          "data": "0x00000000000000000000000000000000000000000000000000038d7ea4c68000",
          "blockHash": "0x0fb1e777eda077c2ef25d28d48a02b2f98e132289a104214ff1ee9bd2ac55822",
          "blockNumber": "0x1ee417c",
          "blockTimestamp": "0x68efe1d8",
          "transactionHash": "0x2fa1190dbee2d975e8820700ca7abf673f654d843a0cf642a2f7d7d4142a25a0",
          "transactionIndex": "0x12",
          "logIndex": "0x90",
          "removed": false
        },
        {
          "address": "0xe4e9d97664f1c74aee1e6a83866e9749d32e02ce",
          "topics": [
            "0xd11895475c54b7d51633ecc794cd50a555a5c13b37a9d83d28e8405e0a185ede",
            "0x00000000000000000000000073d43dd9ac2c0fd004286f7a13f51bec163efb2c",
            "0x00000000000000000000000027f971cb582bf9e50f397e4d29a5c7a34f11faa2"
          ],
          "data": "0x000000000000000000000000036cbd53842c5426634e7929541ec2318f3dcf7e000000000000000000000000420000000000000000000000000000000000000600000000000000000000000000000000000000000000000000000000002dc6c000000000000000000000000000000000000000000000000000038d7ea4c680000000000000000000000000000000000000000000000000000000000000000000",
          "blockHash": "0x0fb1e777eda077c2ef25d28d48a02b2f98e132289a104214ff1ee9bd2ac55822",
          "blockNumber": "0x1ee417c",
          "blockTimestamp": "0x68efe1d8",
          "transactionHash": "0x2fa1190dbee2d975e8820700ca7abf673f654d843a0cf642a2f7d7d4142a25a0",
          "transactionIndex": "0x12",
          "logIndex": "0x91",
          "removed": false
        }
      ],
      "logsBloom": "0x20000000040000000000000000000000000000000000400000040000000000000000000000000000000000100000000000000000000000000000010000200000000000400000000000000008000000000000000000000000000000000000000840000000800000000400000080000000000000000000000010080010000020000000000000000000000100000000000008000000002000000000000000000000020000000000000000001000000000000000000000000020000000000000000000000002000000000000000000000000000000000000000000000000000000000010000000000000000000000020000000000000000000000000000000000000",
      "type": "0x2",
      "transactionHash": "0x2fa1190dbee2d975e8820700ca7abf673f654d843a0cf642a2f7d7d4142a25a0",
      "transactionIndex": "0x12",
      "blockHash": "0x0fb1e777eda077c2ef25d28d48a02b2f98e132289a104214ff1ee9bd2ac55822",
      "blockNumber": "0x1ee417c",
      "gasUsed": "0x5788f",
      "effectiveGasPrice": "0xf42c0",
      "from": "0x73d43dd9ac2c0fd004286f7a13f51bec163efb2c",
      "to": "0xe4e9d97664f1c74aee1e6a83866e9749d32e02ce",
      "contractAddress": null,
      "l1BaseFeeScalar": "0x44d",
      "l1BlobBaseFee": "0x9",
      "l1BlobBaseFeeScalar": "0xa118b",
      "l1Fee": "0x359",
      "l1GasPrice": "0x9",
      "l1GasUsed": "0x8c9"
    }
  ],
  "libraries": [],
  "pending": [],
  "returns": {},
  "timestamp": 1760551385908,
  "chain": 84532,
  "commit": null
}