{
  "transactions": [
    {
      "hash": "0x411f59f32e5cdb32844d7b29d0f066e9ed360d18c424a8fcef10e933d805eee8",
      "transactionType": "CALL",
      "contractName": null,
      "contractAddress": "0x036cbd53842c5426634e7929541ec2318f3dcf7e",
      "function": "approve(address,uint256)",
      "arguments": [
        "0x27F971cb582BF9E50F397e4d29a5C7A34f11faA2",
        "3000000"
      ],
      "transaction": {
        "from": "0x73d43dd9ac2c0fd004286f7a13f51bec163efb2c",
        "to": "0x036cbd53842c5426634e7929541ec2318f3dcf7e",
        "gas": "0xdb03",
        "value": "0x0",
        "input": "0x095ea7b300000000000000000000000027f971cb582bf9e50f397e4d29a5c7a34f11faa200000000000000000000000000000000000000000000000000000000002dc6c0",
        "nonce": "0x317",
        "chainId": "0x14a34"
      },
      "additionalContracts": [],
      "isFixedGasLimit": false
    },
    {
      "hash": "0xbf2449385a0e1d8b89ff297287d853a0aef27040b031036ab96b2744029d4e14",
      "transactionType": "CALL",
      "contractName": null,
      "contractAddress": "0x4200000000000000000000000000000000000006",
      "function": "approve(address,uint256)",
      "arguments": [
        "0x27F971cb582BF9E50F397e4d29a5C7A34f11faA2",
        "1000000000000000"
      ],
      "transaction": {
        "from": "0x73d43dd9ac2c0fd004286f7a13f51bec163efb2c",
        "to": "0x4200000000000000000000000000000000000006",
        "gas": "0xa547",
        "value": "0x0",
        "input": "0x095ea7b300000000000000000000000027f971cb582bf9e50f397e4d29a5c7a34f11faa200000000000000000000000000000000000000000000000000038d7ea4c68000",
        "nonce": "0x318",
        "chainId": "0x14a34"
      },
      "additionalContracts": [],
      "isFixedGasLimit": false
    },
    {
      "hash": "0x5283ef5ea3f7536b4878d5a772eeba94cc99ebc1c69c86b5d5d06f5339e8d499",
      "transactionType": "CALL",
      "contractName": null,
      "contractAddress": "0x27f971cb582bf9e50f397e4d29a5c7a34f11faa2",
      "function": "mint((address,address,uint24,int24,int24,uint256,uint256,uint256,uint256,address,uint256))",
      "arguments": [
        "(0x036CbD53842c5426634e7929541eC2318f3dCF7e, 0x4200000000000000000000000000000000000006, 3000, -887220, 887220, 3000000, 1000000000000000, 0, 0, 0x73D43dd9Ac2C0Fd004286F7a13F51bec163efB2C, 1760561994)"
      ],
      "transaction": {
        "from": "0x73d43dd9ac2c0fd004286f7a13f51bec163efb2c",
        "to": "0x27f971cb582bf9e50f397e4d29a5c7a34f11faa2",
        "gas": "0x80839",
        "value": "0x0",
        "input": "0x88316456000000000000000000000000036cbd53842c5426634e7929541ec2318f3dcf7e00000000000000000000000042000000000000000000000000000000000000060000000000000000000000000000000000000000000000000000000000000bb8fffffffffffffffffffffffffffffffffffffffffffffffffffffffffff2764c00000000000000000000000000000000000000000000000000000000000d89b400000000000000000000000000000000000000000000000000000000002dc6c000000000000000000000000000000000000000000000000000038d7ea4c680000000000000000000000000000000000000000000000000000000000000000000000000000000000000000000000000000000000000000000000000000000000000000000000000000000000073d43dd9ac2c0fd004286f7a13f51bec163efb2c0000000000000000000000000000000000000000000000000000000068f00b4a",
        "nonce": "0x319",
        "chainId": "0x14a34"
      },
      "additionalContracts": [],
      "isFixedGasLimit": false
    }
  ],
  "receipts": [
    {
      "status": "0x1",
      "cumulativeGasUsed": "0x7a9b5c",
      "logs": [
        {
          "address": "0x036cbd53842c5426634e7929541ec2318f3dcf7e",
          "topics": [
            "0x8c5be1e5ebec7d5bd14f71427d1e84f3dd0314c0f7b2291e5b200ac8c7c3b925",
            "0x00000000000000000000000073d43dd9ac2c0fd004286f7a13f51bec163efb2c",
            "0x00000000000000000000000027f971cb582bf9e50f397e4d29a5c7a34f11faa2"
          ],
          "data": "0x00000000000000000000000000000000000000000000000000000000002dc6c0",
          "blockHash": "0x52e6f3a382c6ac7651d0097ce75d02304823fb5ba04d0ed04e245d26963576e6",
          "blockNumber": "0x1ee55b1",
          "blockTimestamp": "0x68f00a42",
          "transactionHash": "0x411f59f32e5cdb32844d7b29d0f066e9ed360d18c424a8fcef10e933d805eee8",
          "transactionIndex": "0x24",
          "logIndex": "0x108",
          "removed": false
        }
      ],
      "logsBloom": "0x00000000040000000000000000000000000000000000400000000000000000000000000000000000000000000000000000000000000000000000010000200000000000000000000000000000000000000000000000000000000000000000000800000000000000000000000000000000000000000000000010000000000000000000000000000000000100000000000008000000000000000000000000000000020000000000000000000000000000000000000000000020000000000000000000000000000000000000000000000000000000000000000000000000000000000010000000000000000000000020000000000000000000000000000000000000",
      "type": "0x2",
      "transactionHash": "0x411f59f32e5cdb32844d7b29d0f066e9ed360d18c424a8fcef10e933d805eee8",
      "transactionIndex": "0x24",
      "blockHash": "0x52e6f3a382c6ac7651d0097ce75d02304823fb5ba04d0ed04e245d26963576e6",
      "blockNumber": "0x1ee55b1",
      "gasUsed": "0x95c1",
      "effectiveGasPrice": "0xf42bb",
      "from": "0x73d43dd9ac2c0fd004286f7a13f51bec163efb2c",
      "to": "0x036cbd53842c5426634e7929541ec2318f3dcf7e",
      "contractAddress": null,
      "l1BaseFeeScalar": "0x44d",
      "l1BlobBaseFee": "0x1",
      "l1BlobBaseFeeScalar": "0xa118b",
      "l1Fee": "0x51",
      "l1GasPrice": "0x9",
      "l1GasUsed": "0x640"
    },
    {
      "status": "0x1",
      "cumulativeGasUsed": "0x7b0c5f",
      "logs": [
        {
          "address": "0x4200000000000000000000000000000000000006",
          "topics": [
            "0x8c5be1e5ebec7d5bd14f71427d1e84f3dd0314c0f7b2291e5b200ac8c7c3b925",
            "0x00000000000000000000000073d43dd9ac2c0fd004286f7a13f51bec163efb2c",
            "0x00000000000000000000000027f971cb582bf9e50f397e4d29a5c7a34f11faa2"
          ],
          "data": "0x00000000000000000000000000000000000000000000000000038d7ea4c68000",
          "blockHash": "0x52e6f3a382c6ac7651d0097ce75d02304823fb5ba04d0ed04e245d26963576e6",
          "blockNumber": "0x1ee55b1",
          "blockTimestamp": "0x68f00a42",
          "transactionHash": "0xbf2449385a0e1d8b89ff297287d853a0aef27040b031036ab96b2744029d4e14",
          "transactionIndex": "0x25",
          "logIndex": "0x109",
          "removed": false
        }
      ],
      "logsBloom": "0x00000000000000000000000000000000000000000000400000040000000000000000000000000000000000100000000000000000000000000000010000200000000000000000000000000000000000000000000000000000000000000000000000000000000000000000000000000000000000000000000010000000000000000000000000000000000100000000000008000000002000000000000000000000020000000000000000000000000000000000000000000020000000000000000000000000000000000000000000000000000000000000000000000000000000000010000000000000000000000000000000000000000000000000000000000000",
      "type": "0x2",
      "transactionHash": "0xbf2449385a0e1d8b89ff297287d853a0aef27040b031036ab96b2744029d4e14",
      "transactionIndex": "0x25",
      "blockHash": "0x52e6f3a382c6ac7651d0097ce75d02304823fb5ba04d0ed04e245d26963576e6",
      "blockNumber": "0x1ee55b1",
      "gasUsed": "0x7103",
      "effectiveGasPrice": "0xf42bb",
      "from": "0x73d43dd9ac2c0fd004286f7a13f51bec163efb2c",
      "to": "0x4200000000000000000000000000000000000006",
      "contractAddress": null,
      "l1BaseFeeScalar": "0x44d",
      "l1BlobBaseFee": "0x1",
      "l1BlobBaseFeeScalar": "0xa118b",
      "l1Fee": "0x51",
      "l1GasPrice": "0x9",
      "l1GasUsed": "0x640"
    },
    {
      "status": "0x1",
      "cumulativeGasUsed": "0x80dd0b",
      "logs": [
        {
          "address": "0x036cbd53842c5426634e7929541ec2318f3dcf7e",
          "topics": [
            "0xddf252ad1be2c89b69c2b068fc378daa952ba7f163c4a11628f55a4df523b3ef",
            "0x00000000000000000000000073d43dd9ac2c0fd004286f7a13f51bec163efb2c",
            "0x00000000000000000000000046880b404cd35c165eddeff7421019f8dd25f4ad"
          ],
          "data": "0x000000000000000000000000000000000000000000000000000000000027ac11",
          "blockHash": "0x52e6f3a382c6ac7651d0097ce75d02304823fb5ba04d0ed04e245d26963576e6",
          "blockNumber": "0x1ee55b1",
          "blockTimestamp": "0x68f00a42",
          "transactionHash": "0x5283ef5ea3f7536b4878d5a772eeba94cc99ebc1c69c86b5d5d06f5339e8d499",
          "transactionIndex": "0x26",
          "logIndex": "0x10a",
          "removed": false
        },
        {
          "address": "0x4200000000000000000000000000000000000006",
          "topics": [
            "0xddf252ad1be2c89b69c2b068fc378daa952ba7f163c4a11628f55a4df523b3ef",
            "0x00000000000000000000000073d43dd9ac2c0fd004286f7a13f51bec163efb2c",
            "0x00000000000000000000000046880b404cd35c165eddeff7421019f8dd25f4ad"
          ],
          "data": "0x00000000000000000000000000000000000000000000000000038d7ea4c66c7c",
          "blockHash": "0x52e6f3a382c6ac7651d0097ce75d02304823fb5ba04d0ed04e245d26963576e6",
          "blockNumber": "0x1ee55b1",
          "blockTimestamp": "0x68f00a42",
          "transactionHash": "0x5283ef5ea3f7536b4878d5a772eeba94cc99ebc1c69c86b5d5d06f5339e8d499",
          "transactionIndex": "0x26",
          "logIndex": "0x10b",
          "removed": false
        },
        {
          "address": "0x46880b404cd35c165eddeff7421019f8dd25f4ad",
          "topics": [
            "0x7a53080ba414158be7ec69b987b5fb7d07dee101fe85488f0853ae16239d0bde",
            "0x00000000000000000000000027f971cb582bf9e50f397e4d29a5c7a34f11faa2",
            "0xfffffffffffffffffffffffffffffffffffffffffffffffffffffffffff2764c",
            "0x00000000000000000000000000000000000000000000000000000000000d89b4"
          ],
          "data": "0x00000000000000000000000027f971cb582bf9e50f397e4d29a5c7a34f11faa20000000000000000000000000000000000000000000000000000000bdf397e70000000000000000000000000000000000000000000000000000000000027ac1100000000000000000000000000000000000000000000000000038d7ea4c66c7c",
          "blockHash": "0x52e6f3a382c6ac7651d0097ce75d02304823fb5ba04d0ed04e245d26963576e6",
          "blockNumber": "0x1ee55b1",
          "blockTimestamp": "0x68f00a42",
          "transactionHash": "0x5283ef5ea3f7536b4878d5a772eeba94cc99ebc1c69c86b5d5d06f5339e8d499",
          "transactionIndex": "0x26",
          "logIndex": "0x10c",
          "removed": false
        },
        {
          "address": "0x27f971cb582bf9e50f397e4d29a5c7a34f11faa2",
          "topics": [
            "0xddf252ad1be2c89b69c2b068fc378daa952ba7f163c4a11628f55a4df523b3ef",
            "0x0000000000000000000000000000000000000000000000000000000000000000",
            "0x00000000000000000000000073d43dd9ac2c0fd004286f7a13f51bec163efb2c",
            "0x0000000000000000000000000000000000000000000000000000000000011577"
          ],
          "data": "0x",
          "blockHash": "0x52e6f3a382c6ac7651d0097ce75d02304823fb5ba04d0ed04e245d26963576e6",
          "blockNumber": "0x1ee55b1",
          "blockTimestamp": "0x68f00a42",
          "transactionHash": "0x5283ef5ea3f7536b4878d5a772eeba94cc99ebc1c69c86b5d5d06f5339e8d499",
          "transactionIndex": "0x26",
          "logIndex": "0x10d",
          "removed": false
        },
        {
          "address": "0x27f971cb582bf9e50f397e4d29a5c7a34f11faa2",
          "topics": [
            "0x3067048beee31b25b2f1681f88dac838c8bba36af25bfb2b7cf7473a5847e35f",
            "0x0000000000000000000000000000000000000000000000000000000000011577"
          ],
          "data": "0x0000000000000000000000000000000000000000000000000000000bdf397e70000000000000000000000000000000000000000000000000000000000027ac1100000000000000000000000000000000000000000000000000038d7ea4c66c7c",
          "blockHash": "0x52e6f3a382c6ac7651d0097ce75d02304823fb5ba04d0ed04e245d26963576e6",
          "blockNumber": "0x1ee55b1",
          "blockTimestamp": "0x68f00a42",
          "transactionHash": "0x5283ef5ea3f7536b4878d5a772eeba94cc99ebc1c69c86b5d5d06f5339e8d499",
          "transactionIndex": "0x26",
          "logIndex": "0x10e",
          "removed": false
        }
      ],
      "logsBloom": "0x00000000040000000000100000000400000000000000400000040000000000000000400000000040002000100000000000000000000000000400410000080000000000000000000000000008080000000000000000000000000000000000000800000000020000000000000000000800000000000800000010000010000000000000000008000000000100000000000008040008002000000000002000000000000200804000000000000000000000020000000000000020000000008000000000000002020000000000080000000004000000000000000000000000000120000000000000000000000000000020000000000000000000000000000000000800",
      "type": "0x2",
      "transactionHash": "0x5283ef5ea3f7536b4878d5a772eeba94cc99ebc1c69c86b5d5d06f5339e8d499",
      "transactionIndex": "0x26",
      "blockHash": "0x52e6f3a382c6ac7651d0097ce75d02304823fb5ba04d0ed04e245d26963576e6",
      "blockNumber": "0x1ee55b1",
      "gasUsed": "0x5d0ac",
      "effectiveGasPrice": "0xf42bb",
      "from": "0x73d43dd9ac2c0fd004286f7a13f51bec163efb2c",
      "to": "0x27f971cb582bf9e50f397e4d29a5c7a34f11faa2",
      "contractAddress": null,
      "l1BaseFeeScalar": "0x44d",
      "l1BlobBaseFee": "0x1",
      "l1BlobBaseFeeScalar": "0xa118b",
      "l1Fee": "0x51",
      "l1GasPrice": "0x9",
      "l1GasUsed": "0xa40"
    }
  ],
  "libraries": [],
  "pending": [],
  "returns": {},
  "timestamp": 1760561729420,
  "chain": 84532,
  "commit": "650dba8"
}